:10000000C0000120E10200007D0300007D0300002C
:100010007D0300007D0300007D0300000000000060
:100020000000000000000000000000007D03000050
:100030007D030000000000007D0300007D03000040
:100040007D0300007D0300007D0300007D030000B0
:100050007D0300007D0300007D0300007D030000A0
:100060007D0300007D0300007D0300007D03000090
:100070007D0300007D0300007D0300007D03000080
:100080007D0300007D0300007D0300007D03000070
:100090007D0300007D0300007D0300007D03000060
:1000A0007D0300007D0300007D0300007D03000050
:1000B0007D0300007D0300007D0300007D03000040
:1000C0007D0300007D0300007D0300007D03000030
:1000D0007D0300007D0300007D0300007D03000020
:1000E0007D0300007D030000000000000000000010
:1000F000000000001D1600007D0300007D030000CD
:100100007D0300007D0300007D0300007D030000EF
:100110007D0300007D0300007D0300007D030000DF
:100120007D0300007D0300007D0300007D030000CF
:100130007D0300007D0300007D0300007D030000BF
:100140007D0300007D0300007D0300007D030000AF
:100150007D0300007D0300007D0300007D0300009F
:100160007D0300007D0300007D0300007D0300008F
:100170007D0300007D0300007D0300007D0300007F
:100180007D0300007D0300007D0300007D0300006F
:100190007D0300007D0300007D0300007D0300005F
:1001A0007D0300007D0300007D0300007D0300004F
:1001B0007D0300007D0300007D0300007D0300003F
:1001C0007D0300007D0300007D0300007D0300002F
:1001D0007D0300007D0300007D0300007D0300001F
:1001E0007D0300007D0300007D0300007D0300000F
:1001F0007D0300007D0300007D0300007D030000FF
:100200007D0300007D0300007D0300007D030000EE
:100210007D0300007D0300007D0300007D030000DE
:100220007D0300007D0300007D0300007D030000CE
:100230007D0300007D0300007D0300007D030000BE
:100240007D0300007D0300007D0300007D030000AE
:100250007D0300007D0300007D0300007D0300009E
:100260007D03000010B5054C237833B9044B13B15E
:100270000448AFF300800123237010BD300000203C
:1002800000000000343400000C4B43B10C480D4911
:1002900010B5AFF300800C48036823B910BD0A48BD
:1002A000036833B97047094B002BF7D0BDE8104005
:1002B0001847064B002BF5D0184700BF0000000080
:1002C000343400003400002034340000000000000A
:1002D00080B500AF014B984700BF80BDA10B000067
:1002E00080B582B000AF1C4B7B601C4B3B607A68D2
:1002F0003B689A420CD007E03B681A1D3A607A6866
:10030000111D796012681A603B68154A9342F3D355
:10031000144B3B6004E03B681A1D3A6000221A60EF
:100320003B68114A9342F6D3104B7B60104A7B68BE
:1003300023F07F0393600E4A0D4BD3F8883043F4CB
:100340007003C2F88830BFF34F8FBFF36F8F094B34
:100350009847094B9847FEE734340000000000201E
:100360003000002030000020BC0000200000000011
:1003700000ED00E0F93200008530000080B400AFED
:10038000FEE780B485B000AFF8600B467A60FB7280
:10039000FA7AFB682032796843F8221000BF1437DC
:1003A000BD465DF8047B704780B483B000AF7860D1
:1003B0007B689B6943F400727B689A6100BF0C37CD
:1003C000BD465DF8047B704780B483B000AF7860B1
:1003D0007B681B6A43F004027B681A6200BF0C371B
:1003E000BD465DF8047B704780B483B000AF786091
:1003F0007B681B6A43F008027B681A6200BF0C37F7
:10040000BD465DF8047B704780B485B000AFF860EE
:100410000B467A60FB72FB7AFA68DB0113440833FF
:100420007A681A6000BF1437BD465DF8047B7047D8
:1004300080B485B000AFF8600B467A60FB72FB7A3F
:10044000FA68DB01134404337A681A6000BF14377A
:10045000BD465DF8047B704780B485B000AFF8609E
:100460000B467A60FB72FB7AFA68DB01134418339F
:100470007A681A6000BF1437BD465DF8047B704788
:1004800080B485B000AFF8600B467A60FB72FB7AEF
:10049000FA68DB01134414337A681A6000BF14371A
:1004A000BD465DF8047B704780B485B000AF7860CE
:1004B000084611461A460346FB700B46BB701346AE
:1004C0007B70FA78BB787968D2010A4413443033E0
:1004D0001B78FB73FB7B23F00F03FB737B7803F02C
:1004E0000F03DAB2FB7B1343FB73FA78BB787968AE
:1004F000D2010A4413443033FA7B1A7000BF143718
:10050000BD465DF8047B704780B485B000AF78606D
:10051000084611461A460346FB700B46BB7013464D
:100520007B70FA78BB787968D2010A44134430337F
:100530001B78FB73FB7B03F00F03FB737B781B01C2
:10054000DAB2FB7B1343FB73FA78BB787968D2018C
:100550000A4413443033FA7B1A7000BF1437BD4687
:100560005DF8047B704780B485B000AF78600846C2
:1005700011461A460346FB700B46BB7013467B7050
:10058000FA78BB787968D2010A44134440331B7867
:10059000FB73FB7B23F00103FB737A78FB7B134334
:1005A000FB73FA78BB787968D2010A44134440336C
:1005B000FA7B1A7000BF1437BD465DF8047B7047A4
:1005C00090B482B000AF78600B46FB701346BB70EE
:1005D000FA78BB78F878B9787C68C0012044014487
:1005E00040310978C9B241F00401C8B27968D2013A
:1005F0000A441344403302461A7000BF0837BD4610
:1006000090BC704790B482B000AF78600B46FB702E
:100610001346BB70FA78BB78F878B9787C68C0016B
:100620002044014440310978C9B221F00401C8B224
:100630007968D2010A441344403302461A7000BF5D
:100640000837BD4690BC704780B485B000AFF860F5
:100650000B467A60FB72FB7AFA68DB01134428339D
:100660007A681A6000BF1437BD465DF8047B704796
:1006700080B582B000AF03463960FB711346BB7191
:10068000BB79012B1CD0022B37D0002B4ED1FB792C
:100690003A6819462A482B4B98473B689BB243F06F
:1006A0008042FB7919462648274B98473B681B0C2C
:1006B00043F04042FB7919462148234B98473AE0E2
:1006C000FB793A6819461E481E4B98473B689BB217
:1006D00043F0804343F40033F9791A4618481A4B23
:1006E00098473B681B0C43F0404343F40033F979CF
:1006F0001A461348144B98471DE0FB793A6819468F
:100700000F48124B98473B689BB243F08042FB79FD
:1007100019460B480C4B98473B681B0C43F0404272
:10072000FB7919460648084B984704E046220849D9
:100730000020084B984700BF0837BD4680BD00BF6A
:100740000080004131040000490600000904000057
:10075000403300002D13000080B582B000AF034687
:100760003960FB711346BB71BB79002B06D0FB7956
:100770003A6819460648074B984705E0FB793A68FE
:1007800019460348044B984700BF0837BD4680BD53
:1007900000800041590400008104000080B582B04F
:1007A00000AF0346FB710B46BB7113467B717B792F
:1007B000012B0AD0022B1FD0002B34D1BA79FB7940
:1007C00019461E481E4B984733E0BB7901229A40D8
:1007D000FB79194619481B4B9847BA79FB7919469A
:1007E0001648194B9847BB7901229A40FB79194664
:1007F0001248164B98471CE0BB7901229A40FB79BE
:1008000019460E480F4B9847BA79FB7919460B48A1
:100810000D4B9847BB7901229A40FB79194607484E
:100820000B4B984705E089220A4900200A4B98475C
:1008300000BF00BF0837BD4680BD00BF008000413B
:100840000506000031040000C10500005904000045
:1008500081040000403300002D13000090B585B0E6
:1008600000AF786039607B685B09FB737B68DBB243
:1008700003F01F03BB733B68B3F1FF3F06D1BA7BA4
:10088000F97B00231248134CA0471DE0BA7BF97B8B
:1008900001230F480F4CA047BB7B03F00103002B43
:1008A00009D0BB7B5B08DAB23B68DBB2F97B084856
:1008B000094CA04708E0BB7B5B08DAB23B68DBB2BF
:1008C000F97B0348054CA04700BF1437BD4690BDD7
:1008D000008000416705000009050000A904000030
:1008E00080B582B000AF03460A46FB711346BB7168
:1008F000FB795B09D8B2FB7903F01F03DBB2BA794D
:100900001946034B984700BF0837BD4680BD00BF5E
:100910009D07000080B582B000AF7860396039680B
:100920007868034B984700BF0837BD4680BD00BFBD
:100930005D08000080B582B000AF03460A46FB7137
:100940001346BB71FB795B09D8B2FB7903F01F0337
:10095000012202FA03F3BA791946034B984700BF04
:100960000837BD4680BD00BF7106000080B582B06B
:1009700000AF03460A46FB711346BB71FB795B0966
:10098000D8B2FB7903F01F03012202FA03F3BA790C
:100990001946034B984700BF0837BD4680BD00BFCE
:1009A0005907000080B500AF014B984700BF80BDDC
:1009B0008913000080B500AF04493920044B9847E3
:1009C00004493820024B984700BF80BD030039001E
:1009D000150900000300380080B500AF4022172140
:1009E0000648074B9847432203210448044B984785
:1009F0000448054B984700BF80BD00BF001C004065
:100A00008303000000080040A903000080B500AF88
:100A1000054B9847002205490548064B9847064B69
:100A2000984700BF80BD00BFD909000000200141E8
:100A30005C000020DD100000B509000080B500AFAB
:100A400000214420114B984702214420104B984725
:100A500010494420104B9847002145200B4B9847E4
:100A6000022145200A4B98470C4945200A4B9847DC
:100A700001214620064B984700214620084B984705
:100A800008494620044B984700BF80BD6D0900000F
:100A9000350900000200440015090000020045006D
:100AA000E10800000200460080B500AF402224218A
:100AB0000648074B9847432203210448044B9847B4
:100AC0000448054B984700BF80BD00BF001C004094
:100AD0008303000000080040C903000080B500AF98
:100AE000044B984704490548054B9847054B9847E0
:100AF00000BF80BDA90A0000000800436800002074
:100B0000C50E00003D0A000080B500AF002168203E
:100B1000074B984707496820074B984700216920F1
:100B2000034B984705496920034B984700BF80BD98
:100B3000E1080000020068001509000002006900D9
:100B400080B500AF402225210648074B9847432235
:100B500003210448044B98470448054B984700BFBD
:100B600080BD00BF001C004083030000000800405F
:100B7000E903000080B500AF044B984704490548DD
:100B8000054B9847054B984700BF80BD410B0000BF
:100B9000000C004380000020490D0000090B0000FC
:100BA00080B500AF384B984701212120374B98473B
:100BB00002212120364B98474FF0FF312120354B41
:100BC000984700212420314B984702212420304BA4
:100BD00098474FF0FF3124202E4B984701212520C4
:100BE0002B4B9847012125202B4B98474FF0FF3185
:100BF0002520284B984701212620254B9847012185
:100C00002620254B98474FF0FF312620214B98474F
:100C100001212E201E4B984701212E201E4B984764
:100C20004FF0FF312E201B4B984701212F20184BEE
:100C3000984701212F20184B98474FF0FF312F2064
:100C4000144B984701213F20114B984701213F2029
:100C5000114B98474FF0FF313F200E4B9847002132
:100C600052200A4B984702215220094B98474FF0D7
:100C7000FF315220074B9847084B9847084B98473D
:100C8000084B984700BF80BDA50900006D09000012
:100C90003509000015090000E10800000D0A0000F8
:100CA000DD0A0000750B000080B58AB000AFF86067
:100CB000B9601346FB80FB68143B7B627B6A9B8BAD
:100CC000BB82FB88BB6148F20103FB82BB68FB610E
:100CD0007B6A07F1140211461846064B98473862A2
:100CE0003B6A002B01D03B6A00E0FB88184628379E
:100CF000BD4680BD3127000080B58AB000AFF860E6
:100D0000B9601346FB80FB68143B7B627B6A9B8B5C
:100D1000BB82FB88BB614FF40043FB82BB68FB6175
:100D20007B6A07F1140211461846064B9847386251
:100D30003B6A002B01D03B6A00E0FB88184628374D
:100D4000BD4680BD3127000080B584B000AF78601B
:100D500039607B68002B14BF01230023DBB25E22C5
:100D60000C4918460C4B98477B68396818460B4B62
:100D70009847F860FB68002B01D0FB6806E07B68B1
:100D8000074A9A617B68074A5A6100231846103760
:100D9000BD4680BD5C3300002D1300002D250000F2
:100DA000A90C0000F90C000080B582B000AF78609B
:100DB0007B681846034B9847034618460837BD46DC
:100DC00080BD00BF7525000080B485B000AFF8601D
:100DD0000B467A607B817B89C3F309031AB27B6877
:100DE0001BB203F480631BB213431BB29AB2FB68BD
:100DF0009A83FB689B8B18461437BD465DF8047BCD
:100E0000704780B483B000AF786039607B6803F1CD
:100E100014023B681A60002318460C37BD465DF883
:100E2000047B704780B584B000AFF860B9601346AA
:100E3000FB80FB68002B04D0BB68002B01D0012392
:100E400000E0002303F00103DBB234220749184617
:100E5000074B9847FB681B68FA88B968F868984799
:100E6000034618461037BD4680BD00BF78330000EA
:100E70002D13000080B584B000AFF860B960134650
:100E8000FB80FB68002B04D0BB68002B01D0012342
:100E900000E0002303F00103DBB23D2207491846BE
:100EA000074B9847FB685B68FA88B968F868984709
:100EB000034618461037BD4680BD00BF783300009A
:100EC0002D13000080B584B000AF78603960002336
:100ED000FB607B68002B04D03B68002B01D0012312
:100EE00000E0002303F00103DBB240221049184662
:100EF000104B98477B683A685A607B6804333968BE
:100F000018460D4B9847F860FB68002B01DAFB6828
:100F10000AE07B684FF400429A827B68074A1A61B4
:100F20007B68074ADA60002318461037BD4680BD4B
:100F30008C3300002D130000ED2B0000810F00000A
:100F4000D90F000080B582B000AF78607B68002BBD
:100F500014BF01230023DBB2572206491846064B73
:100F600098477B6804331846044B984700BF0837FE
:100F7000BD4680BD8C3300002D130000F92C00000D
:100F800080B588B000AFF860B9601346FB80FB689D
:100F9000002B14BF01230023DBB287220B49184624
:100FA0000B4B9847FB680C3BFB61BB687B610023E4
:100FB0003B61FB88BB6107F110031946F869054BDB
:100FC0009847034618462037BD4680BD8C33000045
:100FD0002D1300003110000080B588B000AFF8601C
:100FE000B9601346FB80FB68002B14BF012300236C
:100FF000DBB2A3220B4918460B4B9847FB680C3B0E
:10100000FB6100237B61BB683B61FB88BB6107F12F
:1010100010031946F869054B9847034618462037D0
:10102000BD4680BD8C3300002D1300003110000040
:1010300080B586B000AF786039607B68002B04D043
:101040003B68002B01D0012300E0002303F00103E3
:10105000DBB2B3220C4918460C4B98473B681B681F
:10106000FB603B685B683B613B689B687B617B68BE
:10107000043307F10C0211461846054B9847034606
:1010800018461837BD4680BD8C3300002D13000074
:101090009D2E000080B582B000AF786039607B681B
:1010A000002B04D03B68002B01D0012300E000237B
:1010B00003F00103DBB2BD2206491846064B9847F0
:1010C0007B6803F10C023B681A600023184608375E
:1010D000BD4680BD8C3300002D13000080B586B066
:1010E00000AFF860B9607A60FB68002B04D0BB6881
:1010F000002B01D0012300E0002303F00103DBB249
:1011000034220D4918460D4B9847FB680833B968DF
:1011100018460B4B984778617B69002B01D07B699F
:1011200006E0FB68074A5A60FB68074A1A6000231A
:1011300018461837BD4680BDA83300002D130000A7
:10114000E91E000099120000D111000080B582B0A4
:1011500000AF78607B68002B14BF01230023DBB253
:10116000532207491846074B98477B6808331846AF
:10117000054B9847002318460837BD4680BD00BF81
:10118000A83300002D1300002D1F000080B582B091
:1011900000AF786039607B68002B04D03B68002B7F
:1011A00001D0012300E0002303F00103DBB2692238
:1011B00005491846054B98477A683B681A60002332
:1011C00018460837BD4680BDA83300002D13000027
:1011D00080B586B000AFF860B9601346FB8000238D
:1011E0007B61FB683B61FB68002B07D0BB68002B71
:1011F00004D0FB88002B01D0012300E0002303F082
:101200000103DBB2F1221F4918461F4B984700BF6C
:101210003B69083318461D4B9847034683F001038A
:10122000DBB2002BF4D13B6903F10800BA687B699B
:1012300013441B781946164B984700BF3B69083387
:101240001846124B9847034683F00103DBB2002B8C
:10125000F4D17B6901337B61FB887A699A42E2D3DE
:1012600000BF3B69083318460A4B9847034683F092
:101270000103DBB2002BF4D17B6918461837BD4659
:1012800080BD00BFA83300002D130000991F00008F
:101290004D1F0000B91F000090B587B000AFF86087
:1012A000B9601346FB8000237B61FB683B61FB68F0
:1012B000002B07D0BB68002B04D0FB88002B01D08B
:1012C000012300E0002303F00103DBB24FF4867238
:1012D00012491846124B984700BF3B69083318461D
:1012E000104B9847034683F00103DBB2002BF4D187
:1012F000BA687B69D4183B69083318460A4B98478B
:10130000034623707B6901337B61FB887A699A42CB
:10131000E2D37B6918461C37BD4690BDA833000058
:101320002D130000D91F0000751F000080B485B088
:1013300000AF0346B9607A60FB73FB7B83F0010367
:10134000DBB2002B00D000BE00BF1437BD465DF8F5
:10135000047B704780B483B000AF78600B467B801D
:101360007B681B889AB27B881B029BB203F4706374
:101370009BB213439AB27B681A8000BF0C37BD46FC
:101380005DF8047B7047000080B500AF002108487D
:10139000084B9847084B9847084B9847084B984785
:1013A000084B984740F6FF70074B984700BF80BD39
:1013B0000040004155130000F51400008D15000099
:1013C00071140000CD1500002114000080B483B01A
:1013D00000AF7860396000BF7B685A683B68134093
:1013E000002BF9D100BF0C37BD465DF8047B704778
:1013F00080B584B000AFF8600B467A60FB72FA7A71
:10140000FB680832796843F8221043F6FD71F868EA
:10141000024B984700BF1037BD4680BDCD1300007A
:1014200080B582B000AF78607B6803F00103002BC9
:1014300004D0044A00210448044B984700BF0837F1
:10144000BD4680BD01010100001C0040F1130000F9
:1014500080B483B000AF78600B46FB707B68FA788D
:101460005A7100BF0C37BD465DF8047B7047000021
:1014700080B582B000AF054B7B6001217868044BDA
:10148000984700BF0837BD4680BD00BF0008004038
:101490005114000080B483B000AF78600B46FB703D
:1014A0007B68FA781A7400BF0C37BD465DF8047B80
:1014B000704780B485B000AF78607B68DB69FB6003
:1014C000FB681B0A03F03F03FB60FB6818461437F8
:1014D000BD465DF8047B704780B483B000AF786090
:1014E00039607B683A68DA6100BF0C37BD465DF849
:1014F000047B704780B582B000AF0C4B7B6000234B
:101500007B8078680A4B984703467B807B881B0268
:1015100003F47C5319467868064B98470121786894
:10152000054B984700BF0837BD4680BD00140040FA
:10153000B3140000D91400009514000080B483B0E7
:1015400000AF78607B681B695B0803F00103002B28
:1015500014BF01230023DBB218460C37BD465DF8EB
:10156000047B704780B485B000AFF8600B467A60AA
:10157000FB72FB7AFA6804339B0013447A685A6062
:1015800000BF1437BD465DF8047B704780B582B05C
:1015900000AF0A4B7B600A4A01217868094B9847E3
:1015A00000BF7868084B9847034683F00103DBB21D
:1015B000002BF6D100BF0837BD4680BD00100040AB
:1015C00006260003651500003D15000080B483B0B9
:1015D00000AF044B7B6000BF0C37BD465DF8047B59
:1015E000704700BF0010004080B483B000AF786047
:1015F0007B689B78DBB218460C37BD465DF8047BF0
:10160000704780B483B000AF78607B685B68184631
:101610000C37BD465DF8047B7047000090B583B081
:1016200000AF174B7B601748174B984703463B604A
:101630003B6803F00203002B0CD07B681B68002B77
:1016400008D07B681C680F48104B98470346184623
:10165000A04712E03B6803F00103002B0CD07B682D
:101660005B68002B08D07B685C680648074B98478E
:1016700003461846A04700E000BF0C37BD4690BDAA
:10168000A000002000000241E91500000316000040
:1016900080B483B000AF7860396000BF7B68DA69DE
:1016A0003B681340002BF9D100BF0C37BD465DF8F5
:1016B000047B704780B483B000AF786039607B688A
:1016C000DA693B681340002B14BF01230023DBB20F
:1016D00018460C37BD465DF8047B704780B483B074
:1016E00000AF7860396000BF7B68DA693B681340FF
:1016F000002BF9D100BF0C37BD465DF8047B704765
:1017000080B483B000AF786039607B68DA693B6889
:101710001340002B14BF01230023DBB218460C3703
:10172000BD465DF8047B704780B483B000AF78603D
:10173000396000BF7B68DA693B681340002BF9D140
:1017400000BF0C37BD465DF8047B704780B483B0A2
:1017500000AF786039607B68DA693B681340002B22
:1017600014BF01230023DBB218460C37BD465DF8D9
:10177000047B704780B483B000AF78607B6801223F
:101780001A7600BF0C37BD465DF8047B704780B405
:1017900083B000AF78607B6802221A7600BF0C37F6
:1017A000BD465DF8047B704780B483B000AF7860BD
:1017B0007B681B7EDBB218460C37BD465DF8047BA8
:1017C000704780B485B000AF78600B46FB707B68D3
:1017D0001B7EFB73FA7BFB781340FB73FB7B184685
:1017E0001437BD465DF8047B704780B483B000AF0A
:1017F00078607B681B7EDBB218460C37BD465DF80F
:10180000047B704780B483B000AF78600B46FB70F8
:101810007B68FA781A7600BF0C37BD465DF8047B0A
:10182000704780B483B000AF78607B681B7EDBB20A
:1018300003F00103002B14BF01230023DBB2184681
:101840000C37BD465DF8047B704780B483B000AFB1
:1018500078607B681B7EDBB25B0803F00103002B22
:1018600014BF01230023DBB218460C37BD465DF8D8
:10187000047B704780B483B000AF78607B681B7EC8
:10188000DBB29B0803F00103002B14BF01230023EC
:10189000DBB218460C37BD465DF8047B704700008C
:1018A00080B582B000AF78607B681B6843F00202AD
:1018B0007B681A6003217868024B984700BF08379D
:1018C000BD4680BD9116000080B582B000AF786043
:1018D0007B681B6823F002027B681A60032178682A
:1018E000024B984700BF0837BD4680BD91160000E7
:1018F00080B485B000AF78607B681B68FB60FB68D4
:10190000DB0E03F00103FB60FB68002B14BF012317
:101910000023DBB218461437BD465DF8047B7047E0
:1019200080B584B000AF7860396003217868074BD8
:1019300098477B681B68FB60FA683B681340FB6054
:10194000FB6818461037BD4680BD00BF91160000E9
:1019500080B582B000AF786039607B683A681A6001
:1019600003217868024B984700BF0837BD4680BD09
:101970009116000080B582B000AF78607B681B686C
:1019800043F002027B681A6003217868024B984793
:1019900000BF0837BD4680BDDD16000080B584B0AD
:1019A00000AF786003217868094B98477B681B6813
:1019B000FB60FB685B0803F00103FB60FB68002B26
:1019C00014BF01230023DBB218461037BD4680BD8B
:1019D000DD16000080B582B000AF78607B681B68C0
:1019E00023F002027B681A6003217868024B984753
:1019F00000BF0837BD4680BDDD16000080B584B04D
:101A000000AF7860396003217868074B98477B689E
:101A10001B68FB60FA683B681340FB60FB68184674
:101A20001037BD4680BD00BFDD16000080B582B016
:101A300000AF786039607B683A681A600321786883
:101A4000024B984700BF0837BD4680BDDD16000039
:101A500080B582B000AF78607B681B6843F00202FB
:101A60007B681A6003217868024B984700BF0837EB
:101A7000BD4680BD2917000080B582B000AF7860F8
:101A80007B681B6823F002027B681A600321786878
:101A9000024B984700BF0837BD4680BD291700009C
:101AA00080B584B000AF7860396003217868074B57
:101AB00098477B681B68FB60FA683B681340FB60D3
:101AC000FB6818461037BD4680BD00BF29170000CF
:101AD00080B582B000AF786039607B683A681A6080
:101AE00003217868024B984700BF0837BD4680BD88
:101AF0002917000080B582B000AF78607B685B6812
:101B000043F480727B685A6004217868024B9847DE
:101B100000BF0837BD4680BD9116000080B582B079
:101B200000AF78607B685B6823F480727B685A60E2
:101B300004217868024B984700BF0837BD4680BD36
:101B40009116000080B582B000AF78607B685B685A
:101B500043F480227B685A6004217868024B9847DE
:101B600000BF0837BD4680BD9116000080B582B029
:101B700000AF78607B685B6823F480227B685A60E2
:101B800004217868024B984700BF0837BD4680BDE6
:101B90009116000080B582B000AF786039607B6834
:101BA0005A683B681B0403F440331A437B685A604D
:101BB00004217868024B984700BF0837BD4680BDB6
:101BC0009116000080B582B000AF786039607B6804
:101BD0003A685A6004217868024B984700BF08377A
:101BE000BD4680BD9116000080B582B000AF786020
:101BF00039607B683A685A6017217868024B9847C9
:101C000000BF0837BD4680BDDD16000080B582B03C
:101C100000AF786039607B683A685A601F21786845
:101C2000024B984700BF0837BD4680BD291700000A
:101C300080B483B000AF786039607B683A689A609E
:101C400000BF0C37BD465DF8047B704780B483B09D
:101C500000AF786039607B683A68DA6000BF0C37A3
:101C6000BD465DF8047B704780B483B000AF7860F8
:101C70000B46FB707B68FA781A7300BF0C37BD46C1
:101C80005DF8047B704780B483B000AF78600B468A
:101C90007B807B687A889A8100BF0C37BD465DF8EF
:101CA000047B704780B483B000AF78600B46FB7054
:101CB0007B68FA789A7300BF0C37BD465DF8047BE9
:101CC0007047000080B584B000AF78600B46FB70B1
:101CD0007B685B6AFB60FB6823F48043FB60FB78F6
:101CE0009B031A46FB681343FB607B68FA685A62E1
:101CF00004217868024B984700BF1037BD4680BD6D
:101D00009116000080B582B000AF786039607B68C2
:101D10003A685A6204217868024B984700BF083736
:101D2000BD4680BD9116000080B582B000AF7860DE
:101D300004217868034B98477B685B6A184608372C
:101D4000BD4680BD9116000080B483B000AF7860BE
:101D500039607B683A685A6200BF0C37BD465DF84F
:101D6000047B704780B582B000AF786039607B68D3
:101D70003A689A6204217868024B984700BF083796
:101D8000BD4680BD9116000080B582B000AF78607E
:101D900004217868034B98477B689B6A184608378C
:101DA000BD4680BD9116000080B483B000AF78605E
:101DB00039607B683A689A6200BF0C37BD465DF8AF
:101DC000047B704780B483B000AF78607B689B6A07
:101DD00018460C37BD465DF8047B704780B483B06D
:101DE00000AF786039607B683A689A6200BF0C3750
:101DF000BD465DF8047B704780B483B000AF786067
:101E00007B689B6A18460C37BD465DF8047B7047BB
:101E100080B483B000AF78600B46FB707B68FA78C3
:101E200083F8302000BF0C37BD465DF8047B704757
:101E300080B483B000AF78600B46FB707B68FA78A3
:101E400083F8302000BF0C37BD465DF8047B704737
:101E500080B483B000AF78600B467B807B687A8863
:101E60005A8300BF0C37BD465DF8047B7047000005
:101E700080B582B000AF786004217868064B98473F
:101E80007B685B8B9BB21B099BB203F003039BB285
:101E900018460837BD4680BD9116000080B582B057
:101EA00000AF786004217868044B98477B685B8BAF
:101EB0009BB218460837BD4680BD00BF9116000092
:101EC00080B582B000AF78600B467B807B687A88F3
:101ED0005A8304217868034B984700BF0837BD46F2
:101EE00080BD00BF9116000080B582B000AF786061
:101EF00039607B68002B14BF01230023DBB2BB22B7
:101F000007491846074B98477B683A681A60386853
:101F1000054B9847034618460837BD4680BD00BFAD
:101F2000C43300002D130000B920000080B582B03A
:101F300000AF78607B681B681846034B984700BF6A
:101F40000837BD4680BD00BF511A000080B582B081
:101F500000AF78600B46FB707B681B68FA7811460F
:101F60001846034B984700BF0837BD4680BD00BFE9
:101F7000DD1D000080B582B000AF78607B681B6813
:101F80001846044B98470346DBB218460837BD464F
:101F900080BD00BFF91D000080B582B000AF786041
:101FA0007B681B681846034B98470346184608375A
:101FB000BD4680BD2318000080B582B000AF7860B8
:101FC0007B681B681846034B98470346184608373A
:101FD000BD4680BD4B18000080B582B000AF786070
:101FE0007B681B681846034B98470346184608371A
:101FF000BD4680BD75180000B0B48DB000AF7860EC
:10200000134B07F10C041D460FCD0FC495E80F00CC
:1020100084E80F000023FB6210E0FB6A9B0007F1DD
:102020003002134453F8243C1A467B689A4202D18A
:10203000FB6ADBB206E0FB6A0133FB62FB6A072B3B
:10204000EBD9002318463437BD46B0BC704700BFFB
:10205000E033000080B584B000AF78607868124B40
:1020600098470346BB730023FB730FE0FA7B0F49CD
:1020700013465B001344DB000B441B78BA7B9A4287
:1020800001D1FB7B0CE0FB7B0133FB73FB7B002B63
:10209000ECD040F2472206490020064B9847002327
:1020A00018461037BD4680BDF91F00000000002013
:1020B000C43300002D13000080B584B000AF7860F9
:1020C0007868614B98470346FB73012178685F4B42
:1020D0009847034683F00103DBB2002B20D0FA7B44
:1020E0005B4913465B001344DB000B4404331B685D
:1020F00003F01C03BB6002217868564B98470346E7
:10210000002B06D07868544B984702217868534BCF
:102110009847BB6843F0010319467868504B9847CD
:10212000012178684D4B9847FA7B494913465B007B
:102130001344DB000B4404331B6819467868484B92
:102140009847FA7B424913465B001344DB000B447B
:1021500008331B6819467868424B9847FA7B3C491C
:1021600013465B001344DB000B440C331B68194619
:1021700078683D4B9847FA7B354913465B0013441A
:10218000DB000B4404331B6803F40053002B0CD119
:10219000FA7B2F4913465B001344DB000B440433E6
:1021A0001B6803F4C043002B22D0FA7B2849134656
:1021B0005B001344DB000B4410331B88C3F30C0398
:1021C00099B27A68938961F30C039381FA7B204971
:1021D00013465B001344DB000B4412331B7803F0FF
:1021E0000703D9B27A68938961F34F3393810CE086
:1021F000FA7B174913465B001344DB000B44103392
:102200001B8819467868194B9847FA7B1049134682
:102210005B001344DB000B4413331B7819467868CA
:10222000134B9847FA7B0A4913465B001344DB00C3
:102230000B4414331B78194678680E4B98470023DB
:1022400018461037BD4680BD552000004D170000D0
:1022500000000020A11A0000791A000029170000D0
:10226000D11A00000D1C0000311C0000871C00006A
:10227000A51C0000311E000080B584B000AF78605E
:102280007868134B98470346BB730023FB7310E039
:10229000FA7B104913465B001344DB000B441B78A8
:1022A000BA7B9A4202D197F90F300DE0FB7B0133E4
:1022B000FB73FB7B002BEBD040F2A63206490020DB
:1022C000064B98474FF0FF3318461037BD4680BD88
:1022D000F91F000018000020C43300002D13000077
:1022E00080B582B000AF786003217868024B9847D0
:1022F00000BF0837BD4680BD951B000090B587B074
:1023000000AFF860B9607A60F8687D4B9847034683
:102310007B61F8687B4B984703467B82BB6803F080
:102320000103002B00F095807B8A03F00203002B51
:102330001DD0F868744B98477B685B889BB243F468
:1023400080539AB27B685A807B685B889BB223F487
:1023500080739AB27B685A807B8A03F00103002B5A
:1023600002D06FF00403C6E06FF00303C3E07B8A82
:1023700003F00403002B1FD07B685B68002B07DD94
:102380007B685B889BB243F480539AB27B685A8027
:102390007B685B889BB21BB2002B02DAF8685B4B50
:1023A00098477B685B889BB223F480739AB27B6802
:1023B0005A806FF001039EE07B685B889BB203F458
:1023C0008063002B1CD07B681B881B125B0003F012
:1023D0000604F8684E4B9847034603F480432343B2
:1023E00043F0F1031946F8684A4B98477B685B88CD
:1023F0009BB223F480639AB27B685A8000237AE010
:102400007B685B68002B11D17B685B889BB21BB239
:10241000002B02DAF8683D4B98477B685B889BB2DB
:1024200023F480739AB27B685A8010E07B689B68C3
:102430001B781946F868384B98477B689B685A1C8C
:102440007B689A607B685B685A1E7B685A600023D1
:1024500051E0BB6803F00203002B4BD07B685B6844
:10246000002B41D07B8A03F00403002B3CD17B6816
:102470005B685A1E7B685A607B685B68002B02D1E0
:102480007B69002B06D07B685B68012B05D17B69DB
:10249000002B02D0F868214B98477B685B68002BC3
:1024A00013D17B685B889BB21BB2002B05DAF868FE
:1024B0001B4B9847F868154B98477B685B889BB225
:1024C00023F480739AB27B685A807B689C68621C94
:1024D0007B689A60F868134B98470346DBB2237019
:1024E000F868114B984705E0F8680F4B98476FF074
:1024F000010300E0002318461C37BD4690BD00BF15
:10250000F11800009D1E000075170000E122000078
:10251000291D0000051D0000651D0000451B000071
:102520001D1B0000891D00008F17000080B582B0C0
:1025300000AF786039607B68002B14BF0123002353
:10254000DBB24FF4A36208491846084B98477B68F2
:102550003A681A617B6839681846054B9847034604
:1025600018460837BD4680BDC43300002D13000057
:10257000E928000080B582B000AF78607B68002B4E
:1025800014BF01230023DBB240F23552064918463E
:10259000064B98477B681B691846054B98470346CE
:1025A00018460837BD4680BDC43300002D13000017
:1025B0005D28000080B584B000AF786039604FF6C8
:1025C000FF73FB607B681B69BB60B8680F4B984763
:1025D00003461A463B681A60FB685A1EFA60002BD5
:1025E00002D16FF004030CE03B681B6803F00103A9
:1025F000002B05D13B681B6803F00203002BE4D0DD
:10260000002318461037BD4680BD00BFA917000043
:1026100090B587B000AF78607B681B697B617B6891
:102620003B617869394B98470346FB607B68002B18
:1026300014BF01230023DBB240F2A55234491846EF
:10264000344B98473B695B68012B06D1FB68002B34
:1026500003D07869304B984702E078692F4B984750
:102660003B691B8803F48063002B22D03B695B88A5
:102670009BB203F00103002B07D03B695B889BB240
:1026800043F480639AB23B695A803B691B885B00C4
:1026900040F2FE741C407869214B9847034603F4CE
:1026A0008043234343F40043194678691D4B984700
:1026B0001AE03B691B885B00DBB23A69528892B230
:1026C00002F00102002A14BF01220022D2B21343F9
:1026D0001C467869124B9847034603F48043234312
:1026E000194678690F4B984707F10803194678682F
:1026F0000D4B9847BB683A69194678690B4B984768
:10270000034618461C37BD4690BD00BFF1180000B7
:10271000C43300002D130000451B00006D1B00009A
:10272000291D0000051D0000B5250000FD22000048
:1027300080B586B000AF786039607B681B693B610B
:102740007B68002B14BF01230023DBB24FF4BA6275
:102750003B4918463B4B98477B681B69002B14BFCD
:1027600001230023DBB240F2D15235491846354BE4
:1027700098473B68002B14BF01230023DBB240F2D3
:10278000D2522F4918462F4B98477B685B889BB2E3
:1027900003F48073002B02D06FF005034CE03B681C
:1027A0005B889BB243F480739AB23B685A807B6823
:1027B0003A6807CA83E807003869234B9847786866
:1027C000224B984778617B69002B2DD07B685B8812
:1027D0009BB223F480739AB27B685A807B692BE0AA
:1027E00007F10C0319467868194B984778617B69A3
:1027F000002B12D03B685B889BB21BB2002B02DA25
:102800003869144B98477B685B889BB223F48073CC
:102810009AB27B685A807B690EE0FB687A68194639
:1028200038690D4B984778617B685B889BB203F4ED
:102830008073002BD4D17B6918461837BD4680BD04
:10284000C43300002D130000F51A0000112600000B
:10285000B5250000E1220000FD22000080B584B013
:1028600000AF78604FF6FF73FB600423BB607B68AA
:10287000002B14BF01230023DBB240F2056215498F
:102880001846154B98477868144B984716E0FB6834
:10289000013BFB60FB68002B10DCBB68013BBB60AD
:1028A000BB68002B07D04FF6FF73FB6010217868E0
:1028B0000B4B984702E06FF0050306E07868094B80
:1028C00098470346012BE2D1002318461037BD4636
:1028D00080BD00BFC43300002D130000A11800000C
:1028E000C11E0000711E000080B584B000AF78608A
:1028F00039603868424B98470346FB7301213868BA
:10290000404B9847034683F00103DBB2002B20D0F5
:10291000FA7B3D4913465B001344DB000B44043350
:102920001B6803F01C03BB6002213868374B9847D3
:102930000346002B06D03868354B9847022138688B
:10294000344B9847BB6843F0010319463868324B53
:102950009847012138682F4B9847FA7B2A4913463C
:102960005B001344DB000B4404331B6819463868D2
:10297000294B9847FA7B244913465B001344DB003C
:102980000B4408331B6819463868244B9847FA7B78
:102990001D4913465B001344DB000B440C331B68DA
:1029A000194638681E4B9847FA7B174913465B0057
:1029B0001344DB000B4404331B681B0E9BB203F073
:1029C00003039AB27B689A817B689B89012B8CBF39
:1029D00001230023DBB219463868124B9847FA7B73
:1029E000094913465B001344DB000B4412331A8879
:1029F0007B68DA81002318461037BD4680BD00BFD2
:102A000079220000B51600001800002021190000EE
:102A1000C91800009116000051190000C51B0000E4
:102A20004D1C0000C51C000080B582B000AF78606E
:102A300001217868074B98470346002B02D06FF0BE
:102A4000030303E07868044B9847002318460837CF
:102A5000BD4680BD011700007519000080B582B029
:102A600000AF786039607B68002B04D03B68002B96
:102A700001D0012300E0002303F00103DBB240F6A4
:102A8000091215491846154B98473B681B6823F4F3
:102A9000817323F0010319467868114B98473B680E
:102AA0005B6823F4383323F4107343F4003319467E
:102AB00078680C4B98473B681B7B194678680A4B33
:102AC00098473B685B7B19467868084B984700BF7E
:102AD0000837BD4680BD00BFC43300002D13000081
:102AE0002D1A0000E91B0000691C0000111E0000E7
:102AF00080B582B000AF786039607B68002B04D06D
:102B00003B68002B01D0012300E0002303F0010308
:102B1000DBB240F61D121A4918461A4B98473B681B
:102B20001B6823F4817323F0010319467868164B60
:102B300098473B685B6823F4083323F4107343F42D
:102B4000003343F4107319467868104B98473B687C
:102B50009B68194678680E4B98473B685B7B194623
:102B600078680C4B984700BF4FF0FF3178680A4BEC
:102B700098470346002BF7D100BF0837BD4680BDFC
:102B8000C43300002D1300002D1A0000E91B0000C3
:102B9000491D0000111E00000117000080B584B01F
:102BA00000AF78607B6818460E4B98470346BB73AE
:102BB0000023FB730DE00622BB7B934206D1FA7B18
:102BC00013461B011344084A134406E0FB7B013300
:102BD000FB73FB7B002BEED0002318461037BD465D
:102BE00080BD00BFF91F00000034000080B584B034
:102BF00000AF786039603B681846354B9847F860FD
:102C00007B68002B04D03B68002B01D0012300E03F
:102C1000002303F00103DBB240F63F122D491846B2
:102C20002D4B9847FB68002B02D16FF00C034AE054
:102C300001213868294B9847034683F00103DBB232
:102C4000002B19D0FB681B6803F01C03BB6002213A
:102C50003868234B98470346002B06D03868214B31
:102C6000984702213868204B9847BB6843F001031E
:102C7000194638681D4B9847012138681A4B984708
:102C80007B683A681A60FB681B6803F01C03082B1A
:102C900004D1F9683868164B984703E0F96838683A
:102CA000144B9847FB685B6803F00703002B01D1C6
:102CB000012200E002227B681A71FB68DB899AB26C
:102CC0007B68DA80002318461037BD4680BD00BF00
:102CD0009D2B0000C43300002D13000001170000DD
:102CE000FD190000D5190000DD1600002D1A0000A6
:102CF000F12A00005D2A000080B582B000AF786044
:102D00007B68002B05D07B681B68002B01D001235A
:102D100000E0002303F00103DBB240F69E120749F6
:102D20001846074B98477B681B681846054B984721
:102D3000034618460837BD4680BD00BFC4330000B7
:102D40002D130000292A000080B582B000AF786002
:102D500000BF03217868064B98470346002BF8D044
:102D600003217868034B984700BF0837BD4680BDF4
:102D7000C31700000518000080B586B000AFF860EA
:102D8000B9607A60BB6803F00403002B01D1002313
:102D900022E0F868124B984778617B685B68002BEB
:102DA00014D07B685B68591C7A6851607A69D2B22A
:102DB0001A707B681B7C012B08D97B685B68591CE7
:102DC0007A6851607A69120AD2B21A707B68DB683D
:102DD0005A1C7B68DA60012318461837BD4680BD4F
:102DE000C51D000080B586B000AFF860B9607A609C
:102DF0007B80BB6803F00103002B28D07B681B6835
:102E0000002B18D07B681B68591C7A6811601B78EE
:102E10007B617B681B7C012B0FD97B681B681B784F
:102E20001B021A467B6913437B617B681B685A1C33
:102E30007B681A6001E07B887B617B689B685A1C19
:102E40007B689A607969F868034B984700E000BF97
:102E50001837BD4680BD00BFA91D000080B582B0F7
:102E600000AF786039607B6803F08003002B0BD0E3
:102E70004FF6FF713868074B984780213868064B3A
:102E800098476FF0120300E0002318460837BD464C
:102E900080BD00BF511E00000518000090B58BB02A
:102EA00000AF786039607B681B683B6200237B62FF
:102EB0003B681B68BB603B685B68FB6000233B6151
:102EC00000237B617B681B793B767B68002B04D0F9
:102ED0003B6A002B01D0012300E0002303F0010333
:102EE000DBB240F6A3222B4918462B4B984707210B
:102EF000386A2A4B98470346002B02D06FF0030331
:102F000043E0386A264B9847034683F00103DBB25F
:102F1000002B02D06FF0130337E0386A214B98473B
:102F20000346FB6107F108031A46F969386A1E4B2C
:102F30009847034683F00103DBB2002B0BD07A697C
:102F40003B699A4207D37B68DB8807F10802F9697D
:102F5000386A164CA047396AF869154B9847786269
:102F60007B6A002B0CDB3A693B689B689A42D4D39E
:102F70007A693B689B689A42CFD33B697B6200E0E9
:102F800000BF386A0B4B98477B6A18462C37BD4602
:102F900090BD00BFC43300002D13000001170000D6
:102FA0009D190000EB170000792D0000E52D0000B1
:102FB0005D2E0000492D000080B485B000AFF860A0
:102FC0000B467A60FB72FB7AFA68DB011344183314
:102FD0007A681A6000BF1437BD465DF8047B7047FD
:102FE00080B485B000AFF8600B467A60FB72FB7A64
:102FF000FA68DB01134414337A681A6000BF14378F
:10300000BD465DF8047B704780B582B000AF0346D3
:103010003960FB711346BB71BB79002B06D0FB797D
:103020003A6819460648074B984705E0FB793A6825
:1030300019460348044B984700BF0837BD4680BD7A
:1030400000800041B92F0000E12F000080B582B060
:1030500000AF03460A46FB711346BB71FB795B095F
:10306000D8B2FB7903F01F03012202FA03F3BA7905
:103070001946034B984700BF0837BD4680BD00BFC7
:103080000930000080B586B000AF3B4B98473B4904
:103090003B483C4B98473A483B4B98473B493C4858
:1030A0003C4B98473A483C4B98473C493C483D4B41
:1030B00098473B483C4B98474FF4006256213848AC
:1030C0003A4B984700233B73344B1B6807F10C01C4
:1030D00001221846364B9847304B1B6807F1080110
:1030E00001221846334B984700233B743B7ADBB2EE
:1030F0007B743B8ABB80002121202F4B9847234BB8
:103100001B68391D02221846294B984701212120AE
:10311000294B9847194B1B68012228491846254B13
:103120009847264B1B781846254B984703461A4666
:10313000244B5A70234B00221A70002121201E4B71
:103140009847124B1B6802221E491846184B984795
:1031500001212120184B984700233B75194B5B78C0
:103160007B75BB8A3B800D4B1B6839460222184693
:103170000F4B9847CEE700BFD1020000B4000020FB
:103180005C0000208D1100004D110000B0000020F7
:103190006800002095100000450F0000B8000020D6
:1031A00080000020030E0000A90D0000C90D0000E2
:1031B000250E0000750E00004D3000004C00002070
:1031C000C93100005000002080B483B000AF034636
:1031D000FB71FB79302B1AD0FB79312B17D0FB799F
:1031E000322B14D0FB79332B11D0FB79342B0ED03A
:1031F000FB79352B0BD0FB79362B08D0FB79372B9D
:1032000005D0FB79382B02D0FB79392B02D1FB7921
:10321000374A1360FB792B2B05D1354B1B680133E3
:10322000334A136007E0FB792D2B04D1304B1B6828
:10323000013B2F4A13602E4B1B68382B03DD2C4BB0
:1032400039221A6006E02A4B1B68302B02DC284B1F
:1032500030221A60264B1B68303B092B3ED801A256
:1032600052F823F08D320000953200009D320000AC
:10327000A5320000AD320000B5320000BD320000C2
:10328000C5320000CD320000D5320000194B80223B
:103290001A6023E0174B70221A601FE0154B602262
:1032A0001A601BE0134B54221A6017E0114B48229E
:1032B0001A6013E00F4B3C221A600FE00D4B3022D6
:1032C0001A600BE00B4B24221A6007E0094B18220E
:1032D0001A6003E0074B00221A6000BF054B1B6811
:1032E000DBB218460C37BD465DF8047B704700BF63
:1032F000540000205800002070B50D4E0D4CA41B4A
:10330000A4100025A54209D10B4E0C4C00F082F808
:10331000A41BA4100025A54205D170BD56F8253088
:1033200098470135EEE756F8253098470135F2E722
:103330002034000020340000203400002434000039
:103340002E2E2F68706C2F706F72742F68706C5FE8
:103350006770696F5F626173652E68002E2E2F683B
:10336000616C2F7372632F68616C5F6932635F6D8C
:103370005F73796E632E63002E2E2F68616C2F733E
:1033800072632F68616C5F696F2E63002E2E2F6849
:10339000616C2F7372632F68616C5F7370695F6D0E
:1033A0005F73796E632E63002E2E2F68616C2F730E
:1033B00072632F68616C5F75736172745F73796E8D
:1033C000632E63002E2E2F68706C2F736572636FEF
:1033D0006D2F68706C5F736572636F6D2E63000094
:1033E0000030004000340040002001410040014115
:1033F000000000430004004300080043000C0043A9
:103400000C0020000000020000000000FF00FF018F
:1034100006000000F8B500BFF8BC08BC9E46704727
:1034200089020000F8B500BFF8BC08BC9E46704792
:043430006502000031
:1034340002000000040010400000030002007000BD
:10344400B9FC000000000000070000001400200088
:1034540000010000353600000000D700001BB70053
:00000001FF
