:1000000098000120E10200007D0300007D03000054
:100010007D0300007D0300007D0300000000000060
:100020000000000000000000000000007D03000050
:100030007D030000000000007D0300007D03000040
:100040007D0300007D0300007D0300007D030000B0
:100050007D0300007D0300007D0300007D030000A0
:100060007D0300007D0300007D0300007D03000090
:100070007D0300007D0300007D0300007D03000080
:100080007D0300007D0300007D0300007D03000070
:100090007D0300007D0300007D0300007D03000060
:1000A0007D0300007D0300007D0300007D03000050
:1000B0007D0300007D0300007D0300007D03000040
:1000C0007D0300007D0300007D0300007D03000030
:1000D0007D0300007D0300007D0300007D03000020
:1000E0007D0300007D030000000000000000000010
:1000F00000000000891500007D0300007D03000062
:100100007D0300007D0300007D0300007D030000EF
:100110007D0300007D0300007D0300007D030000DF
:100120007D0300007D0300007D0300007D030000CF
:100130007D0300007D0300007D0300007D030000BF
:100140007D0300007D0300007D0300007D030000AF
:100150007D0300007D0300007D0300007D0300009F
:100160007D0300007D0300007D0300007D0300008F
:100170007D0300007D0300007D0300007D0300007F
:100180007D0300007D0300007D0300007D0300006F
:100190007D0300007D0300007D0300007D0300005F
:1001A0007D0300007D0300007D0300007D0300004F
:1001B0007D0300007D0300007D0300007D0300003F
:1001C0007D0300007D0300007D0300007D0300002F
:1001D0007D0300007D0300007D0300007D0300001F
:1001E0007D0300007D0300007D0300007D0300000F
:1001F0007D0300007D0300007D0300007D030000FF
:100200007D0300007D0300007D0300007D030000EE
:100210007D0300007D0300007D0300007D030000DE
:100220007D0300007D0300007D0300007D030000CE
:100230007D0300007D0300007D0300007D030000BE
:100240007D0300007D0300007D0300007D030000AE
:100250007D0300007D0300007D0300007D0300009E
:100260007D03000010B5054C237833B9044B13B15E
:100270000448AFF300800123237010BD300000203C
:1002800000000000FC2400000C4B43B10C480D4959
:1002900010B5AFF300800C48036823B910BD0A48BD
:1002A000036833B97047094B002BF7D0BDE8104005
:1002B0001847064B002BF5D0184700BF0000000080
:1002C000FC24000034000020FC240000000000009A
:1002D00080B500AF014B984700BF80BDAD0B00005B
:1002E00080B582B000AF1C4B7B601C4B3B607A68D2
:1002F0003B689A420CD007E03B681A1D3A607A6866
:10030000111D796012681A603B68154A9342F3D355
:10031000144B3B6004E03B681A1D3A6000221A60EF
:100320003B68114A9342F6D3104B7B60104A7B68BE
:1003300023F07F0393600E4A0D4BD3F8883043F4CB
:100340007003C2F88830BFF34F8FBFF36F8F094B34
:100350009847094B9847FEE7FC2400000000002066
:100360003000002030000020940000200000000039
:1003700000ED00E0DD2300004D23000080B400AF5D
:10038000FEE780B485B000AFF8600B467A60FB7280
:10039000FA7AFB682032796843F8221000BF1437DC
:1003A000BD465DF8047B704780B483B000AF7860D1
:1003B0007B685B6943F480527B685A6100BF0C37ED
:1003C000BD465DF8047B704780B483B000AF7860B1
:1003D0007B689B6943F400727B689A6100BF0C37AD
:1003E000BD465DF8047B704780B483B000AF786091
:1003F0007B681B6A43F004027B681A6200BF0C37FB
:10040000BD465DF8047B704780B485B000AFF860EE
:100410000B467A60FB72FB7AFA68DB0113440833FF
:100420007A681A6000BF1437BD465DF8047B7047D8
:1004300080B485B000AFF8600B467A60FB72FB7A3F
:10044000FA68DB01134404337A681A6000BF14377A
:10045000BD465DF8047B704780B485B000AFF8609E
:100460000B467A60FB72FB7AFA68DB01134418339F
:100470007A681A6000BF1437BD465DF8047B704788
:1004800080B485B000AFF8600B467A60FB72FB7AEF
:10049000FA68DB01134414337A681A6000BF14371A
:1004A000BD465DF8047B704780B485B000AF7860CE
:1004B000084611461A460346FB700B46BB701346AE
:1004C0007B70FA78BB787968D2010A4413443033E0
:1004D0001B78FB73FB7B23F00F03FB737B7803F02C
:1004E0000F03DAB2FB7B1343FB73FA78BB787968AE
:1004F000D2010A4413443033FA7B1A7000BF143718
:10050000BD465DF8047B704780B485B000AF78606D
:10051000084611461A460346FB700B46BB7013464D
:100520007B70FA78BB787968D2010A44134430337F
:100530001B78FB73FB7B03F00F03FB737B781B01C2
:10054000DAB2FB7B1343FB73FA78BB787968D2018C
:100550000A4413443033FA7B1A7000BF1437BD4687
:100560005DF8047B704780B485B000AF78600846C2
:1005700011461A460346FB700B46BB7013467B7050
:10058000FA78BB787968D2010A44134440331B7867
:10059000FB73FB7B23F00103FB737A78FB7B134334
:1005A000FB73FA78BB787968D2010A44134440336C
:1005B000FA7B1A7000BF1437BD465DF8047B7047A4
:1005C00090B482B000AF78600B46FB701346BB70EE
:1005D000FA78BB78F878B9787C68C0012044014487
:1005E00040310978C9B241F00401C8B27968D2013A
:1005F0000A441344403302461A7000BF0837BD4610
:1006000090BC704790B482B000AF78600B46FB702E
:100610001346BB70FA78BB78F878B9787C68C0016B
:100620002044014440310978C9B221F00401C8B224
:100630007968D2010A441344403302461A7000BF5D
:100640000837BD4690BC704780B485B000AFF860F5
:100650000B467A60FB72FB7AFA68DB01134428339D
:100660007A681A6000BF1437BD465DF8047B704796
:1006700080B582B000AF03463960FB711346BB7191
:10068000BB79012B1CD0022B37D0002B4ED1FB792C
:100690003A6819462A482B4B98473B689BB243F06F
:1006A0008042FB7919462648274B98473B681B0C2C
:1006B00043F04042FB7919462148234B98473AE0E2
:1006C000FB793A6819461E481E4B98473B689BB217
:1006D00043F0804343F40033F9791A4618481A4B23
:1006E00098473B681B0C43F0404343F40033F979CF
:1006F0001A461348144B98471DE0FB793A6819468F
:100700000F48124B98473B689BB243F08042FB79FD
:1007100019460B480C4B98473B681B0C43F0404272
:10072000FB7919460648084B984704E046220849D9
:100730000020084B984700BF0837BD4680BD00BF6A
:100740000080004131040000490600000904000057
:10075000242400009912000080B582B000AF034647
:100760003960FB711346BB71BB79002B06D0FB7956
:100770003A6819460648074B984705E0FB793A68FE
:1007800019460348044B984700BF0837BD4680BD53
:1007900000800041590400008104000080B582B04F
:1007A00000AF0346FB710B46BB7113467B717B792F
:1007B000012B0AD0022B1FD0002B34D1BA79FB7940
:1007C00019461E481E4B984733E0BB7901229A40D8
:1007D000FB79194619481B4B9847BA79FB7919469A
:1007E0001648194B9847BB7901229A40FB79194664
:1007F0001248164B98471CE0BB7901229A40FB79BE
:1008000019460E480F4B9847BA79FB7919460B48A1
:100810000D4B9847BB7901229A40FB79194607484E
:100820000B4B984705E089220A4900200A4B98475C
:1008300000BF00BF0837BD4680BD00BF008000413B
:100840000506000031040000C10500005904000045
:1008500081040000242400009912000090B585B0A6
:1008600000AF786039607B685B09FB737B68DBB243
:1008700003F01F03BB733B68B3F1FF3F06D1BA7BA4
:10088000F97B00231248134CA0471DE0BA7BF97B8B
:1008900001230F480F4CA047BB7B03F00103002B43
:1008A00009D0BB7B5B08DAB23B68DBB2F97B084856
:1008B000094CA04708E0BB7B5B08DAB23B68DBB2BF
:1008C000F97B0348054CA04700BF1437BD4690BDD7
:1008D000008000416705000009050000A904000030
:1008E00080B582B000AF03460A46FB711346BB7168
:1008F000FB795B09D8B2FB7903F01F03DBB2BA794D
:100900001946034B984700BF0837BD4680BD00BF5E
:100910009D07000080B582B000AF7860396039680B
:100920007868034B984700BF0837BD4680BD00BFBD
:100930005D08000080B582B000AF03460A46FB7137
:100940001346BB71FB795B09D8B2FB7903F01F0337
:10095000012202FA03F3BA791946034B984700BF04
:100960000837BD4680BD00BF7106000080B582B06B
:1009700000AF03460A46FB711346BB71FB795B0966
:10098000D8B2FB7903F01F03012202FA03F3BA790C
:100990001946034B984700BF0837BD4680BD00BFCE
:1009A0005907000080B500AF014B984700BF80BDDC
:1009B000F512000080B500AF04490420044B9847AD
:1009C00004490520024B984700BF80BD0300040086
:1009D000150900000300050080B500AF4022072183
:1009E0000648074B9847432203210448044B984785
:1009F0000448054B984700BF80BD00BF001C004065
:100A00008303000000080040A903000080B500AF88
:100A1000054B9847002205490548064B9847064B69
:100A2000984700BF80BD00BFD909000000300040DA
:100A30005400002049100000B509000080B500AF47
:100A400004493920044B984704493820024B984701
:100A500000BF80BD03003900150900000300380005
:100A600080B500AF402217210648074B9847432224
:100A700003210448044B98470448054B984700BF9E
:100A800080BD00BF001C0040830300000008004040
:100A9000C903000080B500AF054B98470022054907
:100AA0000548064B9847064B984700BF80BD00BFDE
:100AB000610A000000200141600000204910000090
:100AC0003D0A000080B500AF00214420174B984735
:100AD00002214420164B984716494420164B98474C
:100AE00000214520114B984702214520104B984783
:100AF00012494520104B9847012146200C4B98473E
:100B0000002146200E4B98470E4946200A4B984735
:100B100001214720064B984700214720084B984762
:100B200009494720044B984700BF80BD6D0900006C
:100B300035090000020044001509000002004500CC
:100B4000E1080000020046000200470080B500AF47
:100B5000402224210648074B98474322032104489A
:100B6000044B98470448054B984700BF80BD00BF21
:100B7000001C00408303000000080040E90300005F
:100B800080B500AF044B984704490548054B98478A
:100B9000054B984700BF80BD4D0B00000008004387
:100BA0006C000020550F0000C50A000080B500AFA2
:100BB000384B984701212120374B984700212120AD
:100BC000364B98474FF0FF312120354B9847002195
:100BD0002420344B9847022124202F4B98474FF074
:100BE000FF3124202E4B9847012125202A4B98477E
:100BF00001212520294B98474FF0FF312520284B14
:100C0000984701212620244B984701212620234B79
:100C100098474FF0FF312620214B984701212E2085
:100C20001D4B984701212E201C4B98474FF0FF3158
:100C30002E201B4B984701212F20174B984701214D
:100C40002F20164B98474FF0FF312F20144B984719
:100C500001213F20104B984701213F200F4B98471F
:100C60004FF0FF313F200E4B9847002152200D4B93
:100C7000984702215220084B98474FF0FF315220ED
:100C8000074B9847084B9847084B9847084B98479D
:100C900000BF80BDA509000035090000E108000083
:100CA000150900006D0900000D0A0000950A0000FA
:100CB000810B000080B584B000AFF860B9601346C6
:100CC000FB80FB68002B04D0BB68002B01D0012304
:100CD00000E0002303F00103DBB234220749184689
:100CE000074B9847FB681B68FA88B968F86898470B
:100CF000034618461037BD4680BD00BF40240000A3
:100D00009912000080B588B000AFF860B960134652
:100D1000FB71FB68002B04D0BB68002B01D00123C2
:100D200000E0002303F00103DBB2482255491846D6
:100D3000554B9847BB689B68002B01D100239CE072
:100D4000BB689B687B61FB681B7A012B02D97B69BE
:100D50005B007B6100233B820023FB610023BB61BE
:100D60006AE0FB6804331846484B98470346002B5B
:100D700002D06FF0050380E0FB7903F00103002B44
:100D800022D0FB6804331846414B98470346002B9A
:100D90001AD0BB681A68FB69591CF96113441B78A7
:100DA0003B74FB681B7A012B07D9BB681A68FB6987
:100DB000591CF96113441B787B74FB6804333A8A2D
:100DC00011461846334B9847FB7903F00203002B7A
:100DD00026D0FB68043318462F4B98470346002B58
:100DE0001ED0FB68043318462C4B984703463B82C1
:100DF000BB685B68002B13D0BB685A68BB69591C81
:100E0000B96113443A7C1A70FB681B7A012B07D92D
:100E1000BB685A68BB69591CB96113447A7C1A7063
:100E2000FB681B7D002B07D0FB68043318461C4B66
:100E300098470346002B08D1FA697B699A4205D28C
:100E4000BA697B699A428CD300E000BFFB681B7AC9
:100E5000012B08D8FB7903F00203002B01D0BB69FA
:100E60000BE0FB6909E0FB7903F00203002B02D0E1
:100E7000BB695B0801E0FB695B0818462037BD468B
:100E800080BD00BF5424000099120000D922000048
:100E9000B921000011210000152200006921000085
:100EA0007122000080B588B000AFF860B9601346C9
:100EB000FB80FB68002B14BF01230023DBB28822D8
:100EC0000B4918460B4B9847FB680C3BFB61BB6812
:100ED0003B61FB88BB6107F1100301221946F869E9
:100EE000054B9847034618462037BD4680BD00BFD6
:100EF0005424000099120000050D000080B588B050
:100F000000AFF860B9601346FB80FB68002B14BF8C
:100F100001230023DBB2A6220B4918460B4B98474E
:100F2000FB680C3BFB61BB687B61FB88BB6107F125
:100F3000100302221946F869054B984703461846E4
:100F40002037BD4680BD00BF542400009912000028
:100F5000050D000080B584B000AF786039607B6813
:100F6000002B04D03B68002B01D0012300E00023BC
:100F700003F00103DBB2BB220D4918460D4B984725
:100F80007B680433396818460B4B9847F860FB6858
:100F9000002B01DAFB6806E07B68084A1A617B686F
:100FA000074ADA60002318461037BD4680BD00BFEF
:100FB0005424000099120000A1200000FD0E000042
:100FC000A50E000080B582B000AF78607B68002B72
:100FD00014BF01230023DBB2D02206491846064B7A
:100FE00098477B6804331846044B984700BF08377E
:100FF000BD4680BD5424000099120000C1200000AD
:1010000080B582B000AF786039607B68002B04D077
:101010003B68002B01D0012300E0002303F0010313
:10102000DBB2FA2206491846064B98477B6803F163
:101030000C023B681A60002318460837BD4680BD85
:10104000542400009912000080B586B000AFF8600B
:10105000B9607A60FB68002B04D0BB68002B01D01C
:10106000012300E0002303F00103DBB234220D4929
:1010700018460D4B9847FB680833B96818460B4B68
:10108000984778617B69002B01D07B6906E0FB689B
:10109000074A5A60FB68074A1A6000231846183747
:1010A000BD4680BD7024000099120000411A000066
:1010B000051200003D11000080B582B000AF7860DD
:1010C0007B68002B14BF01230023DBB253220749A6
:1010D0001846074B98477B6808331846054B9847D6
:1010E000002318460837BD4680BD00BF70240000AD
:1010F00099120000851A000080B582B000AF7860B8
:1011000039607B68002B04D03B68002B01D00123A1
:1011100000E0002303F00103DBB269220549184611
:10112000054B98477A683B681A60002318460837D1
:10113000BD4680BD702400009912000080B586B0C5
:1011400000AFF860B9601346FB8000237B61FB6849
:101150003B61FB68002B07D0BB68002B04D0FB88E9
:10116000002B01D0012300E0002303F00103DBB2D8
:10117000F1221F4918461F4B984700BF3B690833AF
:1011800018461D4B9847034683F00103DBB2002B42
:10119000F4D13B6903F10800BA687B6913441B78FA
:1011A0001946164B984700BF3B6908331846124B47
:1011B0009847034683F00103DBB2002BF4D17B692F
:1011C00001337B61FB887A699A42E2D300BF3B69B5
:1011D000083318460A4B9847034683F00103DBB2F5
:1011E000002BF4D17B6918461837BD4680BD00BF7F
:1011F0007024000099120000F11A0000A51A0000E6
:10120000111B000090B587B000AFF860B9601346BD
:10121000FB8000237B61FB683B61FB68002B07D0F0
:10122000BB68002B04D0FB88002B01D0012300E019
:10123000002303F00103DBB24FF486721249184613
:10124000124B984700BF3B6908331846104B98472C
:10125000034683F00103DBB2002BF4D1BA687B694B
:10126000D4183B69083318460A4B98470346237045
:101270007B6901337B61FB887A699A42E2D37B699F
:1012800018461C37BD4690BD70240000991200001E
:10129000311B0000CD1A000080B485B000AF0346BA
:1012A000B9607A60FB73FB7B83F00103DBB2002B38
:1012B00000D000BE00BF1437BD465DF8047B704708
:1012C00080B483B000AF78600B467B807B681B885E
:1012D0009AB27B881B029BB203F470639BB21343E8
:1012E0009AB27B681A8000BF0C37BD465DF8047B5C
:1012F0007047000080B500AF00210848084B9847B0
:10130000084B9847084B9847084B9847084B984715
:1013100040F6FF70074B984700BF80BD004000417A
:10132000C112000061140000F9140000DD13000078
:10133000391500008D13000080B483B000AF7860D1
:10134000396000BF7B685A683B681340002BF9D1B5
:1013500000BF0C37BD465DF8047B704780B584B094
:1013600000AFF8600B467A60FB72FA7AFB680832CD
:10137000796843F8221043F6FD71F868024B9847EC
:1013800000BF1037BD4680BD3913000080B582B064
:1013900000AF78607B6803F00103002B04D0044A9F
:1013A00000210448044B984700BF0837BD4680BD64
:1013B00001010100001C00405D13000080B483B0F7
:1013C00000AF78600B46FB707B68FA785A7100BFFB
:1013D0000C37BD465DF8047B7047000080B582B0D5
:1013E00000AF054B7B6001217868044B984700BF34
:1013F0000837BD4680BD00BF00080040BD13000097
:1014000080B483B000AF78600B46FB707B68FA78DD
:101410001A7400BF0C37BD465DF8047B704780B47A
:1014200085B000AF78607B68DB69FB60FB681B0AF6
:1014300003F03F03FB60FB6818461437BD465DF8B8
:10144000047B704780B483B000AF786039607B68FC
:101450003A68DA6100BF0C37BD465DF8047B70471F
:1014600080B582B000AF0C4B7B6000237B80786836
:101470000A4B984703467B807B881B0203F47C530E
:1014800019467868064B984701217868054B9847BC
:1014900000BF0837BD4680BD001400401F14000087
:1014A000451400000114000080B483B000AF7860E0
:1014B0007B681B695B0803F00103002B14BF012349
:1014C0000023DBB218460C37BD465DF8047B70473D
:1014D00080B485B000AFF8600B467A60FB72FB7A8F
:1014E000FA6804339B0013447A685A6000BF1437CB
:1014F000BD465DF8047B704780B582B000AF0A4BF3
:101500007B600A4A01217868094B984700BF7868D8
:10151000084B9847034683F00103DBB2002BF6D15A
:1015200000BF0837BD4680BD0010004006260003FE
:10153000D1140000A914000080B483B000AF044BA4
:101540007B6000BF0C37BD465DF8047B704700BF71
:101550000010004080B483B000AF78607B689B7857
:10156000DBB218460C37BD465DF8047B704780B48B
:1015700083B000AF78607B685B6818460C37BD4667
:101580005DF8047B7047000090B583B000AF174B47
:101590007B601748174B984703463B603B6803F056
:1015A0000203002B0CD07B681B68002B08D07B68E3
:1015B0001C680F48104B984703461846A04712E096
:1015C0003B6803F00103002B0CD07B685B68002BA9
:1015D00008D07B685C680648074B98470346184666
:1015E000A04700E000BF0C37BD4690BD840000203E
:1015F00000000241551500006F15000080B483B053
:1016000000AF7860396000BF7B68DA693B681340DF
:10161000002BF9D100BF0C37BD465DF8047B704745
:1016200080B483B000AF786039607B68DA693B686A
:101630001340002B14BF01230023DBB218460C37E4
:10164000BD465DF8047B704780B483B000AF78601E
:10165000396000BF7B68DA693B681340002BF9D121
:1016600000BF0C37BD465DF8047B704780B483B083
:1016700000AF786039607B68DA693B681340002B03
:1016800014BF01230023DBB218460C37BD465DF8BA
:10169000047B704780B485B000AF78600B46FB7068
:1016A0007B681B7EFB73FA7BFB781340FB73FB7B31
:1016B00018461437BD465DF8047B704780B483B08C
:1016C00000AF78600B46FB707B68FA781A7600BF33
:1016D0000C37BD465DF8047B704780B483B000AF23
:1016E00078607B681B7EDBB203F00103002B14BF24
:1016F00001230023DBB218460C37BD465DF8047B9E
:10170000704780B483B000AF78607B681B7EDBB22B
:101710005B0803F00103002B14BF01230023DBB29D
:1017200018460C37BD465DF8047B704780B483B023
:1017300000AF78607B681B7EDBB29B0803F001037F
:10174000002B14BF01230023DBB218460C37BD4623
:101750005DF8047B7047000080B582B000AF786010
:101760007B681B6843F002027B681A60032178687B
:10177000024B984700BF0837BD4680BDFD150000ED
:1017800080B582B000AF78607B681B6823F00202EE
:101790007B681A6003217868024B984700BF0837BE
:1017A000BD4680BDFD15000080B584B000AF7860F7
:1017B000396003217868074B98477B681B68FB609A
:1017C000FA683B681340FB60FB6818461037BD465B
:1017D00080BD00BFFD15000080B582B000AF78600D
:1017E00039607B683A681A6003217868024B984731
:1017F00000BF0837BD4680BDFD15000080B582B032
:1018000000AF78607B681B6843F002027B681A6057
:1018100003217868024B984700BF0837BD4680BD5A
:101820004916000080B582B000AF78607B681B6805
:1018300023F002027B681A6003217868024B984704
:1018400000BF0837BD4680BD4916000080B584B092
:1018500000AF7860396003217868074B98477B6850
:101860001B68FB60FA683B681340FB60FB68184626
:101870001037BD4680BD00BF4916000080B582B05C
:1018800000AF786039607B683A681A600321786835
:10189000024B984700BF0837BD4680BD491600007F
:1018A00080B582B000AF786039607B683A685A6072
:1018B00017217868024B984700BF0837BD4680BDA6
:1018C000FD15000080B582B000AF786039607B689C
:1018D0003A685A601F217868024B984700BF083762
:1018E000BD4680BD4916000080B483B000AF78606B
:1018F00039607B683A689A6000BF0C37BD465DF876
:10190000047B704780B483B000AF78600B46FB70F7
:101910007B68FA781A7300BF0C37BD465DF8047B0C
:10192000704780B483B000AF78600B467B807B68E3
:101930007A889A8100BF0C37BD465DF8047B7047FA
:1019400080B483B000AF78600B46FB707B68FA7898
:101950009A7300BF0C37BD465DF8047B704780B4B6
:1019600083B000AF786039607B683A685A6200BF24
:101970000C37BD465DF8047B704780B483B000AF80
:10198000786039607B683A689A6200BF0C37BD4660
:101990005DF8047B704780B483B000AF78607B68EB
:1019A0009B6A18460C37BD465DF8047B704780B4CF
:1019B00083B000AF786039607B683A689A6200BF94
:1019C0000C37BD465DF8047B704780B483B000AF30
:1019D00078607B689B6A18460C37BD465DF8047BCF
:1019E000704780B483B000AF78600B46FB707B68B3
:1019F000FA7883F8302000BF0C37BD465DF8047BD1
:101A0000704780B483B000AF78600B46FB707B6892
:101A1000FA7883F8302000BF0C37BD465DF8047BB0
:101A2000704780B483B000AF78600B467B807B68E2
:101A30007A885A8300BF0C37BD465DF8047B704737
:101A400080B582B000AF786039607B68002B14BF2E
:101A500001230023DBB2BB2207491846074B9847F6
:101A60007B683A681A603868054B98470346184601
:101A70000837BD4680BD00BF8C24000099120000CD
:101A8000111C000080B582B000AF78607B681B68D5
:101A90001846034B984700BF0837BD4680BD00BFBE
:101AA000FD17000080B582B000AF78600B46FB7078
:101AB0007B681B68FA7811461846034B984700BFAD
:101AC0000837BD4680BD00BFAF19000080B582B0A9
:101AD00000AF78607B681B681846044B9847034644
:101AE000DBB218460837BD4680BD00BFCB190000E9
:101AF00080B582B000AF78607B681B681846034BE6
:101B00009847034618460837BD4680BDDB160000DF
:101B100080B582B000AF78607B681B681846034BC5
:101B20009847034618460837BD4680BD0317000096
:101B300080B582B000AF78607B681B681846034BA5
:101B40009847034618460837BD4680BD2D1700004C
:101B5000B0B48DB000AF7860134B07F10C041D4694
:101B60000FCD0FC495E80F0084E80F000023FB623F
:101B700010E0FB6A9B0007F13002134453F8243C49
:101B80001A467B689A4202D1FB6ADBB206E0FB6A26
:101B90000133FB62FB6A072BEBD90023184634376D
:101BA000BD46B0BC704700BFA824000080B584B01B
:101BB00000AF78607868124B98470346BB730023E8
:101BC000FB730FE0FA7B0F4913465B001344DB0005
:101BD0000B441B78BA7B9A4201D1FB7B0CE0FB7B68
:101BE0000133FB73FB7B012BECD940F24722064902
:101BF0000020064B9847002318461037BD4680BD8D
:101C0000511B0000000000208C24000099120000ED
:101C100080B584B000AF78607868614B9847034620
:101C2000FB73012178685F4B9847034683F00103FB
:101C3000DBB2002B20D0FA7B5B4913465B001344D8
:101C4000DB000B4404331B6803F01C03BB60022160
:101C50007868564B98470346002B06D07868544B5B
:101C6000984702217868534B9847BB6843F00103BB
:101C700019467868504B9847012178684D4B984732
:101C8000FA7B494913465B001344DB000B440433E1
:101C90001B6819467868484B9847FA7B42491346B7
:101CA0005B001344DB000B4408331B68194678685B
:101CB000424B9847FA7B3C4913465B001344DB00D8
:101CC0000B440C331B68194678683D4B9847FA7BE8
:101CD000354913465B001344DB000B4404331B6897
:101CE00003F40053002B0CD1FA7B2F4913465B0001
:101CF0001344DB000B4404331B6803F4C043002B84
:101D000022D0FA7B284913465B001344DB000B44C6
:101D100010331B88C3F30C0399B27A68938961F37B
:101D20000C039381FA7B204913465B001344DB00CC
:101D30000B4412331B7803F00703D9B27A689389F6
:101D400061F34F3393810CE0FA7B174913465B0034
:101D50001344DB000B4410331B8819467868194B79
:101D60009847FA7B104913465B001344DB000B4491
:101D700013331B7819467868134B9847FA7B0A4946
:101D800013465B001344DB000B4414331B781946E5
:101D900078680E4B9847002318461037BD4680BD23
:101DA000AD1B00006D160000000000204D18000063
:101DB00025180000491600007D180000C518000015
:101DC000E91800002319000041190000031A00005F
:101DD00080B582B000AF786001217868074B9847E2
:101DE0000346002B02D06FF0030303E07868044B36
:101DF0009847002318460837BD4680BD21160000CD
:101E00005917000080B582B000AF786039607B68F8
:101E1000002B04D03B68002B01D0012300E00023FD
:101E200003F00103DBB240F6091215491846154BC1
:101E300098473B681B6823F4817323F0010319461C
:101E40007868114B98473B685B6823F4383323F478
:101E5000107343F40033194678680C4B98473B687D
:101E60001B7B194678680A4B98473B685B7B194691
:101E70007868084B984700BF0837BD4680BD00BF53
:101E80008C24000099120000D9170000A11800004E
:101E900005190000E319000080B582B000AF78603A
:101EA00039607B68002B04D03B68002B01D00123F4
:101EB00000E0002303F00103DBB240F61D121A49D3
:101EC00018461A4B98473B681B6823F4817323F02C
:101ED000010319467868164B98473B685B6823F402
:101EE000083323F4107343F4003343F4107319469A
:101EF0007868104B98473B689B68194678680E4B8A
:101F000098473B685B7B194678680C4B984700BF45
:101F10004FF0FF3178680A4B98470346002BF7D102
:101F200000BF0837BD4680BD8C2400009912000018
:101F3000D9170000A11800005F190000E319000084
:101F40002116000080B584B000AF78607B68184629
:101F50000E4B98470346BB730023FB730DE006222C
:101F6000BB7B934206D1FA7B13461B011344084AFC
:101F7000134406E0FB7B0133FB73FB7B002BEED0AD
:101F8000002318461037BD4680BD00BF511B00001E
:101F9000C824000080B584B000AF786039603B6829
:101FA0001846354B9847F8607B68002B04D03B6897
:101FB000002B01D0012300E0002303F00103DBB27A
:101FC00040F63F122D4918462D4B9847FB68002BD1
:101FD00002D16FF00C034AE001213868294B984781
:101FE000034683F00103DBB2002B19D0FB681B68AA
:101FF00003F01C03BB6002213868234B984703465B
:10200000002B06D03868214B984702213868204BB6
:102010009847BB6843F00103194638681D4B984741
:10202000012138681A4B98477B683A681A60FB6848
:102030001B6803F01C03082B04D1F9683868164BA1
:10204000984703E0F9683868144B9847FB685B6869
:1020500003F00703002B01D1012200E002227B687C
:102060001A71FB68DB899AB27B68DA800023184614
:102070001037BD4680BD00BF451F00008C24000006
:102080009912000021160000A91700008117000016
:10209000FD150000D9170000991E0000051E000064
:1020A00080B582B000AF7860396039687868034BDA
:1020B0009847034618460837BD4680BD951F000067
:1020C00080B582B000AF78607B68002B05D07B685C
:1020D0001B68002B01D0012300E0002303F0010363
:1020E000DBB240F6A51207491846074B98477B68B4
:1020F0001B681846054B9847034618460837BD46E7
:1021000080BD00BF8C24000099120000D11D00008A
:1021100080B582B000AF78600B467B807B68002B77
:1021200005D07B681B68002B01D0012300E0002351
:1021300003F00103DBB240F61A3208491846084B97
:1021400098477B681B687A8811461846054B984764
:10215000002318460837BD4680BD00BF8C24000010
:10216000991200007B19000080B582B000AF786042
:102170007B68002B05D07B681B68002B01D00123F6
:1021800000E0002303F00103DBB240F631320749DF
:102190001846074B98477B681B681846054B9847BD
:1021A00003469BB218460837BD4680BD8C2400000C
:1021B000991200009719000080B582B000AF7860D6
:1021C0007B68002B05D07B681B68002B01D00123A6
:1021D00000E0002303F00103DBB240F64C320A4971
:1021E00018460A4B98477B681B6801211846084B24
:1021F00098470346002B14BF01230023DBB2184687
:102200000837BD4680BD00BF8C2400009912000035
:102210009516000080B582B000AF78607B68002B17
:1022200005D07B681B68002B01D0012300E0002350
:1022300003F00103DBB240F653320A4918460A4B59
:1022400098477B681B6804211846084B984703464B
:10225000002B14BF01230023DBB218460837BD460C
:1022600080BD00BF8C24000099120000951600006C
:1022700080B584B000AF78607B681B68FB607B68CA
:10228000002B04D0FB68002B01D0012300E00023C9
:1022900003F00103DBB240F65C320B4918460B4BEE
:1022A00098470221F8680A4B98470346002B05D04F
:1022B0000221F868074B9847012300E000231846E5
:1022C0001037BD4680BD00BF8C240000991200006D
:1022D00095160000BD16000080B584B000AF786090
:1022E0007B681B68FB607B68002B04D0FB68002BBD
:1022F00001D0012300E0002303F00103DBB240F62C
:1023000069320D4918460D4B98478021F8680C4BEF
:1023100098470346002B09D00421F868094B9847D9
:102320008021F868084B9847012300E000231846F5
:102330001037BD4680BD00BF8C24000099120000FC
:1023400095160000231A0000BD16000090B587B056
:1023500000AF174B98474FF000034FF00004C7E958
:1023600004340023FB600023BB600023FB71114990
:102370001148124B98471048114B98470023BB71E6
:1023800000237B710F4910480C4B98470E480C4BAB
:1023900098473B4619460D480D4B98470B480D4B47
:1023A00098473B68B968022218460B4B9847F8E7F4
:1023B000D10200004C00002060000020F910000055
:1023C000B910000050000020540000206C000020D4
:1023D00001100000C50F0000B50C000070B50D4ED7
:1023E0000D4CA41BA4100025A54209D10B4E0C4C8A
:1023F00000F074F8A41BA4100025A54205D170BDFF
:1024000056F8253098470135EEE756F825309847BD
:102410000135F2E7E8240000E8240000E824000089
:10242000EC2400002E2E2F68706C2F706F72742FAA
:1024300068706C5F6770696F5F626173652E6800BA
:102440002E2E2F68616C2F7372632F68616C5F6929
:102450006F2E63002E2E2F68616C2F7372632F68AE
:10246000616C5F7370695F735F73796E632E630075
:102470002E2E2F68616C2F7372632F68616C5F75ED
:10248000736172745F73796E632E63002E2E2F68F2
:10249000706C2F736572636F6D2F68706C5F7365FE
:1024A00072636F6D2E630000003000400034004006
:1024B00000200141004001410000004300040043AE
:1024C00000080043000C0043080030100000020028
:1024D000000000000000000006000000F8B500BF8A
:1024E000F8BC08BC9E46704789020000F8B500BFE2
:0C24F000F8BC08BC9E4670476502000066
:1024FC000000000004001040000003000200700007
:10250C00B9FC0000000000000200000004001040B4
:10251C000000030002007000B9FC00000000000085
:00000001FF
