S01400004C45445F53776974636865722E7372656393
S113000078000120E10200007D0300007D03000070
S11300107D0300007D0300007D030000000000005C
S11300200000000000000000000000007D0300004C
S11300307D030000000000007D0300007D0300003C
S11300407D0300007D0300007D0300007D030000AC
S11300507D0300007D0300007D0300007D0300009C
S11300607D0300007D0300007D0300006516000091
S11300707D0300007D0300007D0300007D0300007C
S11300807D0300007D0300007D0300007D0300006C
S11300907D0300007D0300007D0300007D0300005C
S11300A07D0300007D0300007D0300007D0300004C
S11300B07D0300007D0300007D0300007D0300003C
S11300C07D0300007D0300007D0300007D0300002C
S11300D07D0300007D0300007D0300007D0300001C
S11300E07D0300007D03000000000000000000000C
S11300F000000000351400007D0300007D030000B3
S11301007D0300007D0300007D0300007D030000EB
S11301107D0300007D0300007D0300007D030000DB
S11301207D0300007D0300007D0300007D030000CB
S11301307D0300007D0300007D0300007D030000BB
S11301407D0300007D0300007D0300007D030000AB
S11301507D0300007D0300007D0300007D0300009B
S11301607D0300007D0300007D0300007D0300008B
S11301707D0300007D0300007D0300007D0300007B
S11301807D0300007D0300007D0300007D0300006B
S11301907D0300007D030000451F00007D03000077
S11301A07D0300007D0300007D0300007D0300004B
S11301B07D0300007D0300007D0300007D0300003B
S11301C07D0300007D0300007D0300007D0300002B
S11301D07D0300007D0300007D0300007D0300001B
S11301E07D0300007D0300007D0300007D0300000B
S11301F07D0300007D0300007D0300007D030000FB
S11302007D0300007D0300007D0300007D030000EA
S11302107D0300007D0300007D0300007D030000DA
S11302207D0300007D0300007D0300007D030000CA
S11302307D0300007D0300007D0300007D030000BA
S11302407D0300007D0300007D0300007D030000AA
S11302507D0300007D0300007D0300007D0300009A
S11302607D03000010B5054C237833B9044B13B15A
S11302700448AFF300800123237010BD1800002050
S113028000000000C02000000C4B43B10C480D4995
S113029010B5AFF300800C48036823B910BD0A48B9
S11302A0036833B97047094B002BF7D0BDE8104001
S11302B01847064B002BF5D0184700BF000000007C
S11302C0C02000001C000020C0200000000000002E
S11302D080B500AF014B984700BF80BDD90A00002C
S11302E080B582B000AF1C4B7B601C4B3B607A68CE
S11302F03B689A420CD007E03B681A1D3A607A6862
S1130300111D796012681A603B68154A9342F3D351
S1130310144B3B6004E03B681A1D3A6000221A60EB
S11303203B68114A9342F6D3104B7B60104A7B68BA
S113033023F07F0393600E4A0D4BD3F8883043F4C7
S11303407003C2F88830BFF34F8FBFF36F8F094B30
S11303509847094B9847FEE7C020000000000020A2
S11303601800002018000020780000200000000081
S113037000ED00E06D1F0000C91E000080B400AF56
S1130380FEE780B485B000AFF8600B467A60FB727C
S1130390FA7AFB682032796843F8221000BF1437D8
S11303A0BD465DF8047B704780B483B000AF7860CD
S11303B07B685B6943F400727B685A6100BF0C3749
S11303C0BD465DF8047B704780B483B000AF7860AD
S11303D07B689B6943F400727B689A6100BF0C37A9
S11303E0BD465DF8047B704780B483B000AF78608D
S11303F07B689B6943F400627B689A6100BF0C3799
S1130400BD465DF8047B704780B485B000AFF860EA
S11304100B467A60FB72FB7AFA68DB0113440833FB
S11304207A681A6000BF1437BD465DF8047B7047D4
S113043080B485B000AFF8600B467A60FB72FB7A3B
S1130440FA68DB01134404337A681A6000BF143776
S1130450BD465DF8047B704780B485B000AFF8609A
S11304600B467A60FB72FB7AFA68DB01134418339B
S11304707A681A6000BF1437BD465DF8047B704784
S113048080B485B000AFF8600B467A60FB72FB7AEB
S1130490FA68DB01134414337A681A6000BF143716
S11304A0BD465DF8047B704780B485B000AF7860CA
S11304B0084611461A460346FB700B46BB701346AA
S11304C07B70FA78BB787968D2010A4413443033DC
S11304D01B78FB73FB7B23F00F03FB737B7803F028
S11304E00F03DAB2FB7B1343FB73FA78BB787968AA
S11304F0D2010A4413443033FA7B1A7000BF143714
S1130500BD465DF8047B704780B485B000AF786069
S1130510084611461A460346FB700B46BB70134649
S11305207B70FA78BB787968D2010A44134430337B
S11305301B78FB73FB7B03F00F03FB737B781B01BE
S1130540DAB2FB7B1343FB73FA78BB787968D20188
S11305500A4413443033FA7B1A7000BF1437BD4683
S11305605DF8047B704780B485B000AF78600846BE
S113057011461A460346FB700B46BB7013467B704C
S1130580FA78BB787968D2010A44134440331B7863
S1130590FB73FB7B23F00103FB737A78FB7B134330
S11305A0FB73FA78BB787968D2010A441344403368
S11305B0FA7B1A7000BF1437BD465DF8047B7047A0
S11305C090B482B000AF78600B46FB701346BB70EA
S11305D0FA78BB78F878B9787C68C0012044014483
S11305E040310978C9B241F00401C8B27968D20136
S11305F00A441344403302461A7000BF0837BD460C
S113060090BC704790B482B000AF78600B46FB702A
S11306101346BB70FA78BB78F878B9787C68C00167
S11306202044014440310978C9B221F00401C8B220
S11306307968D2010A441344403302461A7000BF59
S11306400837BD4690BC704780B485B000AFF860F1
S11306500B467A60FB72FB7AFA68DB011344283399
S11306607A681A6000BF1437BD465DF8047B704792
S113067080B582B000AF03463960FB711346BB718D
S1130680BB79012B1CD0022B37D0002B4ED1FB7928
S11306903A6819462A482B4B98473B689BB243F06B
S11306A08042FB7919462648274B98473B681B0C28
S11306B043F04042FB7919462148234B98473AE0DE
S11306C0FB793A6819461E481E4B98473B689BB213
S11306D043F0804343F40033F9791A4618481A4B1F
S11306E098473B681B0C43F0404343F40033F979CB
S11306F01A461348144B98471DE0FB793A6819468B
S11307000F48124B98473B689BB243F08042FB79F9
S113071019460B480C4B98473B681B0C43F040426E
S1130720FB7919460648084B984704E046220849D5
S11307300020084B984700BF0837BD4680BD00BF66
S11307400080004131040000490600000904000053
S1130750B41F00006110000080B582B000AF0346F2
S11307603960FB711346BB71BB79002B06D0FB7952
S11307703A6819460648074B984705E0FB793A68FA
S113078019460348044B984700BF0837BD4680BD4F
S113079000800041590400008104000080B582B04B
S11307A000AF0346FB710B46BB7113467B717B792B
S11307B0012B0AD0022B1FD0002B34D1BA79FB793C
S11307C019461E481E4B984733E0BB7901229A40D4
S11307D0FB79194619481B4B9847BA79FB79194696
S11307E01648194B9847BB7901229A40FB79194660
S11307F01248164B98471CE0BB7901229A40FB79BA
S113080019460E480F4B9847BA79FB7919460B489D
S11308100D4B9847BB7901229A40FB79194607484A
S11308200B4B984705E089220A4900200A4B984758
S113083000BF00BF0837BD4680BD00BF0080004137
S11308400506000031040000C10500005904000041
S113085081040000B41F00006110000090B585B051
S113086000AF786039607B685B09FB737B68DBB23F
S113087003F01F03BB733B68B3F1FF3F06D1BA7BA0
S1130880F97B00231248134CA0471DE0BA7BF97B87
S113089001230F480F4CA047BB7B03F00103002B3F
S11308A009D0BB7B5B08DAB23B68DBB2F97B084852
S11308B0094CA04708E0BB7B5B08DAB23B68DBB2BB
S11308C0F97B0348054CA04700BF1437BD4690BDD3
S11308D0008000416705000009050000A90400002C
S11308E080B582B000AF03460A46FB711346BB7164
S11308F0FB795B09D8B2FB7903F01F03DBB2BA7949
S11309001946034B984700BF0837BD4680BD00BF5A
S11309109D07000080B582B000AF78603960396807
S11309207868034B984700BF0837BD4680BD00BFB9
S11309305D08000080B582B000AF03460A46FB7133
S11309401346BB71FB795B09D8B2FB7903F01F0333
S1130950012202FA03F3BA791946034B984700BF00
S11309600837BD4680BD00BF7106000080B582B067
S113097000AF03460A46FB711346BB71FB795B0962
S1130980D8B2FB7903F01F03012202FA03F3BA7908
S11309901946034B984700BF0837BD4680BD00BFCA
S11309A05907000080B500AF014B984700BF80BDD8
S11309B0A111000080B500AF0648074B9847074BCC
S11309C0984703461A4606490648074B984700BF0E
S11309D080BD00BF00080040A903000055160000B8
S11309E00024004048000020450C000080B500AF02
S11309F004493920044B984704493820024B98474E
S1130A0000BF80BD03003900150900000300380051
S1130A1080B500AF402217210648074B9847432270
S1130A2003210448044B98470448054B984700BFEA
S1130A3080BD00BF001C004083030000000800408C
S1130A40C903000080B500AF054B98470022054953
S1130A500548064B9847064B984700BF80BD00BF2A
S1130A60110A0000002001413C000020110E00008A
S1130A70ED09000080B500AF0248034B984700BF62
S1130A8080BD00BF10E000E0910B000080B500AF16
S1130A9004494A20044B984704494B20024B984789
S1130AA000BF80BD05004A001509000005004B0089
S1130AB080B500AF0448054B9847402219210448EB
S1130AC0044B984700BF80BD00080040E9030000C4
S1130AD0001C00408303000080B500AF214B984701
S1130AE001212120204B9847002121201F4B9847AA
S1130AF04FF0FF3121201E4B9847012125201A4B2E
S1130B00984701212520194B98474FF0FF312520A4
S1130B10174B984701213F20134B984701213F2051
S1130B20124B98474FF0FF313F20114B984701215A
S1130B305220104B9847022152200B4B98474FF0FC
S1130B40FF3152200A4B98470B4B98470B4B984761
S1130B500B4B98470B4B98470B4B98470B4B9847BD
S1130B6000BF80BDA509000035090000E1080000B0
S1130B70150900006D090000B5090000450A0000D0
S1130B80750A0000B10A00008D0A0000191E000059
S1130B9080B582B000AF7860054A7B681360044B6F
S1130BA01B681846034B984700BF0837BD4680BDF5
S1130BB034000020751C000080B584B000AFF860DC
S1130BC0B9601346FB80FB68002B04D0BB68002B84
S1130BD001D0012300E0002303F00103DBB23D2236
S1130BE007491846074B9847FB685B68FA88B96859
S1130BF0F8689847034618461037BD4680BD00BFC5
S1130C00D01F00006110000080B483B000AF786092
S1130C107B681B6818460C37BD465DF8047B70473B
S1130C2080B483B000AF78607B68002B02D07B680F
S1130C301B6800E0002318460C37BD465DF8047BB2
S1130C407047000080B584B000AFF860B9607A6086
S1130C50FB68002B04D0BB68002B01D0012300E00B
S1130C60002303F00103DBB23B220A4918460A4B76
S1130C709847FB68B9681846084B9847FB680022F8
S1130C801A61FB68064A1A60002318461037BD46ED
S1130C9080BD00BFE41F0000611000007915000052
S1130CA0550D000080B588B000AFF860B9607A6077
S1130CB00023BB61F868234B984738613B69002BDC
S1130CC004D1B968F868204B984737E03B69FB6169
S1130CD022E0FB695A687B689A4208D8FB699A68E3
S1130CE0FB6959687B68CB1A13447B6109E0FB6993
S1130CF09A68FB695B681A447B685B42134401335E
S1130D007B61BB689A687B699A4209D9FB69BB61BC
S1130D10F8690E4B9847F861FB69002BD9D100E0C4
S1130D2000BFFA693B699A4204D1B968F868064B76
S1130D30984703E0B968B869054B98472037BD4622
S1130D4080BD00BF090C0000C1100000210C000090
S1130D501911000080B586B000AF78607B683B61F4
S1130D603B6914331846274B984778613B691B69E4
S1130D705A1C3B691A613B691B69FB603B691B7E1A
S1130D80DBB203F00103002B06D13B691B7EDBB20F
S1130D9003F00203002B27D03B691B7EDBB243F038
S1130DA00203DAB23B691A7629E07B69BB603B69CE
S1130DB014331846144B9847BB681B7C012B09D18C
S1130DC0BB68FA685A603B691433FA68B968184614
S1130DD00E4B98473B69143318460A4B9847786181
S1130DE0BB68DB68B86898477B69002B07D07B69D0
S1130DF05B68FA68D21A7B699B689A42D5D2183725
S1130E00BD4680BD090C00003D110000A50C00008A
S1130E1080B586B000AFF860B9607A60FB68002BDB
S1130E2004D0BB68002B01D0012300E0002303F0B1
S1130E300103DBB234220D4918460D4B9847FB6879
S1130E400833B96818460B4B984778617B69002BC7
S1130E5001D07B6906E0FB68074A5A60FB68074AD1
S1130E601A60002318461837BD4680BDFC1F0000D9
S1130E7061100000BD180000CD0F0000050F000038
S1130E8080B582B000AF78607B68002B14BF01236B
S1130E900023DBB2532207491846074B98477B6867
S1130EA008331846054B9847002318460837BD46B3
S1130EB080BD00BFFC1F000061100000011900008C
S1130EC080B582B000AF786039607B68002B04D0B5
S1130ED03B68002B01D0012300E0002303F0010351
S1130EE0DBB2692205491846054B98477A683B6886
S1130EF01A60002318460837BD4680BDFC1F000059
S1130F006110000080B586B000AFF860B960134688
S1130F10FB8000237B61FB683B61FB68002B07D0EF
S1130F20BB68002B04D0FB88002B01D0012300E018
S1130F30002303F00103DBB2F1221F4918461F4BC3
S1130F40984700BF3B69083318461D4B9847034632
S1130F5083F00103DBB2002BF4D13B6903F10800F9
S1130F60BA687B6913441B781946164B984700BF2F
S1130F703B6908331846124B9847034683F0010334
S1130F80DBB2002BF4D17B6901337B61FB887A6986
S1130F909A42E2D300BF3B69083318460A4B98478C
S1130FA0034683F00103DBB2002BF4D17B691846BE
S1130FB01837BD4680BD00BFFC1F00006110000053
S1130FC06D190000211900008D19000090B587B03B
S1130FD000AFF860B9601346FB8000237B61FB68B7
S1130FE03B61FB68002B07D0BB68002B04D0FB8857
S1130FF0002B01D0012300E0002303F00103DBB246
S11310004FF4867212491846124B984700BF3B6949
S113101008331846104B9847034683F00103DBB2AC
S1131020002BF4D1BA687B69D4183B69083318469D
S11310300A4B9847034623707B6901337B61FB8825
S11310407A699A42E2D37B6918461C37BD4690BD43
S1131050FC1F000061100000AD19000049190000D8
S113106080B485B000AF0346B9607A60FB73FB7B44
S113107083F00103DBB2002B00D000BE00BF1437A5
S1131080BD465DF8047B704780B485B000AF7860DE
S113109039607B681B68FB6008E0FA683B689A4229
S11310A001D1012306E0FB681B68FB60FB68002B91
S11310B0F3D1002318461437BD465DF8047B70470E
S11310C080B582B000AF78603960396878680F4BBA
S11310D098470346002B14BF01230023DBB283F09F
S11310E00103DBB203F00103DBB2392208491846DD
S11310F0084B98477B681A683B681A607B683A68B3
S11311001A6000BF0837BD4680BD00BF89100000CB
S1131110182000006110000080B483B000AF786034
S113112039607B681A683B681A607B683A681A60A1
S113113000BF0C37BD465DF8047B704780B485B0B2
S113114000AF78607B681B68002B09D07B681B6844
S1131150FB607B681B681A687B681A60FB6800E0A8
S1131160002318461437BD465DF8047B704780B4ED
S113117083B000AF78600B467B807B681B889AB293
S11311807B881B029BB203F470639BB213439AB235
S11311907B681A8000BF0C37BD465DF8047B70473E
S11311A080B500AF00210848084B9847084B984782
S11311B0084B9847084B9847084B984740F6FF70F0
S11311C0074B984700BF80BD004000416F110000ED
S11311D00D130000A513000089120000E5130000A0
S11311E03912000080B483B000AF7860396000BF6A
S11311F07B685A683B681340002BF9D100BF0C3759
S1131200BD465DF8047B704780B584B000AFF860DC
S11312100B467A60FB72FA7AFB680832796843F805
S1131220221043F6FD71F868024B984700BF10374F
S1131230BD4680BDE511000080B582B000AF786086
S11312407B6803F00103002B04D0044A0021044806
S1131250044B984700BF0837BD4680BD010101001B
S1131260001C00400912000080B483B000AF786015
S11312700B46FB707B68FA785A7100BF0C37BD4689
S11312805DF8047B7047000080B582B000AF054B69
S11312907B6001217868044B984700BF0837BD463E
S11312A080BD00BF000800406912000080B483B014
S11312B000AF78600B46FB707B68FA781A7400BF45
S11312C00C37BD465DF8047B704780B485B000AF31
S11312D078607B68DB69FB60FB681B0A03F03F03F3
S11312E0FB60FB6818461437BD465DF8047B704705
S11312F080B483B000AF786039607B683A68DA61A3
S113130000BF0C37BD465DF8047B704780B582B0E2
S113131000AF0C4B7B6000237B8078680A4B9847B6
S113132003467B807B881B0203F47C531946786850
S1131330064B984701217868054B984700BF08374A
S1131340BD4680BD00140040CB120000F112000025
S1131350AD12000080B483B000AF78607B681B6975
S11313605B0803F00103002B14BF01230023DBB24D
S113137018460C37BD465DF8047B704780B485B0D1
S113138000AFF8600B467A60FB72FB7AFA680433AC
S11313909B0013447A685A6000BF1437BD465DF859
S11313A0047B704780B582B000AF0A4B7B600A4A69
S11313B001217868094B984700BF7868084B984723
S11313C0034683F00103DBB2002BF6D100BF0837DC
S11313D0BD4680BD00100040062600037D130000BA
S11313E05513000080B483B000AF044B7B6000BF92
S11313F00C37BD465DF8047B704700BF0010004009
S113140080B483B000AF78607B689B78DBB2184609
S11314100C37BD465DF8047B704780B483B000AFE1
S113142078607B685B6818460C37BD465DF8047BC2
S11314307047000090B583B000AF174B7B6017482E
S1131440174B984703463B603B6803F00203002BAD
S11314500CD07B681B68002B08D07B681C680F4885
S1131460104B984703461846A04712E03B6803F028
S11314700103002B0CD07B685B68002B08D07B68D1
S11314805C680648074B984703461846A04700E0A7
S113149000BF0C37BD4690BD64000020000002412F
S11314A0011400001B14000080B483B000AF786006
S11314B0396000BF7B681A693B681340002BF9D17F
S11314C000BF0C37BD465DF8047B704780B483B021
S11314D000AF78607B684FF480729A8100BF0C374C
S11314E0BD465DF8047B704780B483B000AF78607C
S11314F07B689B899BB218460C37BD465DF8047B1C
S1131500704780B483B000AF78607B684FF480721A
S11315105A8100BF0C37BD465DF8047B704700005C
S113152080B582B000AF78600B467B807B687A8898
S11315301A8048F203017868024B984700BF0837C5
S1131540BD4680BDA914000080B584B000AFF8602A
S11315500B467A60FB72FA7AFB680832796843F8C2
S113156022106021F868034B984700BF1037BD462E
S113157080BD00BFA914000080B582B000AF7860C0
S113158039607B68002B14BF01230023DBB23022B7
S113159016491846164B98477B683A68DA607B68A8
S11315A0DB6801211846134B98477B68DB680121EF
S11315B01846114B98477B68DB6848F2800118464F
S11315C00C4B98477B68DB682022002118460B4BA4
S11315D098477B68DB681846094B9847094A7B683B
S11315E01360002318460837BD4680BD382000002C
S11315F06110000021150000A91400004915000025
S1131600031500003800002080B584B000AF786076
S11316107B68DB6818460D4B98470346FB81FB89C2
S113162003F48073002B0CD07B681B68002B03D061
S11316307B681B68786898477B68DB681846044BAE
S1131640984700BF1037BD4680BD00BFE9140000B5
S1131650CD14000080B400AF00231846BD465DF8E9
S1131660047B704780B500AF034B1B681846034BDF
S1131670984700BF80BD00BF380000200916000055
S113168080B483B000AF7860396000BF7B68DA69EA
S11316903B681340002BF9D100BF0C37BD465DF801
S11316A0047B704780B483B000AF786039607B6896
S11316B0DA693B681340002B14BF01230023DBB21B
S11316C018460C37BD465DF8047B704780B483B080
S11316D000AF78607B681B7EDBB203F00103002B54
S11316E014BF01230023DBB218460C37BD465DF856
S11316F0047B704780B483B000AF78607B681B7E46
S1131700DBB25B0803F00103002B14BF01230023A9
S1131710DBB218460C37BD465DF8047B704780B4D5
S113172083B000AF78607B681B7EDBB29B0803F05C
S11317300103002B14BF01230023DBB218460C372E
S1131740BD465DF8047B704780B582B000AF786019
S11317507B681B6843F002027B681A600321786887
S1131760024B984700BF0837BD4680BD8116000074
S113177080B582B000AF78607B681B6823F00202FA
S11317807B681A6003217868024B984700BF0837CA
S1131790BD4680BD8116000080B584B000AF78607E
S11317A0396003217868074B98477B681B68FB60A6
S11317B0FA683B681340FB60FB6818461037BD4667
S11317C080BD00BF8116000080B582B000AF786094
S11317D039607B683A681A6003217868024B98473D
S11317E000BF0837BD4680BD8116000080B582B0B9
S11317F000AF786039607B683A685A601F21786866
S1131800024B984700BF0837BD4680BD81160000D3
S113181080B483B000AF786039607B683A689A60BE
S113182000BF0C37BD465DF8047B704780B483B0BD
S113183000AF78600B467B807B687A889A8100BF12
S11318400C37BD465DF8047B704780B483B000AFAD
S113185078600B46FB707B68FA789A7300BF0C378C
S1131860BD465DF8047B704780B483B000AF7860F8
S113187039607B683A689A6200BF0C37BD465DF8F0
S1131880047B704780B483B000AF78607B689B6A48
S113189018460C37BD465DF8047B704780B483B0AE
S11318A000AF78600B46FB707B68FA7883F83020D1
S11318B000BF0C37BD465DF8047B704780B582B02D
S11318C000AF786039607B68002B14BF01230023CC
S11318D0DBB2BB2207491846074B98477B683A6836
S11318E01A603868054B9847034618460837BD46C2
S11318F080BD00BF50200000611000008D1A000060
S113190080B582B000AF78607B681B681846034BD3
S1131910984700BF0837BD4680BD00BF4917000087
S113192080B582B000AF78600B46FB707B681B68A3
S1131930FA7811461846034B984700BF0837BD464E
S113194080BD00BF6918000080B582B000AF786028
S11319507B681B681846044B98470346DBB218465D
S11319600837BD4680BD00BF8518000080B582B031
S113197000AF78607B681B681846034B98470346A2
S113198018460837BD4680BDCD16000080B582B02C
S113199000AF78607B681B681846034B9847034682
S11319A018460837BD4680BDF516000080B582B0E4
S11319B000AF78607B681B681846034B9847034662
S11319C018460837BD4680BD1F170000B0B48DB05F
S11319D000AF7860134B07F10C041D460FCD0FC404
S11319E095E80F0084E80F000023FB6210E0FB6A17
S11319F09B0007F13002134453F8243C1A467B68D9
S1131A009A4202D1FB6ADBB206E0FB6A0133FB6255
S1131A10FB6A072BEBD9002318463437BD46B0BC0C
S1131A20704700BF6C20000080B584B000AF7860C0
S1131A307868124B98470346BB730023FB730FE08F
S1131A40FA7B0F4913465B001344DB000B441B78FD
S1131A50BA7B9A4201D1FB7B0CE0FB7B0133FB7325
S1131A60FB7B002BECD040F2472206490020064BBA
S1131A709847002318461037BD4680BDCD19000095
S1131A8000000020502000006110000080B584B0E8
S1131A9000AF78607868614B98470346FB73012177
S1131AA078685F4B9847034683F00103DBB2002B51
S1131AB020D0FA7B5B4913465B001344DB000B44E4
S1131AC004331B6803F01C03BB6002217868564B87
S1131AD098470346002B06D07868544B9847022158
S1131AE07868534B9847BB6843F0010319467868FC
S1131AF0504B9847012178684D4B9847FA7B4949E8
S1131B0013465B001344DB000B4404331B68194683
S1131B107868484B9847FA7B424913465B00134464
S1131B20DB000B4408331B6819467868424B98471E
S1131B30FA7B3C4913465B001344DB000B440C3333
S1131B401B68194678683D4B9847FA7B354913461C
S1131B505B001344DB000B4404331B6803F40053A1
S1131B60002B0CD1FA7B2F4913465B001344DB0096
S1131B700B4404331B6803F4C043002B22D0FA7BCC
S1131B80284913465B001344DB000B4410331B88C5
S1131B90C3F30C0399B27A68938961F30C039381BC
S1131BA0FA7B204913465B001344DB000B441233D9
S1131BB01B7803F00703D9B27A68938961F34F3332
S1131BC093810CE0FA7B174913465B001344DB0056
S1131BD00B4410331B8819467868194B9847FA7BD5
S1131BE0104913465B001344DB000B4413331B788A
S1131BF019467868134B9847FA7B0A4913465B00E9
S1131C001344DB000B4414331B78194678680E4BDD
S1131C109847002318461037BD4680BD291A000096
S1131C20A51600000000002099170000711700009D
S1131C3081160000C9170000ED17000011180000FC
S1131C402D1800004B1800009D18000080B483B0CC
S1131C5000AF7860064B6FF07F425A60044B052258
S1131C601A6000BF0C37BD465DF8047B704700BFA7
S1131C7010E000E080B582B000AF78607868034B74
S1131C80984700BF0837BD4680BD00BF4D1C00000B
S1131C9080B483B000AF7860396000BF7B689A6815
S1131CA03B681340002BF9D100BF0C37BD465DF8EB
S1131CB0047B704780B483B000AF786039607B6880
S1131CC09A683B681340002B14BF01230023DBB246
S1131CD018460C37BD465DF8047B704780B584B068
S1131CE000AF78600B46FB707B681B68FB60FB6889
S1131CF023F00203FB60FB785B001A46FB68134386
S1131D00FB607B68FA681A6003217868024B984785
S1131D1000BF1037BD4680BD911C000080B582B065
S1131D2000AF78607B681B6823F002027B681A604E
S1131D3003217868024B984700BF0837BD4680BD31
S1131D40911C000080B584B000AF78603960032135
S1131D507868074B98477B681B68FB60FA683B68A8
S1131D601340FB60FB6818461037BD4680BD00BFBA
S1131D70911C000080B582B000AF786039607B6848
S1131D803A681A6003217868024B984700BF083705
S1131D90BD4680BD911C000080B582B000AF786064
S1131DA039607B683A68DA6343F6FF717868034BFD
S1131DB0984700BF0837BD4680BD00BF911C000096
S1131DC080B582B000AF786039607B683A681A6485
S1131DD080217868024B984700BF0837BD4680BD14
S1131DE0911C000080B584B000AFF8600B467A60A7
S1131DF0FB72FB7AFA6810339B0013447A685A60CA
S1131E004FF47C51F868034B984700BF1037BD4628
S1131E1080BD00BF911C000080B500AF01212048A7
S1131E20204B9847034683F00103DBB2002B11D00B
S1131E3002211B481C4B98470346002B06D0184828
S1131E401A4B984702211648194B98470121144808
S1131E50184B984701211248154B98474FF480714D
S1131E600F48144B98474FF6FF7200210C48124B51
S1131E7098474FF6FF72012109480F4B98470221FA
S1131E8007480E4B98474FF6FF7105480C4B98478F
S1131E90012103480B4B98470023184680BD00BF1F
S1131EA000600141B51C0000451D00001D1D00001F
S1131EB0911C0000751D0000E51D0000991D000027
S1131EC0C11D0000DD1C000080B584B000AF114BC3
S1131ED098470023FB7107F1080319460E480F4B7E
S1131EE098470D480E4B98470023FB730023BB73A0
S1131EF0BB68F91D012218460A4B9847FB79312B20
S1131F0002D10023FB73F3E7FB79302BF0D10123DB
S1131F10FB73EDE7D10200003C000020C10E00007D
S1131F20810E0000B90B000080B483B000AF78606C
S1131F3039607B683A68DA6200BF0C37BD465DF8E9
S1131F40047B704780B500AF4FF480310448054BE3
S1131F509847054B1B680248984700BF80BD00BFE7
S1131F6000600141291F00007400002070B50D4E6F
S1131F700D4CA41BA4100025A54209D10B4E0C4CFA
S1131F8000F08EF8A41BA4100025A54205D170BD55
S1131F9056F8253098470135EEE756F8253098472E
S1131FA00135F2E7AC200000AC200000AC200000BA
S1131FB0B02000002E2E2F68706C2F706F72742F5B
S1131FC068706C5F6770696F5F626173652E68002B
S1131FD02E2E2F68616C2F7372632F68616C5F699A
S1131FE06F2E63002E2E2F68616C2F7372632F681F
S1131FF0616C5F74696D65722E6300002E2E2F680C
S1132000616C2F7372632F68616C5F757361727496
S11320105F73796E632E63002E2E2F68616C2F75AB
S113202074696C732F7372632F7574696C735F6C4E
S11320306973742E630000002E2E2F68706C2F724B
S113204074632F68706C5F7274632E630000000009
S11320502E2E2F68706C2F736572636F6D2F6870EE
S11320606C5F736572636F6D2E6300000030004017
S113207000340040002001410040014100000043C1
S11320800004004300080043000C0043000000006B
S1132090000000000000000000000000000000003C
S11320A0F8B500BFF8BC08BC9E4670478902000022
S11320B0F8B500BFF8BC08BC9E4670476502000036
S11320C00200000004001040000003000200700041
S10B20D0B9FC0000000000004F
S9030000FC
