:1000000060010120E10200007D0300007D0300008B
:100010007D0300007D0300007D0300000000000060
:100020000000000000000000000000007D03000050
:100030007D030000000000007D0300007D03000040
:100040007D0300007D0300007D0300007D030000B0
:100050007D0300007D0300007D0300007D030000A0
:100060007D0300007D0300007D0300007D03000090
:100070007D0300007D0300007D0300007D03000080
:100080007D0300007D0300007D0300007D03000070
:100090007D0300007D0300007D0300007D03000060
:1000A0007D0300007D0300007D0300007D03000050
:1000B0007D0300007D0300007D0300007D03000040
:1000C0007D0300007D0300007D0300007D03000030
:1000D0007D0300007D0300007D0300007D03000020
:1000E0007D0300007D030000000000000000000010
:1000F00000000000A51800007D0300007D03000043
:100100007D0300007D0300007D0300007D030000EF
:100110007D0300007D030000B1230000CD2300001B
:10012000E9230000052400007D0300007D0300009A
:100130007D0300007D0300007D0300007D030000BF
:100140007D0300007D0300007D0300007D030000AF
:100150007D0300007D0300007D0300007D0300009F
:100160007D0300007D0300007D0300007D0300008F
:100170007D0300007D0300007D0300007D0300007F
:100180007D0300007D0300007D0300007D0300006F
:100190007D0300007D0300001D3000007D03000092
:1001A0007D0300007D0300007D0300007D0300004F
:1001B0007D0300007D0300007D0300007D0300003F
:1001C0007D0300007D0300007D0300007D0300002F
:1001D0007D0300007D0300007D0300007D0300001F
:1001E0007D0300007D0300007D030000C52B00009F
:1001F0007D030000E12B00007D0300007D03000073
:100200007D0300007D0300007D0300007D030000EE
:100210007D0300007D0300007D0300007D030000DE
:100220007D0300007D0300007D0300007D030000CE
:100230007D0300007D0300007D0300007D030000BE
:100240007D0300007D0300007D0300007D030000AE
:100250007D0300007D0300007D0300007D0300009E
:100260007D03000010B5054C237833B9044B13B15E
:100270000448AFF300800123237010BD4800002024
:1002800000000000DC3100000C4B43B10C480D496C
:1002900010B5AFF300800C48036823B910BD0A48BD
:1002A000036833B97047094B002BF7D0BDE8104005
:1002B0001847064B002BF5D0184700BF0000000080
:1002C000DC3100004C000020DC31000000000000A8
:1002D00080B500AF014B984700BF80BD3D0B0000CB
:1002E00080B582B000AF1C4B7B601C4B3B607A68D2
:1002F0003B689A420CD007E03B681A1D3A607A6866
:10030000111D796012681A603B68154A9342F3D355
:10031000144B3B6004E03B681A1D3A6000221A60EF
:100320003B68114A9342F6D3104B7B60104A7B68BE
:1003300023F07F0393600E4A0D4BD3F8883043F4CB
:100340007003C2F88830BFF34F8FBFF36F8F094B34
:100350009847094B9847FEE7DC3100000000002079
:100360004400002048000020600100200000000040
:1003700000ED00E045300000A52E000080B400AF85
:10038000FEE780B485B000AFF8600B467A60FB7280
:10039000FA7AFB682032796843F8221000BF1437DC
:1003A000BD465DF8047B704780B483B000AF7860D1
:1003B0007B685B6943F480427B685A6100BF0C37FD
:1003C000BD465DF8047B704780B483B000AF7860B1
:1003D0007B689B6943F400727B689A6100BF0C37AD
:1003E000BD465DF8047B704780B483B000AF786091
:1003F0007B689B6943F400627B689A6100BF0C379D
:10040000BD465DF8047B704780B483B000AF786070
:100410007B689B6943F400527B689A6100BF0C378C
:10042000BD465DF8047B704780B485B000AFF860CE
:100430000B467A60FB72FB7AFA68DB0113440833DF
:100440007A681A6000BF1437BD465DF8047B7047B8
:1004500080B485B000AFF8600B467A60FB72FB7A1F
:10046000FA68DB01134404337A681A6000BF14375A
:10047000BD465DF8047B704780B485B000AFF8607E
:100480000B467A60FB72FB7AFA68DB01134418337F
:100490007A681A6000BF1437BD465DF8047B704768
:1004A00080B485B000AFF8600B467A60FB72FB7ACF
:1004B000FA68DB01134414337A681A6000BF1437FA
:1004C000BD465DF8047B704780B485B000AF7860AE
:1004D000084611461A460346FB700B46BB7013468E
:1004E0007B70FA78BB787968D2010A4413443033C0
:1004F0001B78FB73FB7B23F00F03FB737B7803F00C
:100500000F03DAB2FB7B1343FB73FA78BB7879688D
:10051000D2010A4413443033FA7B1A7000BF1437F7
:10052000BD465DF8047B704780B485B000AF78604D
:10053000084611461A460346FB700B46BB7013462D
:100540007B70FA78BB787968D2010A44134430335F
:100550001B78FB73FB7B03F00F03FB737B781B01A2
:10056000DAB2FB7B1343FB73FA78BB787968D2016C
:100570000A4413443033FA7B1A7000BF1437BD4667
:100580005DF8047B704780B485B000AF78600846A2
:1005900011461A460346FB700B46BB7013467B7030
:1005A000FA78BB787968D2010A44134440331B7847
:1005B000FB73FB7B23F00103FB737A78FB7B134314
:1005C000FB73FA78BB787968D2010A44134440334C
:1005D000FA7B1A7000BF1437BD465DF8047B704784
:1005E00090B482B000AF78600B46FB701346BB70CE
:1005F000FA78BB78F878B9787C68C0012044014467
:1006000040310978C9B241F00401C8B27968D20119
:100610000A441344403302461A7000BF0837BD46EF
:1006200090BC704790B482B000AF78600B46FB700E
:100630001346BB70FA78BB78F878B9787C68C0014B
:100640002044014440310978C9B221F00401C8B204
:100650007968D2010A441344403302461A7000BF3D
:100660000837BD4690BC704780B485B000AFF860D5
:100670000B467A60FB72FB7AFA68DB01134428337D
:100680007A681A6000BF1437BD465DF8047B704776
:1006900080B582B000AF03463960FB711346BB7171
:1006A000BB79012B1CD0022B37D0002B4ED1FB790C
:1006B0003A6819462A482B4B98473B689BB243F04F
:1006C0008042FB7919462648274B98473B681B0C0C
:1006D00043F04042FB7919462148234B98473AE0C2
:1006E000FB793A6819461E481E4B98473B689BB2F7
:1006F00043F0804343F40033F9791A4618481A4B03
:1007000098473B681B0C43F0404343F40033F979AE
:100710001A461348144B98471DE0FB793A6819466E
:100720000F48124B98473B689BB243F08042FB79DD
:1007300019460B480C4B98473B681B0C43F0404252
:10074000FB7919460648084B984704E046220849B9
:100750000020084B984700BF0837BD4680BD00BF4A
:1007600000800041510400006906000029040000D7
:100770008C3000003D13000080B582B000AF03460E
:100780003960FB711346BB71BB79002B06D0FB7936
:100790003A6819460648074B984705E0FB793A68DE
:1007A00019460348044B984700BF0837BD4680BD33
:1007B0000080004179040000A104000080B582B0EF
:1007C00000AF0346FB710B46BB7113467B717B790F
:1007D000012B0AD0022B1FD0002B34D1BA79FB7920
:1007E00019461E481E4B984733E0BB7901229A40B8
:1007F000FB79194619481B4B9847BA79FB7919467A
:100800001648194B9847BB7901229A40FB79194643
:100810001248164B98471CE0BB7901229A40FB799D
:1008200019460E480F4B9847BA79FB7919460B4881
:100830000D4B9847BB7901229A40FB79194607482E
:100840000B4B984705E089220A4900200A4B98473C
:1008500000BF00BF0837BD4680BD00BF008000411B
:100860002506000051040000E105000079040000A5
:10087000A10400008C3000003D13000090B585B04D
:1008800000AF786039607B685B09FB737B68DBB223
:1008900003F01F03BB733B68B3F1FF3F06D1BA7B84
:1008A000F97B00231248134CA0471DE0BA7BF97B6B
:1008B00001230F480F4CA047BB7B03F00103002B23
:1008C00009D0BB7B5B08DAB23B68DBB2F97B084836
:1008D000094CA04708E0BB7B5B08DAB23B68DBB29F
:1008E000F97B0348054CA04700BF1437BD4690BDB7
:1008F000008000418705000029050000C9040000B0
:1009000080B582B000AF03460A46FB711346BB7147
:10091000FB795B09D8B2FB7903F01F03DBB2BA792C
:100920001946034B984700BF0837BD4680BD00BF3E
:10093000BD07000080B582B000AF786039603968CB
:100940007868034B984700BF0837BD4680BD00BF9D
:100950007D08000080B582B000AF03460A46FB71F7
:100960001346BB71FB795B09D8B2FB7903F01F0317
:10097000012202FA03F3BA791946034B984700BFE4
:100980000837BD4680BD00BF9106000080B582B02B
:1009900000AF03460A46FB711346BB71FB795B0946
:1009A000D8B2FB7903F01F03012202FA03F3BA79EC
:1009B0001946034B984700BF0837BD4680BD00BFAE
:1009C0007907000080B500AF014B984700BF80BD9C
:1009D0001116000080B500AF402217210648074BD2
:1009E0009847432203210448044B98470448054B89
:1009F000984700BF80BD00BF001C0040830300007B
:100A000000080040C903000080B500AF0449392048
:100A1000044B984704493820024B984700BF80BDDB
:100A200003003900350900000300380090B583B099
:100A300002AF084B9847002300931023064A07494A
:100A40000748084CA047084B984700BF0437BD46ED
:100A500090BD00BFD50900006400002000200141C6
:100A6000C0000020010F0000090A000080B500AF9F
:100A70000848094B9847402209210848084B9847E5
:100A8000084B984703461A4607490848084B9847B9
:100A900000BF80BD00080040A9030000001C00400A
:100AA000830300007D2B000000380040100100206F
:100AB000350D000080B500AF0848094B984740222B
:100AC0001A210848084B9847084B984703461A468E
:100AD00007490848084B984700BF80BD0008004000
:100AE00009040000001C0040830300007D2B00006F
:100AF00000A001412C010020350D000080B500AFA1
:100B000002494A20024B984700BF80BD05004A00B9
:100B10003509000080B500AF0448054B98474022D6
:100B200019210448044B984700BF80BD00080040CD
:100B3000E9030000001C00408303000080B500AF03
:100B40003B4B9847012121203A4B98470221212015
:100B5000394B98474FF0FF312120384B98470021FF
:100B60002420344B984702212420334B98474FF0E0
:100B7000FF312420314B9847002125202D4B9847E9
:100B8000022125202C4B98474FF0FF3125202B4B7D
:100B9000984701212620284B984701212620284BE1
:100BA00098474FF0FF312620244B984701212E20F3
:100BB000214B984701212E20214B98474FF0FF31C0
:100BC0002E201E4B984701212F201B4B98470121B7
:100BD0002F201B4B98474FF0FF312F20174B984782
:100BE00001213F20144B984701213F20144B984787
:100BF0004FF0FF313F20114B9847002152200D4B01
:100C00009847022152200C4B98474FF0FF31522059
:100C10000A4B98470B4B98470B4B98470B4B984701
:100C20000B4B98470B4B98470B4B984700BF80BD29
:100C3000C50900008D0900005509000035090000B4
:100C4000010900002D0A00006D0A0000B50A00002D
:100C5000150B0000FD0A00005125000080B485B08E
:100C600000AF7860EFF31083FB60FA687B681A606E
:100C700072B6BFF35F8F00BF1437BD465DF8047BCB
:100C8000704780B485B000AF7860BFF35F8F7B683A
:100C90001B68FB60FB6883F3108800BF1437BD46F8
:100CA0005DF8047B7047000080B584B000AFF86049
:100CB000B9601346FB80FB68002B04D0BB68002B97
:100CC00001D0012300E0002303F00103DBB23D2249
:100CD00007491846074B9847FB685B68FA88B9686C
:100CE000F8689847034618461037BD4680BD00BFD8
:100CF000A83000003D13000080B483B000AF7860DE
:100D00007B681B6818460C37BD465DF8047B70474E
:100D100080B483B000AF78607B68002B02D07B6822
:100D20001B6800E0002318460C37BD465DF8047BC5
:100D30007047000080B584B000AFF860B9607A6099
:100D4000FB68002B04D0BB68002B01D0012300E01E
:100D5000002303F00103DBB23B220A4918460A4B89
:100D60009847FB68B9681846084B9847FB6800220B
:100D70001A61FB68064A1A60002318461037BD4600
:100D800080BD00BFBC3000003D130000CD28000036
:100D9000450E000080B588B000AFF860B9607A6099
:100DA0000023BB61F868234B984738613B69002BEF
:100DB00004D1B968F868204B984737E03B69FB617C
:100DC00022E0FB695A687B689A4208D8FB699A68F6
:100DD000FB6959687B68CB1A13447B6109E0FB69A6
:100DE0009A68FB695B681A447B685B421344013371
:100DF0007B61BB689A687B699A4209D9FB69BB61D0
:100E0000F8690E4B9847F861FB69002BD9D100E0D7
:100E100000BFFA693B699A4204D1B968F868064B89
:100E2000984703E0B968B869054B98472037BD4635
:100E300080BD00BFF90C00009D130000110D0000E3
:100E4000F513000080B586B000AF78607B683B6129
:100E50003B6914331846274B984778613B691B69F7
:100E60005A1C3B691A613B691B69FB603B691B7E2D
:100E7000DBB203F00103002B06D13B691B7EDBB222
:100E800003F00203002B27D03B691B7EDBB243F04B
:100E90000203DAB23B691A7629E07B69BB603B69E1
:100EA00014331846144B9847BB681B7C012B09D19F
:100EB000BB68FA685A603B691433FA68B968184627
:100EC0000E4B98473B69143318460A4B9847786194
:100ED000BB68DB68B86898477B69002B07D07B69E3
:100EE0005B68FA68D21A7B699B689A42D5D2183738
:100EF000BD4680BDF90C000019140000950D0000DE
:100F000080B586B000AFF860B9607A607B80FB681E
:100F1000002B0AD0BB68002B07D07B68002B04D0C5
:100F20007B88002B01D0012300E0002303F00103A4
:100F3000DBB23A2219491846194B9847FB683433FB
:100F40007A8879681846174B98470346002B02D0D9
:100F50006FF00C031EE0FB680833B9681846124BAB
:100F6000984778617B69002B01D07B6912E0FB68B0
:100F70000E4A5A60FB680E4A1A60FB680D4A9A6076
:100F8000FB680D4ADA60FB680C4A1A61FB680C4A80
:100F90005A61002318461837BD4680BDD430000082
:100FA0003D1300004D140000111E00008D110000C3
:100FB000FD1000003D120000D5120000A912000033
:100FC0001113000080B582B000AF78607B68002B01
:100FD00014BF01230023DBB2612207491846074BE7
:100FE00098477B6808331846054B984700231846F6
:100FF0000837BD4680BD00BFD43000003D1300005F
:10100000BD1E000080B582B000AF786039607B689B
:10101000002B04D03B68002B01D0012300E000230B
:1010200003F00103DBB2772205491846054B9847C8
:101030007A683B681A60002318460837BD4680BDB1
:10104000D43000003D13000080B584B000AFF860DC
:101050000B467A60FB72FB68002B14BF0123002350
:10106000DBB2832222491846224B9847FB7A012B98
:1010700014D0022B23D0002B32D1FB687A689A62FD
:10108000FB6803F108007B68002B14BF01230023D9
:10109000DBB21A460121184B984724E0FB687A68B6
:1010A0005A62FB6803F108007B68002B14BF012320
:1010B0000023DBB21A4602210F4B984713E0FB686E
:1010C0007A68DA62FB6803F108007B68002B14BFC2
:1010D00001230023DBB21A460321074B984702E0A5
:1010E0006FF00C0300E0002318461037BD4680BDAA
:1010F000D43000003D130000A11F000080B586B071
:1011000000AFF860B9601346FB80FB687B617B69C8
:10111000002B07D0BB68002B04D0FB88002B01D02C
:10112000012300E0002303F00103DBB240F23B1295
:1011300013491846134B98477B69B3F844207B69E1
:10114000B3F84C309A4202D06FF01B0313E07B6976
:10115000BA689A647B69FA88A3F84C207B690022FC
:10116000A3F844207B6901221A637B69083318467F
:10117000054B9847FB8818461837BD4680BD00BF11
:10118000D43000003D130000051F000080B588B07A
:1011900000AFF860B9601346FB800023FB83FB6857
:1011A000BB61BB69002B07D0BB68002B04D0FB8858
:1011B000002B01D0012300E0002303F00103DBB288
:1011C0004FF4AC7217491846174B984707F11003B4
:1011D0001846164B9847BB6934331846144B98474A
:1011E000786107F110031846124B98470CE0BB6971
:1011F00003F13402FB8B591CF9831946BB680B447D
:10120000194610460C4B9847FA8B7B699A4203D2D9
:10121000FA8BFB889A42EAD3FB8B18462037BD46EF
:1012200080BD00BFD43000003D1300005D0C000005
:10123000A5150000830C0000C114000090B585B016
:1012400000AF78607B68083BFB60FB68B3F8442024
:10125000FB68B3F84C309A4217D0FB6803F10800E2
:10126000FB689A6CFB68B3F84430591C8CB2F9687F
:10127000A1F8444013441B781946084B9847FB6873
:1012800008331846064B984704E0FB6808331846B5
:10129000044B984700BF1437BD4690BDDD1E0000CB
:1012A000051F0000251F000080B584B000AF7860E6
:1012B0007B68083BFB60FB6800221A63FB685B6A83
:1012C000002B03D0FB685B6AF868984700BF1037B3
:1012D000BD4680BD80B584B000AF78600B46FB7022
:1012E0007B68083BFB60FB683433FA78114618468C
:1012F000064B9847FB689B6A002B03D0FB689B6AF0
:10130000F868984700BF1037BD4680BD3115000012
:1013100080B584B000AF78607B68083BFB60FB68F9
:1013200000221A63FB68DB6A002B03D0FB68DB6AD0
:10133000F868984700BF1037BD4680BD80B485B0BF
:1013400000AF0346B9607A60FB73FB7B83F0010357
:10135000DBB2002B00D000BE00BF1437BD465DF8E5
:10136000047B704780B485B000AF786039607B68DB
:101370001B68FB6008E0FA683B689A4201D10123D0
:1013800006E0FB681B68FB60FB68002BF3D10023C1
:1013900018461437BD465DF8047B704780B582B0AF
:1013A00000AF78603960396878680F4B984703461A
:1013B000002B14BF01230023DBB283F00103DBB257
:1013C00003F00103DBB2392208491846084B98475D
:1013D0007B681A683B681A607B683A681A6000BFCD
:1013E0000837BD4680BD00BF65130000F430000023
:1013F0003D13000080B483B000AF786039607B6833
:101400001A683B681A607B683A681A6000BF0C373C
:10141000BD465DF8047B704780B485B000AF78604E
:101420007B681B68002B09D07B681B68FB607B68AE
:101430001B681A687B681A60FB6800E00023184686
:101440001437BD465DF8047B7047000080B584B05A
:1014500000AFF860B9607A60FB68002B07D0BB680A
:10146000002B04D07B68002B01D0012300E0002377
:1014700003F00103DBB228220F4918460F4B9847AF
:101480007B685A1E7B681340002B02D06FF00C0360
:101490000EE07B685A1EFB685A60FB6800229A6067
:1014A000FB689A68FB68DA60FB68BA681A60002318
:1014B00018461037BD4680BD143100003D130000B2
:1014C00080B582B000AF786039607B68002B04D0B3
:1014D0003B68002B01D0012300E0002303F001034F
:1014E000DBB2402210491846104B98477B68DA68F7
:1014F0007B689B689A4211D07B681A687B68996800
:101500007B685B680B4013441A783B681A707B68F1
:101510009B685A1C7B689A60002301E06FF0090306
:1015200018460837BD4680BD143100003D13000049
:1015300080B582B000AF78600B46FB707B68002BF3
:1015400014BF01230023DBB2512214491846144B67
:1015500098477B681A687B68D9687B685B680B4032
:101560001344FA781A707B68DA687B689B68D21A31
:101570007B685B689A4206D97B68DA687B685B683F
:10158000D21A7B689A607B68DB685A1C7B68DA60D9
:10159000002318460837BD4680BD00BF1431000047
:1015A0003D13000080B582B000AF78607B68002BEF
:1015B00014BF01230023DBB2672206491846064BFD
:1015C00098477B68DA687B689B68D31A18460837A7
:1015D000BD4680BD143100003D13000080B483B0CF
:1015E00000AF78600B467B807B681B889AB27B8853
:1015F0001B029BB203F470639BB213439AB27B68E5
:101600001A8000BF0C37BD465DF8047B70470000B0
:1016100080B500AF00210848084B9847084B984711
:10162000084B9847084B9847084B984740F6FF707F
:10163000074B984700BF80BD00400041DD1500000A
:101640007D17000015180000F9160000551800005D
:10165000A916000080B483B000AF7860396000BF85
:101660007B685A683B681340002BF9D100BF0C37E8
:10167000BD465DF8047B704780B584B000AFF8606C
:101680000B467A60FB72FA7AFB680832796843F895
:10169000221043F6FD71F868024B984700BF1037DF
:1016A000BD4680BD5516000080B582B000AF7860A1
:1016B0007B6803F00103002B04D0044A0021044896
:1016C000044B984700BF0837BD4680BD01010100AB
:1016D000001C00407916000080B483B000AF786031
:1016E0000B46FB707B68FA785A7100BF0C37BD4619
:1016F0005DF8047B7047000080B582B000AF054BF9
:101700007B6001217868044B984700BF0837BD46CD
:1017100080BD00BF00080040D916000080B483B02F
:1017200000AF78600B46FB707B68FA781A7400BFD4
:101730000C37BD465DF8047B704780B485B000AFC0
:1017400078607B68DB69FB60FB681B0A03F03F0382
:10175000FB60FB6818461437BD465DF8047B704794
:1017600080B483B000AF786039607B683A68DA6132
:1017700000BF0C37BD465DF8047B704780B582B072
:1017800000AF0C4B7B6000237B8078680A4B984746
:1017900003467B807B881B0203F47C5319467868E0
:1017A000064B984701217868054B984700BF0837DA
:1017B000BD4680BD001400403B17000061170000CB
:1017C0001D17000080B483B000AF78607B681B6990
:1017D0005B0803F00103002B14BF01230023DBB2DD
:1017E00018460C37BD465DF8047B704780B485B061
:1017F00000AFF8600B467A60FB72FB7AFA6804333C
:101800009B0013447A685A6000BF1437BD465DF8E8
:10181000047B704780B582B000AF0A4B7B600A4AF8
:1018200001217868094B984700BF7868084B9847B2
:10183000034683F00103DBB2002BF6D100BF08376B
:10184000BD4680BD0010004006260003ED170000D5
:10185000C517000080B483B000AF044B7B6000BFAD
:101860000C37BD465DF8047B704700BF0010004098
:1018700080B483B000AF78607B689B78DBB2184699
:101880000C37BD465DF8047B704780B483B000AF71
:1018900078607B685B6818460C37BD465DF8047B52
:1018A0007047000090B583B000AF174B7B601748BE
:1018B000174B984703463B603B6803F00203002B3D
:1018C0000CD07B681B68002B08D07B681C680F4815
:1018D000104B984703461846A04712E03B6803F0B8
:1018E0000103002B0CD07B685B68002B08D07B6861
:1018F0005C680648074B984703461846A04700E037
:1019000000BF0C37BD4690BD4801002000000241D9
:10191000711800008B18000080B483B000AF03463C
:10192000FB80B7F90630002B0BDB0949B7F906300D
:101930005B09FA8802F01F02012000FA02F241F866
:10194000232000BF0C37BD465DF8047B704700BF05
:1019500000E100E080B483B000AF0346FB80B7F93C
:101960000630002B10DB0B49B7F906305B09FA880B
:1019700002F01F02012000FA02F2203341F8232076
:10198000BFF34F8FBFF36F8F00BF0C37BD465DF8BD
:10199000047B704700E100E080B483B000AF0346F1
:1019A000FB80B7F90630002B0CDB0949B7F906308C
:1019B0005B09FA8802F01F02012000FA02F260338C
:1019C00041F8232000BF0C37BD465DF8047B70470B
:1019D00000E100E080B483B000AF7860396000BF00
:1019E0007B68DA693B681340002BF9D100BF0C37E4
:1019F000BD465DF8047B704780B483B000AF78606B
:101A000039607B68DA693B681340002B14BF0123FF
:101A10000023DBB218460C37BD465DF8047B7047E7
:101A200080B483B000AF78607B681B7EDBB203F0CC
:101A30000103002B14BF01230023DBB218460C372F
:101A4000BD465DF8047B704780B483B000AF78601A
:101A50007B681B7EDBB25B0803F00103002B14BF25
:101A600001230023DBB218460C37BD465DF8047B2A
:101A7000704780B483B000AF78607B681B7EDBB2B8
:101A80009B0803F00103002B14BF01230023DBB2EA
:101A900018460C37BD465DF8047B704780B483B0B0
:101AA00000AF78607B681B7EDBB2DB0903F00103CB
:101AB000002B14BF01230023DBB218460C37BD46B0
:101AC0005DF8047B704780B483B000AF78607B68BA
:101AD00080221A7600BF0C37BD465DF8047B704744
:101AE00080B483B000AF78607B6801229A7500BF34
:101AF0000C37BD465DF8047B704780B483B000AFFF
:101B000078607B689B7DDBB203F00103002B14BF80
:101B100001230023DBB218460C37BD465DF8047B79
:101B2000704780B483B000AF78600B46FB70FB78E1
:101B300083F00103DBB2002B03D07B6801221A750E
:101B400002E07B6801229A7500BF0C37BD465DF844
:101B5000047B704780B483B000AF78607B6801225B
:101B60001A7500BF0C37BD465DF8047B704780B422
:101B700083B000AF78607B6802229A7500BF0C3793
:101B8000BD465DF8047B704780B483B000AF7860D9
:101B90007B689B7DDBB25B0803F00103002B14BF65
:101BA00001230023DBB218460C37BD465DF8047BE9
:101BB000704780B483B000AF78600B46FB70FB7851
:101BC00083F00103DBB2002B03D07B6802221A757D
:101BD00002E07B6802229A7500BF0C37BD465DF8B3
:101BE000047B704780B483B000AF78607B680222CA
:101BF0001A7500BF0C37BD465DF8047B704780B492
:101C000083B000AF78600B46FB70FB7883F0010374
:101C1000DBB2002B03D07B6804221A7502E07B68DC
:101C200004229A7500BF0C37BD465DF8047B7047EF
:101C300080B483B000AF78600B46FB70FB7883F014
:101C40000103DBB2002B03D07B6880221A7502E00F
:101C50007B6880229A7500BF0C37BD465DF8047B17
:101C60007047000080B582B000AF78607B681B6869
:101C700043F002027B681A6003217868024B9847A0
:101C800000BF0837BD4680BDD519000080B582B0C1
:101C900000AF78607B681B6823F002027B681A60E3
:101CA00003217868024B984700BF0837BD4680BDC6
:101CB000D519000080B584B000AF78603960032189
:101CC0007868074B98477B681B68FB60FA683B683D
:101CD0001340FB60FB6818461037BD4680BD00BF4F
:101CE000D519000080B582B000AF786039607B689C
:101CF0003A681A6003217868024B984700BF08379A
:101D0000BD4680BDD519000080B582B000AF7860B7
:101D100039607B683A685A601F217868024B98479F
:101D200000BF0837BD4680BDD519000080B483B020
:101D300000AF786039607B683A689A6000BF0C3702
:101D4000BD465DF8047B704780B483B000AF786017
:101D50000B467B807B687A889A8100BF0C37BD4632
:101D60005DF8047B704780B483B000AF78600B46A9
:101D7000FB707B68FA789A7300BF0C37BD465DF83C
:101D8000047B704780B483B000AF786039607B68B3
:101D90003A689A6200BF0C37BD465DF8047B704715
:101DA00080B483B000AF78607B689B6A18460C37BC
:101DB000BD465DF8047B704780B483B000AF7860A7
:101DC0000B46FB707B68FA7883F8302000BF0C3735
:101DD000BD465DF8047B704780B483B000AF786087
:101DE0000B467B807B687A885A8300BF0C37BD46E0
:101DF0005DF8047B704780B483B000AF78607B6887
:101E00005B8B9BB218460C37BD465DF8047B704770
:101E100080B586B000AF786039607B68002B14BF56
:101E200001230023DBB2CB221C4918461C4B9847E8
:101E300038681C4B9847F860FB68002B01D0FB68A2
:101E400027E07B683A689A6179683868164B98474A
:101E50003868164B98470346FB7500233B6114E036
:101E6000FB7D1BB21846124B9847FB7D1BB21846F0
:101E7000104B9847FB7D1BB218460F4B9847FB7DD4
:101E80000133FB753B6901333B613B69032BE7D9A8
:101E9000002318461837BD4680BD00BF383100000A
:101EA0003D130000CD210000A12100008D23000082
:101EB00055190000991900001919000080B582B069
:101EC00000AF78607B689B691846034B984700BF5A
:101ED0000837BD4680BD00BF651C000080B582B0DC
:101EE00000AF78600B46FB707B689B69FA781146FF
:101EF0001846034B984700BF0837BD4680BD00BF5A
:101F0000851D000080B582B000AF78607B689B695A
:101F10001846034B984700BF0837BD4680BD00BF39
:101F2000E11A000080B582B000AF78607B689B69E1
:101F30001846034B984700BF0837BD4680BD00BF19
:101F40006F1B0000B0B48DB000AF7860134B07F189
:101F50000C041D460FCD0FC495E80F0084E80F0058
:101F60000023FB6210E0FB6A9B0007F13002134480
:101F700053F8243C1A467B689A4202D1FB6ADBB2D2
:101F800006E0FB6A0133FB62FB6A072BEBD90023F7
:101F900018463437BD46B0BC704700BF543100000E
:101FA00080B582B000AF78600B46FB701346BB7003
:101FB0007B68002B14BF01230023DBB240F22B22ED
:101FC00018491846184B9847FB78002B02D0FB782D
:101FD000022B0ED17B689B69BA7811461846134BC9
:101FE00098477B689B69BA7811461846104B98470A
:101FF00014E0FB78012B07D17B689B69BA78114606
:1020000018460C4B984709E0FB78032B06D17B68F8
:102010009B69BA7811461846074B984700BF0837A6
:10202000BD4680BD383100003D130000231B000079
:10203000B31B0000FF1B0000311C000090B585B0F1
:1020400000AF78607B689B69FB60F8682F4B98470E
:102050000346002B0DD0F8682D4B98470346002B04
:1020600007D0F8682B4B98477B681B6878689847BF
:1020700049E0F868284B98470346002B0DD0F868D4
:10208000264B98470346002B07D0F868244B984707
:102090007B689B687868984735E0F868214B9847DB
:1020A0000346002B17D0F8681F4B9847034603F0F0
:1020B0003703002B04D0FF21F8681C4B984722E01F
:1020C0007B685C68F8681A4B98470346DBB2194690
:1020D0007868A04717E0F868164B98470346002B2E
:1020E00011D0F868144B98477B68DB68786898478C
:1020F000F8680D4B98470346BB60BB689BB2194616
:10210000F8680A4B98471437BD4690BD211A000065
:10211000FB1A0000551B0000491A0000891B000033
:10212000E51B0000731A0000F71D0000D91D000018
:10213000A11D00009D1A0000C71A000080B584B0E0
:1021400000AF78607868124B98470346BB73002352
:10215000FB730FE0FA7B0F4913465B001344DB006F
:102160000B441B78BA7B9A4201D1FB7B0CE0FB7BD2
:102170000133FB73FB7B002BECD040F26B22064952
:102180000020064B9847002318461037BD4680BDF7
:10219000451F000000000020383100003D13000002
:1021A00080B483B000AF786039607B68054A9342A1
:1021B00002D1054A3B68136000BF0C37BD465DF88D
:1021C000047B7047002001417400002080B584B07A
:1021D00000AF78607868614B98470346FB73012134
:1021E00078685F4B9847034683F00103DBB2002B0E
:1021F00020D0FA7B5B4913465B001344DB000B44A1
:1022000004331B6803F01C03BB6002217868564B43
:1022100098470346002B06D07868544B9847022114
:102220007868534B9847BB6843F0010319467868B8
:10223000504B9847012178684D4B9847FA7B4949A4
:1022400013465B001344DB000B4404331B68194640
:102250007868484B9847FA7B424913465B00134421
:10226000DB000B4408331B6819467868424B9847DB
:10227000FA7B3C4913465B001344DB000B440C33F0
:102280001B68194678683D4B9847FA7B35491346D9
:102290005B001344DB000B4404331B6803F400535E
:1022A000002B0CD1FA7B2F4913465B001344DB0053
:1022B0000B4404331B6803F4C043002B22D0FA7B89
:1022C000284913465B001344DB000B4410331B8882
:1022D000C3F30C0399B27A68938961F30C03938179
:1022E000FA7B204913465B001344DB000B44123396
:1022F0001B7803F00703D9B27A68938961F34F33EF
:1023000093810CE0FA7B174913465B001344DB0012
:102310000B4410331B8819467868194B9847FA7B91
:10232000104913465B001344DB000B4413331B7846
:1023300019467868134B9847FA7B0A4913465B00A5
:102340001344DB000B4414331B78194678680E4B9A
:102350009847002318461037BD4680BD3D21000038
:10236000F919000000000020B51C00008D1C0000C1
:10237000D5190000E51C0000091D00002D1D0000FE
:10238000491D0000671D0000B91D000080B582B026
:1023900000AF78607868054B984703469B00DBB236
:1023A0002E33DBB218460837BD4680BD451F0000FE
:1023B00080B500AF034B1B681846034B984700BF1E
:1023C00080BD00BF740000203D20000080B500AF3C
:1023D000034B1B681846034B984700BF80BD00BFE6
:1023E000740000203D20000080B500AF034B1B6847
:1023F0001846034B984700BF80BD00BF7400002003
:102400003D20000080B500AF034B1B681846034B0E
:10241000984700BF80BD00BF740000203D20000031
:1024200080B483B000AF7860396000BF7B689A6881
:102430003B681340002BF9D100BF0C37BD465DF857
:10244000047B704780B483B000AF786039607B68EC
:102450009A683B681340002B14BF01230023DBB2B2
:1024600018460C37BD465DF8047B704780B584B0D4
:1024700000AF78600B46FB707B681B68FB60FB68F5
:1024800023F00203FB60FB785B001A46FB681343F2
:10249000FB607B68FA681A6003217868024B9847F2
:1024A00000BF1037BD4680BD2124000080B582B03A
:1024B00000AF78607B681B6823F002027B681A60BB
:1024C00003217868024B984700BF0837BD4680BD9E
:1024D0002124000080B584B000AF7860396003210A
:1024E0007868074B98477B681B68FB60FA683B6815
:1024F0001340FB60FB6818461037BD4680BD00BF27
:102500002124000080B582B000AF786039607B681C
:102510003A681A6003217868024B984700BF083771
:10252000BD4680BD2124000080B582B000AF786038
:1025300039607B683A68DA6343F6FF717868034B69
:10254000984700BF0837BD4680BD00BF212400006A
:1025500080B500AF01211748174B9847034683F019
:102560000103DBB2002B11D002211248134B984714
:102570000346002B06D00F48114B984702210D4807
:10258000104B984701210B480F4B984701210948F0
:102590000C4B98474FF4807106480B4B984702212B
:1025A00004480A4B984701210248094B98470023E9
:1025B000184680BD0060014145240000D52400007C
:1025C000AD2400002124000005250000292500007D
:1025D0006D24000080B483B000AF0346FB80B7F9E0
:1025E0000630002B0BDB0949B7F906305B09FA8886
:1025F00002F01F02012000FA02F241F8232000BF7E
:102600000C37BD465DF8047B704700BF00E100E079
:1026100080B483B000AF0346FB80B7F90630002BCF
:1026200010DB0B49B7F906305B09FA8802F01F028C
:10263000012000FA02F2203341F82320BFF34F8F2C
:10264000BFF36F8F00BF0C37BD465DF8047B70474A
:1026500000E100E080B483B000AF0346FB80B7F92F
:102660000630002B0CDB0949B7F906305B09FA8804
:1026700002F01F02012000FA02F2603341F8232029
:1026800000BF0C37BD465DF8047B704700E100E0F9
:1026900080B483B000AF7860396000BF7B681A698E
:1026A0003B681340002BF9D100BF0C37BD465DF8E5
:1026B000047B704780B483B000AF786039607B687A
:1026C0001A693B681340002B14BF01230023DBB2BF
:1026D00018460C37BD465DF8047B704780B483B064
:1026E00000AF78607B689B7ADBB203F00103002BBC
:1026F00014BF01230023DBB218460C37BD465DF83A
:10270000047B704780B483B000AF78607B6801229F
:102710009A7200BF0C37BD465DF8047B704780B4E9
:1027200083B000AF78607B6801225A7200BF0C371B
:10273000BD465DF8047B704780B582B000AF78601D
:102740007B681B6823F002027B681A6003217868AB
:10275000024B984700BF0837BD4680BD9126000058
:1027600080B584B000AF7860396003217868074B8A
:1027700098477B681B68FB60FA683B681340FB6006
:10278000FB6818461037BD4680BD00BF912600008B
:1027900080B582B000AF786039607B683A681A60B3
:1027A00003217868024B984700BF0837BD4680BDBB
:1027B0009126000080B483B000AF78600B467B8028
:1027C0007B687A88DA8000BF0C37BD465DF8047BF1
:1027D000704780B483B000AF78600B46FB707B68B5
:1027E000FA781A7300BF0C37BD465DF8047B70475A
:1027F00080B483B000AF78600B46FB707B68FA78DA
:10280000DA7300BF0C37BD465DF8047B70470000EB
:1028100080B582B000AF78600B46FB707B68FA78B9
:10282000DA7620217868034B984700BF0837BD4609
:1028300080BD00BF9126000080B582B000AF7860F7
:102840000B46FB701346BB70FB787A681344BA786A
:102850001A77C0217868034B984700BF0837BD46F8
:1028600080BD00BF9126000080B582B000AF7860C7
:102870000B46FB7013463B80FB787A680C335B0099
:1028800013443A889A80C0217868034B984700BF68
:102890000837BD4680BD00BF9126000080B584B0DA
:1028A00000AFF8600B467A60FB72FB7AFA68063379
:1028B0009B0013447A685A60C021F868024B98471D
:1028C00000BF1037BD4680BD9126000080B584B0A2
:1028D00000AF786039603868934B98470346FB73C4
:1028E0007B683A68DA608F2290490120904B9847C4
:1028F000012138688F4B9847034683F00103DBB210
:10290000002B11D0022138688B4B98470346002BCF
:1029100006D03868894B984702213868884B984719
:1029200001213868874B984701213868844B9847C4
:1029300097F90F20844913469B0013449B000B44D6
:1029400004331B68194638687E4B984797F90F2067
:102950007D4913469B0013449B000B440A331B78AC
:1029600019463868794B984797F90F2076491346EE
:102970009B0013449B000B4408331B88194638689E
:10298000734B984701213868724B984797F90F208D
:102990006D4913469B0013449B000B4404331B6892
:1029A00003F00C03082B1ED197F90F20664913463C
:1029B0009B0013449B000B440C331B681A460021F8
:1029C0003868654B984797F90F205F4913469B007D
:1029D00013449B000B4410331B681A4601213868CE
:1029E0005D4B98476AE097F90F20574913469B00C3
:1029F00013449B000B4404331B6803F00C03002BAF
:102A000020D197F90F20504913469B0013449B0097
:102A10000B440C331B689BB21A46002138684F4B9D
:102A2000984797F90F20484913469B0013449B0091
:102A30000B4410331B689BB21A4601213868474B80
:102A400098473BE097F90F203F4913469B001344FA
:102A50009B000B4404331B6803F00C03042B2DD1A3
:102A600097F90F20384913469B0013449B000B44F1
:102A70000C331B68DBB21A4600213868384B984784
:102A800097F90F20304913469B0013449B000B44D9
:102A900010331B68DBB21A4601213868304B984767
:102AA00097F90F20284913469B0013449B000B44C1
:102AB0000B331B78194638682A4B984738682A4BDD
:102AC000984779683868294B984797F90F201E492D
:102AD00013469B0013449B000B440233B3F90030B0
:102AE0001846234B984797F90F20174913469B0028
:102AF00013449B000B440233B3F9003018461D4BBE
:102B0000984797F90F20104913469B0013449B00E8
:102B10000B440233B3F900301846174B9847002393
:102B200018461037BD4680BDFD2B000088310000DF
:102B30003D130000B5260000612700003927000082
:102B4000912600009127000018000020F1270000C6
:102B5000B5270000D32700009D2800006928000049
:102B600039280000112800001F270000652C0000F4
:102B70001126000055260000D525000080B400AFC6
:102B800000231846BD465DF8047B704780B584B0CD
:102B900000AF78607B68DB68FB60F868074B98479C
:102BA0000346002B06D0F868054B98477B681B68E6
:102BB0007868984700BF1037BD4680BDDD2600000D
:102BC0000527000080B500AF034B1B681846034B78
:102BD000984700BF80BD00BFA00000208D2B0000E3
:102BE00080B500AF034B1B681846034B984700BFE6
:102BF00080BD00BFA40000208D2B000080B584B0F4
:102C000000AF78607868134B98470346BB73002386
:102C1000FB7310E0FA7B104913469B0013449B00A2
:102C20000B441B78BA7B9A4202D197F90F300DE022
:102C3000FB7B0133FB73FB7B012BEBD94FF4A372BE
:102C400006490020064B98474FF0FF3318461037CF
:102C5000BD4680BDA92C000018000020883100006E
:102C60003D13000080B483B000AF786039607B68AA
:102C7000094A934202D1094A3B6813607B68084ABB
:102C8000934202D1074A3B68136000BF0C37BD4630
:102C90005DF8047B704700BF00380040A0000020B2
:102CA00000A00141A4000020B0B48DB000AF786056
:102CB000134B07F10C041D460FCD0FC495E80F0010
:102CC00084E80F000023FB6210E0FB6A9B0007F121
:102CD0003002134453F8243C1A467B689A4202D1CE
:102CE000FB6ADBB206E0FB6A0133FB62FB6A072B7F
:102CF000EBD9002318463437BD46B0BC704700BF3F
:102D00009C31000080B485B000AFF8600B467A605B
:102D1000FB72FB7AFA68DB01134418337A681A6095
:102D200000BF1437BD465DF8047B704780B485B0A2
:102D300000AFF8600B467A60FB72FB7AFA68DB0141
:102D4000134414337A681A6000BF1437BD465DF827
:102D5000047B704780B582B000AF03463960FB71D9
:102D60001346BB71BB79002B06D0FB793A68194634
:102D70000648074B984705E0FB793A68194603482F
:102D8000044B984700BF0837BD4680BD0080004116
:102D9000052D00002D2D000080B582B000AF034648
:102DA0000A46FB711346BB71FB795B09D8B2FB790C
:102DB00003F01F03012202FA03F3BA791946034B09
:102DC000984700BF0837BD4680BD00BF552D0000A5
:102DD00080B584B000AF78602D4B1B782B2B08D1C9
:102DE000002124202B4B984701212520294B98476F
:102DF0000BE0274B1B782D2B07D101212420254BDD
:102E0000984700212520234B98470123FB60204B46
:102E10005B782F2B24D91E4B5B78392B20D818E0F8
:102E20001D4B1A6813469B0013445B001946184A51
:102E3000FB6813441B78303B0B44184A1360174B54
:102E40001B68154A1360FB680133FB60144B0122B9
:102E50001A700F4AFB6813441B780A2BE0D105E077
:102E60000D4B00221A600E4B00221A700023BB602B
:102E700007E0074ABB68134400221A70BB6801339D
:102E8000BB60BB68042BF4D900BF1037BD4680BDC2
:102E9000A8000020992D0000B8000020BC000020F0
:102EA0004000002080B500AF0F4B98470F4A00212B
:102EB0000F48104B984710490D48104B98470C4845
:102EC0000F4B984740F21E510E480F4B98470A4B44
:102ED0001B6805220D4918460D4B9847002200211A
:102EE00008480C4B9847F2E7D1020000D12D0000B2
:102EF000C00000204910000058010020051000000B
:102F0000C50F000000600141F12F0000A800002063
:102F1000A90C0000B12F000080B483B000AF78602E
:102F2000396000BF7B689A683B681340002BF9D179
:102F300000BF0C37BD465DF8047B704780B483B09A
:102F400000AF786039607B683A68DA6200BF0C379E
:102F5000BD465DF8047B704780B582B000AF7860F5
:102F600039607B683A681A6480217868024B984718
:102F700000BF0837BD4680BD192F000080B584B062
:102F800000AFF8600B467A60FB72FB7AFA68103388
:102F90009B0013447A685A604FF47C51F868034BE5
:102FA000984700BF1037BD4680BD00BF192F0000F5
:102FB00080B584B000AFF860B9601346FB71FB794F
:102FC000BA681946F868084B9847FB79012202FA5B
:102FD00003F31B0203F47C531946F868034B98472C
:102FE00000BF1037BD4680BD7D2F0000192F0000A7
:102FF00080B582B000AF7860396039687868054B79
:10300000984780217868044B984700BF0837BD4631
:1030100080BD00BF592F0000192F000080B500AF00
:103020004FF480310448054B9847054B1B68024814
:10303000984700BF80BD00BF006001413D2F0000E8
:103040005C01002070B50D4E0D4CA41BA410002592
:10305000A54209D10B4E0C4C00F0B0F8A41BA410F3
:103060000025A54205D170BD56F825309847013599
:10307000EEE756F8253098470135F2E7C8310000F1
:10308000C8310000C8310000CC3100002E2E2F685E
:10309000706C2F706F72742F68706C5F6770696FDF
:1030A0005F626173652E68002E2E2F68616C2F732E
:1030B00072632F68616C5F696F2E63002E2E2F681C
:1030C000616C2F7372632F68616C5F74696D6572D8
:1030D0002E6300002E2E2F68616C2F7372632F6891
:1030E000616C5F75736172745F6173796E632E6377
:1030F000000000002E2E2F68616C2F7574696C73B0
:103100002F7372632F7574696C735F6C6973742E9F
:10311000630000002E2E2F68616C2F7574696C732C
:103120002F7372632F7574696C735F72696E676257
:1031300075666665722E63002E2E2F68706C2F7375
:103140006572636F6D2F68706C5F736572636F6D0E
:103150002E63000000300040003400400020014198
:103160000040014100000043000400430008004308
:10317000000C004300000000000000000000000000
:1031800000000000000000002E2E2F68706C2F74CD
:10319000632F68706C5F74632E630000003800401A
:1031A000003C004000A0014100C001410014004269
:1031B000001800420014004300180043F8B500BF97
:1031C000F8BC08BC9E46704789020000F8B500BFF5
:0C31D000F8BC08BC9E4670476502000079
:1031DC000200000004001040000003000200700018
:1031EC00B9FC00000000000000006B0008030000A8
:1031FC0000000000983A00000000000002006D0082
:10320C00080300000000000060E31600000000004E
:04321C0001000000AD
:00000001FF
