S01000006D795F6C61625F362E737265630B
S113000088030120E10200007D0300007D0300005D
S11300107D0300007D0300007D030000000000005C
S11300200000000000000000000000007D0300004C
S11300307D030000000000007D0300007D0300003C
S11300407D0300007D0300007D0300007D030000AC
S11300507D0300007D0300007D0300007D0300009C
S11300607D0300007D0300007D0300007D0300008C
S1130070B92000007D0300007D0300007D03000023
S11300807D0300007D0300007D0300007D0300006C
S11300907D0300007D0300007D0300007D0300005C
S11300A07D0300007D0300007D0300007D0300004C
S11300B07D0300007D0300007D0300007D0300003C
S11300C07D0300007D0300007D0300007D0300002C
S11300D07D0300007D0300007D0300007D0300001C
S11300E07D0300007D03000000000000000000000C
S11300F000000000312400007D0300007D030000A7
S11301007D0300007D0300007D0300007D030000EB
S11301107D0300007D0300003D2F0000592F0000E7
S1130120752F0000912F00007D0300007D03000067
S11301307D0300007D0300007D0300007D030000BB
S11301407D0300007D0300007D0300007D030000AB
S11301507D0300007D0300007D0300007D0300009B
S11301607D0300007D0300007D0300007D0300008B
S11301707D0300007D0300007D0300007D0300007B
S11301807D0300007D0300007D0300007D0300006B
S11301907D0300007D0300007D0300007D0300005B
S11301A07D0300007D0300007D0300007D0300004B
S11301B07D0300007D0300007D0300007D0300003B
S11301C07D0300007D0300007D0300007D0300002B
S11301D07D0300007D0300007D0300007D0300001B
S11301E07D0300007D0300007D0300005D410000ED
S11301F0D53A0000F13A00007D0300000D3B0000F9
S11302007D0300007D0300007D0300007D030000EA
S11302107D0300007D0300007D0300007D030000DA
S11302207D0300007D0300007D0300007D030000CA
S11302307D0300007D0300007D0300007D030000BA
S11302407D0300007D0300007D0300007D030000AA
S11302507D0300007D0300007D0300007D0300009A
S11302607D03000010B5054C237833B9044B13B15A
S11302700448AFF300800123237010BDCC0000209C
S113028000000000185F00000C4B43B10C480D49FE
S113029010B5AFF300800C48036823B910BD0A48B9
S11302A0036833B97047094B002BF7D0BDE8104001
S11302B01847064B002BF5D0184700BF000000007C
S11302C0185F0000D0000020185F0000000000004C
S11302D080B500AF014B984700BF80BD910C000072
S11302E080B582B000AF1C4B7B601C4B3B607A68CE
S11302F03B689A420CD007E03B681A1D3A607A6862
S1130300111D796012681A603B68154A9342F3D351
S1130310144B3B6004E03B681A1D3A6000221A60EB
S11303203B68114A9342F6D3104B7B60104A7B68BA
S113033023F07F0393600E4A0D4BD3F8883043F4C7
S11303407003C2F88830BFF34F8FBFF36F8F094B30
S11303509847094B9847FEE7185F0000000000200B
S1130360CC000020CC000020880300200000000006
S113037000ED00E0295200004145000080B400AFC8
S1130380FEE780B485B000AFF8600B467A60FB727C
S1130390FA7AFB682032796843F8221000BF1437D8
S11303A0BD465DF8047B704780B483B000AF7860CD
S11303B07B685B6943F480627B685A6100BF0C37D9
S11303C0BD465DF8047B704780B483B000AF7860AD
S11303D07B685B6943F480427B685A6100BF0C37D9
S11303E0BD465DF8047B704780B483B000AF78608D
S11303F07B685B6943F400427B685A6100BF0C3739
S1130400BD465DF8047B704780B483B000AF78606C
S11304107B689B6943F080027B689A6100BF0C375C
S1130420BD465DF8047B704780B483B000AF78604C
S11304307B689B6943F400727B689A6100BF0C3748
S1130440BD465DF8047B704780B483B000AF78602C
S11304507B689B6943F400527B689A6100BF0C3748
S1130460BD465DF8047B704780B483B000AF78600C
S11304707B68DB6943F020027B68DA6100BF0C37DC
S1130480BD465DF8047B704780B485B000AFF8606A
S11304900B467A60FB72FB7AFA68DB01134408337B
S11304A07A681A6000BF1437BD465DF8047B704754
S11304B080B485B000AFF8600B467A60FB72FB7ABB
S11304C0FA68DB01134404337A681A6000BF1437F6
S11304D0BD465DF8047B704780B485B000AFF8601A
S11304E00B467A60FB72FB7AFA68DB01134418331B
S11304F07A681A6000BF1437BD465DF8047B704704
S113050080B485B000AFF8600B467A60FB72FB7A6A
S1130510FA68DB01134414337A681A6000BF143795
S1130520BD465DF8047B704780B485B000AF786049
S1130530084611461A460346FB700B46BB70134629
S11305407B70FA78BB787968D2010A44134430335B
S11305501B78FB73FB7B23F00F03FB737B7803F0A7
S11305600F03DAB2FB7B1343FB73FA78BB78796829
S1130570D2010A4413443033FA7B1A7000BF143793
S1130580BD465DF8047B704780B485B000AF7860E9
S1130590084611461A460346FB700B46BB701346C9
S11305A07B70FA78BB787968D2010A4413443033FB
S11305B01B78FB73FB7B03F00F03FB737B781B013E
S11305C0DAB2FB7B1343FB73FA78BB787968D20108
S11305D00A4413443033FA7B1A7000BF1437BD4603
S11305E05DF8047B704780B485B000AF786008463E
S11305F011461A460346FB700B46BB7013467B70CC
S1130600FA78BB787968D2010A44134440331B78E2
S1130610FB73FB7B23F00103FB737A78FB7B1343AF
S1130620FB73FA78BB787968D2010A4413444033E7
S1130630FA7B1A7000BF1437BD465DF8047B70471F
S113064090B482B000AF78600B46FB701346BB7069
S1130650FA78BB78F878B9787C68C0012044014402
S113066040310978C9B241F00401C8B27968D201B5
S11306700A441344403302461A7000BF0837BD468B
S113068090BC704790B482B000AF78600B46FB70AA
S11306901346BB70FA78BB78F878B9787C68C001E7
S11306A02044014440310978C9B221F00401C8B2A0
S11306B07968D2010A441344403302461A7000BFD9
S11306C00837BD4690BC704780B485B000AFF86071
S11306D00B467A60FB72FB7AFA68DB011344283319
S11306E07A681A6000BF1437BD465DF8047B704712
S11306F080B582B000AF03463960FB711346BB710D
S1130700BB79012B1CD0022B37D0002B4ED1FB79A7
S11307103A6819462A482B4B98473B689BB243F0EA
S11307208042FB7919462648274B98473B681B0CA7
S113073043F04042FB7919462148234B98473AE05D
S1130740FB793A6819461E481E4B98473B689BB292
S113075043F0804343F40033F9791A4618481A4B9E
S113076098473B681B0C43F0404343F40033F9794A
S11307701A461348144B98471DE0FB793A6819460A
S11307800F48124B98473B689BB243F08042FB7979
S113079019460B480C4B98473B681B0C43F04042EE
S11307A0FB7919460648084B984704E04622084955
S11307B00020084B984700BF0837BD4680BD00BFE6
S11307C000800041B1040000C90600008904000053
S11307D04C5B0000FD17000080B582B000AF0346FB
S11307E03960FB711346BB71BB79002B06D0FB79D2
S11307F03A6819460648074B984705E0FB793A687A
S113080019460348044B984700BF0837BD4680BDCE
S113081000800041D90400000105000080B582B0C9
S113082000AF0346FB710B46BB7113467B717B79AA
S1130830012B0AD0022B1FD0002B34D1BA79FB79BB
S113084019461E481E4B984733E0BB7901229A4053
S1130850FB79194619481B4B9847BA79FB79194615
S11308601648194B9847BB7901229A40FB791946DF
S11308701248164B98471CE0BB7901229A40FB7939
S113088019460E480F4B9847BA79FB7919460B481D
S11308900D4B9847BB7901229A40FB7919460748CA
S11308A00B4B984705E089220A4900200A4B9847D8
S11308B000BF00BF0837BD4680BD00BF00800041B7
S11308C085060000B104000041060000D9040000C0
S11308D0010500004C5B0000FD17000090B585B0D9
S11308E000AF786039607B685B09FB737B68DBB2BF
S11308F003F01F03BB733B68B3F1FF3F06D1BA7B20
S1130900F97B00231248134CA0471DE0BA7BF97B06
S113091001230F480F4CA047BB7B03F00103002BBE
S113092009D0BB7B5B08DAB23B68DBB2F97B0848D1
S1130930094CA04708E0BB7B5B08DAB23B68DBB23A
S1130940F97B0348054CA04700BF1437BD4690BD52
S113095000800041E705000089050000290500002A
S113096080B582B000AF03460A46FB711346BB71E3
S1130970FB795B09D8B2FB7903F01F03DBB2BA79C8
S11309801946034B984700BF0837BD4680BD00BFDA
S11309901D08000080B582B000AF78603960396806
S11309A07868034B984700BF0837BD4680BD00BF39
S11309B0DD08000080B582B000AF03460A46FB7133
S11309C01346BB71FB795B09D8B2FB7903F01F03B3
S11309D0012202FA03F3BA791946034B984700BF80
S11309E00837BD4680BD00BFF106000080B582B067
S11309F000AF03460A46FB711346BB71FB795B09E2
S1130A00D8B2FB7903F01F03012202FA03F3BA7987
S1130A101946034B984700BF0837BD4680BD00BF49
S1130A20D907000080B500AF014B984700BF80BDD7
S1130A306D1B000080B500AF402204210B480C4B15
S1130A4098470C480C4B9847012120200B4B9847A2
S1130A50002120200A4B98474FF400112020094B15
S1130A609847094B984700BF80BD00BF001C004059
S1130A708303000000080040A9030000B50900003A
S1130A806109000095090000A10D000080B500AFC8
S1130A9040220B210448054B98470548054B9847CD
S1130AA0054B984700BF80BD001C00408303000035
S1130AB000080040090400008D0D000080B500AF5F
S1130AC0402217210648074B984743220321044834
S1130AD0044B98470448054B984700BF80BD00BFAE
S1130AE0001C0040830300000008004029040000AB
S1130AF080B500AF04493920044B98470449382095
S1130B00024B984700BF80BD0300390095090000DF
S1130B100300380090B583B002AF084B9847002318
S1130B2000931023064A07490748084CA047084B7E
S1130B30984700BF0437BD4690BD00BFBD0A000002
S1130B40E8000020002001412002002005140000DC
S1130B50F10A000080B500AF0448054B98474022D5
S1130B6009210448044B984700BF80BD0008004099
S1130B70C9030000001C00408303000080B500AFDF
S1130B800848094B9847402209210848084B9847D0
S1130B90084B984703461A4607490848084B9847A4
S1130BA000BF80BD00080040E9030000001C0040B5
S1130BB083030000B1390000003C0040040200201F
S1130BC0ED10000080B500AF0848094B984740225B
S1130BD01A210848084B9847084B984703461A4679
S1130BE007490848084B984700BF80BD00080040EB
S1130BF049040000001C004083030000B1390000D8
S1130C0000A00141CC010020ED10000080B500AF30
S1130C1004491620044B984704491720024B98476F
S1130C2000BF80BD040016009509000004001700F1
S1130C3080B500AF0448054B984740221E21044864
S1130C40044B984700BF80BD0008004069040000C1
S1130C50001C00408303000080B500AF064B98479A
S1130C60064B9847064B984703461A4605490648DB
S1130C70064B984700BF80BD310C00000D0C0000EE
S1130C80C139000000140042E8010020110F0000E7
S1130C9080B500AF1D4B9847002106201C4B984798
S1130CA0022106201B4B98474FF0FF3106201A4BB8
S1130CB0984700210720164B984702210720154B1F
S1130CC098474FF0FF310720134B9847012121200B
S1130CD0104B984702212120104B98474FF0FF31C9
S1130CE021200D4B98470E4B98470E4B98470E4BBF
S1130CF098470E4B98470E4B98470E4B98470E4B10
S1130D0098470E4B984700BF80BD00BF250A0000DE
S1130D10ED090000B5090000950900006109000013
S1130D20350A00008D0A0000150B0000550B000069
S1130D30D53D00007D0B0000C50B0000590C0000E0
S1130D4080B485B000AF7860EFF31083FB60FA687D
S1130D507B681A6072B6BFF35F8F00BF1437BD465D
S1130D605DF8047B704780B485B000AF7860BFF352
S1130D705F8F7B681B68FB60FB6883F3108800BF90
S1130D801437BD465DF8047B7047000080B500AFA2
S1130D90024B98470346184680BD00BF552100000A
S1130DA080B582B000AF0023FB800EE0FB880C4AC4
S1130DB0DB0013444FF0FF325A60FB88084A0021DD
S1130DC042F83310FB880133FB80FB88002BEDD005
S1130DD00448054B9847034618460837BD4680BD6E
S1130DE0F8000020ED0D0000991E000080B584B0CD
S1130DF000AF78600023FB730123BB732AE0BA7B46
S1130E00FB7B13445B107B737B7B002B27D17B7BA9
S1130E10164ADB0013445A687B689A420BD17B7BE9
S1130E20124A52F83330002B1BD07B7B0F4A52F806
S1130E303330984715E07B7B0C4ADB0013445A6837
S1130E407B689A4203D27B7B0133FB7302E07B7B9A
S1130E50013BBB73BA7BFB7B9A42D0D202E000BF5A
S1130E6000E000BF1037BD4680BD00BFF800002081
S1130E7080B584B000AFF860B9601346FB80FB68AE
S1130E80002B04D0BB68002B01D0012300E0002319
S1130E9003F00103DBB2342207491846074B984795
S1130EA0FB681B68FA88B968F868984703461846CF
S1130EB01037BD4680BD00BF685B0000FD17000011
S1130EC080B584B000AFF860B9601346FB80FB685E
S1130ED0002B04D0BB68002B01D0012300E00023C9
S1130EE003F00103DBB23D2207491846074B98473C
S1130EF0FB685B68FA88B968F8689847034618463F
S1130F001037BD4680BD00BF685B0000FD170000C0
S1130F1080B584B000AFF860B9607A60FB68002BDC
S1130F2004D0BB68002B01D0012300E0002303F0B0
S1130F300103DBB233220A4918460A4B9847FB687F
S1130F40B9681846084B9847FB68084A1A60FB685A
S1130F50074A5A60002318461037BD4680BD00BFBB
S1130F607C5B0000FD170000F935000069100000EB
S1130F708D10000080B582B000AF78607B68002BD4
S1130F8014BF01230023DBB24A220B4918460B4B42
S1130F9098477B6818460A4B98470346002B02D0B3
S1130FA06FF0100304E07B681846064B9847002353
S1130FB018460837BD4680BD7C5B0000FD17000065
S1130FC0913900003538000080B582B000AF7860F8
S1130FD07B68002B14BF01230023DBB258220D4988
S1130FE018460D4B98477B6818460C4B98470346A8
S1130FF083F00103DBB2002B02D06FF0100304E096
S11310007B681846064B9847002318460837BD46A8
S113101080BD00BF7C5B0000FD170000913900001B
S11310205538000080B584B000AFF860B9607A60CC
S1131030FB68002B14BF01230023DBB27C22074989
S11310401846074B9847FB687A68B9681846054BF9
S11310509847002318461037BD4680BD7C5B0000CE
S1131060FD1700007538000080B584B000AF7860CB
S11310707B68FB60FB685B69002B03D0FB685B69E2
S1131080F868984700BF1037BD4680BD80B584B06E
S113109000AF78607B68FB60FB689B69002B03D022
S11310A0FB689B69F868984700BF1037BD4680BD50
S11310B080B483B000AF78607B681B6818460C3737
S11310C0BD465DF8047B704780B483B000AF7860A0
S11310D07B68002B02D07B681B6800E00023184665
S11310E00C37BD465DF8047B7047000080B584B0C2
S11310F000AFF860B9607A60FB68002B04D0BB686D
S1131100002B01D0012300E0002303F00103DBB234
S11311103B220A4918460A4B9847FB68B9681846A7
S1131120084B9847FB6800221A61FB68064A1A605C
S1131130002318461037BD4680BD00BF945B0000F5
S1131140FD170000493300004913000080B582B048
S113115000AF78607B68002B14BF01230023DBB24F
S113116053220B4918460B4B98477B6818460A4B89
S113117098470346002B02D06FF0100304E07B680D
S11311801846064B9847002318460837BD4680BDCD
S1131190945B0000FD170000713900001538000051
S11311A080B584B000AF786039607B68002B04D0D0
S11311B03B68002B01D0012300E0002303F001036E
S11311C0DBB27A222D4918462D4B98477B681B7E4B
S11311D0DBB243F00103DAB27B681A767B6814331E
S11311E039681846274B98470346002B0FD07B6875
S11311F01B7EDBB223F00103DAB27B681A767F220E
S11312001E4900201E4B98476FF0110332E07B68A3
S11312101A693B685A607B6803F114007B681B6998
S11312201A463968184B98477B681B7EDBB223F05B
S11312300103DAB27B681A767B681B7EDBB203F0AB
S11312400203002B15D007F10C0318460F4B9847E7
S11312507B681B7EDBB223F00203DAB27B681A766A
S11312607B6818460A4B984707F10C031846094B4C
S11312709847002318461037BD4680BD945B000094
S1131280FD1700002518000099120000410D000010
S1131290D1390000670D000080B588B000AFF86058
S11312A0B9607A600023BB61F868234B98473861C2
S11312B03B69002B04D1B968F868204B984737E0A4
S11312C03B69FB6122E0FB695A687B689A4208D853
S11312D0FB699A68FB6959687B68CB1A13447B6184
S11312E009E0FB699A68FB695B681A447B685B42A6
S11312F0134401337B61BB689A687B699A4209D9BC
S1131300FB69BB61F8690E4B9847F861FB69002BD8
S1131310D9D100E000BFFA693B699A4204D1B968A7
S1131320F868064B984703E0B968B869054B9847D5
S11313302037BD4680BD00BFB11000005D1800001D
S1131340C9100000B518000080B586B000AF786001
S11313507B683B613B6914331846274B9847786197
S11313603B691B695A1C3B691A613B691B69FB6039
S11313703B691B7EDBB203F00103002B06D13B6902
S11313801B7EDBB203F00203002B27D03B691B7EDC
S1131390DBB243F00203DAB23B691A7629E07B69D7
S11313A0BB603B6914331846144B9847BB681B7CDD
S11313B0012B09D1BB68FA685A603B691433FA6897
S11313C0B96818460E4B98473B69143318460A4BC4
S11313D098477861BB68DB68B86898477B69002BDD
S11313E007D07B695B68FA68D21A7B699B689A426A
S11313F0D5D21837BD4680BDB1100000D918000001
S11314009912000080B586B000AFF860B9607A60C8
S11314107B80FB68002B0AD0BB68002B07D07B685D
S1131420002B04D07B88002B01D0012300E0002393
S113143003F00103DBB23A2219491846194B9847C5
S1131440FB6834337A8879681846174B9847034603
S1131450002B02D06FF00C031EE0FB680833B96860
S11314601846124B984778617B69002B01D07B6941
S113147012E0FB680E4A5A60FB680E4A1A60FB6869
S11314800D4A9A60FB680D4ADA60FB680C4A1A61DF
S1131490FB680C4A5A61002318461837BD4680BDC4
S11314A0AC5B0000FD1700000D1900009D29000031
S11314B04D160000BD150000FD1600009517000034
S11314C069170000D117000080B582B000AF7860C2
S11314D07B68002B14BF01230023DBB26122074980
S11314E01846074B98477B6808331846054B9847BE
S11314F0002318460837BD4680BD00BFAC5B000022
S1131500FD170000492A000080B584B000AFF860E0
S11315100B467A60FB72FB68002B14BF0123002387
S1131520DBB2832222491846224B9847FB7A012BCF
S113153014D0022B23D0002B32D1FB687A689A6234
S1131540FB6803F108007B68002B14BF0123002310
S1131550DBB21A460121184B984724E0FB687A68ED
S11315605A62FB6803F108007B68002B14BF012357
S11315700023DBB21A4602210F4B984713E0FB68A5
S11315807A68DA62FB6803F108007B68002B14BFF9
S113159001230023DBB21A460321074B984702E0DC
S11315A06FF00C0300E0002318461037BD4680BDE1
S11315B0AC5B0000FD1700002D2B000080B586B049
S11315C000AFF860B9601346FB80FB687B617B6900
S11315D0002B07D0BB68002B04D0FB88002B01D064
S11315E0012300E0002303F00103DBB240F23B12CD
S11315F013491846134B98477B69B3F844207B6919
S1131600B3F84C309A4202D06FF01B0313E07B69AD
S1131610BA689A647B69FA88A3F84C207B69002233
S1131620A3F844207B6901221A637B6908331846B6
S1131630054B9847FB8818461837BD4680BD00BF48
S1131640AC5B0000FD170000912A000080B588B053
S113165000AFF860B9601346FB800023FB83FB688E
S1131660BB61BB69002B07D0BB68002B04D0FB888F
S1131670002B01D0012300E0002303F00103DBB2BF
S11316804FF4AC7217491846174B984707F11003EB
S11316901846164B9847BB6934331846144B984781
S11316A0786107F110031846124B98470CE0BB69A8
S11316B003F13402FB8B591CF9831946BB680B44B4
S11316C0194610460C4B9847FA8B7B699A4203D211
S11316D0FA8BFB889A42EAD3FB8B18462037BD4627
S11316E080BD00BFAC5B0000FD170000410D000091
S11316F0651A0000670D00008119000090B585B0DF
S113170000AF78607B68083BFB60FB68B3F844205B
S1131710FB68B3F84C309A4217D0FB6803F1080019
S1131720FB689A6CFB68B3F84430591C8CB2F968B6
S1131730A1F8444013441B781946084B9847FB68AA
S113174008331846064B984704E0FB6808331846EC
S1131750044B984700BF1437BD4690BD692A00006A
S1131760912A0000B12A000080B584B000AF7860EF
S11317707B68083BFB60FB6800221A63FB685B6ABA
S1131780002B03D0FB685B6AF868984700BF1037EA
S1131790BD4680BD80B584B000AF78600B46FB7059
S11317A07B68083BFB60FB683433FA7811461846C3
S11317B0064B9847FB689B6A002B03D0FB689B6A27
S11317C0F868984700BF1037BD4680BDF119000086
S11317D080B584B000AF78607B68083BFB60FB6831
S11317E000221A63FB68DB6A002B03D0FB68DB6A08
S11317F0F868984700BF1037BD4680BD80B485B0F7
S113180000AF0346B9607A60FB73FB7B83F001038E
S1131810DBB2002B00D000BE00BF1437BD465DF81C
S1131820047B704780B485B000AF786039607B6812
S11318301B68FB6008E0FA683B689A4201D1012307
S113184006E0FB681B68FB60FB68002BF3D10023F8
S113185018461437BD465DF8047B704780B582B0E6
S113186000AF78603960396878680F4B9847034651
S1131870002B14BF01230023DBB283F00103DBB28E
S113188003F00103DBB2392208491846084B984794
S11318907B681A683B681A607B683A681A6000BF04
S11318A00837BD4680BD00BF25180000CC5B000092
S11318B0FD17000080B483B000AF786039607B68A6
S11318C01A683B681A607B683A681A6000BF0C3774
S11318D0BD465DF8047B704780B485B000AF786086
S11318E07B681B68002B09D07B681B68FB607B68E6
S11318F01B681A687B681A60FB6800E000231846BE
S11319001437BD465DF8047B7047000080B584B091
S113191000AFF860B9607A60FB68002B07D0BB6841
S1131920002B04D07B68002B01D0012300E00023AE
S113193003F00103DBB228220F4918460F4B9847E6
S11319407B685A1E7B681340002B02D06FF00C0397
S11319500EE07B685A1EFB685A60FB6800229A609E
S1131960FB689A68FB68DA60FB68BA681A6000234F
S113197018461037BD4680BDEC5B0000FD17000023
S113198080B582B000AF786039607B68002B04D0EA
S11319903B68002B01D0012300E0002303F0010386
S11319A0DBB2402210491846104B98477B68DA682E
S11319B07B689B689A4211D07B681A687B68996837
S11319C07B685B680B4013441A783B681A707B6829
S11319D09B685A1C7B689A60002301E06FF009033E
S11319E018460837BD4680BDEC5B0000FD170000BB
S11319F080B582B000AF78600B46FB707B68002B2B
S1131A0014BF01230023DBB2512214491846144B9E
S1131A1098477B681A687B68D9687B685B680B4069
S1131A201344FA781A707B68DA687B689B68D21A68
S1131A307B685B689A4206D97B68DA687B685B6876
S1131A40D21A7B689A607B68DB685A1C7B68DA6010
S1131A50002318460837BD4680BD00BFEC5B00007C
S1131A60FD17000080B582B000AF78607B68002B62
S1131A7014BF01230023DBB2672206491846064B34
S1131A8098477B68DA687B689B68D31A18460837DE
S1131A90BD4680BDEC5B0000FD17000080B485B03E
S1131AA000AF78600B4B1B68002B02D1094B0A4A2C
S1131AB01A60084B1B68FB60064B1A687B6813446A
S1131AC0044A1360FB6818461437BD465DF8047B6E
S1131AD0704700BF000100208803012080B483B058
S1131AE000AF0346FB80B7F90630002B0CDB094935
S1131AF0B7F906305B09FA8802F01F02012000FAE8
S1131B0002F2403341F8232000BF0C37BD465DF894
S1131B10047B704700E100E080B582B000AF03466B
S1131B20FB71FB791BB21846024B984700BF08377C
S1131B30BD4680BDDD1A000080B483B000AF78607C
S1131B400B467B807B681B889AB27B881B029BB206
S1131B5003F470639BB213439AB27B681A8000BF8C
S1131B600C37BD465DF8047B7047000080B500AFBC
S1131B7000210848084B9847084B9847084B98475A
S1131B80084B9847084B984740F6FF70074B984717
S1131B9000BF80BD00400041391B00000923000044
S1131BA0A123000085220000E1230000352200006B
S1131BB080B483B000AF0346FB80B7F90630002B36
S1131BC00BDB0949B7F906305B09FA8802F01F02FA
S1131BD0012000FA02F241F8232000BF0C37BD4671
S1131BE05DF8047B704700BF00E100E080B483B07F
S1131BF000AF0346FB80B7F90630002B10DB0B491E
S1131C00B7F906305B09FA8802F01F02012000FAD6
S1131C1002F2203341F82320BFF34F8FBFF36F8FBD
S1131C2000BF0C37BD465DF8047B704700E100E05F
S1131C3080B483B000AF0346FB80B7F90630002BB5
S1131C400CDB0949B7F906305B09FA8802F01F0278
S1131C50012000FA02F2603341F8232000BF0C3760
S1131C60BD465DF8047B704700E100E080B483B0BA
S1131C7000AF7860396000BF7B685A683B681340E6
S1131C80002BF9D100BF0C37BD465DF8047B7047CB
S1131C9080B483B000AF786039607B685A683B6871
S1131CA01340002B14BF01230023DBB218460C376A
S1131CB0BD465DF8047B704780B483B000AF7860A4
S1131CC07B685B6918460C37BD465DF8047B70473A
S1131CD080B483B000AF786039607B683A685A6139
S1131CE000BF0C37BD465DF8047B704780B582B0F9
S1131CF000AF78607B681B78DBB243F00203DAB292
S1131D007B681A7003217868024B984700BF083734
S1131D10BD4680BD6D1C000080B582B000AF786008
S1131D207B681B78DBB223F00203DAB27B681A709B
S1131D3003217868024B984700BF0837BD4680BD31
S1131D406D1C000080B584B000AF78600B46FB705A
S1131D507B681B78FB73FB7B23F01003FB73FB781E
S1131D601B015AB297F90F3013435BB2FB737B68C4
S1131D70FA7B1A7003217868024B984700BF10372A
S1131D80BD4680BD6D1C000080B584B000AF786096
S1131D900B46FB7003217868064B98477B681B78D9
S1131DA0FB73FA7BFB781340FB73FB7B18461037FD
S1131DB0BD4680BD6D1C000080B582B000AF786068
S1131DC00B46FB707B68FA781A7003217868034B22
S1131DD0984700BF0837BD4680BD00BF6D1C00009A
S1131DE080B483B000AF78600B46FB707B68FA78F0
S1131DF05A7000BF0C37BD465DF8047B704780B451
S1131E0083B000AF786039607B683A689A6000BF3D
S1131E100C37BD465DF8047B704780B483B000AFD7
S1131E20786039607B683A689A6100BF0C37BD46B8
S1131E305DF8047B704780B485B000AFF8600B4652
S1131E407A60FB72FB7AFA6806339B0013447A6863
S1131E505A6000BF1437BD465DF8047B704780B4F8
S1131E6083B000AF786039607B683A681A6300BF5A
S1131E700C37BD465DF8047B704780B483B000AF77
S1131E80786039607B683A685A6300BF0C37BD4696
S1131E905DF8047B7047000080B582B000AF7860C5
S1131EA001212A482A4B9847034683F00103DBB2F9
S1131EB0002B11D002212548264B98470346002BBE
S1131EC006D02248244B984702212048234B9847A8
S1131ED001211E48224B984701211C481F4B98475B
S1131EE000211A481F4B9847002118481E4B984759
S1131EF0012116481D4B9847002114481C4B984754
S1131F00002112481B4B9847002110481A4B984750
S1131F100C2200210D48194B9847002201210B483F
S1131F20164B98470948164B98470C20154B984771
S1131F300C20154B98470C20144B9847144A7B6887
S1131F401360002318460837BD4680BD00280040B2
S1131F50911C0000891D0000191D00006D1C00006B
S1131F60B91D0000451D0000E11D0000FF1D00001B
S1131F701B1E00005F1E00007B1E0000371E0000B9
S1131F80ED1C0000ED1B0000311C0000B11B000023
S1131F900401002080B584B000AF3F483F4B984710
S1131FA003463B604FF0FF33BB603B6819463A4839
S1131FB03B4B98473B4B1B68002B14BF012300236A
S1131FC0DBB2E82238491846384B98475CE03B6856
S1131FD01846374B98470346DBB2013BDBB2FB7331
S1131FE043E00023FB710123BB7120E0BA79FB7944
S1131FF013445B107B717B792E4A12F833301A46F6
S113200097F90F309A4202D12023BB6013E07B7909
S1132010284A12F833301A4697F90F309A4203DAF5
S11320207B790133FB7102E07B79013BBB71BA79A7
S1132030FB799A42DAD2BB68B3F1FF3F03D0194B64
S11320401B68B868984797F90F30012202FA03F326
S1132050DA433B6813403B603B681846144B98478F
S11320600346DBB2013BDBB2FB7397F90F30B3F1EC
S1132070FF3FB6D10848094B984703463B603B688D
S113208019460548064B98473B68002B9FD100BF73
S11320901037BD4680BD00BF00280040B91C0000B9
S11320A0D11C000004010020185C0000FD17000092
S11320B011520000105C000080B500AF014B98473E
S11320C000BF80BD951F000080B485B000AFF860EC
S11320D00B467A60FB72FA7AFB684832796843F8F7
S11320E0221000BF1437BD465DF8047B704780B4EE
S11320F083B000AF78600B46FB701346BB70FB786F
S11321007A680433DB001344BA785A71FB78BA78DE
S1132110D243D1B27A680433DB0013440A461A71FD
S113212000BF0C37BD465DF8047B704780B485B0B2
S113213000AFF8600B467A60FB72FA7AFB680432EF
S1132140796843F8321000BF1437BD465DF8047B4C
S11321507047000080B582B000AF0023FB710BE034
S1132160FB79184AD35C1A46FB7919461648174B73
S11321709847FB790133FB71FB79422BF0D900239B
S1132180FB7116E0FB79124A32F813301A46FB79D8
S113219019460D480F4B9847FB790F4A52F82330E4
S11321A0DAB2FB79194608480C4B9847FB7901339E
S11321B0FB71FB791F2BE5D9002318460837BD4670
S11321C080BD00BF305C000000E00041C920000079
S11321D0745C00002D210000B45C0000EF200000BE
S11321E080B483B000AF7860396000BF7B685A6800
S11321F03B681340002BF9D100BF0C37BD465DF896
S1132200047B704780B584B000AFF8600B467A60F9
S1132210FB72FA7AFB680832796843F8221043F6B5
S1132220FD71F868024B984700BF1037BD4680BD6A
S1132230E121000080B582B000AF78607B6803F0D4
S11322400103002B04D0044A00210448044B98479E
S113225000BF0837BD4680BD01010100001C0040DD
S11322600522000080B483B000AF78600B46FB7099
S11322707B68FA785A7100BF0C37BD465DF8047B61
S11322807047000080B582B000AF054B7B60012130
S11322907868044B984700BF0837BD4680BD00BF2F
S11322A0000800406522000080B483B000AF78606D
S11322B00B46FB707B68FA781A7400BF0C37BD4676
S11322C05DF8047B704780B485B000AF78607B68AC
S11322D0DB69FB60FB681B0A03F03F03FB60FB68E0
S11322E018461437BD465DF8047B704780B483B04C
S11322F000AF786039607B683A68DA6100BF0C37F8
S1132300BD465DF8047B704780B582B000AF0C4BCE
S11323107B6000237B8078680A4B984703467B8068
S11323207B881B0203F47C5319467868064B984754
S113233001217868054B984700BF0837BD4680BD2A
S113234000140040C7220000ED220000A922000072
S113235080B483B000AF78607B681B695B0803F0CE
S11323600103002B14BF01230023DBB218460C37F2
S1132370BD465DF8047B704780B485B000AFF8605B
S11323800B467A60FB72FB7AFA6804339B001344B1
S11323907A685A6000BF1437BD465DF8047B704705
S11323A080B582B000AF0A4B7B600A4A012178688D
S11323B0094B984700BF7868084B9847034683F059
S11323C00103DBB2002BF6D100BF0837BD4680BD48
S11323D0001000400626000379230000512300006A
S11323E080B483B000AF044B7B6000BF0C37BD46A4
S11323F05DF8047B704700BF0010004080B483B0D8
S113240000AF78607B689B78DBB218460C37BD461A
S11324105DF8047B704780B483B000AF78607B685C
S11324205B6818460C37BD465DF8047B70470000B6
S113243090B583B000AF174B7B601748174B984794
S113244003463B603B6803F00203002B0CD07B681F
S11324501B68002B08D07B681C680F48104B9847FA
S113246003461846A04712E03B6803F00103002B23
S11324700CD07B685B68002B08D07B685C680648DE
S1132480074B984703461846A04700E000BF0C37A7
S1132490BD4690BD7002002000000241FD230000F3
S11324A01724000080B483B000AF0346FB80B7F963
S11324B00630002B0BDB0949B7F906305B09FA88B3
S11324C002F01F02012000FA02F241F8232000BFAB
S11324D00C37BD465DF8047B704700BF00E100E0A7
S11324E080B483B000AF0346FB80B7F90630002BFD
S11324F010DB0B49B7F906305B09FA8802F01F02BA
S1132500012000FA02F2203341F82320BFF34F8F59
S1132510BFF36F8F00BF0C37BD465DF8047B704777
S113252000E100E080B483B000AF0346FB80B7F95C
S11325300630002B0CDB0949B7F906305B09FA8831
S113254002F01F02012000FA02F2603341F8232056
S113255000BF0C37BD465DF8047B704700E100E026
S113256080B483B000AF7860396000BF7B68DA69FB
S11325703B681340002BF9D100BF0C37BD465DF812
S1132580047B704780B483B000AF786039607B68A7
S1132590DA693B681340002B14BF01230023DBB22C
S11325A018460C37BD465DF8047B704780B483B091
S11325B000AF78607B681B7EDBB203F00103002B65
S11325C014BF01230023DBB218460C37BD465DF867
S11325D0047B704780B483B000AF78607B681B7E57
S11325E0DBB25B0803F00103002B14BF01230023BB
S11325F0DBB218460C37BD465DF8047B704780B4E7
S113260083B000AF78607B681B7EDBB29B0803F06D
S11326100103002B14BF01230023DBB218460C373F
S1132620BD465DF8047B704780B483B000AF78602A
S11326307B681B7EDBB2DB0903F00103002B14BFB4
S113264001230023DBB218460C37BD465DF8047B3A
S1132650704780B483B000AF78607B6880221A76BC
S113266000BF0C37BD465DF8047B704780B483B06F
S113267000AF78607B6801229A7500BF0C37BD46B5
S11326805DF8047B704780B483B000AF78607B68EA
S11326909B7DDBB203F00103002B14BF0123002355
S11326A0DBB218460C37BD465DF8047B704780B436
S11326B083B000AF78600B46FB70FB7883F00103B6
S11326C0DBB2002B03D07B6801221A7502E07B6821
S11326D001229A7500BF0C37BD465DF8047B704734
S11326E080B483B000AF78607B6801221A7500BFA4
S11326F00C37BD465DF8047B704780B483B000AFEF
S113270078607B6802229A7500BF0C37BD465DF87D
S1132710047B704780B483B000AF78607B689B7D96
S1132720DBB25B0803F00103002B14BF0123002379
S1132730DBB218460C37BD465DF8047B704780B4A5
S113274083B000AF78600B46FB70FB7883F0010325
S1132750DBB2002B03D07B6802221A7502E07B688F
S113276002229A7500BF0C37BD465DF8047B7047A2
S113277080B483B000AF78607B6802221A7500BF12
S11327800C37BD465DF8047B704780B483B000AF5E
S113279078600B46FB70FB7883F00103DBB2002BFF
S11327A003D07B6804221A7502E07B6804229A75C0
S11327B000BF0C37BD465DF8047B704780B483B01E
S11327C000AF78600B46FB70FB7883F00103DBB24B
S11327D0002B03D07B6880221A7502E07B6880227C
S11327E09A7500BF0C37BD465DF8047B7047000046
S11327F080B582B000AF78607B681B6843F002024A
S11328007B681A6003217868024B984700BF083739
S1132810BD4680BD6125000080B582B000AF786000
S11328207B681B6823F002027B681A6003217868C6
S1132830024B984700BF0837BD4680BD61250000A4
S113284080B584B000AF7860396003217868074BA5
S113285098477B681B68FB60FA683B681340FB6021
S1132860FB6818461037BD4680BD00BF61250000D7
S113287080B582B000AF786039607B683A681A60CE
S113288003217868024B984700BF0837BD4680BDD6
S11328906125000080B582B000AF786039607B6844
S11328A03A685A601F217868024B984700BF08377E
S11328B0BD4680BD6125000080B483B000AF786060
S11328C039607B683A689A6000BF0C37BD465DF892
S11328D0047B704780B483B000AF78600B467B8084
S11328E07B687A889A8100BF0C37BD465DF8047B0B
S11328F0704780B483B000AF78600B46FB707B6890
S1132900FA789A7300BF0C37BD465DF8047B7047B4
S113291080B483B000AF786039607B683A689A62AB
S113292000BF0C37BD465DF8047B704780B483B0AC
S113293000AF78607B689B6A18460C37BD465DF82B
S1132940047B704780B483B000AF78600B46FB70A3
S11329507B68FA7883F8302000BF0C37BD465DF8F9
S1132960047B704780B483B000AF78600B467B80F3
S11329707B687A885A8300BF0C37BD465DF8047BB8
S1132980704780B483B000AF78607B685B8B9BB288
S113299018460C37BD465DF8047B704780B586B099
S11329A000AF786039607B68002B14BF01230023DB
S11329B0DBB2CB221C4918461C4B984738681C4B89
S11329C09847F860FB68002B01D0FB6827E07B6820
S11329D03A689A6179683868164B98473868164B94
S11329E098470346FB7500233B6114E0FB7D1BB253
S11329F01846124B9847FB7D1BB21846104B98475C
S1132A00FB7D1BB218460F4B9847FB7D0133FB75CA
S1132A103B6901333B613B69032BE7D9002318462B
S1132A201837BD4680BD00BF345D0000FD170000AF
S1132A30592D00002D2D0000192F0000E124000065
S1132A4025250000A524000080B582B000AF786081
S1132A507B689B691846034B984700BF0837BD46FF
S1132A6080BD00BFF127000080B582B000AF786060
S1132A700B46FB707B689B69FA7811461846034B3A
S1132A80984700BF0837BD4680BD00BF112900002C
S1132A9080B582B000AF78607B689B691846034BB1
S1132AA0984700BF0837BD4680BD00BF6D260000B3
S1132AB080B582B000AF78607B689B691846034B91
S1132AC0984700BF0837BD4680BD00BFFB26000005
S1132AD0B0B48DB000AF7860134B07F10C041D4601
S1132AE00FCD0FC495E80F0084E80F000023FB62AC
S1132AF010E0FB6A9B0007F13002134453F8243CB6
S1132B001A467B689A4202D1FB6ADBB206E0FB6A92
S1132B100133FB62FB6A072BEBD9002318463437D9
S1132B20BD46B0BC704700BF505D000080B582B0A8
S1132B3000AF78600B46FB701346BB707B68002BBC
S1132B4014BF01230023DBB240F22B22184918469C
S1132B50184B9847FB78002B02D0FB78022B0ED140
S1132B607B689B69BA7811461846134B98477B6873
S1132B709B69BA7811461846104B984714E0FB78C5
S1132B80012B07D17B689B69BA78114618460C4B18
S1132B90984709E0FB78032B06D17B689B69BA78D8
S1132BA011461846074B984700BF0837BD4680BDFD
S1132BB0345D0000FD170000AF2600003F27000031
S1132BC08B270000BD27000090B585B000AF78606A
S1132BD07B689B69FB60F8682F4B98470346002B82
S1132BE00DD0F8682D4B98470346002B07D0F868A2
S1132BF02B4B98477B681B687868984749E0F868CE
S1132C00284B98470346002B0DD0F868264B98476D
S1132C100346002B07D0F868244B98477B689B68D1
S1132C207868984735E0F868214B98470346002BAD
S1132C3017D0F8681F4B9847034603F03703002B5F
S1132C4004D0FF21F8681C4B984722E07B685C683D
S1132C50F8681A4B98470346DBB219467868A047D0
S1132C6017E0F868164B98470346002B11D0F86814
S1132C70144B98477B68DB6878689847F8680D4B75
S1132C8098470346BB60BB689BB21946F8680A4B79
S1132C9098471437BD4690BDAD2500008726000037
S1132CA0E1260000D525000015270000712700004B
S1132CB0FF25000083290000652900002D2900005C
S1132CC0292600005326000080B584B000AF786048
S1132CD07868124B98470346BB730023FB730FE0DD
S1132CE0FA7B0F4913465B001344DB000B441B784B
S1132CF0BA7B9A4201D1FB7B0CE0FB7B0133FB7373
S1132D00FB7B002BECD040F26B2206490020064BE3
S1132D109847002318461037BD4680BDD12A0000CD
S1132D2000000020345D0000FD17000080B483B073
S1132D3000AF786039607B68054A934202D1054A46
S1132D403B68136000BF0C37BD465DF8047B7047D9
S1132D50002001410801002080B584B000AF7860F4
S1132D607868614B98470346FB73012178685F4B91
S1132D709847034683F00103DBB2002B20D0FA7B93
S1132D805B4913465B001344DB000B4404331B68AC
S1132D9003F01C03BB6002217868564B9847034636
S1132DA0002B06D07868544B984702217868534B1F
S1132DB09847BB6843F0010319467868504B98471D
S1132DC0012178684D4B9847FA7B494913465B00CB
S1132DD01344DB000B4404331B6819467868484BE2
S1132DE09847FA7B424913465B001344DB000B44CB
S1132DF008331B6819467868424B9847FA7B3C496C
S1132E0013465B001344DB000B440C331B68194668
S1132E1078683D4B9847FA7B354913465B00134469
S1132E20DB000B4404331B6803F40053002B0CD168
S1132E30FA7B2F4913465B001344DB000B44043335
S1132E401B6803F4C043002B22D0FA7B28491346A5
S1132E505B001344DB000B4410331B88C3F30C03E7
S1132E6099B27A68938961F30C039381FA7B2049C0
S1132E7013465B001344DB000B4412331B7803F04E
S1132E800703D9B27A68938961F34F3393810CE0D5
S1132E90FA7B174913465B001344DB000B441033E1
S1132EA01B8819467868194B9847FA7B10491346D2
S1132EB05B001344DB000B4413331B78194678681A
S1132EC0134B9847FA7B0A4913465B001344DB0013
S1132ED00B4414331B78194678680E4B984700232B
S1132EE018461037BD4680BDC92C0000852500005A
S1132EF0000000204128000019280000612500007E
S1132F007128000095280000B9280000D528000089
S1132F10F32800004529000080B582B000AF786036
S1132F207868054B984703469B00DBB22E33DBB22F
S1132F3018460837BD4680BDD12A000080B500AFD1
S1132F40034B1B681846034B984700BF80BD00BF66
S1132F5008010020C92B000080B500AF034B1B689B
S1132F601846034B984700BF80BD00BF08010020EE
S1132F70C92B000080B500AF034B1B681846034BF8
S1132F80984700BF80BD00BF08010020C92B000086
S1132F9080B500AF034B1B681846034B984700BF2E
S1132FA080BD00BF08010020C92B000080B483B09D
S1132FB000AF0346FB80B7F90630002B0BDB094951
S1132FC0B7F906305B09FA8802F01F02012000FA03
S1132FD002F241F8232000BF0C37BD465DF8047BA4
S1132FE0704700BF00E100E080B483B000AF034647
S1132FF0FB80B7F90630002B10DB0B49B7F906301C
S11330005B09FA8802F01F02012000FA02F2203361
S113301041F82320BFF34F8FBFF36F8F00BF0C37EE
S1133020BD465DF8047B704700E100E080B483B0E6
S113303000AF0346FB80B7F90630002B0CDB0949CF
S1133040B7F906305B09FA8802F01F02012000FA82
S113305002F2603341F8232000BF0C37BD465DF80F
S1133060047B704700E100E080B483B000AF786077
S1133070396000BF7B681A693B681340002BF9D1A3
S113308000BF0C37BD465DF8047B704780B483B045
S113309000AF786039607B681A693B681340002B85
S11330A014BF01230023DBB218460C37BD465DF87C
S11330B0047B704780B483B000AF78607B689B7AF0
S11330C0DBB203F00103002B14BF01230023DBB2A6
S11330D018460C37BD465DF8047B704780B483B056
S11330E000AF78607B6801229A7200BF0C37BD463E
S11330F05DF8047B704780B483B000AF78607B6870
S113310002229A7200BF0C37BD465DF8047B7047FB
S113311080B483B000AF78607B6801225A7200BF2C
S11331200C37BD465DF8047B704780B483B000AFB4
S113313078607B685B7ADBB25B0803F00103002BE9
S113314014BF01230023DBB218460C37BD465DF8DB
S1133150047B704780B582B000AF78607B681B68E1
S113316043F002027B681A6003217868024B984797
S113317000BF0837BD4680BD6930000080B584B00B
S113318000AF786003217868094B98477B681B6817
S1133190FB60FB685B0803F00103FB60FB68002B2A
S11331A014BF01230023DBB218461037BD4680BD8F
S11331B06930000080B582B000AF78607B681B681E
S11331C023F002027B681A6003217868024B984757
S11331D000BF0837BD4680BD6930000080B584B0AB
S11331E000AF7860396003217868074B98477B68A3
S11331F01B68FB60FA683B681340FB60FB68184679
S11332001037BD4680BD00BF6930000080B582B074
S113321000AF786039607B683A681A600321786887
S1133220024B984700BF0837BD4680BD6930000097
S113323080B483B000AF78600B467B807B687A886B
S1133240DA8000BF0C37BD465DF8047B704780B45C
S113325083B000AF78600B46FB707B68FA781A7312
S113326000BF0C37BD465DF8047B704780B483B063
S113327000AF78600B46FB707B68FA78DA7300BFA6
S11332800C37BD465DF8047B7047000080B582B002
S113329000AF78600B46FB707B68FA78DA76202101
S11332A07868034B984700BF0837BD4680BD00BF10
S11332B06930000080B582B000AF78600B46FB70C7
S11332C01346BB70FB787A681344BA781A77C02126
S11332D07868034B984700BF0837BD4680BD00BFE0
S11332E06930000080B582B000AF78600B46FB7097
S11332F013463B80FB787A680C335B0013443A88AE
S11333009A80C0217868034B984700BF0837BD46B0
S113331080BD00BF6930000080B584B000AFF860A4
S11333200B467A60FB72FB7AFA6806339B001344FF
S11333307A685A60C021F868024B984700BF10377A
S1133340BD4680BD6930000080B584B000AF7860B0
S113335039603868934B98470346FB737B683A6837
S1133360DA60932290490120904B984701213868F4
S11333708F4B9847034683F00103DBB2002B11D037
S1133380022138688B4B98470346002B06D03868D7
S1133390894B984702213868884B9847012138683F
S11333A0874B984701213868844B984797F90F2039
S11333B0844913469B0013449B000B4404331B684D
S11333C0194638687E4B984797F90F207D49134674
S11333D09B0013449B000B440A331B78194638683E
S11333E0794B984797F90F20764913469B0013446D
S11333F09B000B4408331B8819463868734B984765
S113340001213868724B984797F90F206D4913468C
S11334109B0013449B000B4404331B6803F00C0310
S1133420082B1ED197F90F20664913469B001344BD
S11334309B000B440C331B681A4600213868654B0B
S1133440984797F90F205F4913469B0013449B004C
S11334500B4410331B681A46012138685D4B9847AA
S11334606AE097F90F20574913469B0013449B00C9
S11334700B4404331B6803F00C03002B20D197F991
S11334800F20504913469B0013449B000B440C33FC
S11334901B689BB21A46002138684F4B984797F92E
S11334A00F20484913469B0013449B000B441033E0
S11334B01B689BB21A4601213868474B98473BE08A
S11334C097F90F203F4913469B0013449B000B447C
S11334D004331B6803F00C03042B2DD197F90F2040
S11334E0384913469B0013449B000B440C331B6860
S11334F0DBB21A4600213868384B984797F90F20F9
S1133500304913469B0013449B000B4410331B6843
S1133510DBB21A4601213868304B984797F90F20DF
S1133520284913469B0013449B000B440B331B7820
S1133530194638682A4B984738682A4B984779685F
S11335403868294B984797F90F201E4913469B006A
S113355013449B000B440233B3F900301846234B49
S1133560984797F90F20174913469B0013449B0073
S11335700B440233B3F9003018461D4B984797F9B2
S11335800F20104913469B0013449B000B44023345
S1133590B3F900301846174B9847002318461037E4
S11335A0BD4680BD293B0000845D0000FD1700007E
S11335B08D300000DD310000B531000069300000BD
S11335C00D320000180000206D320000313200007E
S11335D04F32000019330000E5320000B53200001C
S11335E08D32000011310000913B0000E92F0000F2
S11335F02D300000AD2F000080B584B000AF78609E
S113360039603868734B98470346FB737B683A68A4
S11336101A6101213868704B9847034683F001030F
S1133620DBB2002B11D0022138686C4B984703465B
S1133630002B06D038686A4B984702213868694BDA
S1133640984701213868684B984701213868654BD1
S1133650984797F90F20654913469B0013449B0034
S11336600B4404331B68194638685F4B984797F935
S11336700F205E4913469B0013449B000B440A33FE
S11336801B78194638685A4B984797F90F205749C1
S113369013469B0013449B000B4408331B881946B4
S11336A03868544B984703213868534B984797F927
S11336B00F204E4913469B0013449B000B440433D4
S11336C01B6803F00C03082B1ED197F90F20474900
S11336D013469B0013449B000B440C331B681A468F
S11336E000213868454B984797F90F203F49134606
S11336F09B0013449B000B4410331B681A460121A2
S113370038683E4B984731E097F90F203749134604
S11337109B0013449B000B4404331B6803F00C030D
S1133720002B20D197F90F20304913469B001344F6
S11337309B000B440C331B689BB21A46002138686B
S11337402F4B984797F90F20284913469B001344A1
S11337509B000B4410331B689BB21A460121386846
S1133760274B984702E04FF0FF332EE07968386822
S1133770244B984797F90F201C4913469B00134488
S11337809B000B440233B3F9003018461E4B984794
S113379097F90F20154913469B0013449B000B44D3
S11337A00233B3F900301846184B984797F90F20A5
S11337B00E4913469B0013449B000B440233B3F998
S11337C000301846124B9847002318461037BD4660
S11337D080BD00BF293B00008D300000DD310000BA
S11337E0B5310000693000000D32000018000020DF
S11337F06D320000313200004F32000019330000F6
S1133800E5320000913B0000E92F00002D3000005C
S1133810AD2F000080B582B000AF78607B68DB68B4
S11338201846034B984700BF0837BD4680BD00BF0C
S11338305531000080B582B000AF78607B681B69A9
S11338401846034B984700BF0837BD4680BD00BFEC
S11338505531000080B582B000AF78607B681B6989
S11338601846034B984700BF0837BD4680BD00BFCC
S1133870B531000080B586B000AFF860B9607A60F9
S1133880FB681B697B617869354B98470346FB7479
S113389097F91320334913469B0013449B000B44B0
S11338A00C33BA681A6097F913202E4913469B000B
S11338B013449B000B4410337A681A6097F9132061
S11338C0284913469B0013449B000B4404331B6894
S11338D003F00C03082B1ED197F91320214913463A
S11338E09B0013449B000B440C331B681A460021B5
S11338F078691D4B984797F913201A4913469B0082
S113390013449B000B4410331B681A460121786949
S1133910154B98471FE097F91320124913469B0053
S113392013449B000B440C331B689BB21A460021C2
S113393078690E4B984797F913200A4913469B0060
S113394013449B000B4410331B689BB21A4601219D
S11339507869064B984700BF1837BD4680BD00BF45
S1133960293B00001800002019330000E532000054
S113397080B582B000AF78607B68DB681846034B83
S11339809847034618460837BD4680BD7D31000080
S113399080B582B000AF78607B681B691846034B22
S11339A09847034618460837BD4680BD7D31000060
S11339B080B400AF00231846BD465DF8047B704711
S11339C080B400AF00231846BD465DF8047B704701
S11339D080B584B000AF78607B68DB68FB60F86812
S11339E00E4B98470346FB7240F2A1120C4901208A
S11339F00C4B984797F90B200B4913469B00134433
S1133A009B000B440233B3F90030DBB21846074B7A
S1133A10984700BF1037BD4680BD00BF293B00005A
S1133A20845D0000FD17000018000020191B000031
S1133A3080B584B000AF78607B68DB68FB60F868B1
S1133A40074B98470346002B06D0F868054B984768
S1133A507B681B687868984700BF1037BD4680BDF7
S1133A60B5300000DD30000080B584B000AF786070
S1133A707B681B69FB60F868124B98470346002B70
S1133A800AD0F868104B98477B681B68002B03D05A
S1133A907B681B6878689847F8680C4B984703461E
S1133AA0002B0AD0F8680A4B98477B685B68002BA8
S1133AB003D07B685B687868984700BF1037BD46C1
S1133AC080BD00BFB5300000DD3000002B310000A8
S1133AD0F730000080B500AF034B1B681846034B5A
S1133AE0984700BF80BD00BF38010020313A000074
S1133AF080B500AF034B1B681846034B984700BFC3
S1133B0080BD00BF3C010020313A000080B500AF09
S1133B10034B1B681846034B984700BF80BD00BF8A
S1133B2040010020693A000080B584B000AF78609D
S1133B307868134B98470346BB730023FB7310E06C
S1133B40FA7B104913469B0013449B000B441B78DB
S1133B50BA7B9A4202D197F90F300DE0FB7B013317
S1133B60FB73FB7B022BEBD94FF4FA72064900205E
S1133B70064B98474FF0FF3318461037BD4680BDBB
S1133B80013C000018000020845D0000FD170000C7
S1133B9080B483B000AF786039607B68104A934288
S1133BA002D1104A3B6813607B680F4A934202D1EA
S1133BB00E4A3B6813607B680D4A934202D10D4A5A
S1133BC03B6813607B680C4A934202D10B4A3B6802
S1133BD0136000BF0C37BD465DF8047B704700BF1F
S1133BE00038004034010020003C0040380100202F
S1133BF000A001413C0100200014004240010020CB
S1133C00B0B48DB000AF7860134B07F10C041D46BF
S1133C100FCD0FC495E80F0084E80F000023FB626A
S1133C2010E0FB6A9B0007F13002134453F8243C74
S1133C301A467B689A4202D1FB6ADBB206E0FB6A51
S1133C400133FB62FB6A072BEBD900231846343798
S1133C50BD46B0BC704700BF985D000080B483B01F
S1133C6000AF7860396000BF7B681A693B68134015
S1133C70002BF9D100BF0C37BD465DF8047B7047BB
S1133C8080B483B000AF786039607B681A693B68A0
S1133C901340002B14BF01230023DBB218460C375A
S1133CA0BD465DF8047B704780B483B000AF786094
S1133CB00B46FB707B68FA785A71FB78DB43DAB207
S1133CC07B681A7100BF0C37BD465DF8047B7047F2
S1133CD080B483B000AF78600B46FB707B68FA78E1
S1133CE05A72FB78DB43DAB27B681A7200BF0C3776
S1133CF0BD465DF8047B704780B584B000AF786042
S1133D000B46FB707B681B68FB60FB6823F00203B7
S1133D10FB60FB785B001A46FB681343FB607B681F
S1133D20FA681A6003217868024B984700BF10377D
S1133D30BD4680BD5D3C000080B582B000AF7860B8
S1133D407B681B6823F002027B681A600321786891
S1133D50024B984700BF0837BD4680BD5D3C00005C
S1133D6080B584B000AF7860396003217868074B70
S1133D7098477B681B68FB60FA683B681340FB60EC
S1133D80FB6818461037BD4680BD00BF5D3C00008F
S1133D9080B582B000AF786039607B683A681A6099
S1133DA003217868024B984700BF0837BD4680BDA1
S1133DB05D3C000080B483B000AF78600B467B802C
S1133DC07B687A88DA8000BF0C37BD465DF8047BD7
S1133DD07047000080B500AF01211B481B4B98477A
S1133DE0034683F00103DBB2002B11D002211648F5
S1133DF0174B98470346002B06D01348154B98479A
S1133E0002211148144B984701210F48134B98473E
S1133E1001210D48104B984711490B480F4B984707
S1133E20002109480F4B9847252107480E4B984716
S1133E30102105480D4B9847012103480C4B984726
S1133E400023184680BD00BF00380040813C0000BC
S1133E50613D0000393D00005D3C0000913D0000E3
S1133E6000030300A93C0000B53D0000D13C000064
S1133E70F93C000080B483B000AF0346FB80B7F97F
S1133E800630002B0BDB0949B7F906305B09FA88C9
S1133E9002F01F02012000FA02F241F8232000BFC1
S1133EA00C37BD465DF8047B704700BF00E100E0BD
S1133EB080B483B000AF03463960FB80B7F90630A5
S1133EC0002B0ADB0D49B7F906303A68D2B2520129
S1133ED0D2B20B4483F800230AE00949FB8803F0BB
S1133EE00F03043B3A68D2B25201D2B20B441A76A1
S1133EF000BF0C37BD465DF8047B704700E100E06D
S1133F0000ED00E080B483B000AF78600B46FB7036
S1133F10FB787A68DB0113441B6818460C37BD46EE
S1133F205DF8047B704780B485B000AFF8600B4641
S1133F307A60FB72FB7AFA68DB01134418337A68FF
S1133F401A6000BF1437BD465DF8047B704780B427
S1133F5083B000AF78600B46FB70FB787A68DB01B6
S1133F60134410331B6818460C37BD465DF8047BB8
S1133F70704780B485B000AFF8600B467A60FB727E
S1133F80FB7AFA68DB01134414337A681A6000BFC1
S1133F901437BD465DF8047B704780B483B000AF2E
S1133FA078600B46FB70FB787A68DB01134420339E
S1133FB01B6818460C37BD465DF8047B704780B417
S1133FC083B000AF7860396000BF7B681A693B68D2
S1133FD01340002BF9D100BF0C37BD465DF8047BBC
S1133FE0704780B483B000AF78607B6810229A7207
S1133FF000BF0C37BD465DF8047B704780B582B0C6
S113400000AF78600B46FB70C0217868064B984778
S1134010FB787A680C335B0013449B889BB2184688
S11340200837BD4680BD00BFBF3F000080B582B0E9
S113403000AF03463960FB711346BB71BB79002B9B
S113404006D0FB793A6819460648074B984705E0BD
S1134050FB793A6819460348044B984700BF083770
S1134060BD4680BD00800041273F0000733F000033
S113407080B586B000AF0346FB7107F10C03184608
S1134080134B9847FB7919461248134B98477861AC
S1134090FB7919460F48114B984702467B69DB436D
S11340A013403B61FB7919460A480D4B9847024679
S11340B07B6913403A6913433B6107F10C031846CB
S11340C0084B98473B6918461837BD4680BD00BF6A
S11340D0410D000000800041053F00009B3F0000AF
S11340E04F3F0000670D000080B582B000AF03466B
S11340F00A46FB711346BB71FB795B09D8B2FB79A5
S113410003F01F03012202FA03F3BA791946034BA1
S1134110984700BF0837BD4680BD00BF2D40000052
S113412080B582B000AF0346FB71FB795B09DBB25B
S11341301846094B98470146FB7903F01F030122F7
S113414002FA03F30B40002B14BF01230023DBB25C
S113415018460837BD4680BD7140000080B582B066
S113416000AF2948294B984700212748284B9847F6
S113417003461A46274B1A60274B1B680133264A0D
S113418013602120254B98470346FB71FB7983F08C
S11341900103DBB2002B09D0214B93F90030B3F1BA
S11341A0FF3F03D11E4B01221A700AE0FB79002B5A
S11341B007D01B4B93F90030012B02D1184BFF227F
S11341C01A70174B93F90030012B05D1154B1B685E
S11341D00133144A136004E0124B1B68013B114A7B
S11341E01360104B1B6847F23052934204DC0D4BB2
S11341F01B680D4A934202DA0A4B00221A6000BF80
S11342000837BD4680BD00BF00380040E33F0000D2
S1134210FD3F00004C01002050010020214100001E
S11342205400002058010020D08AFFFF80B483B0DE
S113423000AF7860044B01221A6000BF0C37BD4602
S11342405DF8047B704700BF4401002090B583B043
S113425000AF7860134B1B68642202FB03F2124B1D
S113426010469847114C4FF00002114BA0470346EB
S11342700C46184621460F4C4FF000020E4BA04747
S113428003460C46194622460C4B084611469847ED
S113429002460B4B1A60034B00221A6000BF0C3716
S11342A0BD4690BD50010020C14C0000AD4D000042
S11342B000004E400150000000809640D1510000A3
S11342C05401002090B587B002AF78600C4B1A6897
S11342D00C4B19680C4B93F9003000930B460B49B7
S11342E00B480C4CA0470346FB60FB689BB21A4684
S11342F007490948094B984700BF1437BD4690BD8C
S1134300580100205401002054000020B85D000032
S1134310880200207152000020020020710E00006B
S113432080B500AF0F4B0A229A600E4B0E4ADA603A
S11343300C4B01221A740D4B64229A600B4B0C4AED
S1134340DA600A4B01221A7406490A480A4B984754
S113435006490848084B98470648084B984700BF49
S113436080BD00BF640100204D42000078010020A0
S1134370C542000004020020A11100004D110000FC
S113438090B583B000AF78604B4B1B78002B00F0E6
S11343908B804A484A4B98474A4B1A684A4B1B68D9
S11343A019461046494B984703461A46484B1A701B
S11343B0484B93F900301A46474B1B6803FB02F342
S11343C01A46434B93F9003019461046434B98471D
S11343D003465AB23E4B1A703D4B93F90030002B02
S11343E02BDB002106203E4B9847012107203C4B44
S11343F09847374B93F900203A4B104698473A4C6C
S11344004FF00002394BA04703460C46184621469C
S1134410374C27A3D3E90023A04703460C4619468B
S11344202246344B08461146984703461A4642F240
S113443010712248304B984733E001210620284B65
S1134440984700210720264B9847214B93F90020D9
S1134450244B10469847244C4FF00002234BA047AE
S113446003460C4618462146214C11A3D3E90023E8
S1134470A04703460C4618462146204C0CA3D3E91A
S11344800023A04703460C4619462246194B08460A
S11344901146984703461A4642F210710748164BD4
S11344A098470648164B984700BF0C37BD4690BD49
S11344B0000000000088C3404A010020E8010020F9
S11344C0C90F0000580100205C010020C948000009
S11344D0600100205400002054010020B547000072
S11344E0E9400000E14C0000015000000000594088
S11344F0AD4D0000D151000025100000494A0000D4
S1134500750F000080B500AF084B02229A60074B7C
S1134510074ADA60054B01221A7404490548064B20
S113452098470448054B984700BF80BD8C01002084
S113453081430000CC010020A11100004D110000B6
S113454080B582B000AF864B9847002242F21071CA
S11345508448854B98478348844B9847844A002174
S11345608448854B98478348844B9847844B9847A5
S1134570844B984703216B20834B98476B20834BD4
S1134580984762B6824B1B68002B00F0E68023E05C
S1134590FB790A2B0CD17F4B01221A707E4B00222F
S11345A01A707E4B1B78013BDAB27C4B1A701CE00C
S11345B07A4B1B785A1CD1B2784A11701A46F97991
S11345C0774B995400BFFB1D012219466948754B6E
S11345D098470346012BF6D1FB1D01221946654875
S11345E0714B98470346012BD2D0694B00221A60C5
S11345F0684B1B78002BC5D06C4B00221A60674BAC
S11346001B78022B05D1664B5B78303B674A1360FD
S113461074E0624B1B78032B0FD1614B5B78A3F1E1
S1134620300213469B0013445B001A465C4B9B7894
S1134630303B13445D4A136060E0584B1B78042BF5
S113464015D1574B5B78303B642202FB03F1544B8A
S11346509B78A3F1300213469B0013445B00CA18F5
S11346604F4BDB78303B1344504A136046E04B4BCE
S11346701B78052B1DD14A4B5B78303B4FF47A7283
S113468002FB03F2464B9B78303B642101FB03F3AE
S1134690D118434BDB78A3F1300213469B0013443B
S11346A05B00CA183E4B1B79303B13443F4A1360EE
S11346B024E03B4B5B78303B42F2107202FB03F286
S11346C0374B9B78303B4FF47A7101FB03F31A4468
S11346D0334BDB78303B642101FB03F3D118304BBF
S11346E01B79A3F1300213469B0013445B00CA18E4
S11346F02B4B5B79303B13442C4A1360284B1B78BB
S11347002B2B04D1294B1B68284A136008E0244B47
S11347101B782D2B04D1254B1B685B42234A136065
S1134720224B1B6840F6B832934204DD1F4B40F61F
S1134730B8321A6007E01D4B1B681D4A934202DA27
S11347401A4B1B4A1A60144B01221A70114B002297
S11347501A70124B00221A7014E700BF12E700BF50
S1134760D1020000E801002025100000750F0000B0
S11347702D4200002002002009150000C914000089
S11347802143000005450000B13E0000753E0000D5
S113479044010020490100204A0100204801002072
S11347A080020020710E0000C10E00005C01002098
S11347B048F4FFFF90B58FB004AF786039600023F0
S11347C087F827304FF000033B614FF00003FB6094
S11347D0344B3B62344BFB613A687B68D31A002B41
S11347E0B8BF5B4207EE903AF8EEE77AC7ED057A78
S11347F07B692E4A13602E4B93ED007A2B4BD3ED3D
S1134800007A67EE277AC7ED047A3B69294A136078
S1134810284BD3ED007A9FED287AF4EEC77AF1EEB7
S113482010FA03DD234B1F4A1A600BE0214BD3ED32
S1134830007AF5EEC07AF1EE10FA03D51D4B4FF075
S113484000021A60D7ED057ABDEEE77AD7ED047A57
S1134850FDEEE76AD7ED037AFDEEE77A17EE902ACC
S1134860144BD3ED007AFDEEE77A17EE901A3B680D
S113487003937B6802930191009216EE903A17EE2F
S1134880102A0E490E480F4CA0470346BB61094B42
S1134890D3ED007AFDEEE77A17EE903A18462C37FE
S11348A0BD4690BD0000C8420000C8C2B801002047
S11348B058000020BC0100200000C842EC5D00004C
S11348C0BC0200207152000090B589B000AF78603E
S11348D039600023FB774FF00003BB614FF0000306
S11348E07B61484B3B61484BFB603B6807EE903A69
S11348F0B8EE677A7B6807EE903AF8EE677A77EE5F
S1134900677AC7ED027A414ABB681360404B93ED66
S1134910007AD7ED027A77EE277A3D4BC3ED007A21
S11349203B4B93ED007AD7ED047AB4EEE77AF1EEDF
S113493010FA03DD364A3B6913600CE0344B93ED07
S1134940007AD7ED037AB4EEE77AF1EE10FA02D5E5
S11349502F4AFB6813602F4B93ED007A2B4BD3ED5A
S1134960007A67EE277AC7ED067A2B4B93ED007A2F
S1134970274BD3ED007A67EE277AC7ED057A97EDDA
S1134980067AD7ED057A37EE277A244BD3ED007AF1
S113499077EE277A214BC3ED007A204BD3ED007AD2
S11349A09FED1F7AF4EEC77AF1EE10FA03DD1B4B8C
S11349B01C4A1A600CE0194BD3ED007AB0EE087A69
S11349C0F4EEC77AF1EE10FA02D5144B164A1A60C7
S11349D0124B1A68154B10469847154C4FF00002BD
S11349E0144BA04703460C4619462246124B084670
S11349F0114698470346FB77FB7F18462437BD468C
S1134A0090BD00BF0000C8420000C8C2B801002029
S1134A10B40100206000002064000020C0010020D8
S1134A2000401C4600401C4600004040054D00006C
S1134A300150000000005940D151000081F00041B4
S1134A4002E000BF83F0004330B54FEA41044FEA6F
S1134A50430594EA050F08BF90EA020F1FBF54EA0A
S1134A60000C55EA020C7FEA645C7FEA655C00F0A6
S1134A70E2804FEA5454D4EB5555B8BF6D420CDD77
S1134A802C4480EA020281EA030382EA000083EAFA
S1134A90010180EA020281EA0303362D88BF30BD9A
S1134AA011F0004F4FEA01314FF4801C4CEA1131F0
S1134AB002D0404261EB410113F0004F4FEA03334F
S1134AC04CEA133302D0524263EB430394EA050FDA
S1134AD000F0A780A4F10104D5F1200E0DDB02FA49
S1134AE00EFC22FA05F2801841F1000103FA0EF2DD
S1134AF0801843FA05F359410EE0A5F120050EF1A3
S1134B00200E012A03FA0EFC28BF4CF0020C43FAD3
S1134B1005F3C01851EBE37101F0004507D54FF0E0
S1134B20000EDCF1000C7EEB00006EEB0101B1F530
S1134B30801F1BD3B1F5001F0CD349085FEA300076
S1134B404FEA3C0C04F101044FEA445212F5800F81
S1134B5080F09A80BCF1004F08BF5FEA500C50F11E
S1134B60000041EB045141EA050130BD5FEA4C0C01
S1134B70404141EB010111F4801FA4F10104E9D18A
S1134B8091F0000F04BF01460020B1FA81F308BF81
S1134B902033A3F10B03B3F120020CDA0C3208DD4D
S1134BA002F1140CC2F10C0201FA0CF021FA02F128
S1134BB00CE002F11402D8BFC2F1200C01FA02F198
S1134BC020FA0CFCDCBF41EA0C019040E41AA2BFBD
S1134BD001EB0451294330BD6FEA04041F3C1CDA85
S1134BE00C340EDC04F11404C4F1200220FA04F0A5
S1134BF001FA02F340EA030021FA04F345EA03014F
S1134C0030BDC4F10C04C4F1200220FA02F001FA10
S1134C1004F340EA0300294630BD21FA04F0294692
S1134C2030BD94F0000F83F4801306BF81F480112B
S1134C300134013D4EE77FEA645C18BF7FEA655C9E
S1134C4029D094EA050F08BF90EA020F05D054EA70
S1134C50000C04BF1946104630BD91EA030F1EBF75
S1134C600021002030BD5FEA545C05D14000494179
S1134C7028BF41F0004130BD14F580043CBF01F56C
S1134C80801130BD01F0004545F0FE4141F4700152
S1134C904FF0000030BD7FEA645C1ABF194610462D
S1134CA07FEA655C1CBF0B46024650EA013406BF2E
S1134CB052EA033591EA030F41F4002130BD00BFED
S1134CC090F0000F04BF0021704730B54FF48064AA
S1134CD004F132044FF000054FF0000150E700BF2B
S1134CE090F0000F04BF0021704730B54FF480648A
S1134CF004F1320410F0004548BF40424FF0000177
S1134D003EE700BF42004FEAE2014FEA31014FEAB9
S1134D1002701FBF12F07F4393F07F4F81F0605108
S1134D20704792F0000F14BF93F07F4F704730B577
S1134D304FF4607401F0004521F0004120E700BF0A
S1134D4050EA010208BF704730B54FF000050AE091
S1134D5050EA010208BF704730B511F0004502D592
S1134D60404261EB41014FF4806404F132045FEA94
S1134D70915C3FF4DCAE4FF003025FEADC0C18BF39
S1134D8003325FEADC0C18BF033202EBDC02C2F12F
S1134D90200300FA03FC20FA02F001FA03FE40EAC1
S1134DA00E0021FA02F11444C1E600BF70B54FF0C1
S1134DB0FF0C4CF4E06C1CEA11541DBF1CEA1355A3
S1134DC094EA0C0F95EA0C0F00F0DEF82C4481EA0B
S1134DD0030621EA4C5123EA4C5350EA013518BF2B
S1134DE052EA033541F4801143F4801338D0A0FB18
S1134DF002CE4FF00005E1FB02E506F00042E0FBC5
S1134E0003E54FF00006E1FB03569CF0000F18BFCA
S1134E104EF0010EA4F1FF04B6F5007F64F5407472
S1134E2004D25FEA4E0E6D4146EB060642EAC62105
S1134E3041EA55514FEAC52040EA5E504FEACE2E72
S1134E40B4F1FD0C88BFBCF5E06F1ED8BEF1004F75
S1134E5008BF5FEA500E50F1000041EB045170BDF1
S1134E6006F0004646EA010140EA020081EA030135
S1134E70B4EB5C04C2BFD4EB0C0541EA045170BD31
S1134E8041F480114FF0000E013C00F3AB8014F1AB
S1134E90360FDEBF002001F0004170BDC4F10004F4
S1134EA0203C35DA0C341BDC04F11404C4F1200575
S1134EB000FA05F320FA04F001FA05F240EA0200D0
S1134EC001F0004221F0004110EBD37021FA04F606
S1134ED042EB06015EEA430E08BF20EAD37070BDC0
S1134EE0C4F10C04C4F1200500FA04F320FA05F01F
S1134EF001FA04F240EA020001F0004110EBD37021
S1134F0041F100015EEA430E08BF20EAD37070BD90
S1134F10C4F1200500FA05F24EEA020E20FA04F369
S1134F2001FA05F243EA020321FA04F001F0004118
S1134F3021FA04F220EA020000EBD3705EEA430E89
S1134F4008BF20EAD37070BD94F0000F0FD101F0B8
S1134F500046400041EB010111F4801F08BF013CF1
S1134F60F7D041EA060195F0000F18BF704703F02F
S1134F700046520043EB030313F4801F08BF013DB6
S1134F80F7D043EA0603704794EA0C0F0CEA135572
S1134F9018BF95EA0C0F0CD050EA410618BF52EA2C
S1134FA04306D1D181EA030101F000414FF0000032
S1134FB070BD50EA410606BF1046194652EA430640
S1134FC019D094EA0C0F02D150EA013613D195EAB4
S1134FD00C0F05D152EA03361CBF104619460AD1FC
S1134FE081EA030101F0004141F0FE4141F4700106
S1134FF04FF0000070BD41F0FE4141F4780170BDF6
S113500070B54FF0FF0C4CF4E06C1CEA11541DBF5A
S11350101CEA135594EA0C0F95EA0C0F00F0A7F85C
S1135020A4EB050481EA030E52EA03354FEA013189
S113503000F088804FEA03334FF0805545EA13139C
S113504043EA12634FEA022245EA111545EA106564
S11350504FEA00260EF000419D4208BF964244F1FB
S1135060FD0404F5407402D25B084FEA3202B61A1A
S113507065EB03055B084FEA32024FF480104FF4EE
S1135080002CB6EB020E75EB030E22BFB61A754662
S113509040EA0C005B084FEA3202B6EB020E75EBF5
S11350A0030E22BFB61A754640EA5C005B084FEA5D
S11350B03202B6EB020E75EB030E22BFB61A75462A
S11350C040EA9C005B084FEA3202B6EB020E75EB35
S11350D0030E22BFB61A754640EADC0055EA060EF6
S11350E018D04FEA051545EA16754FEA06164FEA39
S11350F0C30343EA52734FEAC2025FEA1C1CC0D1E5
S113510011F4801F0BD141EA00014FF000004FF071
S1135110004CB6E711F4801F04BF01430020B4F132
S1135120FD0C88BFBCF5E06F3FF6AFAEB5EB030CEA
S113513004BFB6EB020C5FEA500C50F1000041EBE7
S1135140045170BD0EF0004E4EEA113114EB5C04B4
S1135150C2BFD4EB0C0541EA045170BD41F4801187
S11351604FF0000E013C90E645EA060E8DE60CEA8F
S1135170135594EA0C0F08BF95EA0C0F3FF43BAFAC
S113518094EA0C0F0AD150EA01347FF434AF95EA63
S11351900C0F7FF425AF104619462CE795EA0C0F47
S11351A006D152EA03353FF4FDAE1046194622E714
S11351B050EA410618BF52EA43067FF4C5AE50EAEE
S11351C041047FF40DAF52EA43057FF4EBAE12E7DE
S11351D04A0011D212F5001211D20DD56FF4787372
S11351E0B3EB62520ED44FEAC12343F0004343EAC7
S11351F0505323FA02F070474FF00000704750EA12
S1135200013002D14FF0FF3070474FF0000070477B
S113521040B1002240FA02F1531CC9071A46F9D5DD
S1135220184670470346FBE770B50D4E0D4CA41BA2
S1135230A4100025A54209D10B4E0C4C00F05CFED5
S1135240A41BA4100025A54205D170BD56F8253035
S113525098470135EEE756F8253098470135F2E7CF
S1135260045F0000045F0000045F0000085F0000AA
S11352700EB400B59CB04FF402711DABADF8141020
S1135280029006906FF000410A48049107914FF68E
S1135290FF7153F8042BADF816100068019302A9AE
S11352A000F0C4F8029B00221A701CB05DF804EBF5
S11352B003B070476800002070B5CD1C25F00305CD
S11352C008350C2D38BF0C25002D064601DBA942FC
S11352D003D90C233360002070BD00F0B6FB234AD1
S11352E01468214691B9224C23681BB9304600F05A
S11352F027FB20602946304600F022FB431C26D1C0
S11353000C233360304600F0A1FBE4E70B685B1B21
S11353101AD40B2B0FD90B60CD50CC18304600F0AB
S113532095FB04F10B00231D20F00700C31A1BD0CA
S11353305A42E25070BD8C420DBF63684B68636093
S1135340136018BF0C46E9E70C464968CAE7C41C59
S113535024F00304A04205D0211A304600F0F0FAEC
S11353600130CDD02560D9E770BD00BFC401002055
S1135370C80100202DE9F0478E689E4282460C4603
S11353809146984635D88A8912F4906F31D02568B1
S113539009696F1A6569022305EB450595FBF3F569
S11353A008F101033B449D4238BF1D46530531D5E6
S11353B02946FFF781FF064650B90C23CAF800308E
S11353C0A38943F04003A3814FF0FF30BDE8F08789
S11353D03A46216900F014FBA38923F4906343F057
S11353E08003A381266165613E44ED1B2660A560B0
S11353F04646464528BF464632464946206800F0A0
S11354000AFBA3689B1BA36023681E44266000203C
S1135410BDE8F0872A4600F069FB06460028E1D182
S11354202169504600F014FBC7E700002DE9F04F56
S11354309DB0804603938B891C060D4616460FD5F6
S11354400B696BB94021FFF737FF2860286128B941
S11354500C23C8F800304FF0FF30C5E040236B61E7
S11354600023099320238DF8293030238DF82A3026
S11354704FF0010B37463C4614F8013B002B3CD15E
S1135480B7EB060A0BD05346324629464046FFF78F
S113549071FF013000F0A380099B534409933B78CA
S11354A0002B00F09C8000234FF0FF3204930793FD
S11354B0059206938DF853301A93052221785048AB
S11354C000F04EFA671C049BD8B9D90644BF2022C9
S11354D08DF853201A0744BF2B228DF853202278CD
S11354E02A2A16D0079A00210A20274601343B783D
S11354F0303B092B51D9C9B111E0252BC0D0274627
S1135500B9E73F4A801A0BFA00F0184304903C466E
S1135510D3E7039A111D12680391002A01DB079255
S113552004E0524243F00203079204933B782E2B8B
S11355300ED17B782A2B07F1010132D1039B1A1D6E
S11355401B680392002BB8BF4FF0FF33023705935B
S11355502C4C39780322204600F002FA38B140235B
S1135560001B03FA00F0049B0343049301373978CA
S113557025488DF8281006227E1C00F0F1F9002839
S113558035D0224BFBB9039B073323F007030833C1
S11355900393099B4B4409936CE700FB02320121FE
S11355A0A3E70023059318460A240F4601313A78ED
S11355B0303A092A03D9002BCAD00590C8E704FB66
S11355C000200123F1E703AB00932A46104B04A902
S11355D04046AFF30080B0F1FF3F8146D9D1AB899B
S11355E05B063FF538AF09981DB0BDE8F08F03ABFB
S11355F000932A46064B04A9404600F081F8EAE7E6
S1135600C45E0000CA5E0000CE5E00000000000020
S1135610755300002DE9F04791461F468A680B69CF
S1135620DDF820809342B8BF1346C9F8003091F8E2
S1135630432006460C4612B10133C9F800302368F2
S1135640990642BFD9F800300233C9F80030256802
S113565015F0060507D104F1190AE368D9F800200A
S11356609B1A9D4229DB94F843302268003318BF0B
S1135670012392062ED404F1430239463046C04732
S1135680013021D02368E568D9F8002003F006032F
S1135690042B08BFAD1AA36822690CBF25EAE5757F
S11356A000259342C4BF9B1AED184FF000091A3429
S11356B04D451BD10020BDE8F087012352463946F1
S11356C03046C047013003D14FF0FF30BDE8F087CA
S11356D00135C2E7E1185A1C302081F84300224406
S11356E094F8451082F843100233C4E7012322469C
S11356F039463046C0470130E6D009F10109D7E701
S11357002DE9F04317460A7E85B06E2A9846064670
S11357100C460C9B01F1430E00F0BC801AD8632A9E
S11357202ED00AD8002A00F0C880582A00F08A80B7
S113573004F1420584F842202AE0642A01D0692A4F
S1135740F6D121681A6811F0800F23D0111D196059
S1135750136827E0732A00F0B48008D86F2A2AD08F
S1135760702AE5D10A6842F020020A6003E0752A33
S113577021D0782ADCD1782284F845206E4964E06F
S11357801A6801F14205111D1960136884F842304A
S11357900123A3E011F0400F02F104011960D7D0F6
S11357A0B2F90030002B03DA2D225B4284F8432047
S11357B062490A2217E02068196810F0800F03D0AC
S11357C0081D18600B6806E010F0400F01F104009A
S11357D01860F7D00B8859496F2A14BF0A2208228F
S11357E0002084F843006568A560002DC0F29C8009
S11357F0206820F004002060002B3FD1002D40F0F1
S113580095807546082A0BD12368DA0708D52369E1
S113581062689A42DEBF302305F8013C05F1FF358A
S1135820AEEB05032361CDF800803B4603AA214675
S11358303046FFF7EFFE013055D14FF0FF3005B091
S1135840BDE8F08381F845203C492268186812F0CD
S1135850800F00F104051D6001D0036802E05506C5
S1135860FBD50388D00744BF42F0200222601BB955
S1135870226822F0200222601022B1E77546B3FBB1
S1135880F2F002FB1033CB5C05F8013D034600281F
S1135890F5D1B7E708681A68496910F0800F04D099
S11358A0101D18601368196007E010F0400F02F132
S11358B0040018601368F6D019800023236175462C
S11358C0B1E71A68111D196015686268002128463D
S11358D000F046F808B1401B606063682361002350
S11358E084F843309FE723692A4639463046C04747
S11358F00130A2D023689B0707D5002504F11909BC
S1135900E368039A9B1A9D4205DBE068039B984277
S1135910B8BF184693E701234A4639463046C04784
S113592001308AD00135EBE7002BA7D10B7884F83E
S1135930423004F1420565E7E65E0000D55E0000F2
S113594038B5064C0023054608462360FCF7A6F844
S1135950431C02D1236803B12B6038BD84030020AB
S113596001F0FF01102A2BDB10F0070F08D010F80C
S1135970013B013A8B422DD010F0070F42B3F6D110
S1135980F0B441EA012141EA014122F007047FF029
S113599000070023F0E80256083C85EA010586EA80
S11359A0010685FA47F5A3FA87F586FA47F6A5FABC
S11359B087F68EB9EED1F0BC01F0FF0102F00702C8
S11359C032B110F8013B013A83EA010313B1F8D173
S11359D00020704701387047002D06BF3546033854
S11359E0073815F0010F07D1013015F4807F02BF8D
S11359F0013015F4C03F0130F0BC0138704700BFDE
S1135A0010B5431E0A44914200D110BD11F8014B58
S1135A1003F8014FF7E7884210B501EB020303D8FE
S1135A20421E99420CD110BD9842F9D28118D21A63
S1135A30D34200D110BD13F8014D01F8014DF7E731
S1135A4011F8014B02F8014FEBE770477047000073
S1135A5038B50546002945D051F8043C0C1F002BED
S1135A60B8BFE418FFF7F1FF1F4A1368104633B9B3
S1135A70636014602846BDE83840FFF7E7BFA342DF
S1135A800CD921686218934204BF1A685B6863608A
S1135A9004BF521822600460ECE713465A680AB146
S1135AA0A242FAD919685818A0420BD120680144BF
S1135AB0581882421960DDD1106852685A60014456
S1135AC01960D7E702D90C232B60D3E7206821188B
S1135AD08A4204BF11685268626004BF09182160D9
S1135AE05C60C7E738BD00BFC4010020F8B50746B5
S1135AF014460E4621B91146BDE8F840FFF7DCBB59
S1135B0022B9FFF7A5FF25462846F8BD00F014F892
S1135B1084420FD921463846FFF7CEFB05460028BC
S1135B20F2D031462246FFF76BFF31463846FFF785
S1135B308FFFE9E73546E7E751F8040C0028A0F1A8
S1135B400400BCBF0B58C018704700002E2E2F68ED
S1135B50706C2F706F72742F68706C5F6770696FF0
S1135B605F626173652E68002E2E2F68616C2F733F
S1135B7072632F68616C5F696F2E63002E2E2F682D
S1135B80616C2F7372632F68616C5F70776D2E6325
S1135B90000000002E2E2F68616C2F7372632F6833
S1135BA0616C5F74696D65722E6300002E2E2F6820
S1135BB0616C2F7372632F68616C5F7573617274AB
S1135BC05F6173796E632E63000000002E2E2F68D0
S1135BD0616C2F7574696C732F7372632F7574699C
S1135BE06C735F6C6973742E630000002E2E2F6833
S1135BF0616C2F7574696C732F7372632F7574697C
S1135C006C735F72696E676275666665722E630097
S1135C1000000000200000002E2E2F68706C2F65FD
S1135C2069632F68706C5F6569632E630000000010
S1135C300000000000000000000000000000000060
S1135C400000000000000000000000000000000050
S1135C50000000000000000000000000010000003F
S1135C600000000000000000000000000000000030
S1135C70000000001202000000000000000000000C
S1135C800000000000000000000000000000000010
S1135C900000000000000000000000000000000000
S1135CA000000000000000000000000000000000F0
S1135CB000000000000000000000000000000000E0
S1135CC000000000000000000000000000000000D0
S1135CD000000000000000000000000000000000C0
S1135CE000000000000000000000000000000000B0
