S01400004C45445F53776974636865722E7372656393
S1130000B8000120E10200007D0300007D03000030
S11300107D0300007D0300007D030000000000005C
S11300200000000000000000000000007D0300004C
S11300307D030000000000007D0300007D0300003C
S11300407D0300007D0300007D0300007D030000AC
S11300507D0300007D0300007D0300007D0300009C
S11300607D0300007D0300007D0300000D180000E7
S11300707D0300007D0300007D0300007D0300007C
S11300807D0300007D0300007D0300007D0300006C
S11300907D0300007D0300007D0300007D0300005C
S11300A07D0300007D0300007D0300007D0300004C
S11300B07D0300007D0300007D0300007D0300003C
S11300C07D0300007D0300007D0300007D0300002C
S11300D07D0300007D0300007D0300007D0300001C
S11300E07D0300007D03000000000000000000000C
S11300F000000000DD1500007D0300007D0300000A
S11301007D0300007D0300007D0300007D030000EB
S11301107D0300007D0300007D0300007D030000DB
S11301207D0300007D0300007D0300007D030000CB
S11301307D0300007D0300007D0300007D030000BB
S11301407D0300007D0300007D0300007D030000AB
S11301507D0300007D0300007D0300007D0300009B
S11301607D0300007D0300007D0300007D0300008B
S11301707D0300007D0300007D0300007D0300007B
S11301807D0300007D0300007D0300007D0300006B
S11301907D0300007D0300007D0300007D0300005B
S11301A07D0300007D0300007D0300007D0300004B
S11301B07D0300007D0300007D0300007D0300003B
S11301C07D0300007D0300007D0300007D0300002B
S11301D07D0300007D0300007D0300007D0300001B
S11301E07D0300007D0300007D0300005523000013
S11301F07D0300007D0300007D0300007D030000FB
S11302007D0300007D0300007D0300007D030000EA
S11302107D0300007D0300007D0300007D030000DA
S11302207D0300007D0300007D0300007D030000CA
S11302307D0300007D0300007D0300007D030000BA
S11302407D0300007D0300007D0300007D030000AA
S11302507D0300007D0300007D0300007D0300009A
S11302607D03000010B5054C237833B9044B13B15A
S11302700448AFF300800123237010BD2C0000203C
S113028000000000B42B00000C4B43B10C480D4996
S113029010B5AFF300800C48036823B910BD0A48B9
S11302A0036833B97047094B002BF7D0BDE8104001
S11302B01847064B002BF5D0184700BF000000007C
S11302C0B42B000030000020B42B0000000000001C
S11302D080B500AF014B984700BF80BDFD0A000008
S11302E080B582B000AF1C4B7B601C4B3B607A68CE
S11302F03B689A420CD007E03B681A1D3A607A6862
S1130300111D796012681A603B68154A9342F3D351
S1130310144B3B6004E03B681A1D3A6000221A60EB
S11303203B68114A9342F6D3104B7B60104A7B68BA
S113033023F07F0393600E4A0D4BD3F8883043F4C7
S11303407003C2F88830BFF34F8FBFF36F8F094B30
S11303509847094B9847FEE7B42B000000000020A3
S11303602C0000202C000020B4000020000000001D
S113037000ED00E0012A00004927000080B400AF2E
S1130380FEE780B485B000AFF8600B467A60FB727C
S1130390FA7AFB682032796843F8221000BF1437D8
S11303A0BD465DF8047B704780B483B000AF7860CD
S11303B07B685B6943F400727B685A6100BF0C3749
S11303C0BD465DF8047B704780B483B000AF7860AD
S11303D07B685B6943F480527B685A6100BF0C37C9
S11303E0BD465DF8047B704780B483B000AF78608D
S11303F07B685B6943F480427B685A6100BF0C37B9
S1130400BD465DF8047B704780B485B000AFF860EA
S11304100B467A60FB72FB7AFA68DB0113440833FB
S11304207A681A6000BF1437BD465DF8047B7047D4
S113043080B485B000AFF8600B467A60FB72FB7A3B
S1130440FA68DB01134404337A681A6000BF143776
S1130450BD465DF8047B704780B485B000AFF8609A
S11304600B467A60FB72FB7AFA68DB01134418339B
S11304707A681A6000BF1437BD465DF8047B704784
S113048080B485B000AFF8600B467A60FB72FB7AEB
S1130490FA68DB01134414337A681A6000BF143716
S11304A0BD465DF8047B704780B485B000AF7860CA
S11304B0084611461A460346FB700B46BB701346AA
S11304C07B70FA78BB787968D2010A4413443033DC
S11304D01B78FB73FB7B23F00F03FB737B7803F028
S11304E00F03DAB2FB7B1343FB73FA78BB787968AA
S11304F0D2010A4413443033FA7B1A7000BF143714
S1130500BD465DF8047B704780B485B000AF786069
S1130510084611461A460346FB700B46BB70134649
S11305207B70FA78BB787968D2010A44134430337B
S11305301B78FB73FB7B03F00F03FB737B781B01BE
S1130540DAB2FB7B1343FB73FA78BB787968D20188
S11305500A4413443033FA7B1A7000BF1437BD4683
S11305605DF8047B704780B485B000AF78600846BE
S113057011461A460346FB700B46BB7013467B704C
S1130580FA78BB787968D2010A44134440331B7863
S1130590FB73FB7B23F00103FB737A78FB7B134330
S11305A0FB73FA78BB787968D2010A441344403368
S11305B0FA7B1A7000BF1437BD465DF8047B7047A0
S11305C090B482B000AF78600B46FB701346BB70EA
S11305D0FA78BB78F878B9787C68C0012044014483
S11305E040310978C9B241F00401C8B27968D20136
S11305F00A441344403302461A7000BF0837BD460C
S113060090BC704790B482B000AF78600B46FB702A
S11306101346BB70FA78BB78F878B9787C68C00167
S11306202044014440310978C9B221F00401C8B220
S11306307968D2010A441344403302461A7000BF59
S11306400837BD4690BC704780B485B000AFF860F1
S11306500B467A60FB72FB7AFA68DB011344283399
S11306607A681A6000BF1437BD465DF8047B704792
S113067080B582B000AF03463960FB711346BB718D
S1130680BB79012B1CD0022B37D0002B4ED1FB7928
S11306903A6819462A482B4B98473B689BB243F06B
S11306A08042FB7919462648274B98473B681B0C28
S11306B043F04042FB7919462148234B98473AE0DE
S11306C0FB793A6819461E481E4B98473B689BB213
S11306D043F0804343F40033F9791A4618481A4B1F
S11306E098473B681B0C43F0404343F40033F979CB
S11306F01A461348144B98471DE0FB793A6819468B
S11307000F48124B98473B689BB243F08042FB79F9
S113071019460B480C4B98473B681B0C43F040426E
S1130720FB7919460648084B984704E046220849D5
S11307300020084B984700BF0837BD4680BD00BF66
S11307400080004131040000490600000904000053
S1130750482A00000912000080B582B000AF0346A9
S11307603960FB711346BB71BB79002B06D0FB7952
S11307703A6819460648074B984705E0FB793A68FA
S113078019460348044B984700BF0837BD4680BD4F
S113079000800041590400008104000080B582B04B
S11307A000AF0346FB710B46BB7113467B717B792B
S11307B0012B0AD0022B1FD0002B34D1BA79FB793C
S11307C019461E481E4B984733E0BB7901229A40D4
S11307D0FB79194619481B4B9847BA79FB79194696
S11307E01648194B9847BB7901229A40FB79194660
S11307F01248164B98471CE0BB7901229A40FB79BA
S113080019460E480F4B9847BA79FB7919460B489D
S11308100D4B9847BB7901229A40FB79194607484A
S11308200B4B984705E089220A4900200A4B984758
S113083000BF00BF0837BD4680BD00BF0080004137
S11308400506000031040000C10500005904000041
S113085081040000482A00000912000090B585B008
S113086000AF786039607B685B09FB737B68DBB23F
S113087003F01F03BB733B68B3F1FF3F06D1BA7BA0
S1130880F97B00231248134CA0471DE0BA7BF97B87
S113089001230F480F4CA047BB7B03F00103002B3F
S11308A009D0BB7B5B08DAB23B68DBB2F97B084852
S11308B0094CA04708E0BB7B5B08DAB23B68DBB2BB
S11308C0F97B0348054CA04700BF1437BD4690BDD3
S11308D0008000416705000009050000A90400002C
S11308E080B582B000AF03460A46FB711346BB7164
S11308F0FB795B09D8B2FB7903F01F03DBB2BA7949
S11309001946034B984700BF0837BD4680BD00BF5A
S11309109D07000080B582B000AF78603960396807
S11309207868034B984700BF0837BD4680BD00BFB9
S11309305D08000080B582B000AF03460A46FB7133
S11309401346BB71FB795B09D8B2FB7903F01F0333
S1130950012202FA03F3BA791946034B984700BF00
S11309600837BD4680BD00BF7106000080B582B067
S113097000AF03460A46FB711346BB71FB795B0962
S1130980D8B2FB7903F01F03012202FA03F3BA7908
S11309901946034B984700BF0837BD4680BD00BFCA
S11309A05907000080B500AF014B984700BF80BDD8
S11309B04913000080B500AF0648074B9847074B22
S11309C0984703461A4606490648074B984700BF0E
S11309D080BD00BF00080040A9030000FD1700000F
S11309E00024004088000020710E000080B500AF94
S11309F004490420044B984704490520024B9847B6
S1130A0000BF80BD030004001509000003000500B9
S1130A1080B500AF402207210648074B9847432280
S1130A2003210448044B98470448054B984700BFEA
S1130A3080BD00BF001C004083030000000800408C
S1130A40C903000080B500AF054B98470022054953
S1130A500548064B9847064B984700BF80BD00BF2A
S1130A60110A0000003000407C0000203D1000000E
S1130A70ED09000080B500AF0248034B984700BF62
S1130A8080BD00BF10E000E0610D000080B400AF45
S1130A9000BFBD465DF8047B7047000080B500AF21
S1130AA00448054B9847402209210448044B9847C1
S1130AB000BF80BD00080040E9030000001C0040A6
S1130AC08303000080B500AF064B9847064B984758
S1130AD0064B984703461A4605490648064B98476D
S1130AE000BF80BD9D0A00008D0A0000D9220000CD
S1130AF00038004060000020890D000080B500AF80
S1130B008E4B9847012103208D4B984701210320E8
S1130B108C4B98474FF0FF3103208B4B98470121B2
S1130B202120874B984700212120864B98474FF07E
S1130B30FF312120844B984701212420804B984782
S1130B40012124207F4B98474FF0FF3124207E4B16
S1130B509847012125207A4B984701212520794B7C
S1130B6098474FF0FF312520774B984701212620E5
S1130B70734B984701212620724B98474FF0FF3161
S1130B802620714B9847012127206D4B984701215E
S1130B9027206C4B98474FF0FF3127206A4B98472A
S1130BA000212820694B984702212820644B98474C
S1130BB04FF0FF312820644B984700212920634BD4
S1130BC09847022129205E4B98474FF0FF31292096
S1130BD05D4B984700212A205C4B984702212A202C
S1130BE0574B98474FF0FF312A20574B9847002125
S1130BF02B20564B984702212B20514B98474FF0FE
S1130C00FF312B20504B984700212C204F4B984705
S1130C1002212C204A4B98474FF0FF312C204A4B9D
S1130C20984700212D20494B984702212D20444B01
S1130C3098474FF0FF312D20434B984700212E2039
S1130C40424B984702212E203D4B98474FF0FF31ED
S1130C502E203D4B984700212F203C4B98470221E2
S1130C602F20374B98474FF0FF312F20364B9847B2
S1130C7000213A20354B984702213A20304B9847BF
S1130C804FF0FF313A20304B984700213B202F4B47
S1130C90984702213B202A4B98474FF0FF313B20D5
S1130CA0294B984700213C20284B984702213C209F
S1130CB0234B98474FF0FF313C20234B98470121A9
S1130CC03F201F4B984701213F201E4B98474FF070
S1130CD0FF313F201C4B984701214220184B984775
S1130CE000214220174B98474FF0FF314220164B0A
S1130CF0984701214320124B984701214320114B6F
S1130D0098474FF0FF3143200F4B98470121522061
S1130D100E4B984702215220094B98474FF0FF3160
S1130D205220094B98470A4B98470A4B98470A4B5D
S1130D3098470A4B984700BF80BD00BFA509000033
S1130D4035090000E1080000150900006D090000E4
S1130D50B5090000450A0000750A0000C50A000034
S1130D6080B582B000AF7860054A7B681360044B9D
S1130D701B681846034B984700BF0837BD4680BD23
S1130D8048000020D51D000080B584B000AFF86095
S1130D90B9607A60FB68002B04D0BB68002B01D0DB
S1130DA0012300E0002303F00103DBB233220A49EC
S1130DB018460A4B9847FB68B9681846084B984789
S1130DC0FB68084A1A60FB68074A5A600023184601
S1130DD01037BD4680BD00BF642A00000912000020
S1130DE0BD200000ED0D0000110E000080B584B0A0
S1130DF000AF78607B68FB60FB685B69002B03D005
S1130E00FB685B69F868984700BF1037BD4680BD32
S1130E1080B584B000AF78607B68FB60FB689B6939
S1130E20002B03D0FB689B69F868984700BF103714
S1130E30BD4680BD80B483B000AF78607B681B681A
S1130E4018460C37BD465DF8047B704780B483B008
S1130E5000AF78607B68002B02D07B681B6800E0E1
S1130E60002318460C37BD465DF8047B704700002C
S1130E7080B584B000AFF860B9607A60FB68002B7D
S1130E8004D0BB68002B01D0012300E0002303F051
S1130E900103DBB23B220A4918460A4B9847FB6818
S1130EA0B9681846084B9847FB6800221A61FB682A
S1130EB0064A1A60002318461037BD4680BD00BF9D
S1130EC07C2A00000912000021170000810F000095
S1130ED080B588B000AFF860B9607A600023BB6168
S1130EE0F868234B984738613B69002B04D1B968F3
S1130EF0F868204B984737E03B69FB6122E0FB69C7
S1130F005A687B689A4208D8FB699A68FB695968F1
S1130F107B68CB1A13447B6109E0FB699A68FB691F
S1130F205B681A447B685B42134401337B61BB6892
S1130F309A687B699A4209D9FB69BB61F8690E4BCF
S1130F409847F861FB69002BD9D100E000BFFA692A
S1130F503B699A4204D1B968F868064B984703E0A4
S1130F60B968B869054B98472037BD4680BD00BFB6
S1130F70350E0000691200004D0E0000C112000081
S1130F8080B586B000AF78607B683B613B69143301
S1130F901846274B984778613B691B695A1C3B6983
S1130FA01A613B691B69FB603B691B7EDBB203F082
S1130FB00103002B06D13B691B7EDBB203F0020365
S1130FC0002B27D03B691B7EDBB243F00203DAB26D
S1130FD03B691A7629E07B69BB603B691433184688
S1130FE0144B9847BB681B7C012B09D1BB68FA687A
S1130FF05A603B691433FA68B96818460E4B98472F
S11310003B69143318460A4B98477861BB68DB6820
S1131010B86898477B69002B07D07B695B68FA68DE
S1131020D21A7B699B689A42D5D21837BD4680BDD7
S1131030350E0000E5120000D10E000080B586B028
S113104000AFF860B9607A60FB68002B04D0BB681D
S1131050002B01D0012300E0002303F00103DBB2E5
S113106034220D4918460D4B9847FB680833B9687C
S113107018460B4B984778617B69002B01D07B693C
S113108006E0FB68074A5A60FB68074A1A600023B7
S113109018461837BD4680BD942A00000912000086
S11310A03D1A000075110000AD10000080B586B037
S11310B000AFF860B9601346FB8000237B61FB68D6
S11310C03B61FB68002B07D0BB68002B04D0FB8876
S11310D0002B01D0012300E0002303F00103DBB265
S11310E0F1221F4918461F4B984700BF3B6908333C
S11310F018461D4B9847034683F00103DBB2002BCF
S1131100F4D13B6903F10800BA687B6913441B7886
S11311101946164B984700BF3B6908331846124BD3
S11311209847034683F00103DBB2002BF4D17B69BB
S113113001337B61FB887A699A42E2D300BF3B6941
S1131140083318460A4B9847034683F00103DBB281
S1131150002BF4D17B6918461837BD4680BD00BF0B
S1131160942A000009120000CD1A0000811A000020
S1131170ED1A000090B587B000AFF860B96013466F
S1131180FB8000237B61FB683B61FB68002B07D07D
S1131190BB68002B04D0FB88002B01D0012300E0A6
S11311A0002303F00103DBB24FF4867212491846A0
S11311B0124B984700BF3B6908331846104B9847B9
S11311C0034683F00103DBB2002BF4D1BA687B69D8
S11311D0D4183B69083318460A4B984703462370D2
S11311E07B6901337B61FB887A699A42E2D37B692C
S11311F018461C37BD4690BD942A00000912000011
S11312000D1B0000A91A000080B485B000AF03468E
S1131210B9607A60FB73FB7B83F00103DBB2002BC4
S113122000D000BE00BF1437BD465DF8047B704794
S113123080B485B000AF786039607B681B68FB6060
S113124008E0FA683B689A4201D1012306E0FB6892
S11312501B68FB60FB68002BF3D10023184614378E
S1131260BD465DF8047B704780B582B000AF7860FE
S11312703960396878680F4B98470346002B14BFD0
S113128001230023DBB283F00103DBB203F001038B
S1131290DBB2392208491846084B98477B681A681C
S11312A03B681A607B683A681A6000BF0837BD461D
S11312B080BD00BF31120000B02A000009120000F6
S11312C080B483B000AF786039607B681A683B688B
S11312D01A607B683A681A6000BF0C37BD465DF837
S11312E0047B704780B485B000AF78607B681B686E
S11312F0002B09D07B681B68FB607B681B681A683D
S11313007B681A60FB6800E0002318461437BD466A
S11313105DF8047B704780B483B000AF78600B46FF
S11313207B807B681B889AB27B881B029BB203F488
S113133070639BB213439AB27B681A8000BF0C3768
S1131340BD465DF8047B704780B500AF00210848B6
S1131350084B9847084B9847084B9847084B9847C1
S1131360084B984740F6FF70074B984700BF80BD75
S11313700040004117130000B51400004D15000093
S1131380311400008D150000E113000080B483B017
S113139000AF7860396000BF7B685A683B681340CF
S11313A0002BF9D100BF0C37BD465DF8047B7047B4
S11313B080B584B000AFF8600B467A60FB72FA7AAD
S11313C0FB680832796843F8221043F6FD71F86827
S11313D0024B984700BF1037BD4680BD8D130000F7
S11313E080B582B000AF78607B6803F00103002B06
S11313F004D0044A00210448044B984700BF08372E
S1131400BD4680BD01010100001C0040B113000075
S113141080B483B000AF78600B46FB707B68FA78C9
S11314205A7100BF0C37BD465DF8047B704700005D
S113143080B582B000AF054B7B6001217868044B16
S1131440984700BF0837BD4680BD00BF0008004074
S11314501114000080B483B000AF78600B46FB70B9
S11314607B68FA781A7400BF0C37BD465DF8047BBC
S1131470704780B485B000AF78607B68DB69FB603F
S1131480FB681B0A03F03F03FB60FB681846143734
S1131490BD465DF8047B704780B483B000AF7860CC
S11314A039607B683A68DA6100BF0C37BD465DF885
S11314B0047B704780B582B000AF0C4B7B60002387
S11314C07B8078680A4B984703467B807B881B02A5
S11314D003F47C5319467868064B984701217868D1
S11314E0054B984700BF0837BD4680BD0014004037
S11314F073140000991400005514000080B483B0E4
S113150000AF78607B681B695B0803F00103002B64
S113151014BF01230023DBB218460C37BD465DF827
S1131520047B704780B485B000AFF8600B467A60E6
S1131530FB72FB7AFA6804339B0013447A685A609E
S113154000BF1437BD465DF8047B704780B582B098
S113155000AF0A4B7B600A4A01217868094B98471F
S113156000BF7868084B9847034683F00103DBB259
S1131570002BF6D100BF0837BD4680BD00100040E7
S11315800626000325150000FD14000080B483B076
S113159000AF044B7B6000BF0C37BD465DF8047B95
S11315A0704700BF0010004080B483B000AF786083
S11315B07B689B78DBB218460C37BD465DF8047B2C
S11315C0704780B483B000AF78607B685B6818466E
S11315D00C37BD465DF8047B7047000090B583B0BE
S11315E000AF174B7B601748174B984703463B6087
S11315F03B6803F00203002B0CD07B681B68002BB4
S113160008D07B681C680F48104B9847034618465F
S1131610A04712E03B6803F00103002B0CD07B6869
S11316205B68002B08D07B685C680648074B9847CA
S113163003461846A04700E000BF0C37BD4690BDE6
S1131640A400002000000241A9150000C3150000F9
S113165080B483B000AF7860396000BF7B681A69DA
S11316603B681340002BF9D100BF0C37BD465DF831
S1131670047B704780B483B000AF78607B684FF41C
S113168080729A8100BF0C37BD465DF8047B7047B9
S113169080B483B000AF78607B689B899BB21846A6
S11316A00C37BD465DF8047B704780B483B000AF4F
S11316B078607B684FF480725A8100BF0C37BD4656
S11316C05DF8047B7047000080B582B000AF78609D
S11316D00B467B807B687A881A8048F2030178681D
S11316E0024B984700BF0837BD4680BD5116000025
S11316F080B584B000AFF8600B467A60FB72FA7A6A
S1131700FB680832796843F822106021F868034BBB
S1131710984700BF1037BD4680BD00BF511600007A
S113172080B582B000AF786039607B68002B14BF4D
S113173001230023DBB2302216491846164B984782
S11317407B683A68DA607B68DB6801211846134BD2
S113175098477B68DB6801211846114B98477B68E2
S1131760DB6848F2800118460C4B98477B68DB68BD
S11317702022002118460B4B98477B68DB681846EB
S1131780094B9847094A7B681360002318460837B9
S1131790BD4680BDD02A000009120000C916000011
S11317A051160000F1160000AB1600004C0000209A
S11317B080B584B000AF78607B68DB6818460D4B59
S11317C098470346FB81FB8903F48073002B0CD0FC
S11317D07B681B68002B03D07B681B68786898477C
S11317E07B68DB681846044B984700BF1037BD463A
S11317F080BD00BF911600007516000080B400AFD4
S113180000231846BD465DF8047B704780B500AFE1
S1131810034B1B681846034B984700BF80BD00BFAD
S11318204C000020B117000080B483B000AF786092
S1131830396000BF7B68DA693B681340002BF9D13B
S113184000BF0C37BD465DF8047B704780B483B09D
S113185000AF786039607B68DA693B681340002B1D
S113186014BF01230023DBB218460C37BD465DF8D4
S1131870047B704780B483B000AF78607B681B7EC4
S1131880DBB203F00103002B14BF01230023DBB2FE
S113189018460C37BD465DF8047B704780B483B0AE
S11318A000AF78607B681B7EDBB25B0803F001034A
S11318B0002B14BF01230023DBB218460C37BD46AE
S11318C05DF8047B704780B483B000AF78607B68B8
S11318D01B7EDBB29B0803F00103002B14BF012322
S11318E00023DBB218460C37BD465DF8047B704715
S11318F080B582B000AF78607B681B6823F0020279
S11319007B681A6003217868024B984700BF083748
S1131910BD4680BD2918000080B584B000AF786052
S1131920396003217868074B98477B681B68FB6024
S1131930FA683B681340FB60FB6818461037BD46E5
S113194080BD00BF2918000080B582B000AF786068
S113195039607B683A681A6003217868024B9847BB
S113196000BF0837BD4680BD2918000080B582B08D
S113197000AF786039607B683A685A601F217868E4
S1131980024B984700BF0837BD4680BD29180000A8
S113199080B483B000AF786039607B683A689A603D
S11319A000BF0C37BD465DF8047B704780B483B03C
S11319B000AF78600B467B807B687A889A8100BF91
S11319C00C37BD465DF8047B704780B483B000AF2C
S11319D078600B46FB707B68FA789A7300BF0C370B
S11319E0BD465DF8047B704780B483B000AF786077
S11319F039607B683A689A6200BF0C37BD465DF86F
S1131A00047B704780B483B000AF78607B689B6AC6
S1131A1018460C37BD465DF8047B704780B483B02C
S1131A2000AF78600B46FB707B68FA7883F830204F
S1131A3000BF0C37BD465DF8047B704780B582B0AB
S1131A4000AF786039607B68002B14BF012300234A
S1131A50DBB2BB2207491846074B98477B683A68B4
S1131A601A603868054B9847034618460837BD4640
S1131A7080BD00BFE82A000009120000ED1B000031
S1131A8080B582B000AF78600B46FB707B681B6842
S1131A90FA7811461846034B984700BF0837BD46ED
S1131AA080BD00BFE919000080B582B000AF786046
S1131AB07B681B681846044B98470346DBB21846FC
S1131AC00837BD4680BD00BF051A000080B582B04E
S1131AD000AF78607B681B681846034B9847034641
S1131AE018460837BD4680BD7518000080B582B021
S1131AF000AF78607B681B681846034B9847034621
S1131B0018460837BD4680BD9D18000080B582B0D8
S1131B1000AF78607B681B681846034B9847034600
S1131B2018460837BD4680BDC7180000B0B48DB054
S1131B3000AF7860134B07F10C041D460FCD0FC4A2
S1131B4095E80F0084E80F000023FB6210E0FB6AB5
S1131B509B0007F13002134453F8243C1A467B6877
S1131B609A4202D1FB6ADBB206E0FB6A0133FB62F4
S1131B70FB6A072BEBD9002318463437BD46B0BCAB
S1131B80704700BF042B000080B584B000AF7860BC
S1131B907868124B98470346BB730023FB730FE02E
S1131BA0FA7B0F4913465B001344DB000B441B789C
S1131BB0BA7B9A4201D1FB7B0CE0FB7B0133FB73C4
S1131BC0FB7B002BECD040F2472206490020064B59
S1131BD09847002318461037BD4680BD2D1B0000D2
S1131BE000000020E82A00000912000080B584B03B
S1131BF000AF78607868614B98470346FB73012116
S1131C0078685F4B9847034683F00103DBB2002BEF
S1131C1020D0FA7B5B4913465B001344DB000B4482
S1131C2004331B6803F01C03BB6002217868564B25
S1131C3098470346002B06D07868544B98470221F6
S1131C407868534B9847BB6843F00103194678689A
S1131C50504B9847012178684D4B9847FA7B494986
S1131C6013465B001344DB000B4404331B68194622
S1131C707868484B9847FA7B424913465B00134403
S1131C80DB000B4408331B6819467868424B9847BD
S1131C90FA7B3C4913465B001344DB000B440C33D2
S1131CA01B68194678683D4B9847FA7B35491346BB
S1131CB05B001344DB000B4404331B6803F4005340
S1131CC0002B0CD1FA7B2F4913465B001344DB0035
S1131CD00B4404331B6803F4C043002B22D0FA7B6B
S1131CE0284913465B001344DB000B4410331B8864
S1131CF0C3F30C0399B27A68938961F30C0393815B
S1131D00FA7B204913465B001344DB000B44123377
S1131D101B7803F00703D9B27A68938961F34F33D0
S1131D2093810CE0FA7B174913465B001344DB00F4
S1131D300B4410331B8819467868194B9847FA7B73
S1131D40104913465B001344DB000B4413331B7828
S1131D5019467868134B9847FA7B0A4913465B0087
S1131D601344DB000B4414331B78194678680E4B7C
S1131D709847002318461037BD4680BD891B0000D4
S1131D804D1800000000002019190000F11800008F
S1131D9029180000491900006D190000911900006C
S1131DA0AD190000CB1900001D1A000080B483B0E7
S1131DB000AF7860064B6FF07F425A60044B0522F7
S1131DC01A6000BF0C37BD465DF8047B704700BF46
S1131DD010E000E080B582B000AF78607868034B13
S1131DE0984700BF0837BD4680BD00BFAD1D000049
S1131DF080B483B000AF0346FB80B7F90630002BF4
S1131E000BDB0949B7F906305B09FA8802F01F02B7
S1131E10012000FA02F241F8232000BF0C37BD462E
S1131E205DF8047B704700BF00E100E080B483B03C
S1131E3000AF0346FB80B7F90630002B10DB0B49DB
S1131E40B7F906305B09FA8802F01F02012000FA94
S1131E5002F2203341F82320BFF34F8FBFF36F8F7B
S1131E6000BF0C37BD465DF8047B704700E100E01D
S1131E7080B483B000AF0346FB80B7F90630002B73
S1131E800CDB0949B7F906305B09FA8802F01F0236
S1131E90012000FA02F2603341F8232000BF0C371E
S1131EA0BD465DF8047B704700E100E080B483B078
S1131EB000AF7860396000BF7B681A693B681340E3
S1131EC0002BF9D100BF0C37BD465DF8047B704789
S1131ED080B483B000AF786039607B681A693B686E
S1131EE01340002B14BF01230023DBB218460C3728
S1131EF0BD465DF8047B704780B483B000AF786062
S1131F007B689B7ADBB203F00103002B14BF01232F
S1131F100023DBB218460C37BD465DF8047B7047DE
S1131F2080B483B000AF78607B6801229A7200BFEE
S1131F300C37BD465DF8047B704780B483B000AFB6
S1131F4078607B6802229A7200BF0C37BD465DF848
S1131F50047B704780B483B000AF78607B685B7AA1
S1131F60DBB25B0803F00103002B14BF0123002341
S1131F70DBB218460C37BD465DF8047B70470000A1
S1131F8080B582B000AF78607B681B6823F00202E2
S1131F907B681A6003217868024B984700BF0837B2
S1131FA0BD4680BDAD1E000080B584B000AF786032
S1131FB0396003217868074B98477B681B68FB608E
S1131FC0FA683B681340FB60FB6818461037BD464F
S1131FD080BD00BFAD1E000080B582B000AF786048
S1131FE039607B683A681A6003217868024B984725
S1131FF000BF0837BD4680BDAD1E000080B483B06D
S113200000AF78600B467B807B687A88DA8000BFFB
S11320100C37BD465DF8047B704780B483B000AFD5
S113202078600B46FB707B68FA781A7300BF0C3734
S1132030BD465DF8047B704780B483B000AF786020
S11320400B46FB707B68FA78DA7300BF0C37BD4629
S11320505DF8047B7047000080B582B000AF786003
S11320600B46FB7013463B80FB787A680C335B00AD
S113207013443A889A80C0217868034B984700BF7C
S11320800837BD4680BD00BFAD1E000080B584B0DA
S113209000AFF8600B467A60FB72FB7AFA6806338D
S11320A09B0013447A685A60C021F868024B984731
S11320B000BF1037BD4680BDAD1E000080B584B0A2
S11320C000AF786039603868734B98470346FB73F8
S11320D07B683A681A6101213868704B9847034657
S11320E083F00103DBB2002B11D0022138686C4B62
S11320F098470346002B06D038686A4B984702215C
S11321003868694B984701213868684B9847012122
S11321103868654B984797F90F20654913469B002B
S113212013449B000B4404331B68194638685F4B07
S1132130984797F90F205E4913469B0013449B0070
S11321400B440A331B78194638685A4B984797F959
S11321500F20574913469B0013449B000B4408333C
S11321601B8819463868544B984703213868534BE9
S1132170984797F90F204E4913469B0013449B0040
S11321800B4404331B6803F00C03082B1ED197F98E
S11321900F20474913469B0013449B000B440C3308
S11321A01B681A4600213868454B984797F90F2059
S11321B03F4913469B0013449B000B4410331B6898
S11321C01A46012138683E4B984731E097F90F20B1
S11321D0374913469B0013449B000B4404331B688C
S11321E003F00C03002B20D197F90F20304913463C
S11321F09B0013449B000B440C331B689BB21A4690
S1132200002138682F4B984797F90F202849134627
S11322109B0013449B000B4410331B689BB21A466B
S113222001213868274B984702E04FF0FF332EE036
S113223079683868244B984797F90F201C4913464E
S11322409B0013449B000B440233B3F9003018463F
S11322501E4B984797F90F20154913469B001344CA
S11322609B000B440233B3F900301846184B9847CF
S113227097F90F200E4913469B0013449B000B440F
S11322800233B3F900301846124B9847002318461E
S11322901037BD4680BD00BF71230000D11E000071
S11322A0A91F0000811F0000AD1E0000D91F0000FF
S11322B01800002039200000FD1F00001B20000032
S11322C08D20000059200000D92300002D1E00009D
S11322D0711E0000F11D000080B400AF00231846F9
S11322E0BD465DF8047B704780B584B000AF78606C
S11322F07B681B69FB60F868124B98470346002B08
S11323000AD0F868104B98477B681B68002B03D0F1
S11323107B681B6878689847F8680C4B98470346B5
S1132320002B0AD0F8680A4B98477B685B68002B3F
S113233003D07B685B687868984700BF1037BD4658
S113234080BD00BFF91E0000211F0000551F0000C2
S11323503B1F000080B500AF034B1B681846034BBE
S1132360984700BF80BD00BF50000020E922000054
S113237080B584B000AF78607868134B9847034603
S1132380BB730023FB7310E0FA7B104913469B00D8
S113239013449B000B441B78BA7B9A4202D197F9F1
S11323A00F300DE0FB7B0133FB73FB7B002BEBD089
S11323B04FF4A97206490020064B98474FF0FF33AB
S11323C018461037BD4680BD0524000018000020C3
S11323D0382B00000912000080B483B000AF78608D
S11323E039607B68054A934202D1054A3B68136011
S11323F000BF0C37BD465DF8047B704700380040D1
S113240050000020B0B48DB000AF7860134B07F1DA
S11324100C041D460FCD0FC495E80F0084E80F008F
S11324200023FB6210E0FB6A9B0007F130021344B7
S113243053F8243C1A467B689A4202D1FB6ADBB209
S113244006E0FB6A0133FB62FB6A072BEBD900232E
S113245018463437BD46B0BC704700BF4C2B000053
S113246080B485B000AFF8600B467A60FB72FB7AEB
S1132470FA68DB01134418337A681A6000BF143712
S1132480BD465DF8047B704780B485B000AFF8604A
S11324900B467A60FB72FB7AFA68DB01134414334F
S11324A07A681A6000BF1437BD465DF8047B704734
S11324B080B582B000AF03463960FB711346BB712F
S11324C0BB79002B06D0FB793A6819460648074BBE
S11324D0984705E0FB793A6819460348044B984746
S11324E000BF0837BD4680BD008000416124000064
S11324F08924000080B582B000AF03460A46FB7110
S11325001346BB71FB795B09D8B2FB7903F01F0357
S1132510012202FA03F3BA791946034B984700BF24
S11325200837BD4680BD00BFB1240000B0B48DB0F3
S113253000AF78605D4B07F11C041D460FCD0FC43E
S11325402B6823605A4B07F108041D460FCD0FC4B6
S11325502B682360574B1B78082B00F29F8001A245
S113256052F823F089250000A1250000B9250000B8
S1132570E1250000F92500001B2600003F2600008D
S11325805726000079260000FA697B689A4203D135
S1132590484B01221A7081E0464B00221A707DE0FC
S11325A03A6A7B689A4203D1424B02221A7075E060
S11325B0404B00221A7071E07A6A7B689A4203D118
S11325C03C4B03221A7069E03A697B689A4203D152
S11325D0384B06221A7061E0364B00221A705DE017
S11325E0BA6A7B689A4203D1324B04221A7055E0CE
S11325F0304B00221A7051E0FA6A7B689A4208D183
S11326002C4B05221A702C4B1B6801332A4A136089
S113261044E0284B00221A7040E07B68002B03D171
S1132620244B01221A7039E07B68042B03D1214B1F
S113263002221A7032E01F4B00221A702EE07A69CF
S11326407B689A4203D11B4B07221A7026E0194B70
S113265000221A7022E0BA697B689A4208D1154BAD
S113266008221A70144B1B68013B134A136015E0CF
S1132670104B00221A7011E07B68002B03D10D4B24
S113268001221A7009E07B68042B03D1094B022252
S11326901A7002E0074B00221A7000BF064B1B6839
S11326A018463437BD46B0BC704700BF6C2B0000E1
S11326B0802B0000540000205800002080B483B018
S11326C000AF1F4BD3F8A03003F00043002B14BF1E
S11326D001230023BB710023FB711A4B1B78002BD1
S11326E002D0012B12D023E0BB7983F00103DBB2CB
S11326F0002B05D0134B01221A700123FB7117E044
S1132700104B00221A700023FB7111E0BB7983F097
S11327100103DBB2002B05D00A4B01221A700023FF
S1132720FB7104E0074B00221A700023FB7100BF09
S1132730FB7918460C37BD465DF8047B704700BF33
S1132740008000415C00002080B58CB000AFA74B36
S11327509847002387F82B3000237B620023FB6219
S1132760A34B9847034687F82B3097F82B30002B60
S113277042D0A04BD3F8A03003F01003002B14BFB9
S113278001230023DBB287F823309A4BD3F8A0301F
S113279003F02003002B14BF01230023DBB287F8CE
S11327A02230944BD3F8A03003F04003002B14BF25
S11327B001230023DBB287F821308E4BD3F8A030FD
S11327C003F08003002B14BF01230023DBB287F83E
S11327D0203097F823305B0097F8222013445B00E5
S11327E097F8212013445B0097F8202013447B6260
S11327F0786A814B9847F862FB6A092B00F2AE8035
S113280001A252F823F000BF312800004F28000035
S11328106D2800008B280000A9280000C7280000AC
S1132820E528000003290000212900003F290000B9
S113283001237B600123BB600123FB6001233B6117
S113284001237B610123BB610023FB6186E000233C
S11328507B600123BB600123FB6000233B610023F9
S11328607B610023BB610023FB6177E001237B6074
S11328700123BB600023FB6001233B6101237B61D7
S11328800023BB610123FB6168E001237B6001231A
S1132890BB600123FB6001233B6100237B610023B8
S11328A0BB610123FB6159E000237B600123BB6012
S11328B00123FB6000233B6100237B610123BB6197
S11328C00123FB614AE001237B600023BB600123F9
S11328D0FB6001233B6100237B610123BB61012376
S11328E0FB613BE001237B600023BB600123FB60B1
S11328F001233B6101237B610123BB610123FB6154
S11329002CE001237B600123BB600123FB600023D7
S11329103B6100237B610023BB610023FB611DE05D
S113292001237B600123BB600123FB6001233B6126
S113293001237B610123BB610123FB610EE00123C1
S11329407B600123BB600123FB6001233B61002307
S11329507B610123BB610123FB6100BF7B68002B0A
S11329600CBF01230023DBB219462820234B9847D0
S1132970BB68002B0CBF01230023DBB219462920BE
S11329801E4B9847FB68002B0CBF01230023DBB2CE
S113299019462E20194B98473B69002B0CBF012385
S11329A00023DBB219462F20144B98477B69002B78
S11329B00CBF01230023DBB219463A200F4B984782
S11329C0BB69002B0CBF01230023DBB219463B205B
S11329D00A4B9847FB69002B0CBF01230023DBB291
S11329E019463C20054B9847BAE600BFD1020000C7
S11329F0BD260000008000412D250000F5240000C4
S1132A0070B50D4E0D4CA41BA4100025A54209D190
S1132A100B4E0C4C00F0BEF8A41BA4100025A542DC
S1132A2005D170BD56F8253098470135EEE756F8C4
S1132A30253098470135F2E7A02B0000A02B0000B9
S1132A40A02B0000A42B00002E2E2F68706C2F707A
S1132A506F72742F68706C5F6770696F5F62617307
S1132A60652E68002E2E2F68616C2F7372632F6899
S1132A70616C5F70776D2E63000000002E2E2F684E
S1132A80616C2F7372632F68616C5F74696D65721A
S1132A902E6300002E2E2F68616C2F7372632F68D3
S1132AA0616C5F75736172745F73796E632E63001A
S1132AB02E2E2F68616C2F7574696C732F7372637B
S1132AC02F7574696C735F6C6973742E63000000F6
S1132AD02E2E2F68706C2F7274632F68706C5F7267
S1132AE074632E63000000002E2E2F68706C2F7309
S1132AF06572636F6D2F68706C5F736572636F6D61
S1132B002E630000003000400034004000200141EA
S1132B10004001410000004300040043000800435A
S1132B20000C004300000000000000000000000052
S1132B3000000000000000002E2E2F68706C2F741F
S1132B40632F68706C5F74632E630000003800406C
S1132B50003C004000A0014100C0014100140042BB
S1132B600018004200140043001800430000000055
S1132B700400000006000000020000000000000045
S1132B800000000004000000050000000100000037
S1132B9000000000F8B500BFF8BC08BC9E467047B2
S1132BA089020000F8B500BFF8BC08BC9E46704717
S1072BB065020000B6
S1132BB40000000004001040000003000200700044
S1132BC4B9FC00000000000000006B0000000000DD
S10F2BD400000032DF2E00006F1700002C
S9030000FC
