S01400004C45445F53776974636865722E7372656393
S1130000C8000120E1020000DD020000DD02000062
S1130010DD020000DD020000DD020000000000003F
S1130020000000000000000000000000DD020000ED
S1130030DD02000000000000DD020000DD0200001F
S1130040DD020000DD020000DD020000DD02000030
S1130050DD020000DD020000DD020000DD02000020
S1130060DD020000DD020000DD020000A90900003D
S1130070DD020000DD020000DD020000DD02000000
S1130080DD020000DD020000DD020000DD020000F0
S1130090DD020000DD020000DD020000DD020000E0
S11300A0DD020000DD020000DD020000DD020000D0
S11300B0DD020000DD020000DD020000DD020000C0
S11300C0DD020000DD020000DD020000DD020000B0
S11300D0DD020000DD020000DD020000DD020000A0
S11300E0DD020000DD02000000000000000000004E
S11300F000000000D9080000DD020000DD0200005D
S1130100DD020000DD020000DD020000DD0200006F
S1130110DD020000DD020000DD020000DD0200005F
S1130120DD020000DD020000DD020000DD0200004F
S1130130DD020000DD020000DD020000DD0200003F
S1130140DD020000DD020000DD020000DD0200002F
S1130150DD020000DD020000DD020000DD0200001F
S1130160DD020000DD020000DD020000DD0200000F
S1130170DD020000DD020000DD020000DD020000FF
S1130180DD020000DD020000DD020000DD020000EF
S1130190DD020000DD020000DD020000DD020000DF
S11301A0DD020000DD020000DD020000DD020000CF
S11301B0DD020000DD020000DD020000DD020000BF
S11301C0DD020000DD020000DD020000DD020000AF
S11301D0DD020000DD020000DD020000DD0200009F
S11301E0DD020000DD020000DD020000F90D000068
S11301F0DD020000DD020000DD020000DD0200007F
S1130200DD020000DD020000DD020000DD0200006E
S1130210DD020000DD020000DD020000DD0200005E
S1130220DD020000DD020000DD020000DD0200004E
S1130230DD020000DD020000DD020000DD0200003E
S1130240DD020000DD020000DD020000DD0200002E
S1130250DD020000DD020000DD020000DD0200001E
S1130260DD02000010B5054C237833B9044B13B1FB
S11302700448AFF300800123237010BD3C0000202C
S113028000000000981000000C4B43B10C480D49CD
S113029010B5AFF300800C48036823B910BD0A48B9
S11302A0036833B97047094B002BF7D0BDE8104001
S11302B01847064B002BF5D0184700BF000000007C
S11302C0981000004000002098100000000000007A
S11302D008B5014B984708BD81040000FEE7000003
S11302E008B5154B154A9A4209D0134B134A03E03B
S11302F0116819600433043211498B42F8D3114B4D
S113030002E000221A6004330F4A9342F9D30F4BE0
S11303100F4A22F07F029A60D3F8882042F47002D8
S1130320C3F88820BFF34F8FBFF36F8F094B9847F3
S1130330094B9847FEE700BF00000020981000001A
S11303403C0000203C000020C400002000ED00E040
S113035000000000E90E0000B90E000008B5064ACE
S1130360536943F400735361044B984702460449AC
S11303700448054B984708BD00080040A509000043
S1130380002400409400002081060000104B93F8E4
S1130390442002F0FE0242F0010283F8442093F864
S11303A0322002F0F00242F0030283F8322093F884
S11303B0452002F0FE0242F0010283F8452093F842
S11303C0322002F00F0242F0300283F832207047EC
S11303D000800041064B4022C3F89C204322C3F80E
S11303E08C20044A536943F480535361704700BF1F
S11303F0001C00400008004008B5054B9847002247
S113040004490548054B9847054B984708BD00BF6C
S1130410D503000000300040880000208D07000054
S11304208D03000008B50248024B984708BD00BF81
S113043010E000E05D050000044A536943F4804382
S113044053614022024BC3F8A420704700080040C7
S1130450001C004008B5054B9847054B98470246D9
S113046004490548054B984708BD00BF39040000FE
S1130470F50D0000003800406C00002085050000E8
S113048008B5254B9847254B0222C3F88420244AFB
S1130490C3F8A820234AC3F8A82093F8C12002F087
S11304A0FB0283F8C12093F8C12002F0FE0283F816
S11304B0C1204FF00042C3F884201B4AC3F8A8208F
S11304C002F18022C3F8A82093F8DF2002F0FB0297
S11304D083F8DF2093F8DF2002F0FE0283F8DF20A8
S11304E04FF48022C3F81421C3F808214FF080424E
S11304F0C3F828210D4AC3F8282193F8522102F0A9
S1130500FE0283F852210A4B98470A4B98470A4B3C
S113051098470A4B984708BD3908000000800041FD
S113052002000240000002C000000240040000C0BB
S11305305D030000F90300002504000055040000D9
S1130540EFF31083036072B6BFF35F8F7047BFF39E
S11305505F8F036883F310887047000008B5024B6F
S11305601860024B984708BD58000020AD0B0000EE
S113057008B5436903B1984708BD08B5836903B159
S1130580984708BD38B50D46044688B171B10120BD
S113059033220849084B984729462046074B984779
S11305A0074B2360074B6360002038BD0020EFE752
S11305B00020EDE7300F0000D9070000750C0000A3
S11305C0710500007B050000F8B5076817B13C46CB
S11305D000260BE00E4B9847F8BDA5682B449B1AE8
S11305E001338D68AB4209D22646246834B163686E
S11305F09342F2D8A5689B1A2B44F2E7BC4203D07D
S11306003046044B9847F8BD014B9847F8BD00BFEE
S1130610F507000021080000F8B5446906690136B1
S11306200661037E13F0010F05D1037E13F0020F60
S113063001D1054609E0037E43F002030376F8BDC9
S11306406F69E368204698473C469CB16368F31A97
S1130650A26893420ED305F114073846064B984717
S1130660237C012BECD16660324621463846034B8D
S11306709847E5E7F8BD00BF29080000C905000058
S113068038B50D46044680B169B101203B220849C2
S1130690084B984729462046074B9847002020617D
S11306A0064B236038BD0020F0E70020EEE700BFD2
S11306B0480F0000D90700003D090000190600009A
S11306C0F8B50E461746054608B311B31ABB002009
S11306D0F1221249124B984705F108042046114BA8
S11306E098470028F8D00025715D20460E4B9847A6
S11306F020460C4B98470028FAD00135BD42F3D36D
S113070020460A4B98470028FAD02846F8BD002016
S1130710DEE70020DCE70120DAE700BF600F00001D
S1130720D90700007B0B00006D0B0000850B000057
S11307302DE9F0410F4690460546C8B1D1B1DAB96A
S113074000204FF486720D490D4B9847002605F1A1
S1130750080420460B4B98470028F8D020460A4B43
S11307609847B85501364645F1D33046BDE8F08187
S11307700020E6E70020E4E70120E2E7600F000044
S1130780D90700008F0B0000730B000038B50D462D
S11307900446A0B189B1012034220A490A4B984782
S11307A0294604F10800094B9847034618B9084A3A
S11307B06260084A2260184638BD0020ECE7002039
S11307C0EAE700BF600F0000D9070000410B0000FA
S11307D031070000C106000000B900BE704703687D
S11307E01BB18B4203D01B68FAE70020704701203D
S11307F07047000038B504460D46064B984780F014
S1130800010039220449C0B2044B984723682B6085
S1130810256038BDDF0700007C0F0000D907000009
S113082003680B600160704703681BB11A680260BB
S1130830184670470020704708B5084A13889BB2D1
S11308401380074B9847074B9847074B9847074B2C
S1130850984740F6FF70064B984708BD004000419A
S1130860A5080000B908000099080000D508000098
S11308707508000010F0010F08D0054A054B1A62F4
S1130880044B5A6843F6FD731A42F9D1704700BF0E
S113089001010100001C00400122014B5A71704704
S11308A000080040034BDA6902F47C52DA61012249
S11308B01A74704700140040044A054B9A61044BB3
S11308C01B6913F0020FFAD0704700BF062600031D
S11308D0001000407047000000B583B00D4B9B78BA
S11308E0DBB20193019B13F0020F06D00A4B1B6885
S11308F01BB1084A5068984709E0019B13F0010FA7
S113090005D0054B5B6813B1024A5068984703B0A1
S11309105DF804FB00000241B0000020C3689B891D
S113092013F4807F09D010B50446036803B19847D7
S1130930E3684FF480729A8110BD704738B50D4654
S1130940044630221449003018BF0120134B984745
S1130950E56001232B802A6948F203031A42FAD185
S1130960E3681A6912F0010FFBD148F280021A8081
S1130970196948F203021142FAD1E2682023136292
S1130980136913F0600FFBD1E3684FF480725A814E
S1130990034B1C60002038BD9C0F0000D9070000E9
S11309A05C0000200020704708B5024B1868024B19
S11309B0984708BD5C0000201D09000070B489B090
S11309C006466C460C4D0FCD0FC495E80F0084E825
S11309D00F00002007280AD808AB03EB800353F864
S11309E0203CB34201D00130F4E7C0B200E0002063
S11309F009B070BC704700BFB40F000008B50C4BC1
S1130A009847002343B140F247220A4900200A4B89
S1130A1098470023184608BD03EB4302D100074A58
S1130A200A4492F820209042F4D00133DBB2E9E783
S1130A30BD09000028100000D9070000B40F000011
S1130A4038B504463C4B9847E36913F0010F22D1B3
S1130A5000EB4003DA00394B13445A6A02F01C02DB
S1130A60E36913F0030FFBD1236813F0020F0BD0DB
S1130A70236823F002032360E36913F0030FFBD11F
S1130A80E36913F0020FFBD142F001022260E36933
S1130A9013F0030FFBD1E36913F0010FFBD100EB5B
S1130AA04003DA00254B13445B6A2360E36913F0C7
S1130AB0030FFBD100EB4003DA00204B13449B6A85
S1130AC06360E36913F01F0FFBD142000244D100BD
S1130AD01A4B0B44DA6AA2605B6A13F4005F0AD112
S1130AE013F4C04F07D100EB4003DA00134B134457
S1130AF01B8EA3810FE042000244D1000F4B0B4434
S1130B00198EA28961F30C02A28193F83220A38981
S1130B1062F34F33A381094A43001D18E9000D46CF
S1130B20114491F83310A1732A4492F8343084F8B4
S1130B303030002038BD00BFFD090000B40F0000B4
S1130B4038B50C460546BB220549003018BF0120C4
S1130B50044B98472C602046034B984738BD00BF90
S1130B6028100000D9070000410A000003689962B8
S1130B7070470368986AC0B270470368187E00F033
S1130B80010070470368187EC0F340007047036893
S1130B90187EC0F380007047034B6FF07F425A60A9
S1130BA005221A60704700BF10E000E008B5014B51
S1130BB0984708BD990B000038B505460469A37A27
S1130BC013F0010F04D00123A372036803B1984703
S1130BD0637A13F0020F05D00223A3726B680BB182
S1130BE02846984738BD0000034B984200D0704710
S1130BF0024B1960FBE700BF003800406000002092
S1130C0070B588B006466C46164D0FCD0FC495E8F6
S1130C100F0084E80F000023072B0AD808AA02EB70
S1130C20830252F8202CB24201D00133F4E7DBB244
S1130C3000E0002300224AB14FF4A9720A490020BF
S1130C400A4B98474FF0FF3008B070BD02EB8200AA
S1130C5081000748415C994202D00132D2B2EAE7EE
S1130C6050B2F1E74410000064100000D9070000FE
S1130C700000002070B506460C460846594B9847BC
S1130C8005463461236913F0010F19D1236913F068
S1130C90030FFBD1236813F0020F0BD0236823F05A
S1130CA002032360236913F0030FFBD1236913F0BC
S1130CB0020FFBD101232360236913F0030FFBD13F
S1130CC0236913F0010FFBD105EB85039A00464B12
S1130CD013445B682360236913F0030FFBD1AA005C
S1130CE02A449100404B0B449A7AE2731A89E280B9
S1130CF0032222735B6803F00C03082B59D0002BEA
S1130D006BD105EB85039A00374B13449B89A3836E
S1130D10236913F0C00FFBD105EB85039A00324B16
S1130D2013441B8AE383236913F0C00FFBD13146BC
S1130D3020462E4B984705EB85039A002A4B134413
S1130D40B3F90230002B0DDB5A0903F01F03012114
S1130D5001FA03F32032264941F82230BFF34F8FC2
S1130D60BFF36F8F05EB85039A001F4B1344B3F950
S1130D700230002B09DB5A0903F01F03012101FA99
S1130D8003F360321A4941F8223005EB8505AA00C5
S1130D90154B1344B3F90230002B21DB590903F03E
S1130DA01F03012202FA03F3114A42F82130002002
S1130DB070BD0D4B0B44DB68E361236913F0C00F76
S1130DC0FBD105EB85039A00074B13441B6923628F
S1130DD0236913F0C00FFBD1A9E74FF0FF3070BDBA
S1130DE0002070BD010C000000000020E90B000091
S1130DF000E100E00020704708B5024B1868024B80
S1130E00984708BD60000020B90B00000B4B1B681D
S1130E10042B0DD8DFE803F0030303030300084B9E
S1130E205A69084B1B689A4203D00422034B1A6088
S1130E3070470522014B1A60704700BF6400002010
S1130E4014000020C000002010B582B06846154B85
S1130E509847154BD3F88010D3F8A020D3F89040CE
S1130E6054400C4054406846104B9847002C01DB1A
S1130E7002B010BD01A80B4B98470B4BD3F8801060
S1130E80D3F8A020D3F8904054400C40544001A81B
S1130E90064B9847C4F34004054B1C60054B984728
S1130EA0E6E700BF41050000008000414F05000057
S1130EB0C00000200D0E000008B5074B9847074BF3
S1130EC09847074B1B68052BF9D14FF48022054B3B
S1130ED0C3F81821F3E700BFD1020000490E000057
S1130EE0640000200080004170B50D4E0D4CA41B21
S1130EF0A4100025A54209D10B4E0C4C00F0BCF8FF
S1130F00A41BA4100025A54205D170BD56F82530B8
S1130F1098470135EEE756F8253098470135F2E752
S1130F208410000084100000841000008810000069
S1130F302E2E2F68616C2F7372632F68616C5F7043
S1130F40776D2E63000000002E2E2F68616C2F73C6
S1130F5072632F68616C5F74696D65722E63000043
S1130F602E2E2F68616C2F7372632F68616C5F750E
S1130F70736172745F73796E632E63002E2E2F6813
S1130F80616C2F7574696C732F7372632F75746938
S1130F906C735F6C6973742E630000002E2E2F68CF
S1130FA0706C2F7274632F68706C5F7274632E633D
S1130FB000000000003000400034004000200141E7
S1130FC000400141000000430004004300080043C6
S1130FD0000C004300000000040010400000030067
S1130FE002007000B9FC00000000000000000000D6
S1130FF000000000000000000000000000000000ED
S113100000000000000000000000000000000000DC
S113101000000000000000000000000000000000CC
S113102000000000000000002E2E2F68706C2F734B
S11310306572636F6D2F68706C5F736572636F6D3B
S11310402E63000000380040003C004000A0014135
S113105000C0014100140042001800420014004383
S1131060001800432E2E2F68706C2F74632F687045
S11310706C5F74632E630000F8B500BFF8BC08BC55
S11310809E46704789020000F8B500BFF8BC08BC52
S10B10909E4670476502000052
S113109800006B000000000000000032DF2E00009A
S11310A86F170000000000000100000000000000AD
S11310B80100000001000000000000000100000021
S10F10C801000000000000000100000016
S9030000FC
