S01400004C45445F53776974636865722E7372656393
S1130000B0000120A90400004505000045050000DA
S113001045050000450500004505000000000000FE
S11300200000000000000000000000004505000082
S113003045050000000000004505000045050000DE
S11300404505000045050000450500004505000084
S11300504505000045050000450500004505000074
S1130060450500004505000045050000191800007D
S11300704505000045050000450500004505000054
S11300804505000045050000450500004505000044
S11300904505000045050000450500004505000034
S11300A04505000045050000450500004505000024
S11300B04505000045050000450500004505000014
S11300C04505000045050000450500004505000004
S11300D045050000450500004505000045050000F4
S11300E04505000045050000000000000000000078
S11300F000000000E915000045050000450500006A
S113010045050000450500004505000045050000C3
S113011045050000450500004505000045050000B3
S113012045050000450500004505000045050000A3
S11301304505000045050000450500004505000093
S11301404505000045050000450500004505000083
S11301504505000045050000450500004505000073
S11301604505000045050000450500004505000063
S11301704505000045050000450500004505000053
S11301804505000045050000450500004505000043
S11301904505000045050000450500004505000033
S11301A04505000045050000450500004505000023
S11301B04505000045050000450500004505000013
S11301C04505000045050000450500004505000003
S11301D045050000450500004505000045050000F3
S11301E045050000450500004505000061230000A9
S11301F045050000450500004505000045050000D3
S113020045050000450500004505000045050000C2
S113021045050000450500004505000045050000B2
S113022045050000450500004505000045050000A2
S11302304505000045050000450500004505000092
S11302404505000045050000450500004505000082
S11302504505000045050000450500004505000072
S11302604505000010B5054C237833B9044B13B190
S11302700448AFF300800123237010BD2C0000203C
S113028000000000482700000C4B43B10C480D4906
S113029010B5AFF300800C48036823B910BD0A48B9
S11302A0036833B97047094B002BF7D0BDE8104001
S11302B01847064B002BF5D0184700BF000000007C
S11302C048270000300000204827000000000000FC
S11302D080B500AF014B984700BF80BDC50C00003E
S11302E080B487B000AF0346FB71484A07F110039E
S11302F092E80300186004331970454A07F10803B3
S113030092E80300186004331970424B1B78062BE3
S113031073D801A252F823F0350300004D03000006
S113032065030000850300009D030000BB0300007B
S1130330D70300003B7CFA799A4203D1354B012262
S11303401A705AE0334B00221A7056E07B7CFA791B
S11303509A4203D12F4B02221A704EE02D4B0122F8
S11303601A704AE0BB7CFA799A4203D1294B0322E2
S11303701A7041E0BB7AFA799A423DD1254B0522A5
S11303801A7039E0FB7CFA799A4203D1214B04229A
S11303901A7032E01F4B01221A702EE03B7DFA796D
S11303A09A4206D11B4B05221A701B4B01221A706C
S11303B023E0184B03221A701FE0FB7983F001033A
S11303C0DBB2002B03D0134B06221A7015E0114B3D
S11303D000221A7011E0FB7983F00103DBB2002BD9
S11303E003D00C4B01221A7007E00A4B02221A7048
S11303F0094B00221A7000E000BF074B1B78184617
S11304001C37BD465DF8047B704700BFF42500002F
S1130410FC250000480000204900002080B483B07F
S113042000AF1F4BD3F8A03003F00043002B14BFE0
S113043001230023BB710023FB711A4B1B78002B93
S113044002D0012B12D023E0BB7983F00103DBB28D
S1130450002B05D0134B01221A700123FB7117E006
S1130460104B00221A700023FB7111E0BB7983F05A
S11304700103DBB2002B05D00A4B01221A700023C2
S1130480FB7104E0074B00221A700023FB7100BFCC
S1130490FB7918460C37BD465DF8047B704700BFF6
S11304A0008000414A00002080B582B000AF1C4BA0
S11304B07B601C4B3B607A683B689A420CD007E037
S11304C03B681A1D3A607A68111D796012681A60D7
S11304D03B68154A9342F3D3144B3B6004E03B68FA
S11304E01A1D3A6000221A603B68114A9342F6D3FF
S11304F0104B7B60104A7B6823F07F0393600E4AA5
S11305000D4BD3F8883043F47003C2F88830BFF33E
S11305104F8FBFF36F8F094B9847094B9847FEE7FE
S113052048270000000000202C0000202C000020A0
S1130530AC0000200000000000ED00E0AD2500004C
S11305403925000080B400AFFEE780B485B000AF69
S1130550F8600B467A60FB72FA7AFB68203279689D
S113056043F8221000BF1437BD465DF8047B704782
S113057080B483B000AF78607B685B6943F4007239
S11305807B685A6100BF0C37BD465DF8047B704739
S113059080B483B000AF78607B685B6943F48052B9
S11305A07B685A6100BF0C37BD465DF8047B704719
S11305B080B483B000AF78607B685B6943F48042A9
S11305C07B685A6100BF0C37BD465DF8047B7047F9
S11305D080B485B000AFF8600B467A60FB72FB7A9A
S11305E0FA68DB01134408337A681A6000BF1437D1
S11305F0BD465DF8047B704780B485B000AFF860F9
S11306000B467A60FB72FB7AFA68DB01134404330D
S11306107A681A6000BF1437BD465DF8047B7047E2
S113062080B485B000AFF8600B467A60FB72FB7A49
S1130630FA68DB01134418337A681A6000BF143770
S1130640BD465DF8047B704780B485B000AFF860A8
S11306500B467A60FB72FB7AFA68DB0113441433AD
S11306607A681A6000BF1437BD465DF8047B704792
S113067080B485B000AF7860084611461A46034638
S1130680FB700B46BB7013467B70FA78BB787968B5
S1130690D2010A44134430331B78FB73FB7B23F0F1
S11306A00F03FB737B7803F00F03DAB2FB7B134376
S11306B0FB73FA78BB787968D2010A441344303367
S11306C0FA7B1A7000BF1437BD465DF8047B70478F
S11306D080B485B000AF7860084611461A460346D8
S11306E0FB700B46BB7013467B70FA78BB78796855
S11306F0D2010A44134430331B78FB73FB7B03F0B1
S11307000F03FB737B781B01DAB2FB7B1343FB7390
S1130710FA78BB787968D2010A4413443033FA7BFF
S11307201A7000BF1437BD465DF8047B704780B46F
S113073085B000AF7860084611461A460346FB7040
S11307400B46BB7013467B70FA78BB787968D2018C
S11307500A44134440331B78FB73FB7B23F00103EF
S1130760FB737A78FB7B1343FB73FA78BB78796865
S1130770D2010A4413444033FA7B1A7000BF143781
S1130780BD465DF8047B704790B482B000AF7860DA
S11307900B46FB701346BB70FA78BB78F878B978CF
S11307A07C68C0012044014440310978C9B241F059
S11307B00401C8B27968D2010A44134440330246A2
S11307C01A7000BF0837BD4690BC704790B482B021
S11307D000AF78600B46FB701346BB70FA78BB78A9
S11307E0F878B9787C68C001204401444031097824
S11307F0C9B221F00401C8B27968D2010A44134491
S1130800403302461A7000BF0837BD4690BC70479B
S113081080B485B000AFF8600B467A60FB72FB7A57
S1130820FA68DB01134428337A681A6000BF14376E
S1130830BD465DF8047B704780B582B000AF0346C7
S11308403960FB711346BB71BB79012B1CD0022BA1
S113085037D0002B4ED1FB793A6819462A482B4BE6
S113086098473B689BB243F08042FB79194626487F
S1130870274B98473B681B0C43F04042FB791946D1
S11308802148234B98473AE0FB793A6819461E48B9
S11308901E4B98473B689BB243F0804343F40033BC
S11308A0F9791A4618481A4B98473B681B0C43F0D1
S11308B0404343F40033F9791A461348144B9847DC
S11308C01DE0FB793A6819460F48124B98473B687C
S11308D09BB243F08042FB7919460B480C4B984776
S11308E03B681B0C43F04042FB7919460648084B11
S11308F0984704E0462208490020084B984700BF67
S11309000837BD4680BD00BF00800041F9050000E6
S113091011080000D1050000042600001512000093
S113092080B582B000AF03463960FB711346BB71DA
S1130930BB79002B06D0FB793A6819460648074B69
S1130940984705E0FB793A6819460348044B9847F1
S113095000BF0837BD4680BD00800041210600006D
S11309604906000080B582B000AF0346FB710B4618
S1130970BB7113467B717B79012B0AD0022B1FD0EC
S1130980002B34D1BA79FB7919461E481E4B98477F
S113099033E0BB7901229A40FB79194619481B4B75
S11309A09847BA79FB7919461648194B9847BB7989
S11309B001229A40FB7919461248164B98471CE0CD
S11309C0BB7901229A40FB7919460E480F4B984790
S11309D0BA79FB7919460B480D4B9847BB7901222C
S11309E09A40FB79194607480B4B984705E0892242
S11309F00A4900200A4B984700BF00BF0837BD468C
S1130A0080BD00BF00800041CD070000F905000053
S1130A1089070000210600004906000004260000A2
S1130A201512000090B585B000AF786039607B681E
S1130A305B09FB737B68DBB203F01F03BB733B688A
S1130A40B3F1FF3F06D1BA7BF97B00231248134C64
S1130A50A0471DE0BA7BF97B01230F480F4CA04748
S1130A60BB7B03F00103002B09D0BB7B5B08DAB22C
S1130A703B68DBB2F97B0848094CA04708E0BB7B24
S1130A805B08DAB23B68DBB2F97B0348054CA0474C
S1130A9000BF1437BD4690BD008000412F07000001
S1130AA0D10600007106000080B582B000AF034695
S1130AB00A46FB711346BB71FB795B09D8B2FB791B
S1130AC003F01F03DBB2BA791946034B984700BF02
S1130AD00837BD4680BD00BF6509000080B582B0FF
S1130AE000AF7860396039687868034B984700BF75
S1130AF00837BD4680BD00BF250A000080B582B01E
S1130B0000AF03460A46FB711346BB71FB795B09D0
S1130B10D8B2FB7903F01F03012202FA03F3BA7976
S1130B201946034B984700BF0837BD4680BD00BF38
S1130B303908000080B582B000AF03460A46FB7155
S1130B401346BB71FB795B09D8B2FB7903F01F0331
S1130B50012202FA03F3BA791946034B984700BFFE
S1130B600837BD4680BD00BF2109000080B500AF35
S1130B70014B984700BF80BD5513000080B500AFFE
S1130B800648074B9847074B984703461A460649B9
S1130B900648074B984700BF80BD00BF00080040CF
S1130BA071050000091800000024004080000020A6
S1130BB07D0E000080B500AF04490420044B984723
S1130BC004490520024B984700BF80BD0300040080
S1130BD0DD0A00000300050080B500AF40220721B4
S1130BE00648074B9847432203210448044B98477F
S1130BF00448054B984700BF80BD00BF001C00405F
S1130C004B050000000800409105000080B500AFCE
S1130C10054B9847002205490548064B9847064B63
S1130C20984700BF80BD00BFD90B000000300040D2
S1130C307400002049100000B50B000080B500AF1F
S1130C400248034B984700BF80BD00BF10E000E09E
S1130C506D0D000080B400AF00BFBD465DF8047B9D
S1130C607047000080B500AF0448054B9847402208
S1130C7009210448044B984700BF80BD0008004088
S1130C80B1050000001C00404B05000080B500AF1A
S1130C90064B9847064B9847064B984703461A4617
S1130CA005490648064B984700BF80BD650C000007
S1130CB0550C0000E52200000038004058000020D8
S1130CC0950D000080B500AF1F4B984701212120EE
S1130CD01E4B9847002121201D4B98474FF0FF31B0
S1130CE021201C4B984701212520184B98470121AE
S1130CF02520174B98474FF0FF312520154B984777
S1130D0001213F20114B984701213F20104B984768
S1130D104FF0FF313F200F4B9847012152200E4BDB
S1130D20984702215220094B98474FF0FF31522037
S1130D30084B9847094B9847094B9847094B9847E4
S1130D40094B984700BF80BD6D0B0000FD0A0000F1
S1130D50A90A0000DD0A0000350B00007D0B00002D
S1130D600D0C00003D0C00008D0C000080B582B01D
S1130D7000AF7860054A7B681360044B1B68184613
S1130D80034B984700BF0837BD4680BD4C00002088
S1130D90E11D000080B584B000AFF860B9607A60EE
S1130DA0FB68002B04D0BB68002B01D0012300E0BA
S1130DB0002303F00103DBB233220A4918460A4B2D
S1130DC09847FB68B9681846084B9847FB68084A77
S1130DD01A60FB68074A5A60002318461037BD465C
S1130DE080BD00BF2026000015120000C9200000AD
S1130DF0F90D00001D0E000080B584B000AF7860CE
S1130E007B68FB60FB685B69002B03D0FB685B6954
S1130E10F868984700BF1037BD4680BD80B584B0E0
S1130E2000AF78607B68FB60FB689B69002B03D094
S1130E30FB689B69F868984700BF1037BD4680BDC2
S1130E4080B483B000AF78607B681B6818460C37A9
S1130E50BD465DF8047B704780B483B000AF786012
S1130E607B68002B02D07B681B6800E000231846D7
S1130E700C37BD465DF8047B7047000080B584B034
S1130E8000AFF860B9607A60FB68002B04D0BB68DF
S1130E90002B01D0012300E0002303F00103DBB2A7
S1130EA03B220A4918460A4B9847FB68B96818461A
S1130EB0084B9847FB6800221A61FB68064A1A60CF
S1130EC0002318461037BD4680BD00BF38260000F9
S1130ED0151200002D1700008D0F000080B588B09A
S1130EE000AFF860B9607A600023BB61F868234BF7
S1130EF0984738613B69002B04D1B968F868204BE6
S1130F00984737E03B69FB6122E0FB695A687B68DC
S1130F109A4208D8FB699A68FB6959687B68CB1ABE
S1130F2013447B6109E0FB699A68FB695B681A44B6
S1130F307B685B42134401337B61BB689A687B69BD
S1130F409A4209D9FB69BB61F8690E4B9847F8616D
S1130F50FB69002BD9D100E000BFFA693B699A42D2
S1130F6004D1B968F868064B984703E0B968B869D2
S1130F70054B98472037BD4680BD00BF410E000099
S1130F8075120000590E0000CD12000080B586B025
S1130F9000AF78607B683B613B6914331846274B8C
S1130FA0984778613B691B695A1C3B691A613B6924
S1130FB01B69FB603B691B7EDBB203F00103002B62
S1130FC006D13B691B7EDBB203F00203002B27D062
S1130FD03B691B7EDBB243F00203DAB23B691A764B
S1130FE029E07B69BB603B6914331846144B98476E
S1130FF0BB681B7C012B09D1BB68FA685A603B694A
S11310001433FA68B96818460E4B98473B69143391
S113101018460A4B98477861BB68DB68B8689847FC
S11310207B69002B07D07B695B68FA68D21A7B69FD
S11310309B689A42D5D21837BD4680BD410E000048
S1131040F1120000DD0E000080B586B000AFF8603C
S1131050B9607A60FB68002B04D0BB68002B01D018
S1131060012300E0002303F00103DBB234220D4925
S113107018460D4B9847FB680833B96818460B4B64
S1131080984778617B69002B01D07B6906E0FB6897
S1131090074A5A60FB68074A1A6000231846183743
S11310A0BD4680BD5026000015120000491A0000FC
S11310B081110000B910000080B586B000AFF8605F
S11310C0B9601346FB8000237B61FB683B61FB68CE
S11310D0002B07D0BB68002B04D0FB88002B01D069
S11310E0012300E0002303F00103DBB2F1221F49D6
S11310F018461F4B984700BF3B69083318461D4BE1
S11311009847034683F00103DBB2002BF4D13B691B
S113111003F10800BA687B6913441B781946164B1F
S1131120984700BF3B6908331846124B984703465B
S113113083F00103DBB2002BF4D17B6901337B61C3
S1131140FB887A699A42E2D300BF3B6908331846A8
S11311500A4B9847034683F00103DBB2002BF4D11A
S11311607B6918461837BD4680BD00BF5026000075
S113117015120000D91A00008D1A0000F91A000097
S113118090B587B000AFF860B9601346FB800023C8
S11311907B61FB683B61FB68002B07D0BB68002BBD
S11311A004D0FB88002B01D0012300E0002303F0CE
S11311B00103DBB24FF4867212491846124B98476A
S11311C000BF3B6908331846104B9847034683F029
S11311D00103DBB2002BF4D1BA687B69D4183B69F4
S11311E0083318460A4B9847034623707B6901333A
S11311F07B61FB887A699A42E2D37B6918461C3783
S1131200BD4690BD5026000015120000191B0000B9
S1131210B51A000080B485B000AF0346B9607A60A7
S1131220FB73FB7B83F00103DBB2002B00D000BE19
S113123000BF1437BD465DF8047B704780B485B0A9
S113124000AF786039607B681B68FB6008E0FA686F
S11312503B689A4201D1012306E0FB681B68FB60EE
S1131260FB68002BF3D1002318461437BD465DF804
S1131270047B704780B582B000AF7860396039680C
S113128078680F4B98470346002B14BF01230023B3
S1131290DBB283F00103DBB203F00103DBB23922DA
S11312A008491846084B98477B681A683B681A60D7
S11312B07B683A681A6000BF0837BD4680BD00BF2E
S11312C03D1200006C2600001512000080B483B0AB
S11312D000AF786039607B681A683B681A607B6885
S11312E03A681A6000BF0C37BD465DF8047B70474E
S11312F080B485B000AF78607B681B68002B09D090
S11313007B681B68FB607B681B681A687B681A60D3
S1131310FB6800E0002318461437BD465DF8047BE3
S1131320704780B483B000AF78600B467B807B68E5
S11313301B889AB27B881B029BB203F470639BB236
S113134013439AB27B681A8000BF0C37BD465DF820
S1131350047B704780B500AF00210848084B9847CC
S1131360084B9847084B9847084B9847084B9847B1
S113137040F6FF70074B984700BF80BD0040004116
S113138023130000C1140000591500003D1400008F
S113139099150000ED13000080B483B000AF7860AD
S11313A0396000BF7B685A683B681340002BF9D151
S11313B000BF0C37BD465DF8047B704780B584B030
S11313C000AFF8600B467A60FB72FA7AFB68083269
S11313D0796843F8221043F6FD71F868024B984788
S11313E000BF1037BD4680BD9913000080B582B0A0
S11313F000AF78607B6803F00103002B04D0044A3B
S113140000210448044B984700BF0837BD4680BDFF
S113141001010100001C0040BD13000080B483B032
S113142000AF78600B46FB707B68FA785A7100BF96
S11314300C37BD465DF8047B7047000080B582B070
S113144000AF054B7B6001217868044B984700BFCF
S11314500837BD4680BD00BF000800401D140000D1
S113146080B483B000AF78600B46FB707B68FA7879
S11314701A7400BF0C37BD465DF8047B704780B416
S113148085B000AF78607B68DB69FB60FB681B0A92
S113149003F03F03FB60FB6818461437BD465DF854
S11314A0047B704780B483B000AF786039607B6898
S11314B03A68DA6100BF0C37BD465DF8047B7047BB
S11314C080B582B000AF0C4B7B6000237B807868D2
S11314D00A4B984703467B807B881B0203F47C53AA
S11314E019467868064B984701217868054B984758
S11314F000BF0837BD4680BD001400407F140000C3
S1131500A51400006114000080B483B000AF7860BB
S11315107B681B695B0803F00103002B14BF0123E4
S11315200023DBB218460C37BD465DF8047B7047D8
S113153080B485B000AFF8600B467A60FB72FB7A2A
S1131540FA6804339B0013447A685A6000BF143766
S1131550BD465DF8047B704780B582B000AF0A4B8E
S11315607B600A4A01217868094B984700BF786874
S1131570084B9847034683F00103DBB2002BF6D1F6
S113158000BF0837BD4680BD00100040062600039A
S1131590311500000915000080B483B000AF044B7E
S11315A07B6000BF0C37BD465DF8047B704700BF0D
S11315B00010004080B483B000AF78607B689B78F3
S11315C0DBB218460C37BD465DF8047B704780B427
S11315D083B000AF78607B685B6818460C37BD4603
S11315E05DF8047B7047000090B583B000AF174BE3
S11315F07B601748174B984703463B603B6803F0F2
S11316000203002B0CD07B681B68002B08D07B687E
S11316101C680F48104B984703461846A04712E031
S11316203B6803F00103002B0CD07B685B68002B44
S113163008D07B685C680648074B98470346184601
S1131640A04700E000BF0C37BD4690BD9C000020C1
S113165000000241B5150000CF15000080B483B02E
S113166000AF7860396000BF7B681A693B6813403B
S1131670002BF9D100BF0C37BD465DF8047B7047E1
S113168080B483B000AF78607B684FF480729A8135
S113169000BF0C37BD465DF8047B704780B483B04F
S11316A000AF78607B689B899BB218460C37BD46B7
S11316B05DF8047B704780B483B000AF78607B68CA
S11316C04FF480725A8100BF0C37BD465DF8047B2D
S11316D07047000080B582B000AF78600B467B8015
S11316E07B687A881A8048F203017868024B98472D
S11316F000BF0837BD4680BD5D16000080B584B0CC
S113170000AFF8600B467A60FB72FA7AFB68083225
S1131710796843F822106021F868034B984700BFAA
S11317201037BD4680BD00BF5D16000080B582B095
S113173000AF786039607B68002B14BF012300235D
S1131740DBB2302216491846164B98477B683A6834
S1131750DA607B68DB6801211846134B98477B6885
S1131760DB6801211846114B98477B68DB6848F217
S1131770800118460C4B98477B68DB6820220021C7
S113178018460B4B98477B68DB681846094B98470B
S1131790094A7B681360002318460837BD4680BD9C
S11317A08C26000015120000D51600005D160000FE
S11317B0FD160000B71600005000002080B584B06C
S11317C000AF78607B68DB6818460D4B984703468A
S11317D0FB81FB8903F48073002B0CD07B681B68AE
S11317E0002B03D07B681B68786898477B68DB68AC
S11317F01846044B984700BF1037BD4680BD00BF54
S11318009D1600008116000080B400AF0023184626
S1131810BD465DF8047B704780B500AF034B1B6881
S11318201846034B984700BF80BD00BF50000020FE
S1131830BD17000080B483B000AF7860396000BF8A
S11318407B68DA693B681340002BF9D100BF0C3781
S1131850BD465DF8047B704780B483B000AF786008
S113186039607B68DA693B681340002B14BF01239D
S11318700023DBB218460C37BD465DF8047B704785
S113188080B483B000AF78607B681B7EDBB203F06A
S11318900103002B14BF01230023DBB218460C37CD
S11318A0BD465DF8047B704780B483B000AF7860B8
S11318B07B681B7EDBB25B0803F00103002B14BFC3
S11318C001230023DBB218460C37BD465DF8047BC8
S11318D0704780B483B000AF78607B681B7EDBB256
S11318E09B0803F00103002B14BF01230023DBB288
S11318F018460C37BD465DF8047B704780B582B04E
S113190000AF78607B681B6823F002027B681A6072
S113191003217868024B984700BF0837BD4680BD55
S11319203518000080B584B000AF786039600321B9
S11319307868074B98477B681B68FB60FA683B68CC
S11319401340FB60FB6818461037BD4680BD00BFDE
S11319503518000080B582B000AF786039607B68CC
S11319603A681A6003217868024B984700BF083729
S1131970BD4680BD3518000080B582B000AF7860E8
S113198039607B683A685A601F217868024B98472F
S113199000BF0837BD4680BD3518000080B483B051
S11319A000AF786039607B683A689A6000BF0C3792
S11319B0BD465DF8047B704780B483B000AF7860A7
S11319C00B467B807B687A889A8100BF0C37BD46C2
S11319D05DF8047B704780B483B000AF78600B4639
S11319E0FB707B68FA789A7300BF0C37BD465DF8CC
S11319F0047B704780B483B000AF786039607B6843
S1131A003A689A6200BF0C37BD465DF8047B7047A4
S1131A1080B483B000AF78607B689B6A18460C374B
S1131A20BD465DF8047B704780B483B000AF786036
S1131A300B46FB707B68FA7883F8302000BF0C37C4
S1131A40BD465DF8047B704780B582B000AF786016
S1131A5039607B68002B14BF01230023DBB2BB2257
S1131A6007491846074B98477B683A681A603868F4
S1131A70054B9847034618460837BD4680BD00BF4E
S1131A80A426000015120000F91B000080B582B0E6
S1131A9000AF78600B46FB707B681B68FA781146D0
S1131AA01846034B984700BF0837BD4680BD00BFAA
S1131AB0F519000080B582B000AF78607B681B68C0
S1131AC01846044B98470346DBB218460837BD4610
S1131AD080BD00BF111A000080B582B000AF7860ED
S1131AE07B681B681846034B98470346184608371B
S1131AF0BD4680BD8118000080B582B000AF78601B
S1131B007B681B681846034B9847034618460837FA
S1131B10BD4680BDA918000080B582B000AF7860D2
S1131B207B681B681846034B9847034618460837DA
S1131B30BD4680BDD3180000B0B48DB000AF78604E
S1131B40134B07F10C041D460FCD0FC495E80F008D
S1131B5084E80F000023FB6210E0FB6A9B0007F19E
S1131B603002134453F8243C1A467B689A4202D14B
S1131B70FB6ADBB206E0FB6A0133FB62FB6A072BFC
S1131B80EBD9002318463437BD46B0BC704700BFBC
S1131B90C026000080B584B000AF78607868124B2E
S1131BA098470346BB730023FB730FE0FA7B0F498E
S1131BB013465B001344DB000B441B78BA7B9A4248
S1131BC001D1FB7B0CE0FB7B0133FB73FB7B002B24
S1131BD0ECD040F2472206490020064B98470023E8
S1131BE018461037BD4680BD391B00000000002098
S1131BF0A42600001512000080B584B000AF786000
S1131C007868614B98470346FB73012178685F4B02
S1131C109847034683F00103DBB2002B20D0FA7B04
S1131C205B4913465B001344DB000B4404331B681D
S1131C3003F01C03BB6002217868564B98470346A7
S1131C40002B06D07868544B984702217868534B90
S1131C509847BB6843F0010319467868504B98478E
S1131C60012178684D4B9847FA7B494913465B003C
S1131C701344DB000B4404331B6819467868484B53
S1131C809847FA7B424913465B001344DB000B443C
S1131C9008331B6819467868424B9847FA7B3C49DD
S1131CA013465B001344DB000B440C331B681946DA
S1131CB078683D4B9847FA7B354913465B001344DB
S1131CC0DB000B4404331B6803F40053002B0CD1DA
S1131CD0FA7B2F4913465B001344DB000B440433A7
S1131CE01B6803F4C043002B22D0FA7B2849134617
S1131CF05B001344DB000B4410331B88C3F30C0359
S1131D0099B27A68938961F30C039381FA7B204931
S1131D1013465B001344DB000B4412331B7803F0BF
S1131D200703D9B27A68938961F34F3393810CE046
S1131D30FA7B174913465B001344DB000B44103352
S1131D401B8819467868194B9847FA7B1049134643
S1131D505B001344DB000B4413331B78194678688B
S1131D60134B9847FA7B0A4913465B001344DB0084
S1131D700B4414331B78194678680E4B984700239C
S1131D8018461037BD4680BD951B00005918000049
S1131D900000002025190000FD180000351800007F
S1131DA055190000791900009D190000B9190000A7
S1131DB0D7190000291A000080B483B000AF7860FE
S1131DC0064B6FF07F425A60044B05221A6000BF35
S1131DD00C37BD465DF8047B704700BF10E000E09F
S1131DE080B582B000AF78607868034B984700BF35
S1131DF00837BD4680BD00BFB91D000080B483B064
S1131E0000AF0346FB80B7F90630002B0BDB094912
S1131E10B7F906305B09FA8802F01F02012000FAC4
S1131E2002F241F8232000BF0C37BD465DF8047B65
S1131E30704700BF00E100E080B483B000AF034608
S1131E40FB80B7F90630002B10DB0B49B7F90630DD
S1131E505B09FA8802F01F02012000FA02F2203323
S1131E6041F82320BFF34F8FBFF36F8F00BF0C37B0
S1131E70BD465DF8047B704700E100E080B483B0A8
S1131E8000AF0346FB80B7F90630002B0CDB094991
S1131E90B7F906305B09FA8802F01F02012000FA44
S1131EA002F2603341F8232000BF0C37BD465DF8D1
S1131EB0047B704700E100E080B483B000AF786039
S1131EC0396000BF7B681A693B681340002BF9D165
S1131ED000BF0C37BD465DF8047B704780B483B007
S1131EE000AF786039607B681A693B681340002B47
S1131EF014BF01230023DBB218460C37BD465DF83E
S1131F00047B704780B483B000AF78607B689B7AB1
S1131F10DBB203F00103002B14BF01230023DBB267
S1131F2018460C37BD465DF8047B704780B483B017
S1131F3000AF78607B6801229A7200BF0C37BD46FF
S1131F405DF8047B704780B483B000AF78607B6831
S1131F5002229A7200BF0C37BD465DF8047B7047BD
S1131F6080B483B000AF78607B685B7ADBB25B08D7
S1131F7003F00103002B14BF01230023DBB2184636
S1131F800C37BD465DF8047B7047000080B582B015
S1131F9000AF78607B681B6823F002027B681A60DC
S1131FA003217868024B984700BF0837BD4680BDBF
S1131FB0B91E000080B584B000AF78603960032199
S1131FC07868074B98477B681B68FB60FA683B6836
S1131FD01340FB60FB6818461037BD4680BD00BF48
S1131FE0B91E000080B582B000AF786039607B68AC
S1131FF03A681A6003217868024B984700BF083793
S1132000BD4680BDB91E000080B483B000AF7860C7
S11320100B467B807B687A88DA8000BF0C37BD462C
S11320205DF8047B704780B483B000AF78600B46E2
S1132030FB707B68FA781A7300BF0C37BD465DF8F5
S1132040047B704780B483B000AF78600B46FB70AC
S11320507B68FA78DA7300BF0C37BD465DF8047B01
S11320607047000080B582B000AF78600B46FB700B
S113207013463B80FB787A680C335B0013443A8840
S11320809A80C0217868034B984700BF0837BD4643
S113209080BD00BFB91E000080B584B000AFF860F9
S11320A00B467A60FB72FB7AFA6806339B00134492
S11320B07A685A60C021F868024B984700BF10370D
S11320C0BD4680BDB91E000080B584B000AF786005
S11320D039603868734B98470346FB737B683A68EA
S11320E01A6101213868704B9847034683F0010355
S11320F0DBB2002B11D0022138686C4B98470346A1
S1132100002B06D038686A4B984702213868694B1F
S1132110984701213868684B984701213868654B16
S1132120984797F90F20654913469B0013449B0079
S11321300B4404331B68194638685F4B984797F97A
S11321400F205E4913469B0013449B000B440A3343
S11321501B78194638685A4B984797F90F20574906
S113216013469B0013449B000B4408331B881946F9
S11321703868544B984703213868534B984797F96C
S11321800F204E4913469B0013449B000B44043319
S11321901B6803F00C03082B1ED197F90F20474945
S11321A013469B0013449B000B440C331B681A46D4
S11321B000213868454B984797F90F203F4913464B
S11321C09B0013449B000B4410331B681A460121E7
S11321D038683E4B984731E097F90F20374913464A
S11321E09B0013449B000B4404331B6803F00C0353
S11321F0002B20D197F90F20304913469B0013443C
S11322009B000B440C331B689BB21A4600213868B0
S11322102F4B984797F90F20284913469B001344E6
S11322209B000B4410331B689BB21A46012138688B
S1132230274B984702E04FF0FF332EE07968386867
S1132240244B984797F90F201C4913469B001344CD
S11322509B000B440233B3F9003018461E4B9847D9
S113226097F90F20154913469B0013449B000B4418
S11322700233B3F900301846184B984797F90F20EA
S11322800E4913469B0013449B000B440233B3F9DD
S113229000301846124B9847002318461037BD46A5
S11322A080BD00BF7D230000DD1E0000B51F0000BF
S11322B08D1F0000B91E0000E51F0000180000205B
S11322C0452000000920000027200000992000007C
S11322D065200000E5230000391E00007D1E00007B
S11322E0FD1D000080B400AF00231846BD465DF814
S11322F0047B704780B584B000AF78607B681B694D
S1132300FB60F868124B98470346002B0AD0F86824
S1132310104B98477B681B68002B03D07B681B68B5
S113232078689847F8680C4B98470346002B0AD006
S1132330F8680A4B98477B685B68002B03D07B687E
S11323405B687868984700BF1037BD4680BD00BF02
S1132350051F00002D1F0000611F0000471F000023
S113236080B500AF034B1B681846034B984700BF6A
S113237080BD00BF54000020F522000080B584B069
S113238000AF78607868134B98470346BB7300230B
S1132390FB7310E0FA7B104913469B0013449B0027
S11323A00B441B78BA7B9A4202D197F90F300DE0A7
S11323B0FB7B0133FB73FB7B002BEBD04FF4A97247
S11323C006490020064B98474FF0FF331846103754
S11323D0BD4680BD1124000018000020F426000032
S11323E01512000080B483B000AF786039607B6858
S11323F0054A934202D1054A3B68136000BF0C377B
S1132400BD465DF8047B704700380040540000204E
S1132410B0B48DB000AF7860134B07F10C041D46C7
S11324200FCD0FC495E80F0084E80F000023FB6272
S113243010E0FB6A9B0007F13002134453F8243C7C
S11324401A467B689A4202D1FB6ADBB206E0FB6A59
S11324500133FB62FB6A072BEBD9002318463437A0
S1132460BD46B0BC704700BF0827000080B485B0EB
S113247000AFF8600B467A60FB72FB7AFA68DB0106
S1132480134418337A681A6000BF1437BD465DF8E8
S1132490047B704780B485B000AFF8600B467A6067
S11324A0FB72FB7AFA68DB01134414337A681A600E
S11324B000BF1437BD465DF8047B704780B582B019
S11324C000AF03463960FB711346BB71BB79002B27
S11324D006D0FB793A6819460648074B984705E049
S11324E0FB793A6819460348044B984700BF0837FC
S11324F0BD4680BD008000416D240000952400008D
S113250080B582B000AF03460A46FB711346BB7127
S1132510FB795B09D8B2FB7903F01F03012202FAAD
S113252003F3BA791946034B984700BF0837BD46F1
S113253080BD00BFBD24000080B582B000AF164B43
S113254098470023BB7100237B710023FB71134B5D
S1132550984703467B717B79002B0FD0104BD3F83F
S1132560A03003F02003002B14BF01230023BB7110
S1132570BB7918460B4B98470346FB71FB79002B3C
S113258004D000215220084B9847E0E70121522053
S1132590054B9847DBE700BFD10200001D04000093
S11325A000800041E10200000125000070B50D4EDD
S11325B00D4CA41BA4100025A54209D10B4E0C4CB4
S11325C000F0B2F8A41BA4100025A54205D170BDEB
S11325D056F8253098470135EEE756F825309847E8
S11325E00135F2E7342700003427000034270000C7
S11325F03827000000010001010000000001010073
S1132600010000002E2E2F68706C2F706F72742FD3
S113261068706C5F6770696F5F626173652E6800D4
S11326202E2E2F68616C2F7372632F68616C5F703C
S1132630776D2E63000000002E2E2F68616C2F73BF
S113264072632F68616C5F74696D65722E6300003C
S11326502E2E2F68616C2F7372632F68616C5F7507
S1132660736172745F73796E632E63002E2E2F680C
S1132670616C2F7574696C732F7372632F75746931
S11326806C735F6C6973742E630000002E2E2F68C8
S1132690706C2F7274632F68706C5F7274632E6336
S11326A0000000002E2E2F68706C2F736572636F0C
S11326B06D2F68706C5F736572636F6D2E630000BD
S11326C0003000400034004000200141004001413E
S11326D0000000430004004300080043000C0043D2
S11326E000000000000000000000000000000000E6
S11326F0000000002E2E2F68706C2F74632F6870FA
S11327006C5F74632E63000000380040003C00409E
S113271000A0014100C00141001400420018004221
S11327200014004300180043F8B500BFF8BC08BC0F
S11327309E46704789020000F8B500BFF8BC08BC8B
S10B27409E467047650200008B
S113274800000000040010400000030002007000B4
S1132758B9FC00000000000000006B00000000004D
S10F276800000032DF2E00006F1700009C
S9030000FC
