:1000000078020120E1020000DD020000DD020000B4
:10001000DD020000DD020000DD0200000000000043
:10002000000000000000000000000000DD020000F1
:10003000DD02000000000000DD020000DD02000023
:10004000DD020000DD020000DD020000DD02000034
:10005000DD020000DD020000DD020000DD02000024
:10006000DD020000DD020000DD020000DD02000014
:1000700025100000DD020000DD020000DD020000AE
:10008000DD020000DD020000DD020000DD020000F4
:10009000DD020000DD020000DD020000DD020000E4
:1000A000DD020000DD020000DD020000DD020000D4
:1000B000DD020000DD020000DD020000DD020000C4
:1000C000DD020000DD020000DD020000DD020000B4
:1000D000DD020000DD020000DD020000DD020000A4
:1000E000DD020000DD020000000000000000000052
:1000F00000000000F9100000DD020000DD02000039
:10010000DD020000DD020000DD020000DD02000073
:10011000DD020000DD0200008114000095140000E3
:10012000A9140000BD140000DD020000DD02000083
:10013000DD020000DD020000DD020000DD02000043
:10014000DD020000DD020000DD020000DD02000033
:10015000DD020000DD020000DD020000DD02000023
:10016000DD020000DD020000DD020000DD02000013
:10017000DD020000DD020000DD020000DD02000003
:10018000DD020000DD020000DD020000DD020000F3
:10019000DD020000DD020000DD020000DD020000E3
:1001A000DD020000DD020000DD020000DD020000D3
:1001B000DD020000DD020000DD020000DD020000C3
:1001C000DD020000DD020000DD020000DD020000B3
:1001D000DD020000DD020000DD020000DD020000A3
:1001E000DD020000DD020000DD020000A51C0000B1
:1001F000411A0000551A0000DD020000691A0000D3
:10020000DD020000DD020000DD020000DD02000072
:10021000DD020000DD020000DD020000DD02000062
:10022000DD020000DD020000DD020000DD02000052
:10023000DD020000DD020000DD020000DD02000042
:10024000DD020000DD020000DD020000DD02000032
:10025000DD020000DD020000DD020000DD02000022
:10026000DD02000010B5054C237833B9044B13B1FF
:100270000448AFF300800123237010BDB4000020B8
:1002800000000000E43600000C4B43B10C480D495F
:1002900010B5AFF300800C48036823B910BD0A48BD
:1002A000036833B97047094B002BF7D0BDE8104005
:1002B0001847064B002BF5D0184700BF0000000080
:1002C000E4360000B8000020E43600000000000022
:1002D00008B5014B984708BDC5050000FEE70000C2
:1002E00008B5154B154A9A4209D0134B134A03E03F
:1002F000116819600433043211498B42F8D3114B51
:1003000002E000221A6004330F4A9342F9D30F4BE4
:100310000F4A22F07F029A60D3F8882042F47002DC
:10032000C3F88820BFF34F8FBFF36F8F094B9847F7
:10033000094B9847FEE700BF00000020E4360000AC
:10034000B4000020B40000207402002000ED00E0A2
:1003500000000000452A0000F51D000008B5084A0D
:10036000536943F4004353614022064BC3F8A42071
:10037000054B9847024605490548064B984708BD76
:1003800000080040001C0040FD190000003C004037
:10039000B80100203109000008B5084A936943F408
:1003A000005393614022064BC3F8E820054B984761
:1003B000024605490548064B984708BD000800401D
:1003C000001C0040FD19000000A001418001002038
:1003D0003109000008B54022154BC3F89020154A9A
:1003E000536943F480635361134B0122C3F88420A3
:1003F00002F1804202F50032C3F8A8200F4AC3F888
:10040000A82093F8C02002F0FB0283F8C02093F8E4
:10041000C02002F0FE0242F0010283F8C02093F8EF
:10042000B02002F0F00283F8B020054B984708BDD9
:10043000001C00400008004000800041000002C095
:10044000DD06000008B54022054BC3F8AC20054A84
:10045000936943F080039361034B984708BD00BF45
:10046000001C0040000800408D060000064B4022A2
:10047000C3F8DC204322C3F88C20044A936943F478
:1004800000739361704700BF001C004000080040EB
:10049000104B93F8D92002F0FE0242F0010283F8DB
:1004A000D92093F8BC2002F00F0242F0300283F80A
:1004B000BC2093F8D82002F0FE0242F0010283F83B
:1004C000D82093F8BC2002F0F00242F0030283F837
:1004D000BC2070470080004110B582B0064B9847A1
:1004E000002300931023054A05490648064CA047FF
:1004F000064B984702B010BD6D040000D0000020EC
:1005000000200141D4010020AD0B00009104000047
:10051000044A536943F4804353614022024BC3F8B9
:10052000A420704700080040001C0040104B93F8C6
:10053000562002F0FE0242F0010283F8562093F8A2
:100540003B2002F0F00242F0040283F83B2093F8D3
:10055000572002F0FE0242F0010283F8572093F880
:100560003B2002F00F0242F0400283F83B2070472C
:1005700000800041044AD36943F02003D361402244
:10058000024BC3F8F820704700080040001C0040F0
:1005900008B5064B9847064B9847064B98470246C6
:1005A00005490648064B984708BD00BF7505000081
:1005B0002D050000011A0000001400429C010020DB
:1005C0008D07000008B51E4B98471E4B40225A610C
:1005D0009A6002F180429A624FF040429A6293F828
:1005E000462002F0FE0283F846200222C3F884204F
:1005F0001549C3F8A8101549C3F8A810C3F88420FA
:1006000093F8C11041F0040183F8C110C3F894209D
:1006100093F8C12002F0FE0283F8C1200C4B9847EA
:100620000C4B98470C4B98470C4B98470C4B9847F2
:100630000C4B98470C4B98470C4B984708BD00BF94
:10064000710E00000080004102000240000002C064
:10065000D503000045040000D90400001105000086
:100660007D1A00005D030000990300009105000061
:10067000EFF31083036072B6BFF35F8F7047BFF371
:100680005F8F036883F310887047000008B5014B43
:10069000984708BD3110000038B50125002407E057
:1006A0000D4A52F83330B3B1984738BD0139CDB255
:1006B000AC4210D82B195B1013F0FF010BD1DBB249
:1006C000054A02EBC30252688242E9D08242EDD26F
:1006D0000131CCB2ECE738BDE000002008B50023C2
:1006E0001BB10848084B984708BD084A02EBC301F4
:1006F0004FF0FF304860002142F8331001339BB2C5
:10070000EEE700BF99060000650F0000E000002042
:1007100070B50D461646044668B151B10120342229
:100720000649074B98472368324629462046984792
:1007300070BD0020F3E70020F1E700BF6C3300003C
:10074000E10C000070B50D461646044668B151B183
:1007500001203D220649074B9847636832462946E7
:100760002046984770BD0020F3E70020F1E700BF66
:100770006C330000E10C000008B5436903B19847F1
:1007800008BD08B5836903B1984708BD38B50D4663
:10079000044688B171B1012033220849084B9847BB
:1007A00029462046074B9847074B2360074B636059
:1007B000002038BD0020EFE70020EDE78033000087
:1007C000E10C00009D17000079070000830700007E
:1007D00010B504464A220949003018BF0120084BD1
:1007E00098472046074B984720B92046064B984724
:1007F000002010BD6FF0100010BD00BF803300005E
:10080000E10C0000EB1900003119000010B504469E
:1008100058220949003018BF0120084B984720464C
:10082000074B984720B12046064B9847002010BD43
:100830006FF0100010BD00BF80330000E10C00001D
:10084000EB1900004519000070B50D461646044628
:100850007C220649003018BF0120054B98473246DC
:1008600029462046034B9847002070BD8033000086
:10087000E10C000059190000F8B5076817B13C46B3
:1008800000260BE00E4B9847F8BDA5682B449B1A39
:1008900001338D68AB4209D22646246834B16368BF
:1008A0009342F2D8A5689B1A2B44F2E7BC4203D0CE
:1008B0003046044B9847F8BD014B9847F8BD00BF40
:1008C000FD0C0000290D0000F8B5446906690136E9
:1008D0000661037E13F0010F05D1037E13F0020FB2
:1008E00001D1054609E0037E43F002030376F8BD1B
:1008F0006F69E368204698473C469CB16368F31AE9
:10090000A26893420ED305F114073846064B984768
:10091000237C012BECD16660324621463846034BDE
:100920009847E5E7F8BD00BF310D000079080000E9
:1009300038B50D46044680B169B101203B22084913
:10094000084B984729462046074B984700202061CE
:10095000064B236038BD0020F0E70020EEE700BF23
:1009600098330000E10C0000C9150000C908000020
:1009700010B5044653220949003018BF0120084B26
:1009800098472046074B984720B92046064B984782
:10099000002010BD6FF0100010BD00BF98330000A4
:1009A000E10C0000D91900001D19000070B582B0DB
:1009B0000D46044620B309B301207A221F49204B7B
:1009C0009847237E43F00103237604F11406294659
:1009D00030461C4B9847A8B923696B6022692946A9
:1009E0003046194B9847237E03F0FE032376237E7F
:1009F00013F0020F12D1002002B070BD0020DCE71E
:100A00000020DAE7237E03F0FE0323767F220B49E2
:100A100000200B4B98476FF01100EDE701A80B4B3E
:100A20009847237E03F0FD0323762046084B984722
:100A300001A8084B98470020DEE700BF983300006C
:100A4000E10C0000E70C00007908000071060000CE
:100A5000051A00007F06000008B500238362C36901
:100A60001BB1A0F108021046984708BD08B5002345
:100A70008362436A1BB1A0F108021046984708BD83
:100A800038B50446A0F108052C30034B9847236A7B
:100A90000BB12846984738BDCD0D000070B50E4605
:100AA00015460446D8B1E1B1EAB9002040F23B1244
:100AB0000F49104B9847B4F84420B4F84C309A4290
:100AC00013D1A664A4F84C500023A4F844300123A9
:100AD000236304F10800084B9847284670BD0020A6
:100AE000E4E70020E2E70120E0E76FF01B0070BDC3
:100AF000B0330000E10C0000FF13000010B5044605
:100B0000838FB0F84420934209D0026C591C81872E
:100B1000D15C044B98472046034B984710BD034BCC
:100B2000984710BDF9130000FF13000007140000E0
:100B30002DE9F04182B0884616460546A0B1A9B11C
:100B4000B2B900204FF4AC721249134B984701A878
:100B5000124B984734352846114B9847074601A851
:100B6000104B984700240BE00020EBE70020E9E75A
:100B70000120E7E70134A4B2414428460A4B9847D4
:100B80002146A74201D9B442F4D3204602B0BDE8C1
:100B9000F08100BFB0330000E10C000071060000DE
:100BA0000D0E00007F060000850D0000F8B50D4613
:100BB00016461F46044618B321B32AB333BB0020A0
:100BC0003A221549154B98473A46314604F134000C
:100BD000134B9847E0B9294604F10800114B984798
:100BE000034658B9104A6260104A2260104AA26057
:100BF000104AE260104A2261104A62611846F8BD4C
:100C00000020DDE70020DBE70020D9E70120D7E75F
:100C10006FF00C03F2E700BFB0330000E10C0000FE
:100C2000410D000061130000310B00009D0A00001F
:100C3000FD0A0000810A0000590A00006D0A000048
:100C400010B5044661220649003018BF0120054B4B
:100C5000984704F10800044B9847002010BD00BFDE
:100C6000B0330000E10C0000E513000070B50C4645
:100C70001646054683221749003018BF0120164B3F
:100C80009847012C10D024B1022C18D06FF00C0022
:100C900070BDAE62321C18BF0122012105F10800AF
:100CA0000E4B9847002070BD6E62321C18BF0122A7
:100CB000022105F10800094B9847002070BDEE6243
:100CC000321C18BF0122032105F10800034B98478D
:100CD000002070BDB0330000E10C000011140000D2
:100CE00000B900BE704703681BB18B4203D01B687C
:100CF000FAE70020704701207047000038B504462D
:100D00000D46064B984780F0010039220449C0B2D5
:100D1000044B984723682B60256038BDE70C000022
:100D2000D0330000E10C000003680B6001607047E5
:100D300003681BB11A6802601846704700207047AC
:100D400070B50E461546044678B181B18AB90020C7
:100D500028220A490A4B98476B1E1D420BD163603B
:100D60000020A060E060266070BD0020F0E7002059
:100D7000EEE70120ECE76FF00C0070BDF0330000EF
:100D8000E10C000038B50D460446A8B191B1012030
:100D900040220C490C4B9847E268A3689A420DD058
:100DA000226861680B40D35C2B70A3680133A36099
:100DB000002038BD0020EBE70020E9E76FF00900D4
:100DC00038BD00BFF0330000E10C000038B50D461F
:100DD000044651220B49003018BF01200A4B9847A6
:100DE0002268E36861680B40D554E368A2689A1AE8
:100DF00061688A4201D9591AA1600133E360002079
:100E000038BD00BFF0330000E10C000010B504460F
:100E100067220549003018BF0120044B9847E0685D
:100E2000A368C01A10BD00BFF0330000E10C000041
:100E30000346064A126822B1044A1068034413604C
:100E400070470349014A1160F6E700BFE80000203F
:100E500078020120430900F01F00012202FA00F08D
:100E60004033024A42F82300704700BF00E100E02F
:100E700008B5084A13889BB21380074B9847074B65
:100E80009847074B9847074B984740F6FF70064B2B
:100E9000984708BD00400041C5100000D91000006F
:100EA000B9100000F51000009510000030B583B0B7
:100EB000274B5A690192019A5A61264B1868E82219
:100EC0002549003018BF0120244B98474FF0FF35CB
:100ED00030E0013BD8B281420CD84318C3F347033A
:100EE0001F4A12F83320A24203D0F2DA0133D9B2FA
:100EF000F1E72025B5F1FF3F03D0164B1B682846CC
:100F000098470123A340019C24EA03040194019B18
:100F100093FAA3F4B4FA84F40BB94FF0FF34B4F1AC
:100F2000FF3F02D001200021D5E7094B5A69019209
:100F3000019A5A61019B4BB1019B93FAA3F4B4FA55
:100F400084F4002BEBD14FF0FF34E8E703B030BD61
:100F500000280040EC0000201C340000E10C0000E0
:100F6000143400002C4B5B6813F0010F20D12A4B86
:100F70005B6813F0030FFAD1274B1B7813F0020FB5
:100F80000ED0254A137803F0FD031370224B5B68E3
:100F900013F0030FFAD1204B5B6813F0020FFAD164
:100FA00001221D4B1A701C4B5B6813F0030FFAD122
:100FB000194B5B6813F0010FFAD1174A137803F04D
:100FC000EF031370144B5B6813F0030FFAD1124B4D
:100FD00000225A70012199609A611A635A630C21A8
:100FE000D9611A621A7842F002021A700A4B5B68E1
:100FF00013F0030FFAD1094B4FF48052C3F880204D
:10100000BFF34F8FBFF36F8FC3F880211A60044B7B
:1010100018600020704700BF0028004000E100E099
:10102000EC00002008B5014B984708BDAD0E00004C
:10103000002308E0154AD05C03F14801144A42F845
:1010400021000133DBB2422BF4D900231F2B1BD824
:1010500010B40E4A02EB4301B1F844400C49181D8C
:1010600041F8304002EB830292F8842001EBC0018A
:101070004A71D243D2B20A710133DBB21F2BE8D9D5
:1010800000205DF8044B70470020704734340000A6
:1010900000E0004110F0010F08D0054A054B1A622C
:1010A000044B5A6843F6FD731A42F9D1704700BFEA
:1010B00001010100001C00400122014B5A717047E0
:1010C00000080040034BDA6902F47C52DA61012225
:1010D0001A74704700140040044A054B9A61044B8F
:1010E0001B6913F0020FFAD0704700BF06260003F9
:1010F000001000407047000000B583B00D4B9B7896
:10110000DBB20193019B13F0020F06D00A4B1B6860
:101110001BB1084A5068984709E0019B13F0010F82
:1011200005D0054B5B6813B1024A5068984703B07D
:101130005DF804FB000002412402002070B489B075
:1011400006466C460C4D0FCD0FC495E80F0084E8A1
:101150000F00002007280AD808AB03EB800353F8E0
:10116000203CB34201D00130F4E7C0B200E00020DF
:1011700009B070BC704700BF3835000010B58469F5
:10118000237E13F0010F03D0A37D13F0010F12D1C2
:10119000237E13F0020F03D0A37D13F0020F0FD1B3
:1011A000237E13F0040F15D0638B03F0370363B174
:1011B000FF23638310BD012323750368984710BD87
:1011C000022323758368984710BD4368A16AC9B29A
:1011D000984710BD237EDB0900D110BD8023237604
:1011E000C3689847638B9BB26383F6E7034B9842CF
:1011F00000D07047024B1960FBE700BF002001419F
:10120000F000002008B5044B98478000C0B22E3093
:1012100000F0FE0008BD00BF3D11000008B50C4BFA
:101220009847002343B140F26B220A4900200A4B41
:1012300098470023184608BD03EB4302D100074A34
:101240000A4492F820209042F4D00133DBB2E9E75F
:101250003D110000AC350000E10C00003835000005
:1012600038B504463C4B9847E36913F0010F22D18F
:1012700000EB4003DA00394B13445A6A02F01C02B7
:10128000E36913F0030FFBD1236813F0020F0BD0B7
:10129000236823F002032360E36913F0030FFBD1FB
:1012A000E36913F0020FFBD142F001022260E3690F
:1012B00013F0030FFBD1E36913F0010FFBD100EB37
:1012C0004003DA00254B13445B6A2360E36913F0A3
:1012D000030FFBD100EB4003DA00204B13449B6A61
:1012E0006360E36913F01F0FFBD142000244D10099
:1012F0001A4B0B44DA6AA2605B6A13F4005F0AD1EE
:1013000013F4C04F07D100EB4003DA00134B134432
:101310001B8EA3810FE042000244D1000F4B0B440F
:10132000198EA28961F30C02A28193F83220A3895D
:1013300062F34F33A381094A43001D18E9000D46AB
:10134000114491F83310A1732A4492F8343084F890
:101350003030002038BD00BF1D12000038350000BD
:1013600070B50C460646CB221849003018BF012044
:10137000174B98472046174B9847054608B1284613
:1013800070BDB46131462046134B98472046134B3D
:101390009847002416E0410900F01F020123934002
:1013A0000F4A01F1200642F82630BFF34F8FBFF3FA
:1013B0006F8F01F1600642F8263042F8213001308B
:1013C000C0B20134032CE6D9D9E700BFAC35000028
:1013D000E10C000061120000ED1100000512000098
:1013E00000E100E08269136843F002031360D369EF
:1013F00013F0030FFBD170478369996270478369CB
:1014000001229A757047836902229A75704700001D
:1014100070B50C461546064640F22B2216490030A0
:1014200018BF0120154B984734B1022C04D0012C71
:1014300011D0032C17D070BDB36935B901221A75CC
:10144000B3692DB902221A7570BD01229A75F7E7AA
:1014500002229A7570BDB36915B904221A7570BD60
:1014600004229A7570BDB36915B180229A75E2E7BE
:1014700080221A7570BD00BFAC350000E10C000081
:1014800008B5024B1868024B984708BDF0000020D1
:101490007D11000008B5024B1868024B984708BD43
:1014A000F00000207D11000008B5024B1868024BC7
:1014B000984708BDF00000207D11000008B5024BE0
:1014C0001868024B984708BDF00000207D1100000D
:1014D00008B5C3689A7A12F0010F00D108BD012245
:1014E0009A7203689847F9E738B505460469A37A04
:1014F00013F0010F04D00123A372036803B19847CE
:10150000637A13F0020F05D00223A3726B680BB14C
:101510002846984738BD0000094B984206D0094B31
:10152000984206D0084B984206D07047074B196086
:10153000F5E7064B5960F5E7044B9960F5E700BF06
:10154000003C004000A0014100140042F4000020D3
:1015500070B588B006466C46174D0FCD0FC495E8A0
:101560000F0084E80F000023072B0AD808AA02EB1B
:10157000830252F8202CB24201D00133F4E7DBB2EF
:1015800000E00023002002280BD800EB80018A0035
:101590000A498A5C9A4202D00130C0B2F3E740B2F5
:1015A00007E04FF4FA7206490020064B98474FF0C7
:1015B000FF3008B070BD00BFC8350000000000203B
:1015C000E8350000E10C000070B506460C46084600
:1015D0006C4B98470546F46093226B4901206B4B96
:1015E0009847236913F0010F19D1236913F0030FF2
:1015F000FBD1236813F0020F0BD0236823F0020302
:101600002360236913F0030FFBD1236913F0020F4A
:10161000FBD101232360236913F0030FFBD123695E
:1016200013F0010FFBD105EB85039A00584B1344CF
:101630005B682360236913F0030FFBD1AA002A44DF
:101640009100534B0B449A7AE2731A89E28001228B
:1016500022735B6803F00C03082B5BD0002B6DD169
:1016600005EB85039A004A4B13449B89A3832369A6
:1016700013F0C00FFBD105EB85039A00444B1344D4
:101680001B8AE383236913F0C00FFBD1012363722C
:10169000314620463F4B984705EB85039A003C4B6B
:1016A0001344B3F90230002B0DDB5A0903F01F037A
:1016B000012101FA03F32032374941F82230BFF308
:1016C0004F8FBFF36F8F05EB85039A00304B1344A8
:1016D000B3F90230002B09DB5A0903F01F03012183
:1016E00001FA03F360322C4941F8223005EB8505FD
:1016F000AA00274B1344B3F90230002B08DB590929
:1017000003F01F03012202FA03F3234A42F82130B7
:10171000002070BD1E4B0B44DB68E361236913F0AE
:10172000C00FFBD105EB85039A00194B13441B69CD
:101730002362236913F0C00FFBD1A7E7042BA5D1C7
:1017400005EB85039A00124B13441B7B2377236917
:1017500013F0C00FFBD105EB85039A000C4B13442B
:101760001B7C6377236913F0C00FFBD105EB850366
:101770009A00074B1344DB7AE376236913F0200FBA
:10178000FBD183E751150000E8350000E10C0000B3
:10179000000000201915000000E100E070B50646C9
:1017A0000C460846594B984705463461236913F0A7
:1017B000010F19D1236913F0030FFBD1236813F034
:1017C000020F0BD0236823F002032360236913F078
:1017D000030FFBD1236913F0020FFBD10123236018
:1017E000236913F0030FFBD1236913F0010FFBD121
:1017F00005EB85039A00464B13445B68236023691D
:1018000013F0030FFBD1AA002A449100404B0B4474
:101810009A7AE2731A89E280032222735B6803F0EA
:101820000C03082B59D0002B6BD105EB85039A00D4
:10183000374B13449B89A383236913F0C00FFBD15B
:1018400005EB85039A00324B13441B8AE38323691B
:1018500013F0C00FFBD1314620462E4B984705EBC5
:1018600085039A002A4B1344B3F90230002B0DDB99
:101870005A0903F01F03012101FA03F3203226491C
:1018800041F82230BFF34F8FBFF36F8F05EB850315
:101890009A001F4B1344B3F90230002B09DB5A099D
:1018A00003F01F03012101FA03F360321A4941F8E2
:1018B000223005EB8505AA00154B1344B3F902301D
:1018C000002B21DB590903F01F03012202FA03F365
:1018D000114A42F82130002070BD0D4B0B44DB68EB
:1018E000E361236913F0C00FFBD105EB85039A0078
:1018F000074B13441B692362236913F0C00FFBD10C
:10190000A9E74FF0FF3070BD002070BD51150000F9
:10191000000000201915000000E100E0C268136813
:1019200043F002031360136913F0030FFBD17047F8
:101930000269136843F002031360136913F0030F85
:10194000FBD170470269136823F002031360136927
:1019500013F0030FFBD1704770B50E4615460469AE
:1019600020461B4B9847820002449100194B0B44C0
:10197000DE601D615B6803F00C03082B16D000EBE2
:1019800080039A00134B13449B89A383236913F0AC
:10199000C00FFBD100EB800082000E4B13441B8A6A
:1019A000E383236913F0C00FFBD170BDE6612369A7
:1019B00013F0C00FFBD100EB80008200054B1344F5
:1019C0001B692362236913F0C00FFBD170BD00BFF8
:1019D0005115000000000020C268136913F0030FC6
:1019E000FBD11068C0F3400070470269136913F01F
:1019F000030FFBD11068C0F3400070470020704710
:101A00000020704710B5C068084B9847044640F264
:101A1000A11207490120074B984704EB8404A20058
:101A2000054B13449878054B984710BD511500009D
:101A3000E8350000E10C000000000020550E000019
:101A400008B5024B1868024B984708BDF400002007
:101A5000D114000008B5024B5868024B984708BDE6
:101A6000F4000020D114000008B5024B9868024B26
:101A7000984708BDF4000020E9140000244B1B69BE
:101A800013F0010F20D1224B1B6913F0030FFAD181
:101A90001F4B1B6813F0020F0ED01D4A136823F072
:101AA000020313601A4B1B6913F0030FFAD1184B92
:101AB0001B6913F0020FFAD10122154B1A60144B67
:101AC0001B6913F0030FFAD1114B1B6913F0010FBF
:101AD000FAD1104A0E4B1A600D4B1B6913F0030F1D
:101AE000FAD10B4B00225A71FF221A712522DA809B
:101AF00010225A72EF221A721A6842F002021A6019
:101B0000034B1B6913F0030FFAD10020704700BF8D
:101B100000380040000303000122014B1A607047A7
:101B20000001002038B50A4C6368642000FB03F014
:101B3000084B98470022084B084DA8470022084B45
:101B4000084DA847084B9847A0600023636038BD44
:101B5000000100205524000000004E4041250000F7
:101B600000809640952700006529000030B583B0BD
:101B7000094A9368D268094C094991F9001000910B
:101B800008492046084DA84782B221460748084B1D
:101B9000984703B030BD00BF000100203C02002088
:101BA0003C000020FC3500008D2A0000D4010020FC
:101BB00011070000000000002B4B1B7C03B970478D
:101BC00010B52A482A4B9847274C6169E068294B91
:101BD000984701462076284B93F90030A06800FB17
:101BE00003F0264B984740B22076002819DB4022AC
:101BF000234B5A61234B98470022234B234CA04789
:101C000017A3D3E90023224CA047224B9847024652
:101C100042F210711548204B984714481F4B9847C3
:101C200010BD4022164B9A61164B98470022164B66
:101C3000164CA0470AA3D3E90023154CA04708A3DC
:101C4000D3E90023164CA047124B9847024642F2B4
:101C500010710648104B9847DFE700BFAFF30080D4
:101C6000000000000088C340000100209C0100200B
:101C70000D080000ED2000003C000020F11F0000D6
:101C800000800041752400000000594095270000A5
:101C9000412500006529000049080000D107000027
:101CA000DD21000010B582B01022294B9A72284B1A
:101CB0001B6913F0C00FFAD1254B9A8B92B2254BBA
:101CC000DA615A6801325A6001A8234B9847234BC6
:101CD000D3F88010D3F8A020D3F8904054400C40A3
:101CE000544001A81E4B984714F0020405D11D4B27
:101CF00093F90030B3F1FF3F1CD024B1194B93F995
:101D00000030012B1AD0174B93F90030012B19D05A
:101D1000104AD368013BD3600E4BDB6803F5EA43FE
:101D200030334EF66022934202D90022094BDA602A
:101D300002B010BD01220B4B1A70E4E7FF22094BE1
:101D40001A70E0E7034AD3680133D360E4E700BFC9
:101D500000380040000100207106000000800041B2
:101D60007F0600003C00002070B50E4C0A23A362E1
:101D70000D4BE362012384F830306422E2630B4AA6
:101D8000226484F844300A4D04F120012846094EAB
:101D9000B04704F134012846B0472846064B98471F
:101DA00070BD00BF00010020251B00006D1B00005E
:101DB000B8010020AD0900007109000010B5084904
:101DC00064230B65074B4B65012381F85830064CA3
:101DD00048312046054B98472046054B984710BD93
:101DE00000010020B91B000080010020AD090000A7
:101DF0007109000000B583B06D4B98476D4C00220F
:101E000042F2107120466C4B984720466B4B984726
:101E10006B4C6C4A002120466B4B984720466B4B1D
:101E200098476B4B98476B4B98476B4B602283F8F6
:101E30006B234FF40062DA6062B656E0674B012212
:101E400083F85C2000221A7493F85D20013A83F82D
:101E50005D20624B00221A6093F85C30002B44D066
:101E60005E4B93F85D30022B24D0032B5ED0042B05
:101E700068D0052B77D05A494B78303B8A78A2F14D
:101E800030004FF47A7202FB00F242F2107000FB55
:101E90000322CB78303B642000FB03230A79303ADD
:101EA00002EB8202500003444A79303A13444B4A11
:101EB000536104E04A4B5B78303B484A5361484BDE
:101EC0001B782B2B01D02D2B66D0444B5B6947F23E
:101ED0003052934265DD414B5A61404B01221A74E6
:101EE000002283F85C2083F85D203C4B1B68002BAC
:101EF000FBD001220DF1070131483A4B98470128E8
:101F0000A7D19DF807300A2B98D0344991F85D206D
:101F1000501C81F85D0032498B5401220DF10701FC
:101F20002748314B98470128F7D1E2E72C494B78F5
:101F3000303B03EB83035A008B78303B1A44274B2A
:101F40005A61BCE726494B78303B8A78303A02EB3D
:101F500082025000642202FB0303CA78303A134421
:101F60001E4A5361ABE71E494B78303B8A78A2F199
:101F70003000642202FB00F24FF47A7000FB03236E
:101F8000CA78303A02EB8202500003440A79303AB0
:101F90001344124A536192E7104A53695B425361FA
:101FA00093E7124A934298DA0C4B5A6195E700BFC7
:101FB000D10200009C01002049080000D107000068
:101FC000D4010020191B00006D0C0000410C000022
:101FD000691D0000BD1D000000E100E000010020BF
:101FE000340200204507000011070000D08AFFFFDF
:101FF000F0B585B00546002302930193344C0846A2
:10200000A04706460F462846A04702460B463046E4
:102010003946304CA047304B984703909DED037AEA
:102020002E4B83ED007ADDED037AD3ED016A77EE76
:10203000A67AC3ED017ADFED2A6AF4EEE67AF1EED4
:1020400010FA2FDDC3ED016A264AD2ED007A27EEA1
:10205000277A8DED027A214BD2ED017A93ED017A48
:1020600067EE877ACDED017ADDED027A9DED017A9A
:1020700077EE877A93ED027A77EE877AC3ED027A6C
:102080009FED177AF4EEC77AF1EE10FA15DC9FEDAA
:10209000167AF4EEC77AF1EE10FA10D50F4B83EDF5
:1020A000027A0CE0DFED106AF4EEE67AF1EE10FA57
:1020B000CAD50A4BC3ED016AC6E783ED027A074B26
:1020C000D3ED027AFDEEE77A17EE900A05B0F0BD87
:1020D00075240000D9210000A5290000600100201E
:1020E0000000C842400000200000C8C2F0B583B024
:1020F0000546304C0846A04706460F462846A047EE
:1021000002460B46304639462B4CA0472B4B98478E
:1021100007EE900A2A4BD86093ED047A37EE877A5F
:1021200083ED047ADFED276AB4EEE67AF1EE10FA79
:1021300027DDC3ED046A244B93ED027A67EE877ABC
:1021400093ED037A1E4BD3ED046A27EE267A77EEE1
:10215000877A93ED057A77EE877AC3ED057A9FED5E
:10216000197AF4EEC77AF1EE10FA15DC9FED177AC2
:10217000F4EEC77AF1EE10FA10D5114B83ED057A23
:102180000CE0DFED126AB4EEE67AF1EE10FAD2D589
:102190000B4BC3ED046ACEE783ED057A084BD3ED14
:1021A000057AFDEEE77ACDED017A9DF9040003B0E2
:1021B000F0BD00BF75240000D9210000A529000052
:1021C000600100200000C842400000200000C8C29A
:1021D00081F0004102E000BF83F0004330B54FEAD8
:1021E00041044FEA430594EA050F08BF90EA020F45
:1021F0001FBF54EA000C55EA020C7FEA645C7FEAD8
:10220000655C00F0E2804FEA5454D4EB5555B8BFFA
:102210006D420CDD2C4480EA020281EA030382EA6B
:10222000000083EA010180EA020281EA0303362DFD
:1022300088BF30BD11F0004F4FEA01314FF4801CD0
:102240004CEA113102D0404261EB410113F0004FE2
:102250004FEA03334CEA133302D0524263EB430399
:1022600094EA050F00F0A780A4F10104D5F1200E37
:102270000DDB02FA0EFC22FA05F2801841F1000192
:1022800003FA0EF2801843FA05F359410EE0A5F166
:1022900020050EF1200E012A03FA0EFC28BF4CF097
:1022A000020C43FA05F3C01851EBE37101F000454D
:1022B00007D54FF0000EDCF1000C7EEB00006EEB5A
:1022C0000101B1F5801F1BD3B1F5001F0CD34908E4
:1022D0005FEA30004FEA3C0C04F101044FEA44523B
:1022E00012F5800F80F09A80BCF1004F08BF5FEAC2
:1022F000500C50F1000041EB045141EA050130BDA2
:102300005FEA4C0C404141EB010111F4801FA4F144
:102310000104E9D191F0000F04BF01460020B1FA99
:1023200081F308BF2033A3F10B03B3F120020CDAD1
:102330000C3208DD02F1140CC2F10C0201FA0CF0AF
:1023400021FA02F10CE002F11402D8BFC2F1200C14
:1023500001FA02F120FA0CFCDCBF41EA0C019040CA
:10236000E41AA2BF01EB0451294330BD6FEA040413
:102370001F3C1CDA0C340EDC04F11404C4F12002FE
:1023800020FA04F001FA02F340EA030021FA04F310
:1023900045EA030130BDC4F10C04C4F1200220FA67
:1023A00002F001FA04F340EA0300294630BD21FAA5
:1023B00004F0294630BD94F0000F83F4801306BF6B
:1023C00081F480110134013D4EE77FEA645C18BF5F
:1023D0007FEA655C29D094EA050F08BF90EA020FF6
:1023E00005D054EA000C04BF1946104630BD91EAEE
:1023F000030F1EBF0021002030BD5FEA545C05D1F1
:102400004000494128BF41F0004130BD14F580042F
:102410003CBF01F5801130BD01F0004545F0FE41A3
:1024200041F470014FF0000030BD7FEA645C1ABFD8
:10243000194610467FEA655C1CBF0B46024650EA0F
:10244000013406BF52EA033591EA030F41F400213B
:1024500030BD00BF90F0000F04BF0021704730B5C1
:102460004FF4806404F132044FF000054FF0000196
:1024700050E700BF90F0000F04BF0021704730B557
:102480004FF4806404F1320410F0004548BF40422C
:102490004FF000013EE700BF42004FEAE2014FEA81
:1024A00031014FEA02701FBF12F07F4393F07F4F5C
:1024B00081F06051704792F0000F14BF93F07F4F8E
:1024C000704730B54FF4607401F0004521F00041D1
:1024D00020E700BF50EA010208BF704730B54FF057
:1024E00000050AE050EA010208BF704730B511F05C
:1024F000004502D5404261EB41014FF4806404F194
:1025000032045FEA915C3FF4DCAE4FF003025FEA15
:10251000DC0C18BF03325FEADC0C18BF033202EB9D
:10252000DC02C2F1200300FA03FC20FA02F001FAF7
:1025300003FE40EA0E0021FA02F11444C1E600BF96
:1025400070B54FF0FF0C4CF4E06C1CEA11541DBF49
:102550001CEA135594EA0C0F95EA0C0F00F0DEF814
:102560002C4481EA030621EA4C5123EA4C5350EAF9
:10257000013518BF52EA033541F4801143F480134A
:1025800038D0A0FB02CE4FF00005E1FB02E506F0DB
:102590000042E0FB03E54FF00006E1FB03569CF030
:1025A000000F18BF4EF0010EA4F1FF04B6F5007F36
:1025B00064F5407404D25FEA4E0E6D4146EB0606A8
:1025C00042EAC62141EA55514FEAC52040EA5E5031
:1025D0004FEACE2EB4F1FD0C88BFBCF5E06F1ED8DB
:1025E000BEF1004F08BF5FEA500E50F1000041EB12
:1025F000045170BD06F0004646EA010140EA0200BF
:1026000081EA0301B4EB5C04C2BFD4EB0C0541EAE0
:10261000045170BD41F480114FF0000E013C00F3F5
:10262000AB8014F1360FDEBF002001F0004170BD19
:10263000C4F10004203C35DA0C341BDC04F1140432
:10264000C4F1200500FA05F320FA04F001FA05F2BE
:1026500040EA020001F0004221F0004110EBD3708B
:1026600021FA04F642EB06015EEA430E08BF20EAB7
:10267000D37070BDC4F10C04C4F1200500FA04F35A
:1026800020FA05F001FA04F240EA020001F00041EC
:1026900010EBD37041F100015EEA430E08BF20EA5F
:1026A000D37070BDC4F1200500FA05F24EEA020EA7
:1026B00020FA04F301FA05F243EA020321FA04F0D6
:1026C00001F0004121FA04F220EA020000EBD3708D
:1026D0005EEA430E08BF20EAD37070BD94F0000F8D
:1026E0000FD101F00046400041EB010111F4801FC1
:1026F00008BF013CF7D041EA060195F0000F18BF72
:10270000704703F00046520043EB030313F4801FAD
:1027100008BF013DF7D043EA0603704794EA0C0F67
:102720000CEA135518BF95EA0C0F0CD050EA41067D
:1027300018BF52EA4306D1D181EA030101F00041FA
:102740004FF0000070BD50EA410606BF1046194622
:1027500052EA430619D094EA0C0F02D150EA01362E
:1027600013D195EA0C0F05D152EA03361CBF10466F
:1027700019460AD181EA030101F0004141F0FE410E
:1027800041F470014FF0000070BD41F0FE4141F492
:10279000780170BD70B54FF0FF0C4CF4E06C1CEA92
:1027A00011541DBF1CEA135594EA0C0F95EA0C0F47
:1027B00000F0A7F8A4EB050481EA030E52EA033502
:1027C0004FEA013100F088804FEA03334FF0805523
:1027D00045EA131343EA12634FEA022245EA111550
:1027E00045EA10654FEA00260EF000419D4208BF01
:1027F000964244F1FD0404F5407402D25B084FEAAE
:102800003202B61A65EB03055B084FEA32024FF459
:1028100080104FF4002CB6EB020E75EB030E22BFB6
:10282000B61A754640EA0C005B084FEA3202B6EB76
:10283000020E75EB030E22BFB61A754640EA5C0025
:102840005B084FEA3202B6EB020E75EB030E22BFB5
:10285000B61A754640EA9C005B084FEA3202B6EBB6
:10286000020E75EB030E22BFB61A754640EADC0075
:1028700055EA060E18D04FEA051545EA16754FEAD7
:1028800006164FEAC30343EA52734FEAC2025FEAF5
:102890001C1CC0D111F4801F0BD141EA00014FF084
:1028A00000004FF0004CB6E711F4801F04BF014355
:1028B0000020B4F1FD0C88BFBCF5E06F3FF6AFAE71
:1028C000B5EB030C04BFB6EB020C5FEA500C50F101
:1028D000000041EB045170BD0EF0004E4EEA113184
:1028E00014EB5C04C2BFD4EB0C0541EA045170BD8B
:1028F00041F480114FF0000E013C90E645EA060ECF
:102900008DE60CEA135594EA0C0F08BF95EA0C0FFC
:102910003FF43BAF94EA0C0F0AD150EA01347FF444
:1029200034AF95EA0C0F7FF425AF104619462CE71B
:1029300095EA0C0F06D152EA03353FF4FDAE10467E
:10294000194622E750EA410618BF52EA43067FF4CF
:10295000C5AE50EA41047FF40DAF52EA43057FF45F
:10296000EBAE12E74A0011D212F5001211D20DD5CA
:102970006FF47873B3EB62520ED44FEAC12343F085
:10298000004343EA505323FA02F070474FF000002F
:10299000704750EA013002D14FF0FF3070474FF0DE
:1029A000000070474FEA4102B2F1E04324BFB3F5A3
:1029B000001CDCF1FE5C0DD901F0004C4FEAC002B6
:1029C0004CEA5070B2F1004F40EB830008BF20F09A
:1029D0000100704711F0804F21D113F13872BCBF54
:1029E00001F00040704741F480114FEA5252C2F1A9
:1029F0001802C2F1200C10FA0CF320FA02F018BFF2
:102A000040F001004FEAC1234FEAD32303FA0CFC44
:102A100040EA0C0023FA02F34FEA4303CCE77FEAD3
:102A2000625307D150EA01331EBF4FF0FE4040F41D
:102A30004000704701F0004040F0FE4040F40000CC
:102A4000704700BF70B50D4E0D4CA41BA41000259F
:102A5000A54209D10B4E0C4C00F034FEA41BA4106F
:102A60000025A54205D170BD56F82530984701359F
:102A7000EEE756F8253098470135F2E7D0360000EA
:102A8000D0360000D0360000D43600000EB400B5B9
:102A90009CB04FF402711DABADF81410029006907B
:102AA0006FF000410A48049107914FF6FF7153F807
:102AB000042BADF816100068019302A900F0C4F8C9
:102AC000029B00221A701CB05DF804EB03B0704743
:102AD0005000002070B5CD1C25F0030508350C2DE5
:102AE00038BF0C25002D064601DBA94203D90C2373
:102AF0003360002070BD00F0B8FB234A1468214603
:102B000091B9224C23681BB9304600F027FB2060A6
:102B10002946304600F022FB431C26D10C233360AB
:102B2000304600F0A3FBE4E70B685B1B1AD40B2BC9
:102B30000FD90B60CD50CC18304600F097FB04F154
:102B40000B00231D20F00700C31A1BD05A42E2508D
:102B500070BD8C420DBF63684B686360136018BF23
:102B60000C46E9E70C464968CAE7C41C24F0030494
:102B7000A04205D0211A304600F0F0FA0130CDD045
:102B80002560D9E770BD00BF780100207C010020DE
:102B90002DE9F0478E689E4282460C469146984643
:102BA00035D88A8912F4906F31D0256809696F1A77
:102BB0006569022305EB450595FBF3F508F1010373
:102BC0003B449D4238BF1D46530531D52946FFF78A
:102BD00081FF064650B90C23CAF80030A38943F0A0
:102BE0004003A3814FF0FF30BDE8F0873A462169EA
:102BF00000F016FBA38923F4906343F08003A381C4
:102C0000266165613E44ED1B2660A560464646454B
:102C100028BF464632464946206800F00CFBA368B0
:102C20009B1BA36023681E4426600020BDE8F0873C
:102C30002A4600F06BFB06460028E1D12169504688
:102C400000F016FBC7E700002DE9F04F9DB080466D
:102C500003938B891C060D4616460FD50B696BB97D
:102C60004021FFF737FF2860286128B90C23C8F8F6
:102C700000304FF0FF30C5E040236B610023099323
:102C800020238DF8293030238DF82A304FF0010BA6
:102C900037463C4614F8013B002B3CD1B7EB060A03
:102CA0000BD05346324629464046FFF771FF0130AC
:102CB00000F0A380099B534409933B78002B00F05C
:102CC0009C8000234FF0FF320493079305920693F4
:102CD0008DF853301A9305222178504800F050FAAD
:102CE000671C049BD8B9D90644BF20228DF8532015
:102CF0001A0744BF2B228DF8532022782A2A16D097
:102D0000079A00210A20274601343B78303B092BE3
:102D100051D9C9B111E0252BC0D02746B9E73F4AA8
:102D2000801A0BFA00F0184304903C46D3E7039A4C
:102D3000111D12680391002A01DB079204E0524240
:102D400043F00203079204933B782E2B0ED17B783D
:102D50002A2B07F1010132D1039B1A1D1B68039234
:102D6000002BB8BF4FF0FF33023705932C4C397856
:102D70000322204600F004FA38B14023001B03FA76
:102D800000F0049B034304930137397825488DF8FC
:102D9000281006227E1C00F0F3F9002835D0224BC3
:102DA000FBB9039B073323F0070308330393099B05
:102DB0004B4409936CE700FB02320121A3E7002397
:102DC000059318460A240F4601313A78303A092A09
:102DD00003D9002BCAD00590C8E704FB00200123CB
:102DE000F1E703AB00932A46104B04A94046AFF32A
:102DF0000080B0F1FF3F8146D9D1AB895B063FF53A
:102E000038AF09981DB0BDE8F08F03AB00932A4698
:102E1000064B04A9404600F081F8EAE7903600002E
:102E2000963600009A36000000000000912B00004A
:102E30002DE9F04791461F468A680B69DDF820802E
:102E40009342B8BF1346C9F8003091F843200646B4
:102E50000C4612B10133C9F800302368990642BF0D
:102E6000D9F800300233C9F80030256815F006059E
:102E700007D104F1190AE368D9F800209B1A9D4292
:102E800029DB94F843302268003318BF01239206EF
:102E90002ED404F1430239463046C047013021D0D8
:102EA0002368E568D9F8002003F00603042B08BF67
:102EB000AD1AA36822690CBF25EAE5750025934287
:102EC000C4BF9B1AED184FF000091A344D451BD1B1
:102ED0000020BDE8F0870123524639463046C047FE
:102EE000013003D14FF0FF30BDE8F0870135C2E774
:102EF000E1185A1C302081F84300224494F8451010
:102F000082F843100233C4E7012322463946304693
:102F1000C0470130E6D009F10109D7E72DE9F043B8
:102F200017460A7E85B06E2A984606460C460C9BCC
:102F300001F1430E00F0BC801AD8632A2ED00AD8C3
:102F4000002A00F0C880582A00F08A8004F1420567
:102F500084F842202AE0642A01D0692AF6D1216847
:102F60001A6811F0800F23D0111D1960136827E033
:102F7000732A00F0B48008D86F2A2AD0702AE5D1CD
:102F80000A6842F020020A6003E0752A21D0782AFC
:102F9000DCD1782284F845206E4964E01A6801F19A
:102FA0004205111D1960136884F842300123A3E023
:102FB00011F0400F02F104011960D7D0B2F90030CE
:102FC000002B03DA2D225B4284F8432062490A2257
:102FD00017E02068196810F0800F03D0081D1860F2
:102FE0000B6806E010F0400F01F104001860F7D004
:102FF0000B8859496F2A14BF0A220822002084F83E
:1030000043006568A560002DC0F29C80206820F018
:1030100004002060002B3FD1002D40F095807546C4
:10302000082A0BD12368DA0708D5236962689A4217
:10303000DEBF302305F8013C05F1FF35AEEB05039B
:103040002361CDF800803B4603AA21463046FFF7B6
:10305000EFFE013055D14FF0FF3005B0BDE8F083F1
:1030600081F845203C492268186812F0800F00F171
:1030700004051D6001D0036802E05506FBD50388F6
:10308000D00744BF42F0200222601BB9226822F020
:10309000200222601022B1E77546B3FBF2F002FB7A
:1030A0001033CB5C05F8013D03460028F5D1B7E7A6
:1030B00008681A68496910F0800F04D0101D186064
:1030C0001368196007E010F0400F02F10400186067
:1030D0001368F6D01980002323617546B1E71A689A
:1030E000111D1960156862680021284600F048F833
:1030F00008B1401B606063682361002384F843309B
:103100009FE723692A4639463046C0470130A2D09E
:1031100023689B0707D5002504F11909E368039A82
:103120009B1A9D4205DBE068039B9842B8BF184696
:1031300093E701234A4639463046C04701308AD0DA
:103140000135EBE7002BA7D10B7884F8423004F16E
:10315000420565E7B2360000A136000038B5064CDE
:103160000023054608462360FDF762FE431C02D19A
:10317000236803B12B6038BD7002002000000000FE
:1031800001F0FF01102A2BDB10F0070F08D010F818
:10319000013B013A8B422DD010F0070F42B3F6D11C
:1031A000F0B441EA012141EA014122F007047FF035
:1031B00000070023F0E80256083C85EA010586EA8C
:1031C000010685FA47F5A3FA87F586FA47F6A5FAC8
:1031D00087F68EB9EED1F0BC01F0FF0102F00702D4
:1031E00032B110F8013B013A83EA010313B1F8D17F
:1031F0000020704701387047002D06BF3546033860
:10320000073815F0010F07D1013015F4807F02BF98
:10321000013015F4C03F0130F0BC0138704700BFE9
:1032200010B5431E0A44914200D110BD11F8014B64
:1032300003F8014FF7E7884210B501EB020303D80A
:10324000421E99420CD110BD9842F9D28118D21A6F
:10325000D34200D110BD13F8014D01F8014DF7E73D
:1032600011F8014B02F8014FEBE77047704700007F
:1032700038B50546002945D051F8043C0C1F002BF9
:10328000B8BFE418FFF7F1FF1F4A1368104633B9BF
:10329000636014602846BDE83840FFF7E7BFA342EB
:1032A0000CD921686218934204BF1A685B68636096
:1032B00004BF521822600460ECE713465A680AB152
:1032C000A242FAD919685818A0420BD120680144CB
:1032D000581882421960DDD1106852685A60014462
:1032E0001960D7E702D90C232B60D3E72068211897
:1032F0008A4204BF11685268626004BF09182160E5
:103300005C60C7E738BD00BF78010020F8B507460C
:1033100014460E4621B91146BDE8F840FFF7DABB66
:1033200022B9FFF7A5FF25462846F8BD00F014F89E
:1033300084420FD921463846FFF7CCFB05460028CA
:10334000F2D031462246FFF76BFF31463846FFF791
:103350008FFFE9E73546E7E751F8040C0028A0F1B4
:103360000400BCBF0B58C018704700002E2E2F68F9
:10337000616C2F7372632F68616C5F696F2E6300DD
:103380002E2E2F68616C2F7372632F68616C5F70D3
:10339000776D2E63000000002E2E2F68616C2F7356
:1033A00072632F68616C5F74696D65722E630000D3
:1033B0002E2E2F68616C2F7372632F68616C5F759E
:1033C000736172745F6173796E632E630000000035
:1033D0002E2E2F68616C2F7574696C732F73726356
:1033E0002F7574696C735F6C6973742E63000000D1
:1033F0002E2E2F68616C2F7574696C732F73726336
:103400002F7574696C735F72696E67627566666545
:10341000722E630000000000200000002E2E2F6896
:10342000706C2F6569632F68706C5F6569632E63CC
:10343000000000000000000000000000000000008C
:10344000000000000000000000000000000000007C
:10345000000000000000000000000000000000006C
:10346000010000000000000000000000000000005B
:103470000000000000000000120200000000000038
:10348000000000000000000000000000000000003C
:10349000000000000000000000000000000000002C
:1034A000000000000000000000000000000000001C
:1034B000000000000000000000000000000000000C
:1034C00000000000000000000000000000000000FC
:1034D00000000000000000000000000000000000EC
:1034E00000000000000000000000000000000000DC
:1034F00000000000000000000000000000000000CC
:1035000000000000000000000000000000000000BB
:1035100000000000000000000000000000000000AB
:10352000000000000000000000000000000000009B
:1035300000000000000000000030004000340040A7
:10354000002001410040014100000043000400430D
:1035500000080043000C004302000000040010407B
:103560000000030002007000B9FC00000000000031
:10357000000000000000000000000000000000004B
:10358000000000000000000000000000000000003B
:10359000000000000000000000000000000000002B
:1035A0000000000000000000000000002E2E2F6828
:1035B000706C2F736572636F6D2F68706C5F7365CD
:1035C00072636F6D2E63000000380040003C0040C5
:1035D00000A0014100C00141001400420018004257
:1035E00000140043001800432E2E2F68706C2F74B7
:1035F000632F68706C5F74632E630000706F736973
:1036000074696F6E203D202564207C207370656591
:1036100064203D20256C752052504D207C2064692B
:1036200072656374696F6E203D2025640A00000096
:10363000000000000000000000000000000000008A
:10364000000000000000000000000000000000007A
:10365000000000000000000000000000000000006A
:10366000000000000000000000000000000000005A
:10367000000000000000000000000000000000004A
:10368000000000000000000000000000000000003A
:10369000232D302B2000686C4C006566674546473B
:1036A00000303132333435363738394142434445BE
:1036B000460030313233343536373839616263642D
:1036C00065660000F8B500BFF8BC08BC9E467047B0
:1036D00089020000F8B500BFF8BC08BC9E467047E0
:0436E000650200007F
:1036E40001006C000803000000000000DC0500007D
:1036F4000000000002006D0008030000000000004C
:10370400960000000000000004006F0000000000AC
:1037140000000032DF2E00006F17000001000000DF
:10372400CDCC4C3E0AD7233C8FC2753C6F12033B71
:1037340054000020000000005036000070360000E5
:10374400303600000000000000000000000000000F
:103754000000000000000000000000000000000065
:103764000000000000000000000000000000000055
:103774000000000000000000000000000000000045
:103784000000000000000000000000000000000035
:043794000000000031
:00000001FF
