S018000042727573686564204443206D6F746F722E7372656347
S113000080000120E10200007D0300007D03000068
S11300107D0300007D0300007D030000000000005C
S11300200000000000000000000000007D0300004C
S11300307D030000000000007D0300007D0300003C
S11300407D0300007D0300007D0300007D030000AC
S11300507D0300007D0300007D0300007D0300009C
S11300607D0300007D0300007D0300007D0300008C
S11300707D0300007D0300007D0300007D0300007C
S11300807D0300007D0300007D0300007D0300006C
S11300907D0300007D0300007D0300007D0300005C
S11300A07D0300007D0300007D0300007D0300004C
S11300B07D0300007D0300007D0300007D0300003C
S11300C07D0300007D0300007D0300007D0300002C
S11300D07D0300007D0300007D0300007D0300001C
S11300E07D0300007D03000000000000000000000C
S11300F000000000AD1000007D0300007D0300003F
S11301007D0300007D0300007D0300007D030000EB
S11301107D0300007D0300007D0300007D030000DB
S11301207D0300007D0300007D0300007D030000CB
S11301307D0300007D0300007D0300007D030000BB
S11301407D0300007D0300007D0300007D030000AB
S11301507D0300007D0300007D0300007D0300009B
S11301607D0300007D0300007D0300007D0300008B
S11301707D0300007D0300007D0300007D0300007B
S11301807D0300007D0300007D0300007D0300006B
S11301907D0300007D030000151A00007D030000AC
S11301A07D0300007D0300007D0300007D0300004B
S11301B07D0300007D0300007D0300007D0300003B
S11301C07D0300007D0300007D0300007D0300002B
S11301D07D0300007D0300007D0300007D0300001B
S11301E07D0300007D0300007D0300007D0300000B
S11301F07D0300007D0300007D0300007D030000FB
S11302007D0300007D0300007D0300007D030000EA
S11302107D0300007D0300007D0300007D030000DA
S11302207D0300007D0300007D0300007D030000CA
S11302307D0300007D0300007D0300007D030000BA
S11302407D0300007D0300007D0300007D030000AA
S11302507D0300007D0300007D0300007D0300009A
S11302607D03000010B5054C237833B9044B13B15A
S11302700448AFF300800123237010BD1800002050
S113028000000000E82100000C4B43B10C480D496C
S113029010B5AFF300800C48036823B910BD0A48B9
S11302A0036833B97047094B002BF7D0BDE8104001
S11302B01847064B002BF5D0184700BF000000007C
S11302C0E82100001C000020E821000000000000DC
S11302D080B500AF014B984700BF80BD5D0A0000A8
S11302E080B582B000AF1C4B7B601C4B3B607A68CE
S11302F03B689A420CD007E03B681A1D3A607A6862
S1130300111D796012681A603B68154A9342F3D351
S1130310144B3B6004E03B681A1D3A6000221A60EB
S11303203B68114A9342F6D3104B7B60104A7B68BA
S113033023F07F0393600E4A0D4BD3F8883043F4C7
S11303407003C2F88830BFF34F8FBFF36F8F094B30
S11303509847094B9847FEE7E82100000000002079
S113036018000020180000207C000020000000007D
S113037000ED00E0F9200000A118000080B400AFF7
S1130380FEE780B485B000AFF8600B467A60FB727C
S1130390FA7AFB682032796843F8221000BF1437D8
S11303A0BD465DF8047B704780B483B000AF7860CD
S11303B07B689B6943F400727B689A6100BF0C37C9
S11303C0BD465DF8047B704780B483B000AF7860AD
S11303D07B689B6943F400627B689A6100BF0C37B9
S11303E0BD465DF8047B704780B485B000AFF8600B
S11303F00B467A60FB72FB7AFA68DB01134408331C
S11304007A681A6000BF1437BD465DF8047B7047F4
S113041080B485B000AFF8600B467A60FB72FB7A5B
S1130420FA68DB01134404337A681A6000BF143796
S1130430BD465DF8047B704780B485B000AFF860BA
S11304400B467A60FB72FB7AFA68DB0113441833BB
S11304507A681A6000BF1437BD465DF8047B7047A4
S113046080B485B000AFF8600B467A60FB72FB7A0B
S1130470FA68DB01134414337A681A6000BF143736
S1130480BD465DF8047B704780B485B000AF7860EA
S1130490084611461A460346FB700B46BB701346CA
S11304A07B70FA78BB787968D2010A4413443033FC
S11304B01B78FB73FB7B23F00F03FB737B7803F048
S11304C00F03DAB2FB7B1343FB73FA78BB787968CA
S11304D0D2010A4413443033FA7B1A7000BF143734
S11304E0BD465DF8047B704780B485B000AF78608A
S11304F0084611461A460346FB700B46BB7013466A
S11305007B70FA78BB787968D2010A44134430339B
S11305101B78FB73FB7B03F00F03FB737B781B01DE
S1130520DAB2FB7B1343FB73FA78BB787968D201A8
S11305300A4413443033FA7B1A7000BF1437BD46A3
S11305405DF8047B704780B485B000AF78600846DE
S113055011461A460346FB700B46BB7013467B706C
S1130560FA78BB787968D2010A44134440331B7883
S1130570FB73FB7B23F00103FB737A78FB7B134350
S1130580FB73FA78BB787968D2010A441344403388
S1130590FA7B1A7000BF1437BD465DF8047B7047C0
S11305A090B482B000AF78600B46FB701346BB700A
S11305B0FA78BB78F878B9787C68C00120440144A3
S11305C040310978C9B241F00401C8B27968D20156
S11305D00A441344403302461A7000BF0837BD462C
S11305E090BC704790B482B000AF78600B46FB704B
S11305F01346BB70FA78BB78F878B9787C68C00188
S11306002044014440310978C9B221F00401C8B240
S11306107968D2010A441344403302461A7000BF79
S11306200837BD4690BC704780B485B000AFF86011
S11306300B467A60FB72FB7AFA68DB0113442833B9
S11306407A681A6000BF1437BD465DF8047B7047B2
S113065080B582B000AF03463960FB711346BB71AD
S1130660BB79012B1CD0022B37D0002B4ED1FB7948
S11306703A6819462A482B4B98473B689BB243F08B
S11306808042FB7919462648274B98473B681B0C48
S113069043F04042FB7919462148234B98473AE0FE
S11306A0FB793A6819461E481E4B98473B689BB233
S11306B043F0804343F40033F9791A4618481A4B3F
S11306C098473B681B0C43F0404343F40033F979EB
S11306D01A461348144B98471DE0FB793A681946AB
S11306E00F48124B98473B689BB243F08042FB791A
S11306F019460B480C4B98473B681B0C43F040428F
S1130700FB7919460648084B984704E046220849F5
S11307100020084B984700BF0837BD4680BD00BF86
S1130720008000411104000029060000E9030000D4
S113073040210000BD0D000080B582B000AF03462B
S11307403960FB711346BB71BB79002B06D0FB7972
S11307503A6819460648074B984705E0FB793A681A
S113076019460348044B984700BF0837BD4680BD6F
S113077000800041390400006104000080B582B0AB
S113078000AF0346FB710B46BB7113467B717B794B
S1130790012B0AD0022B1FD0002B34D1BA79FB795C
S11307A019461E481E4B984733E0BB7901229A40F4
S11307B0FB79194619481B4B9847BA79FB791946B6
S11307C01648194B9847BB7901229A40FB79194680
S11307D01248164B98471CE0BB7901229A40FB79DA
S11307E019460E480F4B9847BA79FB7919460B48BE
S11307F00D4B9847BB7901229A40FB79194607486B
S11308000B4B984705E089220A4900200A4B984778
S113081000BF00BF0837BD4680BD00BF0080004157
S1130820E505000011040000A105000039040000E2
S11308306104000040210000BD0D000090B585B0AA
S113084000AF786039607B685B09FB737B68DBB25F
S113085003F01F03BB733B68B3F1FF3F06D1BA7BC0
S1130860F97B00231248134CA0471DE0BA7BF97BA7
S113087001230F480F4CA047BB7B03F00103002B5F
S113088009D0BB7B5B08DAB23B68DBB2F97B084872
S1130890094CA04708E0BB7B5B08DAB23B68DBB2DB
S11308A0F97B0348054CA04700BF1437BD4690BDF3
S11308B00080004147050000E904000089040000AD
S11308C080B582B000AF03460A46FB711346BB7184
S11308D0FB795B09D8B2FB7903F01F03DBB2BA7969
S11308E01946034B984700BF0837BD4680BD00BF7B
S11308F07D07000080B582B000AF78603960396848
S11309007868034B984700BF0837BD4680BD00BFD9
S11309103D08000080B582B000AF03460A46FB7173
S11309201346BB71FB795B09D8B2FB7903F01F0353
S1130930012202FA03F3BA791946034B984700BF20
S11309400837BD4680BD00BF5106000080B582B0A7
S113095000AF03460A46FB711346BB71FB795B0982
S1130960D8B2FB7903F01F03012202FA03F3BA7928
S11309701946034B984700BF0837BD4680BD00BFEA
S11309803907000080B500AF014B984700BF80BD18
S1130990190E000080B500AF04493920044B984774
S11309A004493820024B984700BF80BD030039003A
S11309B0F50800000300380080B500AF402217217D
S11309C00648074B9847432203210448044B9847A1
S11309D00448054B984700BF80BD00BF001C004081
S11309E08303000000080040A903000080B500AFA5
S11309F0054B9847002205490548064B9847064B86
S1130A00984700BF80BD00BFB90900000020014124
S1130A10580000206D0B00009509000080B500AF60
S1130A2002494A20024B984700BF80BD05004A0096
S1130A30F508000080B500AF0448054B98474022F4
S1130A4019210448044B984700BF80BD00080040AA
S1130A50C9030000001C00408303000080B500AF00
S1130A60394B984701212120384B984702212120F6
S1130A70374B98474FF0FF312120364B98470021E0
S1130A802420324B984702212420314B98474FF0C1
S1130A90FF3124202F4B9847012125202C4B9847C8
S1130AA0012125202C4B98474FF0FF312520294B5D
S1130AB0984701212620264B984701212620264BC2
S1130AC098474FF0FF312620224B984701212E20D2
S1130AD01F4B984701212E201F4B98474FF0FF31A1
S1130AE02E201C4B984701212F20194B9847012198
S1130AF02F20194B98474FF0FF312F20154B984763
S1130B0001213F20124B984701213F20124B984767
S1130B104FF0FF313F200F4B9847002152200B4BE1
S1130B209847022152200A4B98474FF0FF31522038
S1130B30084B9847094B9847094B9847094B9847E6
S1130B40094B984700BF80BD850900004D0900008E
S1130B5015090000F5080000C1080000ED090000B7
S1130B60350A00001D0A00001D18000080B586B07B
S1130B7000AFF860B9607A60FB68002B04D0BB68F2
S1130B80002B01D0012300E0002303F00103DBB2BA
S1130B9034220D4918460D4B9847FB680833B96851
S1130BA018460B4B984778617B69002B01D07B6911
S1130BB006E0FB68074A5A60FB68074A1A6000238C
S1130BC018461837BD4680BD5C210000BD0D0000ED
S1130BD05D130000290D0000610C000080B582B097
S1130BE000AF78607B68002B14BF01230023DBB2C5
S1130BF0532207491846074B98477B680833184621
S1130C00054B9847002318460837BD4680BD00BFF2
S1130C105C210000BD0D0000A113000080B582B06E
S1130C2000AF786039607B68002B04D03B68002BF0
S1130C3001D0012300E0002303F00103DBB26922A9
S1130C4005491846054B98477A683B681A600023A3
S1130C5018460837BD4680BD5C210000BD0D00006C
S1130C6080B586B000AFF860B9601346FB800023FE
S1130C707B61FB683B61FB68002B07D0BB68002BE2
S1130C8004D0FB88002B01D0012300E0002303F0F3
S1130C900103DBB2F1221F4918461F4B984700BFDE
S1130CA03B69083318461D4B9847034683F00103FC
S1130CB0DBB2002BF4D13B6903F10800BA687B690D
S1130CC013441B781946164B984700BF3B690833F9
S1130CD01846124B9847034683F00103DBB2002BFE
S1130CE0F4D17B6901337B61FB887A699A42E2D350
S1130CF000BF3B69083318460A4B9847034683F004
S1130D000103DBB2002BF4D17B6918461837BD46CA
S1130D1080BD00BF5C210000BD0D00000D1400006B
S1130D20C11300002D14000090B587B000AFF86027
S1130D30B9601346FB8000237B61FB683B61FB6861
S1130D40002B07D0BB68002B04D0FB88002B01D0FC
S1130D50012300E0002303F00103DBB24FF48672A9
S1130D6012491846124B984700BF3B69083318468E
S1130D70104B9847034683F00103DBB2002BF4D1F8
S1130D80BA687B69D4183B69083318460A4B9847FC
S1130D90034623707B6901337B61FB887A699A423D
S1130DA0E2D37B6918461C37BD4690BD5C21000028
S1130DB0BD0D00004D140000E913000080B485B09F
S1130DC000AF0346B9607A60FB73FB7B83F00103D9
S1130DD0DBB2002B00D000BE00BF1437BD465DF867
S1130DE0047B704780B483B000AF78600B467B808F
S1130DF07B681B889AB27B881B029BB203F47063E6
S1130E009BB213439AB27B681A8000BF0C37BD466D
S1130E105DF8047B7047000080B500AF00210848EE
S1130E20084B9847084B9847084B9847084B9847F6
S1130E30084B984740F6FF70074B984700BF80BDAA
S1130E4000400041E50D0000850F00001D1000006A
S1130E50010F00005D100000B10E000080B483B0EB
S1130E6000AF7860396000BF7B685A683B68134004
S1130E70002BF9D100BF0C37BD465DF8047B7047E9
S1130E8080B584B000AFF8600B467A60FB72FA7AE2
S1130E90FB680832796843F8221043F6FD71F8685C
S1130EA0024B984700BF1037BD4680BD5D0E000061
S1130EB080B582B000AF78607B6803F00103002B3B
S1130EC004D0044A00210448044B984700BF083763
S1130ED0BD4680BD01010100001C0040810E0000E0
S1130EE080B483B000AF78600B46FB707B68FA78FF
S1130EF05A7100BF0C37BD465DF8047B7047000093
S1130F0080B582B000AF054B7B6001217868044B4B
S1130F10984700BF0837BD4680BD00BF00080040A9
S1130F20E10E000080B483B000AF78600B46FB7024
S1130F307B68FA781A7400BF0C37BD465DF8047BF1
S1130F40704780B485B000AF78607B68DB69FB6074
S1130F50FB681B0A03F03F03FB60FB681846143769
S1130F60BD465DF8047B704780B483B000AF786001
S1130F7039607B683A68DA6100BF0C37BD465DF8BA
S1130F80047B704780B582B000AF0C4B7B600023BC
S1130F907B8078680A4B984703467B807B881B02DA
S1130FA003F47C5319467868064B98470121786806
S1130FB0054B984700BF0837BD4680BD001400406C
S1130FC0430F0000690F0000250F000080B483B0B8
S1130FD000AF78607B681B695B0803F00103002B9A
S1130FE014BF01230023DBB218460C37BD465DF85D
S1130FF0047B704780B485B000AFF8600B467A601C
S1131000FB72FB7AFA6804339B0013447A685A60D3
S113101000BF1437BD465DF8047B704780B582B0CD
S113102000AF0A4B7B600A4A01217868094B984754
S113103000BF7868084B9847034683F00103DBB28E
S1131040002BF6D100BF0837BD4680BD001000401C
S113105006260003F50F0000CD0F000080B483B016
S113106000AF044B7B6000BF0C37BD465DF8047BCA
S1131070704700BF0010004080B483B000AF7860B8
S11310807B689B78DBB218460C37BD465DF8047B61
S1131090704780B483B000AF78607B685B681846A3
S11310A00C37BD465DF8047B7047000090B583B0F3
S11310B000AF174B7B601748174B984703463B60BC
S11310C03B6803F00203002B0CD07B681B68002BE9
S11310D008D07B681C680F48104B98470346184695
S11310E0A04712E03B6803F00103002B0CD07B689F
S11310F05B68002B08D07B685C680648074B984700
S113110003461846A04700E000BF0C37BD4690BD1B
S113111064000020000002417910000093100000D8
S113112080B483B000AF7860396000BF7B68DA694F
S11311303B681340002BF9D100BF0C37BD465DF866
S1131140047B704780B483B000AF786039607B68FB
S1131150DA693B681340002B14BF01230023DBB280
S113116018460C37BD465DF8047B704780B483B0E5
S113117000AF78607B681B7EDBB203F00103002BB9
S113118014BF01230023DBB218460C37BD465DF8BB
S1131190047B704780B483B000AF78607B681B7EAB
S11311A0DBB25B0803F00103002B14BF012300230F
S11311B0DBB218460C37BD465DF8047B704780B43B
S11311C083B000AF78607B681B7EDBB29B0803F0C2
S11311D00103002B14BF01230023DBB218460C3794
S11311E0BD465DF8047B704780B582B000AF78607F
S11311F07B681B6843F002027B681A6003217868ED
S1131200024B984700BF0837BD4680BD211100003E
S113121080B582B000AF78607B681B6823F002025F
S11312207B681A6003217868024B984700BF08372F
S1131230BD4680BD2111000080B584B000AF786048
S1131240396003217868074B98477B681B68FB600B
S1131250FA683B681340FB60FB6818461037BD46CC
S113126080BD00BF2111000080B582B000AF78605E
S113127039607B683A681A6003217868024B9847A2
S113128000BF0837BD4680BD2111000080B582B083
S113129000AF786039607B683A685A601F217868CB
S11312A0024B984700BF0837BD4680BD211100009E
S11312B080B483B000AF786039607B683A689A6024
S11312C000BF0C37BD465DF8047B704780B483B023
S11312D000AF78600B467B807B687A889A8100BF78
S11312E00C37BD465DF8047B704780B483B000AF13
S11312F078600B46FB707B68FA789A7300BF0C37F2
S1131300BD465DF8047B704780B483B000AF78605D
S113131039607B683A689A6200BF0C37BD465DF855
S1131320047B704780B483B000AF78607B689B6AAD
S113133018460C37BD465DF8047B704780B483B013
S113134000AF78600B46FB707B68FA7883F8302036
S113135000BF0C37BD465DF8047B704780B582B092
S113136000AF786039607B68002B14BF0123002331
S1131370DBB2BB2207491846074B98477B683A689B
S11313801A603868054B9847034618460837BD4627
S113139080BD00BF78210000BD0D00002D150000A8
S11313A080B582B000AF78607B681B681846034B39
S11313B0984700BF0837BD4680BD00BFE911000053
S11313C080B582B000AF78600B46FB707B681B6809
S11313D0FA7811461846034B984700BF0837BD46B4
S11313E080BD00BF0913000080B582B000AF7860F3
S11313F07B681B681846044B98470346DBB21846C3
S11314000837BD4680BD00BF2513000080B582B0FB
S113141000AF78607B681B681846034B9847034607
S113142018460837BD4680BD6D11000080B582B0F6
S113143000AF78607B681B681846034B98470346E7
S113144018460837BD4680BD9511000080B582B0AE
S113145000AF78607B681B681846034B98470346C7
S113146018460837BD4680BDBF110000B0B48DB02A
S113147000AF7860134B07F10C041D460FCD0FC469
S113148095E80F0084E80F000023FB6210E0FB6A7C
S11314909B0007F13002134453F8243C1A467B683E
S11314A09A4202D1FB6ADBB206E0FB6A0133FB62BB
S11314B0FB6A072BEBD9002318463437BD46B0BC72
S11314C0704700BF9421000080B584B000AF7860FD
S11314D07868124B98470346BB730023FB730FE0F5
S11314E0FA7B0F4913465B001344DB000B441B7863
S11314F0BA7B9A4201D1FB7B0CE0FB7B0133FB738B
S1131500FB7B002BECD040F2472206490020064B1F
S11315109847002318461037BD4680BD6D1400005F
S11315200000002078210000BD0D000080B584B0CB
S113153000AF78607868614B98470346FB730121DC
S113154078685F4B9847034683F00103DBB2002BB6
S113155020D0FA7B5B4913465B001344DB000B4449
S113156004331B6803F01C03BB6002217868564BEC
S113157098470346002B06D07868544B98470221BD
S11315807868534B9847BB6843F001031946786861
S1131590504B9847012178684D4B9847FA7B49494D
S11315A013465B001344DB000B4404331B681946E9
S11315B07868484B9847FA7B424913465B001344CA
S11315C0DB000B4408331B6819467868424B984784
S11315D0FA7B3C4913465B001344DB000B440C3399
S11315E01B68194678683D4B9847FA7B3549134682
S11315F05B001344DB000B4404331B6803F4005307
S1131600002B0CD1FA7B2F4913465B001344DB00FB
S11316100B4404331B6803F4C043002B22D0FA7B31
S1131620284913465B001344DB000B4410331B882A
S1131630C3F30C0399B27A68938961F30C03938121
S1131640FA7B204913465B001344DB000B4412333E
S11316501B7803F00703D9B27A68938961F34F3397
S113166093810CE0FA7B174913465B001344DB00BB
S11316700B4410331B8819467868194B9847FA7B3A
S1131680104913465B001344DB000B4413331B78EF
S113169019467868134B9847FA7B0A4913465B004E
S11316A01344DB000B4414331B78194678680E4B43
S11316B09847002318461037BD4680BDC914000062
S11316C04511000000000020391200001112000032
S11316D021110000691200008D120000B1120000F7
S11316E0CD120000EB1200003D13000080B483B063
S11316F000AF7860396000BF7B689A683B6813402C
S1131700002BF9D100BF0C37BD465DF8047B704750
S113171080B483B000AF786039607B689A683B68B6
S11317201340002B14BF01230023DBB218460C37EF
S1131730BD465DF8047B704780B584B000AF786027
S11317400B46FB707B681B68FB60FB6823F002039D
S1131750FB60FB785B001A46FB681343FB607B6805
S1131760FA681A6003217868024B984700BF103763
S1131770BD4680BDED16000080B582B000AF786034
S11317807B681B6823F002027B681A600321786877
S1131790024B984700BF0837BD4680BDED160000D8
S11317A080B584B000AF7860396003217868074B56
S11317B098477B681B68FB60FA683B681340FB60D2
S11317C0FB6818461037BD4680BD00BFED1600000B
S11317D080B582B000AF786039607B683A681A607F
S11317E003217868024B984700BF0837BD4680BD87
S11317F0ED16000080B582B000AF786039607B6878
S11318003A68DA6343F6FF717868034B984700BF80
S11318100837BD4680BD00BFED16000080B500AF9F
S113182001211748174B9847034683F00103DBB2A5
S1131830002B11D002211248134B98470346002B6A
S113184006D00F48114B984702210D48104B98477A
S113185001210B480F4B9847012109480C4B98472D
S11318604FF4807106480B4B9847022104480A4BF9
S1131870984701210248094B98470023184680BD28
S11318800060014111170000A11700007917000042
S1131890ED160000D1170000F517000039170000FD
S11318A098B500AF0F4B98470F491048104B984715
S11318B00E48104B984740F21E510F480F4B984763
S11318C00F4B1B7818460F4B984703460C460E4A9D
S11318D0C2E90034002240F2333107480B4B9847E9
S11318E0EEE700BFD1020000740000205800002081
S11318F01D0C0000DD0B000000600141E91900002F
S1131900380000203D1A000040000020A919000002
S113191080B483B000AF7860396000BF7B689A6898
S11319203B681340002BF9D100BF0C37BD465DF86E
S1131930047B704780B483B000AF786039607B6803
S11319403A68DA6200BF0C37BD465DF8047B704725
S113195080B582B000AF786039607B683A681A64F9
S113196080217868024B984700BF0837BD4680BD88
S11319701119000080B584B000AFF8600B467A609E
S1131980FB72FB7AFA6810339B0013447A685A603E
S11319904FF47C51F868034B984700BF1037BD469D
S11319A080BD00BF1119000080B584B000AFF8609D
S11319B0B9601346FB71FB79BA681946F868084B9D
S11319C09847FB79012202FA03F31B0203F47C53C8
S11319D01946F868034B984700BF1037BD4680BDD1
S11319E0751900001119000080B582B000AF78604D
S11319F0396039687868054B984780217868044BCA
S1131A00984700BF0837BD4680BD00BF511900008C
S1131A101119000080B500AF4FF480310448054B24
S1131A209847054B1B680248984700BF80BD00BF1C
S1131A3000600141351900007800002090B583B0A2
S1131A4000AF0346FB71FB79302B15D0FB79312BAA
S1131A5012D0FB79322B0FD0FB79332B0CD0FB79CE
S1131A60342B09D0FB792B2B06D0FB792D2B03D0FB
S1131A70774B00221A6002E0FB79754A1360744BBD
S1131A801B68342B00F2B68001A252F823F000BF89
S1131A90E51B0000F51B0000F51B0000F51B000012
S1131AA0F51B0000F51B0000F51B0000F51B0000F2
S1131AB0F51B0000F51B0000F51B0000F51B0000E2
S1131AC0F51B0000F51B0000F51B0000F51B0000D2
S1131AD0F51B0000F51B0000F51B0000F51B0000C2
S1131AE0F51B0000F51B0000F51B0000F51B0000B2
S1131AF0F51B0000F51B0000F51B0000F51B0000A2
S1131B00F51B0000F51B0000F51B0000F51B000091
S1131B10F51B0000F51B0000F51B0000F51B000081
S1131B20F51B0000F51B0000F51B0000F51B000071
S1131B30F51B0000F51B0000F51B0000AD1B0000A9
S1131B40F51B0000C91B0000F51B0000F51B00007D
S1131B50651B0000751B0000831B0000911B000027
S1131B609F1B00003B4A4FF000034FF00004C2E902
S1131B7000343FE0374A4FF00003374CC2E90034E9
S1131B8038E0344A4FF00003344CC2E9003431E009
S1131B90304A4FF00003324CC2E900342AE02D4AA7
S1131BA04FF000032F4CC2E9003423E0294BD3E962
S1131BB000012D4C4FF00002274BA04703460C4672
S1131BC0244AC2E9003415E0224BD3E90001274C32
S1131BD04FF00002204BA04703460C461D4AC2E9C1
S1131BE0003407E01B4A4FF000034FF00004C2E941
S1131BF0003400BF174BD3E900011D4C4FF0000225
S1131C00184BA0470346002B06D0124A4FF000039E
S1131C10144CC2E9003412E00E4BD3E90001154C18
S1131C204FF000024FF00003A0470346002B06D0FC
S1131C30084A4FF000034FF00004C2E90034054B9A
S1131C40D3E90034184621460C37BD4690BD00BF89
S1131C5048000020500000200000D03F0000E03F7A
S1131C600000E83F0000F03F851C0000811C0000DC
S1131C70D1200000BD20000081F0004102E000BF3F
S1131C8083F0004330B54FEA41044FEA430594EA38
S1131C90050F08BF90EA020F1FBF54EA000C55EA73
S1131CA0020C7FEA645C7FEA655C00F0E2804FEA44
S1131CB05454D4EB5555B8BF6D420CDD2C4480EA26
S1131CC0020281EA030382EA000083EA010180EA56
S1131CD0020281EA0303362D88BF30BD11F0004FA4
S1131CE04FEA01314FF4801C4CEA113102D04042DA
S1131CF061EB410113F0004F4FEA03334CEA133315
S1131D0002D0524263EB430394EA050F00F0A7802C
S1131D10A4F10104D5F1200E0DDB02FA0EFC22FA27
S1131D2005F2801841F1000103FA0EF2801843FA1B
S1131D3005F359410EE0A5F120050EF1200E012A0C
S1131D4003FA0EFC28BF4CF0020C43FA05F3C0184A
S1131D5051EBE37101F0004507D54FF0000EDCF1C3
S1131D60000C7EEB00006EEB0101B1F5801F1BD36C
S1131D70B1F5001F0CD349085FEA30004FEA3C0C70
S1131D8004F101044FEA445212F5800F80F09A8066
S1131D90BCF1004F08BF5FEA500C50F1000041EB6A
S1131DA0045141EA050130BD5FEA4C0C404141EB6E
S1131DB0010111F4801FA4F10104E9D191F0000F95
S1131DC004BF01460020B1FA81F308BF2033A3F118
S1131DD00B03B3F120020CDA0C3208DD02F1140C0F
S1131DE0C2F10C0201FA0CF021FA02F10CE002F14A
S1131DF01402D8BFC2F1200C01FA02F120FA0CFC43
S1131E00DCBF41EA0C019040E41AA2BF01EB04518B
S1131E10294330BD6FEA04041F3C1CDA0C340EDC89
S1131E2004F11404C4F1200220FA04F001FA02F3CC
S1131E3040EA030021FA04F345EA030130BDC4F18A
S1131E400C04C4F1200220FA02F001FA04F340EA7F
S1131E500300294630BD21FA04F0294630BD94F030
S1131E60000F83F4801306BF81F480110134013D17
S1131E704EE77FEA645C18BF7FEA655C29D094EA88
S1131E80050F08BF90EA020F05D054EA000C04BF06
S1131E901946104630BD91EA030F1EBF00210020F1
S1131EA030BD5FEA545C05D14000494128BF41F090
S1131EB0004130BD14F580043CBF01F5801130BDF4
S1131EC001F0004545F0FE4141F470014FF000007F
S1131ED030BD7FEA645C1ABF194610467FEA655C30
S1131EE01CBF0B46024650EA013406BF52EA0335D2
S1131EF091EA030F41F4002130BD00BF90F0000FC0
S1131F0004BF0021704730B54FF4806404F13204FB
S1131F104FF000054FF0000150E700BF90F0000FB4
S1131F2004BF0021704730B54FF4806404F13204DB
S1131F3010F0004548BF40424FF000013EE700BFAB
S1131F4042004FEAE2014FEA31014FEA02701FBF3B
S1131F5012F07F4393F07F4F81F06051704792F00D
S1131F60000F14BF93F07F4F704730B54FF4607487
S1131F7001F0004521F0004120E700BF50EA0102D2
S1131F8008BF704730B54FF000050AE050EA01027F
S1131F9008BF704730B511F0004502D5404261EBEF
S1131FA041014FF4806404F132045FEA915C3FF430
S1131FB0DCAE4FF003025FEADC0C18BF03325FEAC9
S1131FC0DC0C18BF033202EBDC02C2F1200300FA7E
S1131FD003FC20FA02F001FA03FE40EA0E0021FAA3
S1131FE002F11444C1E600BF4FF0FF3C06E000BF1D
S1131FF04FF0010C02E000BF4FF0010C4DF804CD8E
S11320004FEA410C7FEA6C5C4FEA430C18BF7FEA4D
S11320106C5C1BD001B050EA410C0CBF52EA430C7B
S113202091EA030F02BF90EA020F0020704710F1FB
S1132030000F91EA030F58BF994208BF90422CBF8A
S1132040D8176FEAE37040F0010070474FEA410C83
S11320507FEA6C5C02D150EA013C07D14FEA430CA1
S11320607FEA6C5CD6D152EA033CD3D05DF8040B12
S1132070704700BF8446104662468C461946634644
S113208000E000BF01B5FFF7B7FF002848BF10F11B
S1132090000F01BD4DF808EDFFF7F4FF0CBF012060
S11320A000205DF808FB00BF4DF808EDFFF7EAFFDC
S11320B034BF012000205DF808FB00BF4DF808ED97
S11320C0FFF7E0FF94BF012000205DF808FB00BF8C
S11320D04DF808EDFFF7CEFF94BF012000205DF816
S11320E008FB00BF4DF808EDFFF7C4FF34BF012023
S11320F000205DF808FB00BF70B50D4E0D4CA41B0D
S1132100A4100025A54209D10B4E0C4C00F05CF83C
S1132110A41BA4100025A54205D170BD56F8253096
S113212098470135EEE756F8253098470135F2E730
S1132130D4210000D4210000D4210000D8210000C3
S11321402E2E2F68706C2F706F72742F68706C5FF6
S11321506770696F5F626173652E68002E2E2F6849
S1132160616C2F7372632F68616C5F757361727435
S11321705F73796E632E63002E2E2F68706C2F733D
S11321806572636F6D2F68706C5F736572636F6DDA
S11321902E63000000300040003400400020014164
S11321A000400141000000430004004300080043D4
S11321B0000C0043000000000000000000000000CC
S11321C00000000000000000F8B500BFF8BC08BC27
S11321D09E46704789020000F8B500BFF8BC08BCF1
S10B21E09E46704765020000F1
S11321E80200000004001040000003000200700018
S10B21F8B9FC00000000000026
S9030000FC
