S01400004C45445F53776974636865722E7372656393
S1130000F00001201D040000B9040000B904000040
S1130010B9040000B9040000B904000000000000A5
S1130020000000000000000000000000B90400000F
S1130030B904000000000000B9040000B904000085
S1130040B9040000B9040000B9040000B9040000B8
S1130050B9040000B9040000B9040000B9040000A8
S1130060B9040000B9040000B9040000B904000098
S1130070B9040000B9040000B9040000B904000088
S1130080B9040000B9040000B9040000B904000078
S1130090B9040000B9040000B9040000B904000068
S11300A0B9040000B9040000B9040000B904000058
S11300B0B9040000B9040000B9040000B904000048
S11300C0B9040000B9040000B9040000B904000038
S11300D0B9040000B9040000B9040000B904000028
S11300E0B9040000B9040000000000000000000092
S11300F00000000025170000B9040000B904000046
S1130100B9040000B9040000B9040000B9040000F7
S1130110B9040000B9040000B9040000B9040000E7
S1130120B9040000B9040000B9040000B9040000D7
S1130130B9040000B9040000B9040000B9040000C7
S1130140B9040000B9040000B9040000B9040000B7
S1130150B9040000B9040000B9040000B9040000A7
S1130160B9040000B9040000B9040000B904000097
S1130170B9040000B9040000B9040000B904000087
S1130180B9040000B9040000B9040000B904000077
S1130190B9040000B9040000392A0000B9040000C1
S11301A0B9040000B9040000B9040000B904000057
S11301B0B9040000B9040000B9040000B904000047
S11301C0B9040000B9040000B9040000B904000037
S11301D0B9040000B9040000B9040000B904000027
S11301E0B9040000B9040000B904000005260000A9
S11301F0B904000021260000B9040000B90400007D
S1130200B9040000B9040000B9040000B9040000F6
S1130210B9040000B9040000B9040000B9040000E6
S1130220B9040000B9040000B9040000B9040000D6
S1130230B9040000B9040000B9040000B9040000C6
S1130240B9040000B9040000B9040000B9040000B6
S1130250B9040000B9040000B9040000B9040000A6
S1130260B904000010B5054C237833B9044B13B11D
S11302700448AFF300800123237010BD4000002028
S113028000000000CC2B00000C4B43B10C480D497E
S113029010B5AFF300800C48036823B910BD0A48B9
S11302A0036833B97047094B002BF7D0BDE8104001
S11302B01847064B002BF5D0184700BF000000007C
S11302C0CC2B000044000020CC2B000000000000D8
S11302D080B500AF014B984700BF80BD810C000082
S11302E080B487B000AF0346FB71484A07F110039E
S11302F092E80300186004331970454A07F10803B3
S113030092E80300186004331970424B1B78062BE3
S113031073D801A252F823F0350300004D03000006
S113032065030000850300009D030000BB0300007B
S1130330D70300003B7CFA799A4203D1354B012262
S11303401A705AE0334B00221A7056E07B7CFA791B
S11303509A4203D12F4B02221A704EE02D4B0122F8
S11303601A704AE0BB7CFA799A4203D1294B0322E2
S11303701A7041E0BB7AFA799A423DD1254B0522A5
S11303801A7039E0FB7CFA799A4203D1214B04229A
S11303901A7032E01F4B01221A702EE03B7DFA796D
S11303A09A4206D11B4B05221A701B4B01221A706C
S11303B023E0184B03221A701FE0FB7983F001033A
S11303C0DBB2002B03D0134B06221A7015E0114B3D
S11303D000221A7011E0FB7983F00103DBB2002BD9
S11303E003D00C4B01221A7007E00A4B02221A7048
S11303F0094B00221A7000E000BF074B1B78184617
S11304001C37BD465DF8047B704700BFA82A000076
S1130410B02A00005C0000205D00002080B582B09E
S113042000AF1C4B7B601C4B3B607A683B689A4274
S11304300CD007E03B681A1D3A607A68111D796098
S113044012681A603B68154A9342F3D3144B3B601D
S113045004E03B681A1D3A6000221A603B68114AA6
S11304609342F6D3104B7B60104A7B6823F07F03E2
S113047093600E4A0D4BD3F8883043F47003C2F8EE
S11304808830BFF34F8FBFF36F8F094B9847094BE9
S11304909847FEE7CC2B000000000020400000201D
S11304A040000020F00000200000000000ED00E00B
S11304B0612A0000E128000080B400AFFEE780B4A8
S11304C085B000AFF8600B467A60FB72FA7AFB687D
S11304D02032796843F8221000BF1437BD465DF816
S11304E0047B704780B483B000AF78607B685B693D
S11304F043F480527B685A6100BF0C37BD465DF8F7
S1130500047B704780B483B000AF78607B685B691C
S113051043F480427B685A6100BF0C37BD465DF8E6
S1130520047B704780B483B000AF78607B689B69BC
S113053043F400627B689A6100BF0C37BD465DF8E6
S1130540047B704780B483B000AF78607B689B699C
S113055043F400527B689A6100BF0C37BD465DF8D6
S1130560047B704780B485B000AFF8600B467A60B6
S1130570FB72FB7AFA68DB01134408337A681A6069
S113058000BF1437BD465DF8047B704780B485B066
S113059000AFF8600B467A60FB72FB7AFA68DB0105
S11305A0134404337A681A6000BF1437BD465DF8FB
S11305B0047B704780B485B000AFF8600B467A6066
S11305C0FB72FB7AFA68DB01134418337A681A6009
S11305D000BF1437BD465DF8047B704780B485B016
S11305E000AFF8600B467A60FB72FB7AFA68DB01B5
S11305F0134414337A681A6000BF1437BD465DF89B
S1130600047B704780B485B000AF7860084611461B
S11306101A460346FB700B46BB7013467B70FA7890
S1130620BB787968D2010A44134430331B78FB73D6
S1130630FB7B23F00F03FB737B7803F00F03DAB229
S1130640FB7B1343FB73FA78BB787968D2010A44C5
S113065013443033FA7B1A7000BF1437BD465DF87B
S1130660047B704780B485B000AF786008461146BB
S11306701A460346FB700B46BB7013467B70FA7830
S1130680BB787968D2010A44134430331B78FB7376
S1130690FB7B03F00F03FB737B781B01DAB2FB7B5C
S11306A01343FB73FA78BB787968D2010A44134484
S11306B03033FA7B1A7000BF1437BD465DF8047BF3
S11306C0704780B485B000AF7860084611461A467A
S11306D00346FB700B46BB7013467B70FA78BB78FD
S11306E07968D2010A44134440331B78FB73FB7BC3
S11306F023F00103FB737A78FB7B1343FB73FA78D3
S1130700BB787968D2010A4413444033FA7B1A70E7
S113071000BF1437BD465DF8047B704790B482B0C7
S113072000AF78600B46FB701346BB70FA78BB7859
S1130730F878B9787C68C0012044014440310978D4
S1130740C9B241F00401C8B27968D2010A44134421
S1130750403302461A7000BF0837BD4690BC70474C
S113076090B482B000AF78600B46FB701346BB7048
S1130770FA78BB78F878B9787C68C00120440144E1
S113078040310978C9B221F00401C8B27968D201B4
S11307900A441344403302461A7000BF0837BD466A
S11307A090BC704780B485B000AFF8600B467A60A7
S11307B0FB72FB7AFA68DB01134428337A681A6007
S11307C000BF1437BD465DF8047B704780B582B026
S11307D000AF03463960FB711346BB71BB79012B33
S11307E01CD0022B37D0002B4ED1FB793A68194626
S11307F02A482B4B98473B689BB243F08042FB79D5
S113080019462648274B98473B681B0C43F0404247
S1130810FB7919462148234B98473AE0FB793A681B
S113082019461E481E4B98473B689BB243F08043D1
S113083043F40033F9791A4618481A4B98473B6831
S11308401B0C43F0404343F40033F9791A46134830
S1130850144B98471DE0FB793A6819460F48124B30
S113086098473B689BB243F08042FB7919460B489A
S11308700C4B98473B681B0C43F04042FB791946EC
S11308800648084B984704E0462208490020084BD4
S1130890984700BF0837BD4680BD00BF00800041B7
S11308A08D050000A507000065050000B82A0000BA
S11308B0F112000080B582B000AF03463960FB71CD
S11308C01346BB71BB79002B06D0FB793A681946F5
S11308D00648074B984705E0FB793A6819460348F0
S11308E0044B984700BF0837BD4680BD00800041D7
S11308F0B5050000DD05000080B582B000AF0346F9
S1130900FB710B46BB7113467B717B79012B0AD0BB
S1130910022B1FD0002B34D1BA79FB7919461E481B
S11309201E4B984733E0BB7901229A40FB79194664
S113093019481B4B9847BA79FB7919461648194B45
S11309409847BB7901229A40FB7919461248164B05
S113095098471CE0BB7901229A40FB7919460E485E
S11309600F4B9847BA79FB7919460B480D4B9847BA
S1130970BB7901229A40FB79194607480B4B9847EB
S113098005E089220A4900200A4B984700BF00BFAE
S11309900837BD4680BD00BF0080004161070000EC
S11309A08D0500001D070000B5050000DD050000F1
S11309B0B82A0000F112000090B585B000AF78604D
S11309C039607B685B09FB737B68DBB203F01F0350
S11309D0BB733B68B3F1FF3F06D1BA7BF97B0023BD
S11309E01248134CA0471DE0BA7BF97B01230F4842
S11309F00F4CA047BB7B03F00103002B09D0BB7B4A
S1130A005B08DAB23B68DBB2F97B0848094CA047C3
S1130A1008E0BB7B5B08DAB23B68DBB2F97B0348D6
S1130A20054CA04700BF1437BD4690BD008000416F
S1130A30C3060000650600000506000080B582B00C
S1130A4000AF03460A46FB711346BB71FB795B0991
S1130A50D8B2FB7903F01F03DBB2BA791946034B12
S1130A60984700BF0837BD4680BD00BFF9080000A5
S1130A7080B582B000AF7860396039687868034B1C
S1130A80984700BF0837BD4680BD00BFB9090000C4
S1130A9080B582B000AF03460A46FB711346BB71B2
S1130AA0FB795B09D8B2FB7903F01F03012202FA38
S1130AB003F3BA791946034B984700BF0837BD467C
S1130AC080BD00BFCD07000080B582B000AF0346F3
S1130AD00A46FB711346BB71FB795B09D8B2FB79FB
S1130AE003F01F03012202FA03F3BA791946034BF8
S1130AF0984700BF0837BD4680BD00BFB508000059
S1130B0080B500AF014B984700BF80BD9114000031
S1130B1080B500AF04490420044B984704490520DC
S1130B20024B984700BF80BD03000400710A000017
S1130B300300050080B500AF402207210648074B9B
S1130B409847432203210448044B98470448054B23
S1130B50984700BF80BD00BF001C0040BF040000D8
S1130B6000080040E504000080B500AF054B98473D
S1130B70002205490548064B9847064B984700BF95
S1130B8080BD00BF350B000000300040B4000020E1
S1130B9025110000110B000080B500AF0248034B83
S1130BA0984700BF80BD00BF10E000E0A90D000021
S1130BB080B500AF0848094B9847402209210848EE
S1130BC0084B9847084B984703461A460749084874
S1130BD0084B984700BF80BD000800400505000091
S1130BE0001C0040BF0400005D25000000380040E8
S1130BF0980000200D0E000080B500AF0848094B96
S1130C00984740221A210848084B9847084B9847B0
S1130C1003461A4607490848084B984700BF80BD59
S1130C200008004045050000001C0040BF0400000F
S1130C305D25000000A00141C00000200D0E000051
S1130C4080B500AF02494A20024B984700BF80BDDF
S1130C5005004A00710A000080B500AF0448054B46
S1130C609847402219210448044B984700BF80BD8F
S1130C700008004025050000001C0040BF040000DF
S1130C8080B500AF294B984701212120284B984774
S1130C9000212120274B98474FF0FF312120264B7C
S1130CA0984700212420254B984702212420204BDB
S1130CB098474FF0FF3124201F4B984701212520EE
S1130CC01B4B9847012125201A4B98474FF0FF31C1
S1130CD02520194B984701213F20154B98470121A6
S1130CE03F20144B98474FF0FF313F20124B984759
S1130CF000215220114B9847022152200C4B984757
S1130D004FF0FF3152200C4B98470D4B98470D4B39
S1130D1098470D4B98470D4B98470D4B98470D4BF3
S1130D2098470D4B984700BF80BD00BF010B0000E2
S1130D30910A00003D0A0000710A0000C90A00007F
S1130D40690B0000990B0000B10B0000F90B0000C7
S1130D50590C0000410C0000911E000080B485B0C5
S1130D6000AF7860EFF31083FB60FA687B681A6069
S1130D7072B6BFF35F8F00BF1437BD465DF8047BC6
S1130D80704780B485B000AF7860BFF35F8F7B6835
S1130D901B68FB60FB6883F3108800BF1437BD46F3
S1130DA05DF8047B7047000080B582B000AF7860C6
S1130DB0054A7B681360044B1B681846034B98472D
S1130DC000BF0837BD4680BD60000020451D0000FF
S1130DD080B483B000AF78607B681B6818460C371A
S1130DE0BD465DF8047B704780B483B000AF786083
S1130DF07B68002B02D07B681B6800E00023184648
S1130E000C37BD465DF8047B7047000080B584B0A4
S1130E1000AFF860B9607A60FB68002B04D0BB684F
S1130E20002B01D0012300E0002303F00103DBB217
S1130E303B220A4918460A4B9847FB68B96818468A
S1130E40084B9847FB6800221A61FB68064A1A603F
S1130E50002318461037BD4680BD00BFD42A0000C9
S1130E60F11200006D2200006910000080B582B00C
S1130E7000AF78607B68002B14BF01230023DBB232
S1130E8053220B4918460B4B98477B6818460A4B6C
S1130E9098470346002B02D06FF0100304E07B68F0
S1130EA01846064B9847002318460837BD4680BDB0
S1130EB0D42A0000F11200003D2500001D25000089
S1130EC080B584B000AF786039607B68002B04D0B3
S1130ED03B68002B01D0012300E0002303F0010351
S1130EE0DBB27A222D4918462D4B98477B681B7E2E
S1130EF0DBB243F00103DAB27B681A767B68143301
S1130F0039681846274B98470346002B0FD07B6857
S1130F101B7EDBB223F00103DAB27B681A767F22F0
S1130F201E4900201E4B98476FF0110332E07B6886
S1130F301A693B685A607B6803F114007B681B697B
S1130F401A463968184B98477B681B7EDBB223F03E
S1130F500103DAB27B681A767B681B7EDBB203F08E
S1130F600203002B15D007F10C0318460F4B9847CA
S1130F707B681B7EDBB223F00203DAB27B681A764D
S1130F807B6818460A4B984707F10C031846094B2F
S1130F909847002318461037BD4680BDD42A000068
S1130FA0F112000019130000B90F00005D0D0000DC
S1130FB06D250000830D000080B588B000AFF86097
S1130FC0B9607A600023BB61F868234B98473861A5
S1130FD03B69002B04D1B968F868204B984737E087
S1130FE03B69FB6122E0FB695A687B689A4208D836
S1130FF0FB699A68FB6959687B68CB1A13447B6167
S113100009E0FB699A68FB695B681A447B685B4288
S1131010134401337B61BB689A687B699A4209D99E
S1131020FB69BB61F8690E4B9847F861FB69002BBB
S1131030D9D100E000BFFA693B699A4204D1B9688A
S1131040F868064B984703E0B968B869054B9847B8
S11310502037BD4680BD00BFD10D000051130000F4
S1131060E90D0000A913000080B586B000AF7860D8
S11310707B683B613B6914331846274B984778617A
S11310803B691B695A1C3B691A613B691B69FB601C
S11310903B691B7EDBB203F00103002B06D13B69E5
S11310A01B7EDBB203F00203002B27D03B691B7EBF
S11310B0DBB243F00203DAB23B691A7629E07B69BA
S11310C0BB603B6914331846144B9847BB681B7CC0
S11310D0012B09D1BB68FA685A603B691433FA687A
S11310E0B96818460E4B98473B69143318460A4BA7
S11310F098477861BB68DB68B86898477B69002BC0
S113110007D07B695B68FA68D21A7B699B689A424C
S1131110D5D21837BD4680BDD10D0000CD130000D7
S1131120B90F000080B586B000AFF860B9607A608E
S1131130FB68002B04D0BB68002B01D0012300E026
S1131140002303F00103DBB234220D4918460D4B92
S11311509847FB680833B96818460B4B9847786181
S11311607B69002B01D07B6906E0FB68074A5A6063
S1131170FB68074A1A60002318461837BD4680BD2D
S1131180EC2A0000F1120000AD1900005D1200000D
S11311909511000080B586B000AFF860B9601346C1
S11311A0FB8000237B61FB683B61FB68002B07D05D
S11311B0BB68002B04D0FB88002B01D0012300E086
S11311C0002303F00103DBB2F1221F4918461F4B31
S11311D0984700BF3B69083318461D4B98470346A0
S11311E083F00103DBB2002BF4D13B6903F1080067
S11311F0BA687B6913441B781946164B984700BF9D
S11312003B6908331846124B9847034683F00103A1
S1131210DBB2002BF4D17B6901337B61FB887A69F3
S11312209A42E2D300BF3B69083318460A4B9847F9
S1131230034683F00103DBB2002BF4D17B6918462B
S11312401837BD4680BD00BFEC2A0000F112000033
S11312503D1A0000F11900005D1A000090B587B036
S113126000AFF860B9601346FB8000237B61FB6824
S11312703B61FB68002B07D0BB68002B04D0FB88C4
S1131280002B01D0012300E0002303F00103DBB2B3
S11312904FF4867212491846124B984700BF3B69B7
S11312A008331846104B9847034683F00103DBB21A
S11312B0002BF4D1BA687B69D4183B69083318460B
S11312C00A4B9847034623707B6901337B61FB8893
S11312D07A699A42E2D37B6918461C37BD4690BDB1
S11312E0EC2A0000F11200007D1A0000191A000017
S11312F080B485B000AF0346B9607A60FB73FB7BB2
S113130083F00103DBB2002B00D000BE00BF143712
S1131310BD465DF8047B704780B485B000AF78604B
S113132039607B681B68FB6008E0FA683B689A4296
S113133001D1012306E0FB681B68FB60FB68002BFE
S1131340F3D1002318461437BD465DF8047B70477B
S113135080B582B000AF78603960396878680F4B27
S113136098470346002B14BF01230023DBB283F00C
S11313700103DBB203F00103DBB23922084918464A
S1131380084B98477B681A683B681A607B683A6820
S11313901A6000BF0837BD4680BD00BF19130000A6
S11313A0082B0000F112000080B483B000AF786015
S11313B039607B681A683B681A607B683A681A600F
S11313C000BF0C37BD465DF8047B704780B485B020
S11313D000AF78607B681B68002B09D07B681B68B2
S11313E0FB607B681B681A687B681A60FB6800E016
S11313F0002318461437BD465DF8047B704700008F
S113140080B483B000AF0346FB80B7F90630002BED
S11314100CDB0949B7F906305B09FA8802F01F02B0
S1131420012000FA02F2403341F8232000BF0C37B8
S1131430BD465DF8047B704700E100E080B582B0F2
S113144000AF0346FB71FB791BB21846024B984769
S113145000BF0837BD4680BD0114000080B483B0CE
S113146000AF78600B467B807B681B889AB27B88D0
S11314701B029BB203F470639BB213439AB27B6862
S11314801A8000BF0C37BD465DF8047B704700002E
S113149080B500AF00210848084B9847084B98478F
S11314A0084B9847084B9847084B984740F6FF70FD
S11314B0074B984700BF80BD004000415D14000009
S11314C0FD1500009516000079150000D5160000E2
S11314D02915000080B483B000AF7860396000BF84
S11314E07B685A683B681340002BF9D100BF0C3766
S11314F0BD465DF8047B704780B584B000AFF860EA
S11315000B467A60FB72FA7AFB680832796843F812
S1131510221043F6FD71F868024B984700BF10375C
S1131520BD4680BDD514000080B582B000AF7860A0
S11315307B6803F00103002B04D0044A0021044813
S1131540044B984700BF0837BD4680BD0101010028
S1131550001C0040F914000080B483B000AF786030
S11315600B46FB707B68FA785A7100BF0C37BD4696
S11315705DF8047B7047000080B582B000AF054B76
S11315807B6001217868044B984700BF0837BD464B
S113159080BD00BF000800405915000080B483B02E
S11315A000AF78600B46FB707B68FA781A7400BF52
S11315B00C37BD465DF8047B704780B485B000AF3E
S11315C078607B68DB69FB60FB681B0A03F03F0300
S11315D0FB60FB6818461437BD465DF8047B704712
S11315E080B483B000AF786039607B683A68DA61B0
S11315F000BF0C37BD465DF8047B704780B582B0F0
S113160000AF0C4B7B6000237B8078680A4B9847C3
S113161003467B807B881B0203F47C53194678685D
S1131620064B984701217868054B984700BF083757
S1131630BD4680BD00140040BB150000E11500004C
S11316409D15000080B483B000AF78607B681B698F
S11316505B0803F00103002B14BF01230023DBB25A
S113166018460C37BD465DF8047B704780B485B0DE
S113167000AFF8600B467A60FB72FB7AFA680433B9
S11316809B0013447A685A6000BF1437BD465DF866
S1131690047B704780B582B000AF0A4B7B600A4A76
S11316A001217868094B984700BF7868084B984730
S11316B0034683F00103DBB2002BF6D100BF0837E9
S11316C0BD4680BD00100040062600036D160000D4
S11316D04516000080B483B000AF044B7B6000BFAC
S11316E00C37BD465DF8047B704700BF0010004016
S11316F080B483B000AF78607B689B78DBB2184617
S11317000C37BD465DF8047B704780B483B000AFEE
S113171078607B685B6818460C37BD465DF8047BCF
S11317207047000090B583B000AF174B7B6017483B
S1131730174B984703463B603B6803F00203002BBA
S11317400CD07B681B68002B08D07B681C680F4892
S1131750104B984703461846A04712E03B6803F035
S11317600103002B0CD07B685B68002B08D07B68DE
S11317705C680648074B984703461846A04700E0B4
S113178000BF0C37BD4690BDDC00002000000241C4
S1131790F11600000B17000080B483B000AF78602E
S11317A0396000BF7B68DA693B681340002BF9D1CC
S11317B000BF0C37BD465DF8047B704780B483B02E
S11317C000AF786039607B68DA693B681340002BAE
S11317D014BF01230023DBB218460C37BD465DF865
S11317E0047B704780B483B000AF78607B681B7E55
S11317F0DBB203F00103002B14BF01230023DBB28F
S113180018460C37BD465DF8047B704780B483B03E
S113181000AF78607B681B7EDBB25B0803F00103DA
S1131820002B14BF01230023DBB218460C37BD463E
S11318305DF8047B704780B483B000AF78607B6848
S11318401B7EDBB29B0803F00103002B14BF0123B2
S11318500023DBB218460C37BD465DF8047B7047A5
S113186080B582B000AF78607B681B6823F0020209
S11318707B681A6003217868024B984700BF0837D9
S1131880BD4680BD9917000080B584B000AF786074
S1131890396003217868074B98477B681B68FB60B5
S11318A0FA683B681340FB60FB6818461037BD4676
S11318B080BD00BF9917000080B582B000AF78608A
S11318C039607B683A681A6003217868024B98474C
S11318D000BF0837BD4680BD9917000080B582B0AF
S11318E000AF786039607B683A685A601F21786875
S11318F0024B984700BF0837BD4680BD99170000CA
S113190080B483B000AF786039607B683A689A60CD
S113191000BF0C37BD465DF8047B704780B483B0CC
S113192000AF78600B467B807B687A889A8100BF21
S11319300C37BD465DF8047B704780B483B000AFBC
S113194078600B46FB707B68FA789A7300BF0C379B
S1131950BD465DF8047B704780B483B000AF786007
S113196039607B683A689A6200BF0C37BD465DF8FF
S1131970047B704780B483B000AF78607B689B6A57
S113198018460C37BD465DF8047B704780B483B0BD
S113199000AF78600B46FB707B68FA7883F83020E0
S11319A000BF0C37BD465DF8047B704780B582B03C
S11319B000AF786039607B68002B14BF01230023DB
S11319C0DBB2BB2207491846074B98477B683A6845
S11319D01A603868054B9847034618460837BD46D1
S11319E080BD00BF282B0000F11200005D1B000029
S11319F080B582B000AF78600B46FB707B681B68D3
S1131A00FA7811461846034B984700BF0837BD467D
S1131A1080BD00BF5919000080B582B000AF786066
S1131A207B681B681846044B98470346DBB218468C
S1131A300837BD4680BD00BF7519000080B582B06F
S1131A4000AF78607B681B681846034B98470346D1
S1131A5018460837BD4680BDE517000080B582B042
S1131A6000AF78607B681B681846034B98470346B1
S1131A7018460837BD4680BD0D18000080B582B0F9
S1131A8000AF78607B681B681846034B9847034691
S1131A9018460837BD4680BD37180000B0B48DB075
S1131AA000AF7860134B07F10C041D460FCD0FC433
S1131AB095E80F0084E80F000023FB6210E0FB6A46
S1131AC09B0007F13002134453F8243C1A467B6808
S1131AD09A4202D1FB6ADBB206E0FB6A0133FB6285
S1131AE0FB6A072BEBD9002318463437BD46B0BC3C
S1131AF0704700BF442B000080B584B000AF78600D
S1131B007868124B98470346BB730023FB730FE0BE
S1131B10FA7B0F4913465B001344DB000B441B782C
S1131B20BA7B9A4201D1FB7B0CE0FB7B0133FB7354
S1131B30FB7B002BECD040F2472206490020064BE9
S1131B409847002318461037BD4680BD9D1A0000F3
S1131B5000000020282B0000F112000080B584B0A2
S1131B6000AF78607868614B98470346FB730121A6
S1131B7078685F4B9847034683F00103DBB2002B80
S1131B8020D0FA7B5B4913465B001344DB000B4413
S1131B9004331B6803F01C03BB6002217868564BB6
S1131BA098470346002B06D07868544B9847022187
S1131BB07868534B9847BB6843F00103194678682B
S1131BC0504B9847012178684D4B9847FA7B494917
S1131BD013465B001344DB000B4404331B681946B3
S1131BE07868484B9847FA7B424913465B00134494
S1131BF0DB000B4408331B6819467868424B98474E
S1131C00FA7B3C4913465B001344DB000B440C3362
S1131C101B68194678683D4B9847FA7B354913464B
S1131C205B001344DB000B4404331B6803F40053D0
S1131C30002B0CD1FA7B2F4913465B001344DB00C5
S1131C400B4404331B6803F4C043002B22D0FA7BFB
S1131C50284913465B001344DB000B4410331B88F4
S1131C60C3F30C0399B27A68938961F30C039381EB
S1131C70FA7B204913465B001344DB000B44123308
S1131C801B7803F00703D9B27A68938961F34F3361
S1131C9093810CE0FA7B174913465B001344DB0085
S1131CA00B4410331B8819467868194B9847FA7B04
S1131CB0104913465B001344DB000B4413331B78B9
S1131CC019467868134B9847FA7B0A4913465B0018
S1131CD01344DB000B4414331B78194678680E4B0D
S1131CE09847002318461037BD4680BDF91A0000F6
S1131CF0BD170000000000208918000061180000D2
S1131D0099170000B9180000DD180000011900003F
S1131D101D1900003B1900008D19000080B483B028
S1131D2000AF7860064B6FF07F425A60044B052287
S1131D301A6000BF0C37BD465DF8047B704700BFD6
S1131D4010E000E080B582B000AF78607868034BA3
S1131D50984700BF0837BD4680BD00BF1D1D000069
S1131D6080B483B000AF7860396000BF7B689A6844
S1131D703B681340002BF9D100BF0C37BD465DF81A
S1131D80047B704780B483B000AF786039607B68AF
S1131D909A683B681340002B14BF01230023DBB275
S1131DA018460C37BD465DF8047B704780B584B097
S1131DB000AF78600B46FB707B681B68FB60FB68B8
S1131DC023F00203FB60FB785B001A46FB681343B5
S1131DD0FB607B68FA681A6003217868024B9847B5
S1131DE000BF1037BD4680BD611D000080B582B0C4
S1131DF000AF78607B681B6823F002027B681A607E
S1131E0003217868024B984700BF0837BD4680BD60
S1131E10611D000080B584B000AF78603960032193
S1131E207868074B98477B681B68FB60FA683B68D7
S1131E301340FB60FB6818461037BD4680BD00BFE9
S1131E40611D000080B582B000AF786039607B68A6
S1131E503A681A6003217868024B984700BF083734
S1131E60BD4680BD611D000080B582B000AF7860C2
S1131E7039607B683A68DA6343F6FF717868034B2C
S1131E80984700BF0837BD4680BD00BF611D0000F4
S1131E9080B500AF01211748174B9847034683F0DC
S1131EA00103DBB2002B11D002211248134B9847D7
S1131EB00346002B06D00F48114B984702210D48CA
S1131EC0104B984701210B480F4B984701210948B3
S1131ED00C4B98474FF4E06106480B4B984702219E
S1131EE004480A4B984701210248094B98470023AC
S1131EF0184680BD00600141851D0000151E0000CC
S1131F00ED1D0000611D0000451E0000691E00005B
S1131F10AD1D000080B483B000AF0346FB80B7F969
S1131F200630002B0BDB0949B7F906305B09FA8848
S1131F3002F01F02012000FA02F241F8232000BF40
S1131F400C37BD465DF8047B704700BF00E100E03C
S1131F5080B483B000AF0346FB80B7F90630002B92
S1131F6010DB0B49B7F906305B09FA8802F01F024F
S1131F70012000FA02F2203341F82320BFF34F8FEF
S1131F80BFF36F8F00BF0C37BD465DF8047B70470D
S1131F9000E100E080B483B000AF0346FB80B7F9F2
S1131FA00630002B0CDB0949B7F906305B09FA88C7
S1131FB002F01F02012000FA02F2603341F82320EC
S1131FC000BF0C37BD465DF8047B704700E100E0BC
S1131FD080B483B000AF7860396000BF7B681A6951
S1131FE03B681340002BF9D100BF0C37BD465DF8A8
S1131FF0047B704780B483B000AF786039607B683D
S11320001A693B681340002B14BF01230023DBB281
S113201018460C37BD465DF8047B704780B483B026
S113202000AF78607B689B7ADBB203F00103002B7E
S113203014BF01230023DBB218460C37BD465DF8FC
S1132040047B704780B483B000AF78607B68012262
S11320509A7200BF0C37BD465DF8047B704780B4AC
S113206083B000AF78607B6801225A7200BF0C37DE
S1132070BD465DF8047B704780B582B000AF7860E0
S11320807B681B6843F002027B681A60032178684E
S1132090024B984700BF0837BD4680BDD11F0000E2
S11320A080B584B000AF786003217868094B984705
S11320B07B681B68FB60FB685B0803F00103FB6043
S11320C0FB68002B14BF01230023DBB21846103732
S11320D0BD4680BDD11F000080B582B000AF7860DE
S11320E07B681B6823F002027B681A60032178680E
S11320F0024B984700BF0837BD4680BDD11F000082
S113210080B584B000AF7860396003217868074BEC
S113211098477B681B68FB60FA683B681340FB6068
S1132120FB6818461037BD4680BD00BFD11F0000B4
S113213080B582B000AF786039607B683A681A6015
S113214003217868024B984700BF0837BD4680BD1D
S1132150D11F000080B483B000AF78600B467B8051
S11321607B687A88DA8000BF0C37BD465DF8047B53
S1132170704780B483B000AF78600B46FB707B6817
S1132180FA781A7300BF0C37BD465DF8047B7047BC
S113219080B483B000AF78600B46FB707B68FA783C
S11321A0DA7300BF0C37BD465DF8047B704700004E
S11321B080B582B000AF78600B46FB707B68FA781C
S11321C0DA7620217868034B984700BF0837BD466C
S11321D080BD00BFD11F000080B582B000AF786021
S11321E00B46FB701346BB70FB787A681344BA78CD
S11321F01A77C0217868034B984700BF0837BD465B
S113220080BD00BFD11F000080B582B000AF7860F0
S11322100B46FB7013463B80FB787A680C335B00FB
S113222013443A889A80C0217868034B984700BFCA
S11322300837BD4680BD00BFD11F000080B584B003
S113224000AFF8600B467A60FB72FB7AFA680633DB
S11322509B0013447A685A60C021F868024B98477F
S113226000BF1037BD4680BDD11F000080B584B0CB
S113227000AF786039603868934B98470346FB7326
S11322807B683A68DA608F2290490120904B984726
S1132290012138688F4B9847034683F00103DBB272
S11322A0002B11D0022138688B4B98470346002B32
S11322B006D03868894B984702213868884B98477C
S11322C001213868874B984701213868844B984727
S11322D097F90F20844913469B0013449B000B4439
S11322E004331B68194638687E4B984797F90F20CA
S11322F07D4913469B0013449B000B440A331B780F
S113230019463868794B984797F90F207649134650
S11323109B0013449B000B4408331B881946386800
S1132320734B984701213868724B984797F90F20EF
S11323306D4913469B0013449B000B4404331B68F4
S113234003F00C03082B1ED197F90F20664913469E
S11323509B0013449B000B440C331B681A4600215A
S11323603868654B984797F90F205F4913469B00DF
S113237013449B000B4410331B681A460121386830
S11323805D4B98476AE097F90F20574913469B0025
S113239013449B000B4404331B6803F00C03002B11
S11323A020D197F90F20504913469B0013449B00FA
S11323B00B440C331B689BB21A46002138684F4B00
S11323C0984797F90F20484913469B0013449B00F4
S11323D00B4410331B689BB21A4601213868474BE3
S11323E098473BE097F90F203F4913469B0013445D
S11323F09B000B4404331B6803F00C03042B2DD106
S113240097F90F20384913469B0013449B000B4453
S11324100C331B68DBB21A4600213868384B9847E6
S113242097F90F20304913469B0013449B000B443B
S113243010331B68DBB21A4601213868304B9847C9
S113244097F90F20284913469B0013449B000B4423
S11324500B331B78194638682A4B984738682A4B3F
S1132460984779683868294B984797F90F201E498F
S113247013469B0013449B000B440233B3F9003012
S11324801846234B984797F90F20174913469B008A
S113249013449B000B440233B3F9003018461D4B20
S11324A0984797F90F20104913469B0013449B004B
S11324B00B440233B3F900301846174B98470023F6
S11324C018461037BD4680BD3D260000782B00001D
S11324D0F1120000F51F000001210000D9200000C6
S11324E0D11F0000312100001800002091210000BC
S11324F055210000732100003D2200000922000044
S1132500D9210000B12100005F200000A5260000B1
S1132510511F0000951F0000151F000080B582B0F8
S113252000AF78607B68DB681846034B984700BFB0
S11325300837BD4680BD00BF7920000080B582B059
S113254000AF78607B68DB681846034B9847034606
S113255018460837BD4680BDA120000080B400AFF6
S113256000231846BD465DF8047B704780B584B0EF
S113257000AF78607B68DB68FB60F8680E4B9847B7
S11325800346FB7240F211120C4901200C4B984790
S113259097F90B200B4913469B0013449B000B44F3
S11325A00233B3F90030DBB21846074B984700BF3B
S11325B01037BD4680BD00BF3D260000782B0000CB
S11325C0F1120000180000203D14000080B584B012
S11325D000AF78607B68DB68FB60F868074B98475E
S11325E00346002B06D0F868054B98477B681B68A8
S11325F07868984700BF1037BD4680BD1D20000095
S11326004520000080B500AF034B1B681846034B00
S1132610984700BF80BD00BF64000020CD250000A6
S113262080B500AF034B1B681846034B984700BFA7
S113263080BD00BF68000020CD25000080B584B0B7
S113264000AF78607868134B98470346BB73002348
S1132650FB7310E0FA7B104913469B0013449B0064
S11326600B441B78BA7B9A4202D197F90F300DE0E4
S1132670FB7B0133FB73FB7B012BEBD94FF4A37280
S113268006490020064B98474FF0FF331846103791
S1132690BD4680BDE926000018000020782B00000C
S11326A0F112000080B483B000AF786039607B68B9
S11326B0094A934202D1094A3B6813607B68084A7D
S11326C0934202D1074A3B68136000BF0C37BD46F2
S11326D05DF8047B704700BF0038004064000020B0
S11326E000A0014168000020B0B48DB000AF786054
S11326F0134B07F10C041D460FCD0FC495E80F00D2
S113270084E80F000023FB6210E0FB6A9B0007F1E2
S11327103002134453F8243C1A467B689A4202D18F
S1132720FB6ADBB206E0FB6A0133FB62FB6A072B40
S1132730EBD9002318463437BD46B0BC704700BF00
S11327408C2B000080B485B000AFF8600B467A6033
S1132750FB72FB7AFA68DB01134418337A681A6057
S113276000BF1437BD465DF8047B704780B485B064
S113277000AFF8600B467A60FB72FB7AFA68DB0103
S1132780134414337A681A6000BF1437BD465DF8E9
S1132790047B704780B582B000AF03463960FB719B
S11327A01346BB71BB79002B06D0FB793A681946F6
S11327B00648074B984705E0FB793A6819460348F1
S11327C0044B984700BF0837BD4680BD00800041D8
S11327D0452700006D27000080B582B000AF034696
S11327E00A46FB711346BB71FB795B09D8B2FB79CE
S11327F003F01F03012202FA03F3BA791946034BCB
S1132800984700BF0837BD4680BD00BF952700002C
S113281080B582B000AF786001212420034B984733
S113282000BF18460837BD4680BD00BFD927000049
S113283080B584B000AF78601E4B0A229A601D4BAD
S11328401D4ADA601B4B00221A740023FB7300211B
S113285024201A4B98471A4BD3F8A03003F02003D6
S1132860002B14BF01230023FB73FB7B1846154B7D
S1132870984703461A46144B1A70134B1B78002BC7
S113288005D000223C211148114B984704E0002256
S113289078210E480E4B984706490E480E4B984730
S11328A00C480E4B9847084B1B7818461037BD460A
S11328B080BD00BF8000002011280000D92700003F
S11328C000800041E102000094000020006001410A
S11328D0CD29000098000020C10E00006D0E0000FC
S11328E080B500AF0B4B98470B4B19229A600A4BEB
S11328F00A4ADA60084B01221A7407490848094B4E
S113290098470748084B984778210848084B984748
S1132910FEE700BFD10200006C0000203128000057
S1132920C0000020C10E00006D0E000000600141D7
S11329300D2A000080B483B000AF7860396000BF16
S11329407B689A683B681340002BF9D100BF0C37B1
S1132950BD465DF8047B704780B483B000AF7860F7
S113296039607B683A68DA6200BF0C37BD465DF8AF
S1132970047B704780B582B000AF786039607B68B3
S11329803A681A6480217868024B984700BF083778
S1132990BD4680BD3529000080B584B000AFF86025
S11329A00B467A60FB72FB7AFA6810339B0013447F
S11329B07A685A604FF47C51F868034B984700BF1B
S11329C01037BD4680BD00BF3529000080B584B0F6
S11329D000AFF860B9601346FB71FB79BA68194619
S11329E0F868084B9847FB79012202FA03F31B02AB
S11329F003F47C531946F868034B984700BF10371B
S1132A00BD4680BD992900003529000080B582B0FB
S1132A1000AF7860396039687868054B9847802141
S1132A207868044B984700BF0837BD4680BD00BF97
S1132A30752900003529000080B500AF4FF48031BE
S1132A400448054B9847054B1B680248984700BF4C
S1132A5080BD00BF0060014159290000EC00002046
S1132A6070B50D4E0D4CA41BA4100025A54209D130
S1132A700B4E0C4C00F09AF8A41BA4100025A542A0
S1132A8005D170BD56F8253098470135EEE756F864
S1132A90253098470135F2E7B82B0000B82B000029
S1132AA0B82B0000BC2B0000000100010100000055
S1132AB000010100010000002E2E2F68706C2F70A1
S1132AC06F72742F68706C5F6770696F5F62617397
S1132AD0652E68002E2E2F68616C2F7372632F6829
S1132AE0616C5F74696D65722E6300002E2E2F6811
S1132AF0616C2F7372632F68616C5F75736172749C
S1132B005F73796E632E63002E2E2F68616C2F75B0
S1132B1074696C732F7372632F7574696C735F6C53
S1132B206973742E630000002E2E2F68706C2F734F
S1132B306572636F6D2F68706C5F736572636F6D20
S1132B402E630000003000400034004000200141AA
S1132B50004001410000004300040043000800431A
S1132B60000C004300000000000000000000000012
S1132B7000000000000000002E2E2F68706C2F74DF
S1132B80632F68706C5F74632E630000003800402C
S1132B90003C004000A0014100C00141001400427B
S1132BA0001800420014004300180043F8B500BFA9
S1132BB0F8BC08BC9E46704789020000F8B500BF07
S10F2BC0F8BC08BC9E467047650200008B
S1132BCC000000000400104000000300020070002C
S1132BDCB9FC00000000000000006B0008030000BA
S1132BEC00000000983A00000000000002006D0094
S1132BFC080300000000000060E316000000000061
S9030000FC
